:020000040800F2
:1000000070070020450200087B25000871240008C5
:10001000792500086907000825360008000000005F
:10002000000000000000000000000000F93100089E
:100030006B070008000000007D250008FB31000868
:100040005F0200085F0200085F0200085F0200080C
:100050005F0200085F0200085F0200085F020008FC
:100060005F0200085F0200085F0200085F020008EC
:100070005F0200085F0200085F0200085F020008DC
:100080005F0200085F0200085F0200080000000035
:100090000000000000000000000000005F020008F7
:1000A0005F0200085F0200085F0200085F020008AC
:1000B0005F0200085F0200085F0200085F0200089C
:1000C0005F0200085F0200085F0200085F0200088C
:1000D0005F020008193600085F02000800000000F7
:1000E0005F0200085F0200085F02000800000000D5
:1000F0000000000000000000000000005F02000897
:10010000000000005F0200085F0200085F020008B4
:1001100000000000000000000000000000000000DF
:100120005F0200085F0200085F0200085F0200082B
:100130005F02000800000000000000000000000056
:100140000000000000000000000000005F02000846
:100150005F0200085F0200085F0200085F020008FB
:100160005F0200085F0200080000000000000000BD
:10017000000000000000000000000000000000007F
:10018000000000005F020008000000000000000006
:100190005F02000800F002F800F044F80AA090E8BE
:1001A000000C82448344AAF10107DA4501D100F032
:1001B00039F8AFF2090EBAE80F0013F0010F18BFBB
:1001C000FB1A43F0010318476C3700008C3700001E
:1001D000103A24BF78C878C1FAD8520724BF30C873
:1001E00030C144BF04680C60704700000023002445
:1001F00000250026103A28BF78C1FBD8520728BF37
:1002000030C148BF0B607047642900F01D8173291D
:1002100000F0EB81002070471FB503F06FFB1FBD9E
:1002200010B510BD00F014FA1146FFF7F5FF03F00A
:1002300015FA00F032FA03B4FFF7F2FF03BC00F046
:1002400039FA00000948804709480047FEE7FEE701
:10025000FEE7FEE7FEE7FEE7FEE7FEE7FEE7FEE776
:1002600004480549054A064B7047000095320008CE
:100270009501000870010020700700207003002025
:100280007003002053EA020C00F069802DE9F04B66
:100290004FF00006002B1FBFB3FA83F503FA05F4F5
:1002A00024FA05F65E4012BF1643B2FA82F502FA4E
:1002B00005F4C5F120051EBF22FA05FC44EA0C0432
:1002C000203556EA044C4FEA144418BF641C4FF022
:1002D00000084FF00009904271EB030C39D300295C
:1002E00019BFB1FA81F701FA07F6B0FA80F700FA00
:1002F00007F6C7F120071EBF20FA07FC46EA0C06E6
:100300002037B6FBF4FCA7EB0507103F07F01F0BE7
:10031000CBF120060CFA0BFB2CFA06F644BFB346D1
:100320000026202FA4BF5E464FF0000B5BEA060CB0
:1003300008BF4FF0010B19EB0B09ABFB027C48EB3C
:100340000608C01B06FB02CC0BFB03CC71EB0C01B7
:10035000C1E70B46024641464846BDE8F08B13B55F
:100360004FF000004FF00001AFF30080BDE81C40EB
:10037000704700000FB4044910B503AA029800F0BA
:1003800039F910BC5DF814FB100000202DE9F04194
:100390000E460446002020622046E168884730B3BC
:1003A000252805D0D4E901219047206A401CF2E7B6
:1003B000E168204600278847050018D0A5F14100D4
:1003C000192802D820354FF40067324629462046C6
:1003D0002760FFF719FF40B1012804D0F61D26F071
:1003E00007060836D8E7361DD6E72846DAE7206A3A
:1003F000BDE8F08170B50C460546012A05D0287885
:10040000800600D5EA69002302E0012305E05B1CB9
:10041000934202D2E05C0028F9D1A869E618C01A1C
:10042000A861286A184428622846AFF3008004E0D7
:10043000D5E9012114F8010B9047B442F8D32846BE
:10044000AFF3008070BD00002DE9F04106460024A6
:1004500010687529314616A510D0AFF3008000282A
:1004600002DA404213A507E031688A0701D512A5D8
:1004700002E0490704D511A5012401E0AFF3008093
:1004800000210A2206F1240709E0B0FBF2FCB0FBD0
:10049000F2F302FB1C00303078541846491C002847
:1004A000F3D123462A463046BDE8F04100F032B889
:1004B000000000002D0000002B00000020000000C4
:1004C0004FF0000200B5134694469646203922BFED
:1004D000A0E80C50A0E80C50B1F12001BFF4F7AF38
:1004E000090728BFA0E80C5048BF0CC05DF804EB1A
:1004F000890028BF40F8042B08BF704748BF20F888
:10050000022B11F0804F18BF00F8012B7047704785
:10051000704770472DE9F0470D46994692460446CC
:1005200000F124080168880604D5E06921F0100173
:10053000216000E00120A84201DD471B00E0002708
:10054000A1697A1902EB0900081AA0612078C00697
:1005500002D42046AFF30080002608E0D4E9012150
:100560001AF806009047206A401C761C20624E450F
:10057000F4DB2078C0060AD52046AFF3008006E001
:10058000D4E9012130209047206A401C2062381EA7
:10059000A7F10107F4DC07E0D4E9012118F8050010
:1005A0009047206A401C2062281EA5F10105F3DC5B
:1005B0002046AFF300802078000602D50220BDE877
:1005C000F0870120FBE710B5436913B1AFF300805A
:1005D00001E0FFF70FFF012010BD127800F12401A8
:1005E0000A7000224A700122EDE711684FF0FF32D5
:1005F000E9E70000074B70B50D467B4400F011F8A9
:100600000446284600F020F810B14FF0FF3070BDCE
:10061000204670BD4B30000001694A1C0261087819
:10062000704700B58FB0CDE9013100210591054932
:100630007944CDE9031011466846FFF7A7FE0FB0D5
:1006400000BD0000E5FFFFFF007B00F08000704769
:10065000754600F02BF8AE4605006946534620F07B
:100660000700854618B020B5FFF7FAFDBDE8204029
:100670004FF000064FF000074FF000084FF0000B5E
:1006800021F00701AC46ACE8C009ACE8C009ACE811
:10069000C009ACE8C0098D46704710B50446AFF3F9
:1006A00000802046BDE81040FFF7C5BD00487047F8
:1006B0001001002001491820ABBEFEE72600020011
:1006C000704700000146014801F03AB93C000020A3
:1006D00010B5044801F046F9042801D0012010BDEE
:1006E000002010BD3C00002010B500F015F80128D6
:1006F00001D0012010BD074801F04AF9044634B981
:100700004FF40061034800F073FF00B1012420465C
:1007100010BD00003C00002081B0012000909DF839
:10072000000001B07047000038B500240093134664
:100730000A460146034801F033FA00B1012420467D
:1007400038BD00003C00002038B50024009313465B
:100750000A460146034801F00FFB00B10124204680
:1007600038BD00003C000020FEE7704772B6FEE78F
:10077000002200F001B8000010B4844601200E4BA6
:100780005C7A002C16D1587A1C54587A03EB8000FE
:10079000C0F804C0587A03F1080C00F80C20587A0D
:1007A000421C5A72303008703A2048702F208870EE
:1007B000CC70002010BC7047040100202DE9F041EE
:1007C0000446876D00F028FA064694F835000025A7
:1007D000022806D08020606584F834500120BDE8EE
:1007E000F0812068016821F01601016020684169EC
:1007F00021F080014161206C08B9A06C20B1206813
:10080000016821F0080101602068016821F0010100
:1008100001600CE000F000FA801B052807D92020B9
:100820006065032084F8350084F83450D7E72068E9
:100830000068C007EED194F85C103F208840B86093
:10084000012084F8350084F834500020C7E790F880
:100850003510022903D08021416501207047052110
:1008600080F835100068016821F001010160002066
:100870007047000070B5044600F0CEF90546601CD4
:1008800002D004480078044400F0C6F9401BA0429E
:10089000FAD370BD000000202DE9F84FDFF84CB20C
:1008A0000D460446584512D0914884420FD09148D5
:1008B00084420CD09048844209D09048844206D0AB
:1008C0008F48844203D0AC218EA002F0BCFE286881
:1008D0000104090C01D0000C03D0AD2189A002F065
:1008E000B2FE6868F8B101281DD011281BD002287B
:1008F00019D0122817D0B0F5881F14D0B0F5041FF6
:1009000011D0B0F5441F0ED0B0F5901F0BD0B0F54C
:10091000081F08D0B0F5481F05D0032803D0AE212A
:1009200078A002F090FE00264FF0010A4FF0030974
:100930000AFA06F02F688046074047457DD128799E
:1009400000F00300012801D002281DD1E86848B159
:10095000012807D0022805D0032803D0C02169A0B0
:1009600002F071FEA068720009FA02F18843E9689A
:1009700091400143A1606068297920EA0800C1F331
:100980000011B140014361602879C043800712D053
:10099000A86838B1012805D0022803D0D12159A078
:1009A00002F051FEE068720009FA02F18843A9687A
:1009B00091400143E160287900F0030002282AD128
:1009C0002869D8B10C2819D0012817D0022815D0D1
:1009D000032813D0042811D005280FD006280DD0E5
:1009E00007280BD0082809D0092807D00A2805D0E5
:1009F0000F2803D0DE2143A002F025FEF00804EB0F
:100A00008003186A7107CA0E0F2191408843296933
:100A10009140014319622068720009FA02F188438B
:100A2000297901F00301914001432160686810F4C5
:100A3000403F55D04248016800E051E041F4804118
:100A40000160006826F0030100F4804000903D48FA
:100A50000A18D2F80808B1070B0F0F2199408843F4
:100A60005C4501D1002114E021498C4201D10121D2
:100A70000FE020498C4201D102210AE01E498C423C
:100A800001D1032105E01D498C4201D1042100E080
:100A9000072199400143C2F808182B4908686A6881
:100AA000B843D20200D5384308602749091D0868B9
:100AB0006A68B843920200D5384308602249091F8A
:100AC00008686A68B843920300D5384308601E4935
:100AD000083908686A68B843D20300D5384308600B
:100AE000761C102EFFF424AFBDE8F88F0000024002
:100AF0000004024000080240000C024000100240C6
:100B0000001C02402E2E2F447269766572732F539B
:100B1000544D3332463478785F48414C5F447269B3
:100B20007665722F5372632F73746D333266347827
:100B3000785F68616C5F6770696F2E63000000000A
:100B40004438024000300140083C014070B50C00C0
:100B5000054604D14FF4DB7105A002F074FD69690C
:100B600024EA0100214040EA0140A86170BD000074
:100B70002E2E2F447269766572732F53544D333283
:100B8000463478785F48414C5F4472697665722FCD
:100B90005372632F73746D3332663478785F686193
:100BA0006C5F6770696F2E630000000070B51546BA
:100BB0000C00064604D140F29D1108A002F043FD4E
:100BC00045B1012D04D04FF4CF7104A002F03BFDDC
:100BD000B46170BD2004B06170BD00002E2E2F44A2
:100BE0007269766572732F53544D33324634787878
:100BF0005F48414C5F4472697665722F5372632F70
:100C000073746D3332663478785F68616C5F6770D7
:100C1000696F2E6300000000014880687047000083
:100C2000000000200248816802781144816070470A
:100C3000000000200B4810B5016841F4007101600C
:100C4000016841F480610160016841F480710160D4
:100C5000032000F0C3F80F2000F006F800F024F89D
:100C6000002010BD003C024070B50D4D04464FF40D
:100C70007A712878B1FBF0F00A490968B1FBF0F00D
:100C800001F050F948B9102C07D200222146501E1D
:100C900000F054F800206C6070BD012070BD0000B1
:100CA000000000200C0000200A4808B5016841F44B
:100CB00080410160006800F4804000900548001FFA
:100CC000016841F080510160006800F080500090A0
:100CD00008BD00004438024010B5040003D5BC2113
:100CE00007A002F0B0FC002C09DB04F01F0101207A
:100CF00088406109890001F1E021C1F8000110BDBF
:100D00002E2E2F447269766572732F53544D3332F1
:100D1000463478785F48414C5F4472697665722F3B
:100D20005372632F73746D3332663478785F686101
:100D30006C5F636F727465782E63000070B5154642
:100D40000C460646102A03D3A82114A002F07BFC0F
:100D5000102C03D3A92111A002F075FC1E480068D5
:100D6000C0F30223C3F107022046042A00D904225B
:100D7000191D072901D2002300E0DB1E012404FA1B
:100D800002F1491E014099409C40641E2C402143C1
:100D90003046BDE8704002F046BC00002E2E2F44C5
:100DA0007269766572732F53544D333246347878B6
:100DB0005F48414C5F4472697665722F5372632FAE
:100DC00073746D3332663478785F68616C5F636F1B
:100DD000727465782E6300000CED00E010B50446D7
:100DE00007280BD0062C09D0052C07D0042C05D0E1
:100DF000032C03D0902108A002F025FC154904F033
:100E0000070208684FF6FF03184040EA0220124A22
:100E10001043086010BD00002E2E2F4472697665C5
:100E200072732F53544D3332463478785F48414CB7
:100E30005F4472697665722F5372632F73746D33DA
:100E400032663478785F68616C5F636F727465785E
:100E50002E6300000CED00E00000FA052DE9F047DC
:100E60000E4604007DD02068401E0E2804D940F2B2
:100E70005A217AA002F0E7FB96B1012E10D0022E83
:100E80000ED0032E0CD0042E0AD0052E08D0062E2C
:100E900006D0072E04D040F25B2170A002F0D3FBF5
:100EA000DFF8F081D8F80000F7B200F00700B04298
:100EB00007D288F80070D8F8000000F00700B042B0
:100EC0004FD12068744D810729D5400703D5286884
:100ED00040F4E05028602078000703D5286840F4EB
:100EE00060402860A068A0B1802812D0902810D05F
:100EF000A0280ED0B0280CD0C0280AD0D02808D006
:100F0000E02806D0F02804D040F27E2153A002F061
:100F10009AFB2868A16820F0F00008432860207838
:100F2000C00743D0DFF870916068A9F1080988B163
:100F3000012822D0022824D0032822D040F2852183
:100F400046A002F080FB6068012816D0022818D065
:100F5000032816D0D9F800008007002833DA286863
:100F600000E030E0616820F0030008432860FFF7EC
:100F700053FE814641F2883A11E0D9F8000080031F
:100F8000EBE7D9F800008001E7E700BFFFF744FE78
:100F9000A0EB0901514502D90320BDE8F08728687C
:100FA000616800F00C00B0EB810FEFD1D8F80010B1
:100FB000404601F00701B14207D90770006800F010
:100FC0000700B04201D00120E7E720784FF48056B7
:100FD00040074FF4A0574FF4C0584FF4E05914D5D0
:100FE000E06860B1B0420AD0B84208D0404506D0AF
:100FF000484504D040F2C32118A002F024FB286821
:10100000E16820F4E050084328602078000715D5F7
:10101000206960B1B0420AD0B84208D0404506D03D
:10102000484504D040F2CA210CA002F00CFB28680D
:10103000216920F4604040EAC100286000F054F8C3
:101040002968164AC1F30311515CC840144908606D
:1010500014480068FFF708FE00209EE72E2E2F445C
:101060007269766572732F53544D333246347878F3
:101070005F48414C5F4472697665722F5372632FEB
:1010800073746D3332663478785F68616C5F726355
:10109000632E6300003C0240083802400639000815
:1010A0000C0000200400002004480549006809687D
:1010B000044AC1F38221515CC84070470C000020F3
:1010C00008380240163900080448054900680968D4
:1010D000044AC1F34231515CC84070470C00002003
:1010E0000838024016390008154810B5006810F09D
:1010F0000C02144813D04110042A0FD0082A0ED134
:101100000F4C241F2268236802F03F025B0207D5C0
:101110002068C0F38810A0FB010106E0084610BD5E
:101120002168C1F38811A1FB00010023FFF7AAF891
:101130002168C1F30141491C4900B0FBF1F010BD29
:10114000083802400024F4002DE9F84F04007DD057
:1011500020680F2803D9E621F7A002F074FA20785E
:10116000DFF80C94C007A9F1040555D060684FF46E
:1011700080364FF4A02738B1B04205D0B84203D032
:10118000EB21EDA002F05FFAF948001D0168C1F300
:101190008101012908D00068C0F3810002280AD12A
:1011A000D9F80000400206D52868800334D560686D
:1011B0000028CCD030E06068B04203D1286840F409
:1011C00080300CE0B842286803D140F480202860C9
:1011D000F4E720F480302860286820F4802028601C
:1011E000606860B1FFF718FD064604E0FFF714FDE4
:1011F000801B64287ED828688003F7D50CE0FFF7B1
:101200000BFD064605E000BFFFF706FD801B6428C6
:10121000F0D828688003F7D42078DFF85883800757
:101220004FF0000A56D5E06830B1012804D040F2F2
:101230001D11C1A002F007FA20691F2804D94FF43C
:101240008F71BDA002F0FFF9C94800E092E0001DD7
:10125000016811F00C0F08D00068C0F3810002286B
:1012600010D1D9F8000040020CD42868800702D5BC
:10127000E06801287ED12868216920F0F80040EA62
:10128000C10017E0E068B8B10120C8F80000FFF71E
:10129000C3FC064605E000BFFFF7BEFC801B02282A
:1012A000A8D828688007F7D5286820F0F8012069B9
:1012B00041EAC00028600DE0C8F800A0FFF7ACFCD0
:1012C000064604E0FFF7A8FC801B022892D8286895
:1012D0008007F7D4207800072ED5A54EA64F606969
:1012E0007036D0B1012808D04FF4AF7192A002F04F
:1012F000AAF900E04BE1606978B101203860FFF79E
:101300008BFC074605E000BFFFF786FCC01B0228E8
:10131000C6D830688007F7D50EE0C7F800A0FFF701
:101320007BFC074605E000BFFFF776FCC01B0228E8
:10133000B6D830688007F7D42078400776D5A06803
:10134000002740B1012806D0052804D04FF4C5710C
:1013500079A002F078F9DFF818B20BF13C0BDBF85A
:101360000000C0000DD4DBF8001041F08051CBF834
:10137000001000E038E1DBF80000012700F08050A9
:1013800000907E4E3068C00511D4306840F4807003
:101390003060FFF741FC009006E000BFFFF73CFC27
:1013A0000099401A022891D83068C005F6D5704ED1
:1013B000A0686C3601280FD00528306810D020F0C6
:1013C00001003060306820F004003060A068B8B1DF
:1013D000FFF722FC00900FE0306840F00100F4E7D6
:1013E00040F004003060F7E7FFF716FC0099411A5F
:1013F00041F2883081428BD830688007F4D50EE006
:10140000FFF70AFC009007E0FFF706FC0099411A7D
:1014100041F2883081428BD830688007F4D42FB1F4
:10142000DBF8001021F08051CBF80010A0690028F3
:1014300076D0012809D0022807D040F2CD113EA075
:1014400002F001F9A0690028F2D04948001D0068A7
:10145000C0F381000228A0696DD0022805D0C8F829
:1014600060A0FFF7D9FB044694E0E06938B1B0F51D
:10147000800F04D04FF4EB712FA002F0E4F8206A43
:101480003F2804D940F2D7112BA002F0DCF8606AA3
:101490003238B0F5BF7F04D94FF4EC7126A002F0CA
:1014A000D2F8A06A02280AD0042808D0062806D05C
:1014B000082804D040F2D9111FA002F0C4F8E06A55
:1014C000801E0D2804D94FF4ED711BA002F0BBF86B
:1014D0004746C8F860A0FFF79FFB064605E000BF3F
:1014E000FFF79AFB801B022851D828688001F7D4A7
:1014F000D4E907010843A16A214A490802EB0141E6
:10150000626A41EA8211084394F82C1040EA0161B2
:10151000C9F8001001203866FFF77EFB044606E09C
:1015200064E000BFFFF778FB001B02282FD8286873
:101530008001F7D55AE031E02E2E2F44726976658E
:1015400072732F53544D3332463478785F48414C90
:101550005F4472697665722F5372632F73746D33B3
:1015600032663478785F68616C5F7263632E630003
:101570000438024000004742800E4742007000409D
:101580000000FFFFFFF748FB001B022802D90320E1
:10159000BDE8F88F28688001F4D427E00128F7D04F
:1015A000D9F80000E26900F4800191421CD1226A5E
:1015B00000F03F01914217D147F6C071626A0140C5
:1015C000B1EB821F10D1A26A4FF0FF3300F440311B
:1015D00003EB5202B1EB024F06D194F82C1000F04D
:1015E0007060B0EB016F01D00120D1E70020CFE7A0
:1015F0002DE9FE430D0004464FF000064FF48058DD
:101600004FF4006708D0BD4206D0454504D040F6EF
:10161000C40142A002F017F8032084F83400606C83
:1016200003285BD0454559D000204FF08068BD426B
:101630001FD18146009001900021206801F01EF822
:10164000800113D46946204601F032FC07000DD119
:101650000198400334D5B4F850000104206801F02B
:101660001CF9070002D10221206823E0A06B384357
:1016700028E01DB1A06B40F0006023E0814600909F
:1016800001900021206800F0F9FF8001EED4694646
:10169000204601F00DFC0700E8D10198C0030FD5EA
:1016A000B4F850000104206801F0F7F80700DDD11C
:1016B0000021206801F03DF90700D7D14F46D5E75A
:1016C0004746D3E7A063A06B224F4FF0010848B113
:1016D0002068876384F8348001260EE0A06B40F018
:1016E0008050EFE7211DD4E9050C0EC9CDE900506B
:1016F000CDF808C0206800F0F1FF4FF400712068B9
:1017000001F0FEF828B121688F63A16B0143A1634A
:10171000012684F834803046BDE8FE832E2E2F4407
:101720007269766572732F53544D3332463478782C
:101730005F48414C5F4472697665722F5372632F24
:1017400073746D3332663478785F68616C5F73648C
:101750002E630000FF05400050F8742F120E0A702F
:101760000268120A4A8002784368120642EA13228B
:101770004A6002790A728268120E4A728268C368ED
:10178000120242EA1362CA60C268C2F303520A74C8
:10179000C268C2F30B224A82007BC0F34600087580
:1017A0000120487500207047F0B5426E920F0A7014
:1017B000426EC2F383624A70426EC2F301628A7063
:1017C000426E120CCA70B0F86420120A0A7190F8C6
:1017D00064204A71826E120DCA80826EC2F3034287
:1017E0000A72B0F86820C2F3C0324A72B0F86820BA
:1017F000C2F380328A72B0F86820C2F34032CA72F3
:10180000B0F86820C2F300320A7300264E73426CAF
:101810004FF40075012462B1012A3AD002684749A9
:101820009163816B41F08051816380F834400120E5
:10183000F0BDB0F86820C36E9205120D42EA9372B3
:101840000A61C26EC2F3C2620A75C26EC2F302625C
:101850004A75C26EC2F342528A75C26EC2F38242A8
:10186000CA75C26EC2F3C2320A760A69521C426558
:101870000B7E03F007039B1C9A4042650B7A03F032
:101880000F0704FA07F383655B0A5A43C0E917257B
:101890000EE090F86820C36E9206920A42EA134264
:1018A0000A610A69521C92024265C0E91652056635
:1018B00030F86C2FC2F3803201F8192F0288C2F37E
:1018C000C6124A70027802F07F028A704268D20F14
:1018D000CA704268C2F341720A714268C2F38262FE
:1018E0004A714268C2F383528A714268C2F340521D
:1018F000CA710E724268C2F300424A728288C2F311
:10190000C0328A728288C2F38032CA728288C2F37D
:1019100040320A738288C2F300324A738288C2F36B
:1019200081228A738288C2F30122CA730079C0F3CC
:10193000460008744C740020F0BD0000FF05400014
:10194000426C0A60826C4A60C26C8A60026DCA6036
:10195000426D0A61826D4A61C26D8A61006EC86122
:101960000020704770B50446B0F85000002501040F
:10197000206801F0C6F818B1A16B0143A16304E02F
:101980000021206800F07AFE0546C5F3432070BDB3
:1019900070B5040054D02F492068884204D04FF419
:1019A000AC712DA001F04FFE606838B1B0F5005F5A
:1019B00004D040F2591128A001F045FEA06838B1CA
:1019C000B0F5806F04D04FF4AD7123A001F03BFE61
:1019D000E06838B1B0F5007F04D040F25B111EA082
:1019E00001F031FE206950B1B0F5006F07D0B0F5BD
:1019F000805F04D04FF4AE7117A001F024FE60693F
:101A000038B1B0F5804F04D040F25D1112A001F062
:101A10001AFEA069FF2804D94FF4AF710EA001F09F
:101A200012FE94F83400002518B92577204600F0FE
:101A30006DF8032084F83400204600F029F808B13E
:101A4000012070BDA5632563012084F834000020C7
:101A500070BD0000002C01402E2E2F447269766567
:101A600072732F53544D3332463478785F48414C6B
:101A70005F4472697665722F5372632F73746D338E
:101A800032663478785F68616C5F73642E6300003F
:101A9000FEB50025044676200095CDE90150294683
:101AA0000B460A46206800F019FE48BB154E46F862
:101AB000A05F206800F088FE012535600220FEF757
:101AC000D9FE204601F0D8FA30B100BF84F8345076
:101AD000A16B0143A16313E0204601F056FA0028F0
:101AE000F4D14FF40071206800F00AFF002808D0FC
:101AF000226805499163A16B0143A16384F83450C6
:101B00000120FEBD00802542FF054000F0B587B0F2
:101B1000044614216846FEF7D3FC1D49206888421C
:101B200033D11C480024016841F400610160006861
:101B300000F40060059017481438016841F0040172
:101B40000160016801F004010591016841F008019C
:101B500001600068022500F0080005904FF4F8507D
:101B6000CDE9000502AA03260C2782E8D0006946C9
:101B70000948FEF791FE0420CDE9000502AA694656
:101B800082E8D0000548FEF787FE07B0F0BD0000F0
:101B9000002C01404438024000080240000C024082
:101BA0002DE9F04F87B09B4616460D460446FFF7D9
:101BB00033F800903DB194F83400012807D0A06BB1
:101BC00040F000500DE0A06B40F0006009E0002004
:101BD000A063E26D06EB0B01914204D9A06B40F0CB
:101BE0000070A06386E0032184F834102168C86285
:101BF000616C012900D076024FF0FF3101914FEA6C
:101C00004B2102914FF0010803AA9021022781463F
:101C1000CDF8188082E8820201A9206800F0B0FCAB
:101C2000BBF1010F05D927633146206800F0DAFEC9
:101C300005E0C4F830803146206800F0ECFEDFF8A3
:101C400034A130B12268C2F838A0A16B0143A1636E
:101C50004CE0029E1EE0406B000413D596B10027B5
:101C6000206800F0B5FD05F8010B010A05F8011B1D
:101C7000010C05F8021B000E361F7F1C05F8010C35
:101C8000082FEDD3FEF7C8FF0099411A1098814242
:101C90001DD2E0B12068426B40F22A310A42DAD00C
:101CA000416BC90509D5BBF1010F06D9616C032948
:101CB00003D000F057FF0028C4D12068416B09070A
:101CC0001AD5C0F838A0A06B40F0080050E0216899
:101CD000C1F838A0A06B40F00040A06384F83480C5
:101CE000C4F83090032007B0BDE8F08F84F834804A
:101CF000C4F830900120F6E7416B890705D5C0F89C
:101D000038A0A06B40F0020032E0416B89061BD581
:101D1000C0F838A0A06B40F0200029E000F058FD8A
:101D200005F8010B010A05F8011B010C05F8021B5F
:101D3000000E05F8010C361FFEF76EFF0099411AE0
:101D4000109881420ED268B12068416B890201D59A
:101D5000002EE3D1216840F23A50886384F8348041
:101D60000020C0E72168C1F838A0A06B40F0004017
:101D7000A063BBE7FF0540002DE9F04F8DB09B4607
:101D800016460D460446FEF747FF0A903DB194F80B
:101D90003400012807D0A06B40F000500DE0A06B8C
:101DA00040F0006009E00020A063E26D06EB0B014B
:101DB000914204D9A06B40F00070A0637AE0032147
:101DC00084F834102168C862616C012900D0760261
:101DD0004FF0FF3103914FEA4B2104919021CDE95F
:101DE00005104FF00109CDE90709824603A92068D3
:101DF00000F0C6FBBBF1010F06D92020206331465D
:101E0000206800F0C9FE05E01020206331462068FC
:101E100000F0DBFE5FEA000806D0216840488863D6
:101E2000A06B40EA080071E0049E27E0406B40048C
:101E30001CD5DEB15FF0000715F8010B009015F816
:101E4000011B361F40EA0120009015F8021B40EAF2
:101E50000140009015F8011C40EA016000906946BD
:101E6000206800F015FD7F1C082FE5D3FEF7D4FE97
:101E70000A99411A1698814220D2F8B12068416B24
:101E800040F21A321142D1D0416BC90523D5BBF1C2
:101E9000010F20D9616C03291DD000F063FED0B181
:101EA00022681F499163A16B0143A16384F83490B8
:101EB000C4F830A001200DB0BDE8F08F21681848AB
:101EC0008863A06B40EA0800A06384F83490C4F8EB
:101ED00030A00320EFE72068416B090705D51049C2
:101EE0008163A06B40F0080010E0416B890705D5C5
:101EF0000B498163A06B40F0020007E0416BC9060B
:101F000006D507498163A06B40F01000A063CDE7C0
:101F100040F23A51816384F834900020CBE700000E
:101F2000FF05400010B5401EB0F1807F01D30120B5
:101F300010BD4FF0E02460610F21601701F073FBCA
:101F40000020A06107202061002010BD704770476D
:101F5000F8B5016804460868CA684B6910F00F0FAD
:101F60004FF0000559D003F0010602F49077374393
:101F700065D0C10705D0D10503D5216C41F0010121
:101F80002164410705D5D90703D0216C41F0020136
:101F90002164810705D5D90703D0216C41F00401E4
:101FA0002164010707D502F02001314303D0216CE1
:101FB00041F008012164216C00293AD0800604D543
:101FC000900602D5204601F09CF920684069216CFA
:101FD000C0F38010090700D460B3204601F06AF90D
:101FE00020684069400621D52068143050E8001F61
:101FF00021F0400140E80012002AF5D1A06BA8B101
:102000006C490165A06BFEF722FC002811D0A06B83
:10201000016D01B0BDE8F040084783060FD5930677
:102020000DD52046BDE8F84001F06BB92046FFF71A
:102030008EFFF8BD2046FFF78AFF2564F8BD266BAA
:102040002023012E79D1C60677D5D60675D5086826
:10205000486800904869400640D5A16B0868406810
:102060000004000CEAD0A28D8242E7D9E085C8695D
:10207000B0F5807F2DD020680C3050E8001F21F48F
:10208000807140E80012002AF5D12068143050E831
:10209000001F21F0010140E80012002AF5D120685C
:1020A000143050E8001F21F0400140E80012002ADF
:1020B000F5D184F83E30256320680C3050E8001FCD
:1020C00021F0100140E80012002AF5D1A06BFEF7C4
:1020D00075FBA08DE18D401A81B229E0A08DE18DC4
:1020E000401A81B2E08D0028A8D00029A6D020682F
:1020F0000C3050E8002F22F4907240E80026002EA9
:10210000F5D12068143050E8002F22F0010240E899
:102110000026002EF5D184F83E30256320680C306F
:1021200050E8002F22F0100240E80023002BF5D1E8
:102130002046FFF70BFFF8BDFFE705062BD5150678
:1021400029D594F83D002128F5D1A068B0F5805F2D
:1021500001D12069B0B1206A411C21622168007858
:102160004860E08C401E0004000CE084E3D120684D
:10217000C16821F08001C1602068C16841F0400160
:10218000C160D8E7206A0088C0F308004860206A70
:10219000801C2062E5E74006CDD55006CBD5CA6845
:1021A000204622F04002CA6084F83D3000F05FF91A
:1021B000C1E70000A532000870B5040020D0A06976
:1021C00035490028354A364B20681BD088420AD052
:1021D000904208D0984206D040F2731131A001F02D
:1021E00032FAA069C8B1A069B0F5807F15D0B0F50A
:1021F000007F12D0B0F5407F0FD04FF4BA7109E0E4
:10220000012070BD884208D0904206D0984204D088
:102210004FF4BC7123A001F016FAA06838B1B0F5F4
:10222000805F04D04FF4BD711EA001F00CFAE0698C
:1022300038B1B0F5004F04D040F27B1119A001F085
:1022400002FA94F83D00002520B984F83C5020465D
:1022500000F046F8242084F83D002068C16821F48D
:102260000051C160204601F0ADF82068016921F4F9
:10227000904101612068416921F02A014161206893
:10228000C16841F40051C1602564202084F83D00FC
:1022900084F83E00002070BD001001400044004062
:1022A000001401402E2E2F447269766572732F53ED
:1022B000544D3332463478785F48414C5F447269FC
:1022C0007665722F5372632F73746D333266347870
:1022D000785F68616C5F756172742E630000000046
:1022E00010B586B0044614216846FEF7E9F818498F
:1022F0002068884229D117480021026842F0100264
:102300000260006800F0100005901248143802685E
:1023100042F001020260006800F0010005904FF4F5
:10232000C06000900220CDE9010103200390072046
:10233000049069460848FEF7AFFA002211462520AE
:10234000FEF7FCFC2520FEF7C7FC06B010BD000020
:1023500000100140443802400000024090F83E3036
:10236000202B0ED159B152B190F83C30012B08D03E
:10237000012380F83C300023036301F0F3B801200F
:10238000704702207047000010B500680849884275
:102390000DD1012207490848FFF7E0FFBDE81040D2
:1023A0004FF47A7301220349034800F007B810BDC7
:1023B0000010014014000020C00000202DE9F84367
:1023C000044690F83D001F4616460D4620284CD185
:1023D000C5B1BEB194F83C00012846D0012084F874
:1023E0003C004FF00008C4F84080212084F83D00F4
:1023F000FEF712FCA6848146E684A068B0F5805FF3
:1024000003D004E00120BDE8F883206928B12E46FE
:102410005FF0000584F83C800EE00026FAE780219A
:10242000204601F0BCF8A0B9AEB116F8010B216846
:102430004860E08C401EE084E08C4B464FF0000288
:1024400000970028EBD14FF04001204601F0A7F89B
:1024500030B10320D7E735F8020BC0F30800E6E7F8
:10246000202084F83D000020CDE70220CBE7704714
:10247000FEE7000010B503490348FEF779F9034968
:10248000087010BD17000020203900081600002039
:1024900070B586B014216846FEF712F81E48002574
:1024A000016841F004010160016801F00401059137
:1024B000016841F080010160016801F0800105912F
:1024C000016841F001010160016801F0010105911D
:1024D000016841F0080101600068104E00F008003A
:1024E0000590012207213046FEF760FB4FF40050B3
:1024F000CDE900050124694602943046FEF7CCF987
:102500000720CDE9000469463046CDE90245FEF7D3
:10251000C3F906B070BD0000303802400008024028
:10252000064805490160002141608160C160016188
:102530004161022181617047002C01403C00002074
:102540000C4810B50A4901604FF4E13141600021A7
:1025500081600C22C160C0E904128161C161FFF792
:102560002BFE002803D0BDE81040FEF7FFB810BDD9
:1025700000100140C0000020FEE7FEE770470000A9
:1025800070B5054648680C46B0F1007F04D34FF49F
:10259000D27129A001F057F8A26802B3102A1ED008
:1025A000202A1CD0302A1AD0402A18D0502A16D0FF
:1025B000602A14D0702A12D0802A10D0902A0ED00F
:1025C000A02A0CD0B02A0AD0C02A08D0D02A06D01F
:1025D000E02A04D040F2A51117A001F034F8E06819
:1025E00030B1022804D04FF4D37113A001F02BF8BE
:1025F000206930B1042804D040F2A7110EA001F0E8
:1026000022F8606930B1012804D04FF4D4710AA0D7
:1026100001F019F8206868626068A862D4E90201D4
:102620000843D4E9041211430843E96A21F0F70191
:102630000143E962002070BD2E2E2F447269766539
:1026400072732F53544D3332463478785F48414C7F
:102650005F4472697665722F5372632F73746D33A2
:1026600032663478785F6C6C5F73646D6D632E6373
:1026700000000000006800F00300704770B50C0017
:1026800005460AD0042C08D0082C06D00C2C04D007
:1026900040F28F1102A000F0D6FF2819406970BDEA
:1026A0002E2E2F447269766572732F53544D333238
:1026B000463478785F48414C5F4472697665722F82
:1026C0005372632F73746D3332663478785F6C6C39
:1026D0005F73646D6D632E63000000002DE9F047A9
:1026E000804608A80C4690E84006274917461D4634
:1026F000884503D0D42125A000F0A5FF34B1B4F55E
:10270000005F03D0D52121A000F09DFF37B1B7F5C0
:10271000806F03D0D6211DA000F095FF35B1B5F52F
:10272000007F03D0D72119A000F08DFF4EB1B6F580
:10273000006F06D0B6F5805F03D0D82113A000F05B
:1027400082FFB9F1000F06D0B9F5804F03D0D9212F
:102750000EA000F078FFBAF1FF0F03D9DA210BA029
:1027600000F071FF3C4335432C4344EA0904D8F898
:10277000040044EA0A0447F6FF6188432043C8F88E
:1027800004000020BDE8F087002C01402E2E2F44CD
:102790007269766572732F53544D333246347878AC
:1027A0005F48414C5F4472697665722F5372632FA4
:1027B00073746D3332663478785F6C6C5F73646DFC
:1027C0006D632E630000000003210160002070474C
:1027D000D0F880007047000070B5054648680C4688
:1027E000402804D34FF4B0711AA000F02CFFA06869
:1027F00040B1402806D0C02804D040F2611115A095
:1028000000F021FFE06850B1B0F5807F07D0B0F54F
:10281000007F04D04FF4B1710EA000F014FF2069C6
:1028200038B1B0F5806F04D040F2631109A000F018
:102830000AFF2068A860D4E901100143D4E903022B
:1028400010430143E8686FF30B000843E860002081
:1028500070BD00002E2E2F447269766572732F535F
:10286000544D3332463478785F48414C5F44726946
:102870007665722F5372632F73746D3332663478BA
:10288000785F6C6C5F73646D6D632E630000000095
:102890000968C0F880100020704710B586B0044663
:1028A0003720CDE9001040200290002003904FF423
:1028B0008060049069462046FFF78EFF41F288321F
:1028C0003721204600F09AF906B010BD10B5044635
:1028D0000A4886B001432920CDE90010402002902B
:1028E000002003904FF48060049069462046FFF773
:1028F00073FF204600F03AFA06B010BD00001080C9
:1029000010B586B004461020CDE90010402002909A
:10291000002003904FF48060049069462046FFF742
:102920005BFF41F288321021204600F067F906B0C3
:1029300010BD10B586B004460620CDE90010402039
:102940000290002003904FF4806004906946204676
:10295000FFF742FF41F288320621204600F04EF98F
:1029600006B010BD30B585B0002405460094019432
:102970004FF480600294CDE9034069462846FFF792
:102980002BFF0B484FF4FA510068B0FBF1F041F215
:1029900088314843401E03D24FF0004005B030BD9F
:1029A000696B0906F6D5C520A8632046F6E7000046
:1029B0000C00002010B586B004464FF4D57000908E
:1029C0000820019040200290002003904FF4806086
:1029D000049069462046FFF7FFFE204600F02CFADF
:1029E00006B010BD10B586B004461220CDE9001027
:1029F00040200290002003904FF4806004906946CC
:102A00002046FFF7E9FE41F288321221204600F00D
:102A1000F5F806B010BD10B586B004461120CDE91A
:102A2000001040200290002003904FF4806004903A
:102A300069462046FFF7D0FE41F288321121204638
:102A400000F0DCF806B010BD10B586B004460720D3
:102A5000CDE9002040200290002003904FF48060D8
:102A6000049069462046FFF7B7FE41F288320721FD
:102A7000204600F0C3F806B010BD10B586B004467D
:102A800000210220CDE90010C020CDE902014FF461
:102A90008060049069462046FFF79EFE204600F0C5
:102AA0003DF906B010BD10B586B004460920CDE949
:102AB0000010C0200290002003904FF4806004902A
:102AC00069462046FFF788FE204600F027F906B049
:102AD00010BD10B586B0044600213320CDE90010AA
:102AE0004020CDE902010001049069462046FFF72D
:102AF00073FE41F288323321204600F07FF806B0A1
:102B000010BD10B586B004460D20CDE90010402060
:102B10000290002003904FF48060049069462046A4
:102B2000FFF75AFE41F288320D21204600F066F888
:102B300006B010BD30B585B00C4605460021032017
:102B4000CDE900104020CDE9020100010490694662
:102B50002846FFF741FE22460321284600F028F9C7
:102B600005B030BD10B586B0044600210C20CDE97B
:102B700000104020CDE90201000104906946204682
:102B8000FFF72AFE034A0C21204600F037F806B072
:102B900010BD000000E1F50510B586B0044619200F
:102BA000CDE9001040200290002003904FF4806097
:102BB000049069462046FFF70FFE41F28832192142
:102BC000204600F01BF806B010BD10B586B00446D4
:102BD0001820CDE9001040200290002003904FF40F
:102BE0008060049069462046FFF7F6FD41F2883286
:102BF0001821204600F002F806B010BD454B10B574
:102C00001B684FF4FA54B3FBF4F353435B1E02D238
:102C10004FF0004010BD426B12F0450FF6D0120588
:102C2000F4D4426B520703D504218163084610BDDA
:102C3000426BD20702D00121816305E0C522826385
:102C40000269D2B28A4201D0012010BD0021FFF7F3
:102C500015FD3149084201D1002010BD002802DADB
:102C60004FF0007010BD410001D5402010BD810023
:102C700001D5802010BDC10002D54FF4807010BD79
:102C8000010102D54FF4007010BD410102D54FF48F
:102C9000806010BDC10102D54FF4006010BD01027B
:102CA00002D54FF4805010BD410202D54FF40050C0
:102CB00010BD810202D54FF4804010BDC10202D583
:102CC0004FF4004010BD410302D54FF4003010BD59
:102CD000810302D54FF4802010BDC10302D54FF40B
:102CE000002010BD010402D54FF4801010BD410436
:102CF00002D54FF4001010BD810402D54FF48000BE
:102D000010BD000702D54FF4000010BD4FF4803015
:102D100010BD00000C00002008E0FFFD12494FF438
:102D2000FA520968B1FBF2F141F288325143491E6F
:102D300002D24FF000407047426B12F0450FF6D0C0
:102D40001205F4D4416B490703D504218163084679
:102D50007047416BC90703D0012181630846704762
:102D6000C5218163002070470C0000200F494FF4FB
:102D7000FA520968B1FBF2F141F288325143491E1F
:102D800002D24FF000407047426B12F0450FF6D070
:102D90001205F4D4416B490703D504218163084629
:102DA0007047C52181630020704700000C0000209F
:102DB00070B514461F4A4FF4FA531268B2FBF3F38E
:102DC00041F2883253435B1E02D24FF0004070BD87
:102DD000426B12F0450FF6D01205F4D4426B520745
:102DE00003D504218163084670BD426BD20702D02F
:102DF0000121816303E00269D2B28A4201D001203D
:102E000070BDC52181630021FFF738FC10F4604FCD
:102E100004D0410406D54FF4005070BD000C208052
:102E2000002070BD000402D54FF4805070BD4FF4F7
:102E3000803070BD0C00002014494FF4FA5209682C
:102E4000B1FBF2F141F288325143491E02D24FF0F8
:102E500000407047426B12F0450FF6D01205F4D4D3
:102E6000416B490703D50421816308467047416BD4
:102E7000C90703D00121816308467047416B4906A9
:102E800001D5402181630020704700000C00002024
:102E900010B5064C01202070FDF71AFC18B92078F7
:102EA00020F001002070207810BD000015000020E7
:102EB0002DE9F04788B00D460446FDF7ADFE00262B
:102EC000824600960196374608212068FFF718FDD4
:102ED000002829D1B4F8500001042068FFF7DDFC78
:102EE000002821D1401E4FF00808CDE9020830200B
:102EF0004FF00209CDE904090120CDE9067002A9CD
:102F00002068FFF73DFB2068FFF7E3FD00280BD1A9
:102F10006F462068416B11F02A0F08D0416B0907FA
:102F20001AD5C0F83880082008B0BDE8F087416B9A
:102F3000890205D5FFF74CFC47F82600761C02E015
:102F4000416B8904EAD5FDF767FEA0EB0A00401C3F
:102F5000DFD14FF00040E7E7416B890703D5C0F8A8
:102F600038900220E0E7416B890603D52021816378
:102F70000846D9E740F23A518163019800BA2860C7
:102F8000009800BA68600020CEE710B590B0044603
:102F90000120ADF838002068FFF76CFB002854D002
:102FA000606C032842D02068FFF767FD00284AD1F3
:102FB00000212068FFF762FB606704212068FFF7AB
:102FC0005DFBA06708212068FFF758FBE0670C2134
:102FD0002068FFF753FBC4F88000606C032825D0FD
:102FE0000EA92068FFF7A6FD00282CD1606C0328ED
:102FF0001CD0BDF83800206501042068FFF753FDA0
:10300000002820D100212068FFF738FB60660421EA
:103010002068FFF733FBA06608212068FFF72EFB2E
:10302000E0660C212068FFF729FB20670421206857
:10303000FFF724FB000DE06403A92046FEF7B4FB74
:1030400030B14FF0805010B010BD4FF08060FAE703
:10305000B4F85000002302042068FFF7F5FC0028B4
:10306000F1D104F1100007C88DE8070094E80F00C3
:10307000FFF734FB0020E6E72DE9F84F0026044671
:1030800000963546B0460068FFF76CFC002827D153
:103090002068FFF78FFC4FF0805B4FF001094FF67F
:1030A000FF7748B1A6642068FFF75CFC002817D1C1
:1030B000A06C012802D020E0C4F8489000212068CC
:1030C000FFF7EBFB58B918E000212068FFF7E5FB9C
:1030D000002805D151462068FFF7F8FB10B158468B
:1030E000BDE8F88F00212068FFF7C8FA05464FEACF
:1030F000D0780098401C009002E0DFF82CA00098E7
:10310000B84202D2B8F1000FDED00098B84202D324
:103110004FF08070E4E7680002D5C4F8449000E006
:1031200066640020DCE70000000010C170B50546B1
:10313000054C01202070FDF7D7FA18B92846FFF793
:10314000A7FE2070207870BD1500002010B588B053
:1031500014461748007810F0010F02D008B0032081
:1031600010BD41B1012909D002290FD0032915D082
:10317000042008B010BD002008B010BD6846FDF75F
:10318000A1FA06982060002008B010BD6846FDF73F
:1031900099FA07982080002008B010BD6846FDF716
:1031A00091FA0798400A2060002008B010BD000086
:1031B00015000020084610B511461A460124A31E2A
:1031C000FDF7B2FA20B9FDF783FA0028FBD10024FD
:1031D000204610BDFFF75CBE084610B511461A46E2
:1031E0000124A31EFDF7B0FA20B9FDF771FA0028FB
:1031F000FBD10024204610BD7047FDF713BD000031
:1032000030B593B030216846FDF75AF914210CA867
:10321000FDF756F91D480025016841F08051016015
:10322000006800F0805011901948016821F4404175
:1032300041F4004101600068022400F44040119014
:1032400001200090000401908001CDE9064008AA09
:103250000420542182E813000B906846FDF774FFA8
:1032600008B172B6FEE70CA90F2081E831004FF4D7
:103270008050CDE90F0502210CA8FDF7EFFD0028D5
:1032800001D072B6FEE713B030BD000040380240F6
:10329000007000400248016841F47001016070470D
:1032A00088ED00E010B5806B0021C185C184FEF778
:1032B0004EFE10BD01680C3151E8002F22F49072CF
:1032C00041E80023002BF5D10168143151E8002FAB
:1032D00022F0010241E80023002BF5D1016B012906
:1032E00009D101680C3151E8002F22F0100241E8A9
:1032F0000023002BF5D1202180F83E10002101632E
:10330000704708B590F83E10222901D0022008BD70
:1033100082684FF480539A4201D1016921B1816AD8
:103320009A421BD04AB10AE00268816A5268C2F32D
:1033300008020A80816A891C08E0026972B1026889
:10334000526802F07F020A70816A491C8162C18D55
:10335000491E0904090CC18503D019E002685268AE
:10336000F1E70168CA6822F02002CA600168CA68F1
:1033700022F48072CA6001684A6922F001024A613F
:10338000202180F83E10016B012903D0FEF7FCFFDD
:10339000002008BD0021016301680C3151E8002FB5
:1033A00022F0100241E80023002BF5D101680A68E1
:1033B000D20602D50A6849680091818DFEF7C6FDE4
:1033C000E6E7000070B5044640685449884204D9D5
:1033D00040F6616152A000F036F9E06838B1B0F50E
:1033E000005F04D040F662614DA000F02CF9206926
:1033F00050B1B0F5806F07D0B0F5C06F04D040F683
:10340000636147A000F01FF960694FF6F37108424D
:1034100000D120B940F6646141A000F014F92068A1
:103420000169E26821F44051114301612169A068FA
:10343000E26908436169114322680843D16849F28F
:103440000C6399430143D16020684169A26921F46A
:1034500040711143416141492068884202D040498E
:10346000884202D1FDF730FE01E0FDF71DFEE26962
:103470000023192164253226B2F5004F626828D056
:10348000A0FB0101930F9200FCF7FCFE0146B0FB8C
:10349000F5F06FF01802504301EB800006EB0010CE
:1034A000B0FBF5F000F0F002B1FBF5F002EB00121A
:1034B000B1FBF5F06FF01803584301EB800006EB09
:1034C0000010B0FBF5F000F00F0021681044886098
:1034D00070BDA0FB010192185B41FCF7D3FE0146D1
:1034E000B0FBF5F00201B1FBF5F06FF018035843A3
:1034F00001EB800006EBC000B0FBF5F000F0F80037
:1035000002EB4002B1FBF5F0584301EB800006EB03
:10351000C000B0FBF5F000F00700D6E7A037A00030
:103520002E2E2F447269766572732F53544D3332A9
:10353000463478785F48414C5F4472697665722FF3
:103540005372632F73746D3332663478785F6861B9
:103550006C5F756172742E63000000000010014002
:103560000014014081628285C2850021016422220B
:1035700080F83E2080F83C10016921B10168CA68DA
:1035800042F48072CA6001684A6942F001024A61ED
:103590000068C16841F02001C160002070472DE93A
:1035A000F041984617460E460446069D27E0681CE3
:1035B00025D02DB1FDF730FBA0EB0800A8421ED9A5
:1035C00020680C3050E8001F21F4D07140E8001250
:1035D000002AF5D12068143050E8001F21F00101C5
:1035E00040E80012002AF5D1202084F83D0084F83C
:1035F0003E00002084F83C000320BDE8F0812068F4
:10360000006836EA000004D00020B842CFD0002085
:10361000F3E70120F9E700000148FEF799BC00003C
:10362000C0000020FEE70907090E002804DB00F1B6
:10363000E02080F80014704700F00F0000F1E02057
:1036400080F8141D7047704703490A685206FCD57C
:10365000C2B24A60704700000010014008B5FDF793
:10366000E9FAFFF7CDFDFEF713FFFEF769FFFEF75E
:1036700057FFFEF7FFFE144C00202168884700F03A
:1036800051F802231422E56810A10020A847014642
:1036900012A0FCF76FFEA4680223142269460020E2
:1036A000A047014613A0FCF765FE694616A0FCF78B
:1036B00061FE1B4C4FF4FA7501212046FDF746FAD6
:1036C0002846FDF7D7F8F7E7203900085344204390
:1036D0004152442054455354000000007364207745
:1036E0007269746520726573756C743A25640D0A8D
:1036F000000000007364207265616B207265737551
:103700006C743A25640D0A0073642072656164204C
:10371000636F6E74656E743A0D0A25730D0A0000AE
:103720000008024070B586B069462348FEF714F8D9
:1037300022492148FEF704F9204CD4E90601A0FBF8
:103740000156206810B101280AD132E0606810B13A
:10375000012802D004E01AA000E01EA0FCF70AFE37
:103760009DF8001020A0FCF705FE26A06168FCF77C
:1037700001FE2BA0A168FCF7FDFD30A0E168FCF77D
:10378000F9FD35A02169FCF7F5FD3AA06169FCF768
:10379000F1FD3FA0A169FCF7EDFD44A0E169FCF754
:1037A000E9FD290D41EA063147A0FCF7E3FD06B02B
:1037B00070BD4DA0D2E700003C0000201C0000209E
:1037C0004361726420547970653A534453432056E0
:1037D000310D0A004361726420547970653A534494
:1037E00053432056320D0A0043617264204D616ECE
:1037F00075666163747572657249443A2025642068
:103800000D0A00004361726456657273696F6E3A07
:103810002020202020202020202564200D0A0000C8
:10382000436C6173733A2020202020202020202028
:1038300020202020202564200D0A000043617264AE
:10384000205243412852656C43617264416464298B
:103850003A2564200D0A00004361726420426C6FB7
:10386000636B4E62723A20202020202020256420A5
:103870000D0A00004361726420426C6F636B5369F0
:103880007A653A2020202020202564200D0A00009F
:103890004C6F67426C6F636B4E62723A202020203F
:1038A00020202020202564200D0A00004C6F674254
:1038B0006C6F636B53697A653A20202020202020AA
:1038C000202564200D0A000043617264204361706A
:1038D00061636974793A202020202020202564200B
:1038E0004D420D0A0000000043617264205479705B
:1038F000653A534448430D0A000000004FF0407001
:10390000E1EE100A70470000000000000000010214
:103910000304060708090000000001020304000078
:103920002D310008D5310008B5310008D931000823
:103930004D31000854390008000000201C00000030
:10394000D0010008703900081C0000205407000056
:10395000EC01000801000000100000000000000061
:103960000024F4000000000000010000000000003E
:040000050800019559
:00000001FF
