:020000040800F2
:10000000E00600203D020008932A00081929000894
:10001000912A00085B070008712F0008000000000B
:10002000000000000000000000000000432B00085A
:100030005D07000800000000952A0008452B000815
:10004000570200085702000857020008570200082C
:10005000570200085702000857020008570200081C
:10006000570200085702000857020008570200080C
:1000700057020008570200085702000857020008FC
:10008000570200085702000857020008000000004D
:1000900000000000000000000000000057020008FF
:1000A00057020008570200085702000857020008CC
:1000B00057020008570200085702000857020008BC
:1000C00057020008570200085702000857020008AC
:1000D00057020008652F00085702000800000000C2
:1000E00057020008992A0008570200080000000083
:1000F000000000000000000000000000570200089F
:1001000000000000570200085702000857020008CC
:1001100000000000000000000000000000000000DF
:10012000570200085702000857020008570200084B
:10013000570200080000000000000000000000005E
:10014000000000000000000000000000570200084E
:10015000570200085702000857020008570200081B
:1001600057020008570200080000000000000000CD
:10017000000000000000000000000000000000007F
:10018000000000005702000800000000000000000E
:100190005702000800F002F800F041F80AA090E8C9
:1001A000000C82448344AAF10107DA4501D100F032
:1001B00036F8AFF2090EBAE80F0013F0010F18BFBE
:1001C000FB1A43F001031847F02E0000102F000027
:1001D000103A24BF78C878C1FAD8520724BF30C873
:1001E00030C144BF04680C60704700000023002445
:1001F00000250026103A28BF78C1FBD8520728BF37
:1002000030C148BF0B607047642900F0E3800020D4
:1002100070471FB502F036FF1FBD10B510BD00F0CE
:1002200063FA1146FFF7F5FF02F0C6FE00F081FA0F
:1002300003B4FFF7F2FF03BC00F088FA09488047D7
:1002400009480047FEE7FEE7FEE7FEE7FEE7FEE7B8
:10025000FEE7FEE7FEE7FEE704480549054A064BD0
:1002600070470000E12B000895010008E000002025
:10027000E0060020E0020020E002002053EA020C29
:1002800000F069802DE9F04B4FF00006002B1FBFF6
:10029000B3FA83F503FA05F424FA05F65E4012BFBB
:1002A0001643B2FA82F502FA05F4C5F120051EBF25
:1002B00022FA05FC44EA0C04203556EA044C4FEAC5
:1002C000144418BF641C4FF000084FF0000990421E
:1002D00071EB030C39D3002919BFB1FA81F701FA88
:1002E00007F6B0FA80F700FA07F6C7F120071EBF3D
:1002F00020FA07FC46EA0C062037B6FBF4FCA7EB15
:100300000507103F07F01F0BCBF120060CFA0BFB83
:100310002CFA06F644BFB3460026202FA4BF5E4643
:100320004FF0000B5BEA060C08BF4FF0010B19EB16
:100330000B09ABFB027C48EB0608C01B06FB02CC9A
:100340000BFB03CC71EB0C01C1E70B4602464146A7
:100350004846BDE8F08B13B54FF000004FF00001A8
:10036000AFF30080BDE81C40704700000FB40449A3
:1003700010B503AA029800F089F910BC5DF814FBCF
:100380001000002070B5044685690068C10601D5DB
:10039000302600E02026C00707D070BDD4E9012137
:1003A00030469047206A401C20626D1EF6D570BD15
:1003B00070B5044685690078C00707D170BDD4E9DF
:1003C000012120209047206A401C20626D1EF6D536
:1003D00070BD00002DE9F041064600241068752923
:1003E000314616A510D0AFF30080002802DA404253
:1003F00013A507E031688A0701D512A502E0490775
:1004000004D511A5012401E0AFF3008000210A22E8
:1004100006F1240709E0B0FBF2FCB0FBF2F302FBAB
:100420001C00303078541846491C0028F3D123466C
:100430002A463046BDE8F04100F0CEB8000000008A
:100440002D0000002B000000200000002DE9F05FCF
:10045000894604464FF0000ADFF824B1FB44C0F897
:1004600020A02046E168884700287DD0252806D0B6
:10047000D4E901219047206A401C2062F1E7002561
:100480005F462046E16888472028064607DB312E74
:1004900005D2B81910F8200C08B10543F1E7A807F8
:1004A00001D525F00405C4F81CA00027C4F818A045
:1004B0002A2E09D0304602F06CFD38B304EB8708D1
:1004C000303EC8F8186019E059F8041B204604EBC8
:1004D00087029161E1688847012F064618D1E069DB
:1004E000002820DA25F020051DE0D8F8180000EBE0
:1004F000800006EB40003038C8F818002046E1685C
:100500008847064602F045FD0028EED1012F0AD0AB
:100510002E2E08D12046E16888477F1C0646022F10
:1005200045F02005C4DBA069002803DA404245F00D
:100530000105A061E80701D025F01005A6B1A6F1DC
:100540004100192802D8203645F400654A46314654
:10055000204625604D46FFF757FE60B1012807D0C1
:10056000ED1D25F0070000E007E000F1080978E73D
:1005700005F1040975E730467AE7206ABDE8F09F87
:10058000462C00004FF0000200B5134694469646F4
:10059000203922BFA0E80C50A0E80C50B1F1200196
:1005A000BFF4F7AF090728BFA0E80C5048BF0CC044
:1005B0005DF804EB890028BF40F8042B08BF7047A2
:1005C00048BF20F8022B11F0804F18BF00F8012B14
:1005D00070477047704770472DE9F0470D469946C0
:1005E0009246044600F124080168880604D5E069B3
:1005F00021F01001216000E00120A84201DD471B2D
:1006000000E00027A1697A1902EB0900081AA0612D
:100610002078C00602D42046FFF7B4FE002608E08A
:10062000D4E901211AF806009047206A401C761C84
:1006300020624E45F4DB2078C0060AD52046FFF73D
:10064000A1FE06E0D4E9012130209047206A401C39
:100650002062381EA7F10107F4DC07E0D4E901218C
:1006600018F805009047206A401C2062281EA5F15A
:100670000105F3DC2046FFF79BFE2078000602D53B
:100680000220BDE8F0870120FBE70000074B70B5B2
:100690000D467B4400F011F80446284600F020F88F
:1006A00010B14FF0FF3070BD204670BD0F29000023
:1006B00001694A1C02610878704700B58FB0CDE926
:1006C00001310021059105497944CDE90310114616
:1006D0006846FFF7BBFE0FB000BD0000E5FFFFFF5F
:1006E000007B00F080007047754600F02BF8AE46A6
:1006F00005006946534620F00700854618B020B52E
:10070000FFF7AAFDBDE820404FF000064FF00007BC
:100710004FF000084FF0000B21F00701AC46ACE8A9
:10072000C009ACE8C009ACE8C009ACE8C0098D4616
:10073000704710B50446AFF300802046BDE8104076
:10074000FFF776BD004870477C0000200149182063
:10075000ABBEFEE7260002007047FEE7704772B6A8
:10076000FEE72DE9F0410446876D00F027FA0646C2
:1007700094F835000025022806D08020606584F8B2
:1007800034500120BDE8F0812068016821F0160195
:1007900001602068416921F080014161206C08B945
:1007A000A06C20B12068016821F008010160206878
:1007B000016821F0010101600CE000F0FFF9801BED
:1007C000052807D920206065032084F8350084F8C7
:1007D0003450D7E720680068C007EED194F85C1069
:1007E0003F208840B860012084F8350084F83450F8
:1007F0000020C7E790F83510022903D08021416519
:1008000001207047052180F835100068016821F04B
:10081000010101600020704770B5044600F0CEF978
:100820000546601C02D004480078044400F0C6F974
:10083000401BA042FAD370BD000000202DE9F84F04
:10084000DFF84CB20D460446584512D09148844218
:100850000FD0914884420CD09048844209D09048EF
:10086000844206D08F48844203D0AC218EA002F08F
:1008700097FB28680104090C01D0000C03D0AD21BE
:1008800089A002F08DFB6868F8B101281DD01128FD
:100890001BD0022819D0122817D0B0F5881F14D009
:1008A000B0F5041F11D0B0F5441F0ED0B0F5901F65
:1008B0000BD0B0F5081F08D0B0F5481F05D00328AD
:1008C00003D0AE2178A002F06BFB00264FF0010AA6
:1008D0004FF003090AFA06F02F68804607404745A3
:1008E0007DD1287900F00300012801D002281DD114
:1008F000E86848B1012807D0022805D0032803D0B2
:10090000C02169A002F04CFBA068720009FA02F154
:100910008843E96891400143A1606068297920EA31
:100920000800C1F30011B140014361602879C04360
:10093000800712D0A86838B1012805D0022803D05A
:10094000D12159A002F02CFBE068720009FA02F1F3
:100950008843A96891400143E160287900F00300D1
:1009600002282AD12869D8B10C2819D0012817D01B
:10097000022815D0032813D0042811D005280FD041
:1009800006280DD007280BD0082809D0092807D041
:100990000A2805D00F2803D0DE2143A002F000FB77
:1009A000F00804EB8003186A7107CA0E0F2191400A
:1009B000884329699140014319622068720009FA4D
:1009C00002F18843297901F003019140014321603C
:1009D000686810F4403F55D04248016800E051E09B
:1009E00041F480410160006826F0030100F480407A
:1009F00000903D480A18D2F80808B1070B0F0F21E4
:100A0000994088435C4501D1002114E021498C4282
:100A100001D101210FE020498C4201D102210AE0DD
:100A20001E498C4201D1032105E01D498C4201D1B0
:100A3000042100E0072199400143C2F808182B491E
:100A400008686A68B843D20200D53843086027496D
:100A5000091D08686A68B843920200D538430860E7
:100A60002249091F08686A68B843920300D53843D1
:100A700008601E49083908686A68B843D20300D57F
:100A800038430860761C102EFFF424AFBDE8F88FC1
:100A9000000002400004024000080240000C024036
:100AA00000100240001C02402E2E2F447269766511
:100AB00072732F53544D3332463478785F48414C2B
:100AC0005F4472697665722F5372632F73746D334E
:100AD00032663478785F68616C5F6770696F2E6327
:100AE000000000004438024000300140083C014052
:100AF00070B50C00054604D14FF4DB7105A002F07F
:100B00004FFA696924EA0100214040EA0140A861E6
:100B100070BD00002E2E2F447269766572732F53BC
:100B2000544D3332463478785F48414C5F447269A3
:100B30007665722F5372632F73746D333266347817
:100B4000785F68616C5F6770696F2E6300000000FA
:100B500070B515460C00064604D140F29D1108A060
:100B600002F01EFA45B1012D04D04FF4CF7104A05C
:100B700002F016FAB46170BD2004B06170BD0000CF
:100B80002E2E2F447269766572732F53544D333273
:100B9000463478785F48414C5F4472697665722FBD
:100BA0005372632F73746D3332663478785F686183
:100BB0006C5F6770696F2E630000000001488068F9
:100BC000704700000000002002488168027811444C
:100BD00081607047000000200B4810B5016841F4A7
:100BE00000710160016841F480610160016841F4B5
:100BF00080710160032000F0C3F80F2000F006F8B8
:100C000000F024F8002010BD003C024070B50D4DEE
:100C100004464FF47A712878B1FBF0F00A4909686C
:100C2000B1FBF0F001F0D1FB48B9102C07D2002243
:100C30002146501E00F054F800206C6070BD012069
:100C400070BD0000000000200C0000200A4808B51C
:100C5000016841F480410160006800F48040009028
:100C60000548001F016841F080510160006800F0F4
:100C70008050009008BD00004438024010B50400C8
:100C800003D5BC2107A002F08BF9002C09DB04F08E
:100C90001F01012088406109890001F1E021C1F8AC
:100CA000000110BD2E2E2F447269766572732F538A
:100CB000544D3332463478785F48414C5F44726912
:100CC0007665722F5372632F73746D333266347886
:100CD000785F68616C5F636F727465782E63000083
:100CE00070B515460C460646102A03D3A82114A059
:100CF00002F056F9102C03D3A92111A002F050F9EB
:100D00001E480068C0F30223C3F107022046042AEC
:100D100000D90422191D072901D2002300E0DB1E9F
:100D2000012404FA02F1491E014099409C40641ECE
:100D30002C4021433046BDE8704002F01AB9000053
:100D40002E2E2F447269766572732F53544D3332B1
:100D5000463478785F48414C5F4472697665722FFB
:100D60005372632F73746D3332663478785F6861C1
:100D70006C5F636F727465782E6300000CED00E0A9
:100D800010B5044607280BD0062C09D0052C07D037
:100D9000042C05D0032C03D0902108A002F000F908
:100DA000154904F0070208684FF6FF03184040EAAF
:100DB0000220124A1043086010BD00002E2E2F445E
:100DC0007269766572732F53544D33324634787896
:100DD0005F48414C5F4472697665722F5372632F8E
:100DE00073746D3332663478785F68616C5F636FFB
:100DF000727465782E6300000CED00E00000FA05C7
:100E00002DE9F84304460068401E0E2804D940F638
:100E1000D7118CA002F0C4F820684FF00109C10777
:100E20004FF0000601D140073AD5A068801E052882
:100E300004D940F6DE1183A002F0B2F860683238BF
:100E4000B0F5BF7F04D940F6DF117EA002F0A8F80C
:100E5000DFF82C82C8F86860FFF7B0FE0746894DBE
:100E600005E000BFFFF7AAFEC01B02287DD8286856
:100E70000001F7D46068217A800140EA017081495D
:100E800084310860C8F86890FFF798FE074604E0D0
:100E9000FFF794FEC01B0228E8D828680001F7D5A8
:100EA000207880077AD5E068B0F5807F63D0B0F510
:100EB000007F60D0744988425DD0744988425AD01E
:100EC0007349884257D07349884254D07249884246
:100ED00051D0724988424ED0714988424BD07149F5
:100EE000884248D07049884245D07049884242D0F3
:100EF0006F4988423FD06F4988423CD06E49884252
:100F000039D06E49884236D06D49884233D06D4918
:100F1000884230D06C4988422DD06C4988422AD012
:100F20006B49884227D06B49884224D06A4988425D
:100F300021D06A4988421ED0694988421BD069493C
:100F4000884218D06849884215D06849884212D032
:100F5000674988420FD0674988420CD06649884269
:100F600009D06649884206D000E042E04FF4216192
:100F700034A002F015F843484030016841F0805138
:100F8000016000685E4D00F080500090286840F4D9
:100F900080702860FFF712FE074606E040E000BFC1
:100FA000FFF70CFEC01B022823D82868C005F7D520
:100FB000344D7035286810F4407020D0A18901F4B8
:100FC000407181421BD0286820F440714D48C0F820
:100FD0000090066029602868C00710D0FFF7EEFD7A
:100FE000064641F2883707E0FFF7E8FD801BB8426C
:100FF00002D90320BDE8F88328688007F4D5E168AA
:101000002048C1F301220830032A12D0016821F4DC
:10101000F81101602868A189C1F30B010843286019
:101020002078000703D53849207CC1F8E001002072
:10103000E0E70268354B22F4F81219400A430260D7
:10104000E8E700002E2E2F447269766572732F53E5
:10105000544D3332463478785F48414C5F4472696E
:101060007665722F5372632F73746D3332663478E2
:10107000785F68616C5F7263635F65782E63000000
:101080000000474200380240000302000003030052
:10109000000304000003050000030600000307002E
:1010A000000308000003090000030A0000030B000E
:1010B00000030C0000030D0000030E0000030F00EE
:1010C00000031000000311000003120000031300CE
:1010D00000031400000315000003160000031700AE
:1010E000000318000003190000031A0000031B008E
:1010F00000031C0000031D0000031E0000031F006E
:1011000000700040400E474200104742FFFCFF0FB6
:101110002DE9F0470E4604007DD02068401E0E28C1
:1011200004D940F25A217AA001F03AFF96B1012E7B
:1011300010D0022E0ED0032E0CD0042E0AD0052E75
:1011400008D0062E06D0072E04D040F25B2170A0F6
:1011500001F026FFDFF8F081D8F80000F7B200F0C8
:101160000700B04207D288F80070D8F8000000F0FD
:101170000700B0424FD12068744D810729D5400740
:1011800003D5286840F4E05028602078000703D594
:10119000286840F460402860A068A0B1802812D080
:1011A000902810D0A0280ED0B0280CD0C0280AD08B
:1011B000D02808D0E02806D0F02804D040F27E21C4
:1011C00053A001F0EDFE2868A16820F0F00008436C
:1011D00028602078C00743D0DFF870916068A9F1DB
:1011E000080988B1012822D0022824D0032822D05F
:1011F00040F2852146A001F0D3FE6068012816D098
:10120000022818D0032816D0D9F80000800700283B
:1012100033DA286800E030E0616820F0030008431A
:101220002860FFF7CBFC814641F2883A11E0D9F8FB
:1012300000008003EBE7D9F800008001E7E700BF7A
:10124000FFF7BCFCA0EB0901514502D90320BDE822
:10125000F0872868616800F00C00B0EB810FEFD1D7
:10126000D8F80010404601F00701B14207D90770D5
:10127000006800F00700B04201D00120E7E72078C5
:101280004FF4805640074FF4A0574FF4C0584FF426
:10129000E05914D5E06860B1B0420AD0B84208D035
:1012A000404506D0484504D040F2C32118A001F0C3
:1012B00077FE2868E16820F4E05008432860207831
:1012C000000715D5206960B1B0420AD0B84208D0F5
:1012D000404506D0484504D040F2CA210CA001F098
:1012E0005FFE2868216920F4604040EAC100286060
:1012F00000F054F82968164AC1F30311515CC84044
:101300001449086014480068FFF780FC00209EE73D
:101310002E2E2F447269766572732F53544D3332DB
:10132000463478785F48414C5F4472697665722F25
:101330005372632F73746D3332663478785F6861EB
:101340006C5F7263632E6300003C02400838024009
:101350008E3000080C0000200400002004480549DD
:1013600000680968044AC1F38221515CC840704793
:101370000C000020083802409E300008044805494F
:1013800000680968044AC1F34231515CC8407047A3
:101390000C000020083802409E300008154810B5A7
:1013A000006810F00C02144813D04110042A0FD02A
:1013B000082A0ED10F4C241F2268236802F03F0236
:1013C0005B0207D52068C0F38810A0FB010106E08E
:1013D000084610BD2168C1F38811A1FB000100235C
:1013E000FEF74CFF2168C1F30141491C4900B0FBE5
:1013F000F1F010BD083802400024F4002DE9F84F48
:1014000004007DD020680F2803D9E621F7A001F061
:10141000C7FD2078DFF80C94C007A9F1040555D06A
:1014200060684FF480364FF4A02738B1B04205D041
:10143000B84203D0EB21EDA001F0B2FDF948001D48
:101440000168C1F38101012908D00068C0F381005F
:1014500002280AD1D9F80000400206D52868800386
:1014600034D560680028CCD030E06068B04203D149
:10147000286840F480300CE0B842286803D140F47A
:1014800080202860F4E720F480302860286820F469
:1014900080202860606860B1FFF790FB064604E09A
:1014A000FFF78CFB801B64287ED828688003F7D563
:1014B0000CE0FFF783FB064605E000BFFFF77EFB6D
:1014C000801B6428F0D828688003F7D42078DFF8E0
:1014D000588380074FF0000A56D5E06830B10128E4
:1014E00004D040F21D11C1A001F05AFD20691F284F
:1014F00004D94FF48F71BDA001F052FDC94800E03E
:1015000092E0001D016811F00C0F08D00068C0F3D4
:101510008100022810D1D9F8000040020CD42868BC
:10152000800702D5E06801287ED12868216920F073
:10153000F80040EAC10017E0E068B8B10120C8F83F
:101540000000FFF73BFB064605E000BFFFF736FB58
:10155000801B0228A8D828688007F7D5286820F0C3
:10156000F801206941EAC00028600DE0C8F800A039
:10157000FFF724FB064604E0FFF720FB801B022850
:1015800092D828688007F7D4207800072ED5A54E7A
:10159000A64F60697036D0B1012808D04FF4AF7102
:1015A00092A001F0FDFC00E04BE1606978B1012000
:1015B0003860FFF703FB074605E000BFFFF7FEFAC0
:1015C000C01B0228C6D830688007F7D50EE0C7F8E0
:1015D00000A0FFF7F3FA074605E000BFFFF7EEFAB9
:1015E000C01B0228B6D830688007F7D4207840079F
:1015F00076D5A068002740B1012806D0052804D080
:101600004FF4C57179A001F0CBFCDFF818B20BF1F3
:101610003C0BDBF80000C0000DD4DBF8001041F0FB
:101620008051CBF8001000E038E1DBF80000012722
:1016300000F0805000907E4E3068C00511D43068B4
:1016400040F480703060FFF7B9FA009006E000BF08
:10165000FFF7B4FA0099401A022891D83068C00503
:10166000F6D5704EA0686C3601280FD0052830687A
:1016700010D020F001003060306820F004003060AD
:10168000A068B8B1FFF79AFA00900FE0306840F018
:101690000100F4E740F004003060F7E7FFF78EFA4E
:1016A0000099411A41F2883081428BD83068800716
:1016B000F4D50EE0FFF782FA009007E0FFF77EFA1C
:1016C0000099411A41F2883081428BD830688007F6
:1016D000F4D42FB1DBF8001021F08051CBF80010CA
:1016E000A069002876D0012809D0022807D040F24E
:1016F000CD113EA001F054FCA0690028F2D0494869
:10170000001D0068C0F381000228A0696DD0022886
:1017100005D0C8F860A0FFF751FA044694E0E069EC
:1017200038B1B0F5800F04D04FF4EB712FA001F069
:1017300037FC206A3F2804D940F2D7112BA001F0D2
:101740002FFC606A3238B0F5BF7F04D94FF4EC71DA
:1017500026A001F025FCA06A02280AD0042808D09F
:10176000062806D0082804D040F2D9111FA001F0A5
:1017700017FCE06A801E0D2804D94FF4ED711BA000
:1017800001F00EFC4746C8F860A0FFF717FA0646BE
:1017900005E000BFFFF712FA801B022851D8286825
:1017A0008001F7D4D4E907010843A16A214A490816
:1017B00002EB0141626A41EA8211084394F82C105D
:1017C00040EA0161C9F8001001203866FFF7F6F918
:1017D000044606E064E000BFFFF7F0F9001B0228B2
:1017E0002FD828688001F7D55AE031E02E2E2F44FB
:1017F0007269766572732F53544D3332463478785C
:101800005F48414C5F4472697665722F5372632F53
:1018100073746D3332663478785F68616C5F7263BD
:10182000632E63000438024000004742800E4742A6
:10183000007000400000FFFFFFF7C0F9001B022806
:1018400002D90320BDE8F88F28688001F4D427E08E
:101850000128F7D0D9F80000E26900F48001914234
:101860001CD1226A00F03F01914217D147F6C071A6
:10187000626A0140B1EB821F10D1A26A4FF0FF33C0
:1018800000F4403103EB5202B1EB024F06D194F861
:101890002C1000F07060B0EB016F01D00120D1E797
:1018A0000020CFE77047000010B504A0FEF75EFDF2
:1018B000BDE8104002210948FFF71AB948414C5FC2
:1018C0005254435F416C61726D414576656E74435D
:1018D000616C6C6261636B0D0A00000000080240DD
:1018E00010B5044600688168C9040CD5C068C005FD
:1018F00009D52046FFF7D8FF2068C16801F08001B4
:1019000061F4C071C1602068816889040CD5C06829
:10191000800509D52046FFF7C5FF2068C16801F0A2
:10192000800161F42071C16003494FF40030086008
:101930000120607710BD0000143C014070B5150017
:101940000C46064606D0012D04D040F2AB3110A063
:1019500001F026FB306841681B480140080CE0702C
:10196000C1F30422627001F03F02A270C1F3423160
:10197000217055B901F096F8E070607801F092F8A6
:101980006070A07801F08EF8A070002070BD00009B
:101990002E2E2F447269766572732F53544D333255
:1019A000463478785F48414C5F4472697665722F9F
:1019B0005372632F73746D3332663478785F686165
:1019C0006C5F7274632E63003FFFFF0070B51500FB
:1019D0000C46064606D0012D04D040F2253114A055
:1019E00001F0DEFA3068806A606030680069C0F338
:1019F0000E00A060306801681B480140C1F305403B
:101A00002070C1F30622627001F07F02A270890D7E
:101A1000E17055B901F046F82070607801F042F8A5
:101A20006070A07801F03EF8A070002070BD00004A
:101A30002E2E2F447269766572732F53544D3332B4
:101A4000463478785F48414C5F4472697665722FFE
:101A50005372632F73746D3332663478785F6861C4
:101A60006C5F7274632E63007F7F7F0010B504008B
:101A700049D044492068884204D04FF4827142A082
:101A800001F08EFA6068402805D020B140F20511BF
:101A90003DA001F085FAA0687F2804D94FF4837136
:101AA00039A001F07DFAE068B0F5004F04D340F2B0
:101AB000071135A001F074FA206968B1B0F5001F74
:101AC0000AD0B0F5800F07D0B0F5C00F04D04FF4A6
:101AD00084712DA001F064FA606938B1B0F5801FFF
:101AE00004D040F2091128A001F05AFAA06938B1D7
:101AF000B0F5802F04D04FF4857123A001F050FA87
:101B0000607F10B106E0012010BD00202077204644
:101B100000F058F8022060772168CA2048622168E6
:101B200053204862204600F0D3FF30BB2068816814
:101B3000234A114081602168886862681043D4E9B3
:101B400004231A43104388602168E0680861206814
:101B50000169228941EA02410161204600F0DCFF6F
:101B600058B921680A6C22F480220A6421680A6C40
:101B7000A3691A430A64012161772268FF21516237
:101B800010BD0000002800402E2E2F44726976659B
:101B900072732F53544D3332463478785F48414C3A
:101BA0005F4472697665722F5372632F73746D335D
:101BB00032663478785F68616C5F7274632E63009C
:101BC000BFFF8FFF10B586B0044614216846FEF7AC
:101BD000D9FC0D492068884214D102200090C00130
:101BE00003906846FFF70CF908B1FEF7B8FD074906
:101BF00001200860002211462920FFF771F82920F2
:101C0000FFF73CF806B010BD002800403C0E4742EC
:101C10002DE9F84FEF4F0C46054639684FF4FA4965
:101C2000B1FBF9F04FF47A7100FB01F05FEA0208B2
:101C3000009007D0B8F1010F04D040F2AC41E6A00B
:101C400001F0AEF9606A4FF4807B584507D0B0F5DB
:101C5000007F04D040F2AD41DFA001F0A1F960693E
:101C600010F07F3F04D040F2AE41DBA001F098F9C4
:101C7000E06938B1B0F1804F04D040F2AF41D6A056
:101C800001F08EF96068B0F5004F04D34FF496610F
:101C9000D1A001F085F9A06988B3B0F1807F2ED082
:101CA000B0F1007F2BD0B0F1407F28D0B0F1806F31
:101CB00025D0B0F1A06F22D0B0F1C06F1FD0B0F12D
:101CC000E06F1CD0B0F1006F19D0B0F1106F16D0DA
:101CD000B0F1206F13D0B0F1306F10D0B0F1406F81
:101CE0000DD0B0F1506F0AD0B0F1606F07D0B0F1F5
:101CF000706F04D040F2B141B7A001F051F9287FD4
:101D0000012825D04FF0010A85F81CA00220687731
:101D100028680026B8F1000F80684FEA40601AD0AA
:101D2000002879DA207800F0BDFE20B1207800F09C
:101D3000B9FE0C2804D940F2DF41A7A001F030F928
:101D4000E078002873D0012871D04FF49C616BE0DB
:101D50000220BDE8F88F00280FDA2078401E0B28FB
:101D600004D940F2BF419CA001F01AF9E07868B1B3
:101D700001280BD04FF4986105E0E6702078172811
:101D800004D940F2C54194A001F00AF960783B28DB
:101D900004D940F2C74190A001F002F9A0783B2895
:101DA00004D94FF499618CA001F0FAF8E069002899
:101DB00094F820002AD0012810D002280ED0032841
:101DC0000CD004280AD0052808D0062806D00728F9
:101DD00004D04FF49A6180A001F0E2F8207800F07E
:101DE0006AFE0204607800F066FE42EA0022A078F3
:101DF00000F061FE0243E07842EA805294F820004D
:101E000000F059FE42EA006065E005E0401E1E2831
:101E1000E4D940F2CC41DEE7E670207800F042FEE3
:101E2000172804D940F2E5416BA001F0B9F86078B9
:101E300000F038FE3B2804D94FF49D6166A001F004
:101E4000AFF8A07800F02EFE3B2804D940F2E9411B
:101E500061A001F0A5F8E069002894F820006FD097
:101E600000F020FE012828D094F8200000F01AFE8F
:101E7000022822D094F8200000F014FE03281CD081
:101E800094F8200000F00EFE042816D094F82000EC
:101E900000F008FE052810D094F8200000F002FEA3
:101EA00006280AD094F8200000F0FCFD072804D092
:101EB00040F2F14148A001F073F8A0782178E2786F
:101EC00040EA01406178090241EA8251084394F8EE
:101ED000201040EA0160E169A269084361692B684A
:101EE000084361681143CA225A622B6853225A621E
:101EF000626AFF245A452A684FF0030C93682BD17D
:101F000023F4807393602A68D36803F0800363F43A
:101F1000C073D3602A68009B5F1E009732D3D368DA
:101F2000DB07F8D0D061286841642868816841F4F3
:101F3000807181602868816841F4805137E0FFE753
:101F400000F0B0FD28B194F8200000F0ABFD1F2890
:101F5000B3D940F2ED41ADE723F4007393602A68F2
:101F6000D36803F0800363F42073D3603B68B3FB52
:101F7000F9F24FF47A735A4300922A68009B5F1E6D
:101F8000009705D2546285F81DC02E770320E0E645
:101F9000D3689B07F2D5106228688164286881683D
:101FA00041F4007181602868816841F400518160CA
:101FB0001748016841F40031016015480830016894
:101FC00041F4003101602868446285F81DA02E7735
:101FD0000020BEE60C0000202E2E2F44726976658C
:101FE00072732F53544D3332463478785F48414CE6
:101FF0005F4472697665722F5372632F73746D3309
:1020000032663478785F68616C5F7274632E630047
:10201000003C01402DE9F04116000C46054606D073
:10202000012E04D040F2533150A000F0B9FF287FB8
:10203000012805D001272F77022068771EB109E01B
:102040000220BDE8F0816078C10603D500F0EF0002
:102050000A3060702078012810D002280ED00328A2
:102060000CD004280AD0052808D0062806D0072856
:1020700004D040F25F313DA000F092FFE078002EE6
:102080003AD000F00FFD632804D940F26E3137A03A
:1020900000F086FF607800F005FD20B1607800F068
:1020A00001FD0C2804D940F26F3130A000F078FF18
:1020B000A07800F0F7FC20B1A07800F0F3FC1F2816
:1020C00004D94FF45C7129A000F06AFFA078E17890
:1020D00040EA014660782178000240EA4130064338
:1020E0002968CA204862296853204862284600F0BF
:1020F000EFFC00282AD032E0632804D940F2633193
:102100001AA000F04DFF6078401E0B2804D94FF450
:10211000597116A000F044FFA078401E1E2804D973
:1021200040F2653111A000F03BFFE07800F0C3FC05
:102130000204607800F0BFFC42EA0022A07800F0C0
:10214000BAFC0243207842EA4036C9E71548064007
:1021500028684660284600F0DFFC00B96F772A68DF
:10216000FF215162002129776BE700002E2E2F44BA
:102170007269766572732F53544D333246347878D2
:102180005F48414C5F4472697665722F5372632FCA
:1021900073746D3332663478785F68616C5F727423
:1021A000632E63003FFFFF002DE9F04116000C464F
:1021B000054606D0012E04D04FF42D7166A000F024
:1021C000EFFEE068B0F5003F08D0B0F5803F05D0E5
:1021D00020B140F2B52160A000F0E2FE206938B1E4
:1021E000B0F5802F04D040F2B6215BA000F0D8FEFD
:1021F000287F012823D04FF0010885F81C80022099
:1022000068772868002780684FEA4060D6B10028C8
:1022100054DA207800F046FC20B1207800F042FC2F
:102220000C2804D940F2D5214BA000F0B9FEE0788B
:1022300000284ED001284CD040F2D62146E00220A2
:10224000BDE8F08100280FDA2078401E0B2804D961
:1022500040F2C12140A000F0A3FEE07868B101285F
:102260000BD040F2C22105E0E7702078172804D98E
:1022700040F2C72138A000F093FE60783B2804D9D3
:1022800040F2C92134A000F08BFEA0783B2804D98D
:1022900040F2CA2130A000F083FE207800F00BFC51
:1022A0000204607800F007FC42EA0022A07800F007
:1022B00002FC0243E07842EA805628E0E77020788A
:1022C00000F0F0FB172804D940F2DB2122A000F037
:1022D00067FE607800F0E6FB3B2804D940F2DD2180
:1022E0001DA000F05DFEA07800F0DCFB3B2804D9C7
:1022F00040F2DE2118A000F053FEA078217840EAD9
:1023000001466078E178000240EA8150064329687E
:10231000CA204862296853204862284600F0D8FB4A
:10232000A8B91B480640286806602868816821F41F
:1023300080218160D4E90301084329688A68104339
:102340008860284600F0E8FB08B985F81D802A68F7
:10235000FF2151622F7773E72E2E2F447269766525
:1023600072732F53544D3332463478785F48414C62
:102370005F4472697665722F5372632F73746D3385
:1023800032663478785F68616C5F7274632E6300C4
:102390007F7F7F0070B504460068C16821F0A0010E
:1023A000C160FEF70BFC05464FF47A7607E000BFEC
:1023B000FEF704FC401BB04201D9032070BD206829
:1023C000C0688006F4D5002070BD10B5401EB0F185
:1023D000807F01D3012010BD4FF0E02460610F2108
:1023E000601700F0C6FD0020A061072020610020DA
:1023F00010BD704770470000F8B5016804460868D2
:10240000CA684B6910F00F0F4FF0000559D003F068
:10241000010602F49077374365D0C10705D0D10596
:1024200003D5216C41F001012164410705D5D9078D
:1024300003D0216C41F002012164810705D5D90741
:1024400003D0216C41F004012164010707D502F09B
:102450002001314303D0216C41F008012164216C3B
:1024600000293AD0800604D5900602D5204600F017
:10247000EEFB20684069216CC0F38010090700D48E
:1024800060B3204600F0BCFB20684069400621D5BF
:102490002068143050E8001F21F0400140E800128D
:1024A000002AF5D1A06BA8B16C490165A06BFEF7BD
:1024B000A1F9002811D0A06B016D01B0BDE8F0407A
:1024C000084783060FD593060DD52046BDE8F84092
:1024D00000F0BDBB2046FFF78DFFF8BD2046FFF79B
:1024E00089FF2564F8BD266B2023012E79D1C6060D
:1024F00077D5D60675D508684868009048694006C3
:1025000040D5A16B086840680004000CEAD0A28D99
:102510008242E7D9E085C869B0F5807F2DD0206878
:102520000C3050E8001F21F4807140E80012002AAE
:10253000F5D12068143050E8001F21F0010140E877
:102540000012002AF5D12068143050E8001F21F055
:10255000400140E80012002AF5D184F83E3025639E
:1025600020680C3050E8001F21F0100140E80012F4
:10257000002AF5D1A06BFEF7F4F8A08DE18D401A8A
:1025800081B229E0A08DE18D401A81B2E08D002852
:10259000A8D00029A6D020680C3050E8002F22F4E3
:1025A000907240E80026002EF5D12068143050E8E3
:1025B000002F22F0010240E80026002EF5D184F819
:1025C0003E30256320680C3050E8002F22F01002C6
:1025D00040E80023002BF5D12046FFF70AFFF8BDA5
:1025E000FFE705062BD5150629D594F83D002128CF
:1025F000F5D1A068B0F5805F01D12069B0B1206A43
:10260000411C2162216800784860E08C401E000473
:10261000000CE084E3D12068C16821F08001C16032
:102620002068C16841F04001C160D8E7206A008895
:10263000C0F308004860206A801C2062E5E740067D
:10264000CDD55006CBD5CA68204622F04002CA60DC
:1026500084F83D3000F05FF9C1E70000F12B00087D
:1026600070B5040020D0A06935490028354A364BA2
:1026700020681BD088420AD0904208D0984206D0E9
:1026800040F2731131A000F08BFCA069C8B1A069C1
:10269000B0F5807F15D0B0F5007F12D0B0F5407F47
:1026A0000FD04FF4BA7109E0012070BD884208D004
:1026B000904206D0984204D04FF4BC7123A000F0A1
:1026C0006FFCA06838B1B0F5805F04D04FF4BD71E5
:1026D0001EA000F065FCE06938B1B0F5004F04D0F1
:1026E00040F27B1119A000F05BFC94F83D0000253E
:1026F00020B984F83C50204600F046F8242084F8A5
:102700003D002068C16821F40051C160204600F0FE
:10271000FFFA2068016921F4904101612068416954
:1027200021F02A0141612068C16841F40051C16073
:102730002564202084F83D0084F83E00002070BD10
:102740000010014000440040001401402E2E2F4490
:102750007269766572732F53544D333246347878EC
:102760005F48414C5F4472697665722F5372632FE4
:1027700073746D3332663478785F68616C5F75614D
:1027800072742E630000000010B586B00446142158
:102790006846FDF7F7FE18492068884229D1174896
:1027A0000021026842F010020260006800F0100090
:1027B000059012481438026842F001020260006875
:1027C00000F0010005904FF4C06000900220CDE9B8
:1027D0000101032003900720049069460848FEF792
:1027E0002DF8002211462520FEF77AFA2520FEF763
:1027F00045FA06B010BD0000001001404438024008
:102800000000024090F83E30202B0ED159B152B159
:1028100090F83C30012B08D0012380F83C30002395
:10282000036300F045BB01207047022070470000A1
:1028300010B50068084988420DD1012207490848AF
:10284000FFF7E0FFBDE810404FF47A73012203491F
:10285000034800F007B810BD00100140140000202C
:10286000380000202DE9F843044690F83D001F464B
:1028700016460D4620284CD1C5B1BEB194F83C0097
:10288000012846D0012084F83C004FF00008C4F82D
:102890004080212084F83D00FEF790F9A68481460F
:1028A000E684A068B0F5805F03D004E00120BDE8B5
:1028B000F883206928B12E465FF0000584F83C803B
:1028C0000EE00026FAE78021204600F00EFBA0B9BA
:1028D000AEB116F8010B21684860E08C401EE08420
:1028E000E08C4B464FF0000200970028EBD14FF0F0
:1028F0004001204600F0F9FA30B10320D7E735F85F
:10290000020BC0F30800E6E7202084F83D00002019
:10291000CDE70220CBE77047FEE7000070B586B038
:1029200014216846FDF72EFE1A480025016841F083
:1029300004010160016801F004010591016841F0A2
:1029400080010160016801F080010591016841F09A
:10295000010101600068104E00F0010005900122A5
:1029600007213046FEF7F4F84FF40050CDE900059A
:102970000124694602943046FDF760FF0720CDE947
:10298000000469463046CDE90245FDF757FF06B021
:1029900070BD0000303802400008024030B591B0F0
:1029A00014210AA8FDF7EEFD0024282168460F94A3
:1029B000FDF7E8FD27482649C0E900147F21816022
:1029C000FF21C0E9031444618461FFF74FF808B1A7
:1029D000FDF7C5FE8DF828408DF829408DF82A4076
:1029E0000D9400220AA91B480E94FFF7DDFB08B1E5
:1029F000FDF7B5FE01258DF83C508DF83D508DF862
:102A00003E508DF83F4000220FA91248FFF702FB0D
:102A100008B1FDF7A4FE8DF800408DF801400520B7
:102A20008DF8020004944FF480700194039409908F
:102A30000594069407948DF82050002269460548B5
:102A4000FFF7E6F8002801D0FDF789FE11B030BD90
:102A500000280040180000200C4810B50A49016009
:102A60004FF4E1314160002181600C22C160C0E976
:102A700004128161C161FFF7F3FD002803D0BDE8B6
:102A80001040FDF76CBE10BD001001403800002062
:102A9000FEE7FEE7704700000148FEF721BF000097
:102AA00018000020010901EB810100F00F0000EB8C
:102AB0004100C0B27047002103E0491C0A38C9B286
:102AC000C0B20A28F9D2090740EA11607047000035
:102AD0002DE9F041044600680025C168490618D474
:102AE000C16841F08001C160FEF768F806464FF406
:102AF0007A78042707E000BFFEF760F8801B4045A6
:102B000001D9677701252068C068400601D4002DEF
:102B1000F2D02846BDE8F08170B504460068002573
:102B2000C16821F08001C16020688068800606D4F9
:102B30002046FFF72FFC10B10420607701252846BE
:102B400070BD7047FEF740B830B593B0302168468D
:102B5000FDF718FD14210CA8FDF714FD1E480025F3
:102B6000016841F080510160006800F080501190D0
:102B70001A48016821F4404141F4004101600068B5
:102B8000022400F440401190052000904FF4803062
:102B90000190012002908005CDE9064008AA04209A
:102BA000542182E813000B906846FEF727FC08B119
:102BB00072B6FEE70CA90F2081E831004FF4805077
:102BC000CDE90F0502210CA8FEF7A2FA002801D0DA
:102BD00072B6FEE713B030BD4038024000700040CE
:102BE0000248016841F470010160704788ED00E01F
:102BF00010B5806B0021C185C184FFF7FBFB10BDC0
:102C000001680C3151E8002F22F4907241E8002352
:102C1000002BF5D10168143151E8002F22F0010298
:102C200041E80023002BF5D1016B012909D101688E
:102C30000C3151E8002F22F0100241E80023002B54
:102C4000F5D1202180F83E1000210163704708B5BE
:102C500090F83E10222901D0022008BD82684FF46E
:102C600080539A4201D1016921B1816A9A421BD0F5
:102C70004AB10AE00268816A5268C2F308020A8017
:102C8000816A891C08E0026972B10268526802F028
:102C90007F020A70816A491C8162C18D491E090444
:102CA000090CC18503D019E002685268F1E7016898
:102CB000CA6822F02002CA600168CA6822F48072E1
:102CC000CA6001684A6922F001024A61202180F845
:102CD0003E10016B012903D0FFF7AAFD002008BDBB
:102CE0000021016301680C3151E8002F22F010022D
:102CF00041E80023002BF5D101680A68D20602D50D
:102D00000A6849680091818DFFF773FBE6E70000D0
:102D100070B5044640685449884204D940F6616160
:102D200052A000F03DF9E06838B1B0F5005F04D082
:102D300040F662614DA000F033F9206950B1B0F562
:102D4000806F07D0B0F5C06F04D040F6636147A034
:102D500000F026F960694FF6F371084200D120B9FE
:102D600040F6646141A000F01BF920680169E26847
:102D700021F44051114301612169A068E2690843CF
:102D80006169114322680843D16849F20C63994391
:102D90000143D16020684169A26921F44071114367
:102DA000416141492068884202D04049884202D1AD
:102DB000FEF7E4FA01E0FEF7D1FAE26900231921F7
:102DC00064253226B2F5004F626828D0A0FB0101CD
:102DD000930F9200FDF752FA0146B0FBF5F06FF049
:102DE0001802504301EB800006EB0010B0FBF5F039
:102DF00000F0F002B1FBF5F002EB0012B1FBF5F0D0
:102E00006FF01803584301EB800006EB0010B0FB95
:102E1000F5F000F00F0021681044886070BDA0FB41
:102E2000010192185B41FDF729FA0146B0FBF5F06C
:102E30000201B1FBF5F06FF01803584301EB80007D
:102E400006EBC000B0FBF5F000F0F80002EB40022A
:102E5000B1FBF5F0584301EB800006EBC000B0FB7E
:102E6000F5F000F00700D6E7A037A0002E2E2F4483
:102E70007269766572732F53544D333246347878C5
:102E80005F48414C5F4472697665722F5372632FBD
:102E900073746D3332663478785F68616C5F756126
:102EA00072742E6300000000001001400014014005
:102EB00081628285C28500210164222280F83E2041
:102EC00080F83C10016921B10168CA6842F480723F
:102ED000CA6001684A6942F001024A610068C1683B
:102EE00041F02001C160002070472DE9F041984673
:102EF00017460E460446069D27E0681C25D02DB1D6
:102F0000FDF75CFEA0EB0800A8421ED920680C303B
:102F100050E8001F21F4D07140E80012002AF5D1DA
:102F20002068143050E8001F21F0010140E8001231
:102F3000002AF5D1202084F83D0084F83E000020CE
:102F400084F83C000320BDE8F0812068006836EA80
:102F5000000004D00020B842CFD00020F3E70120C9
:102F6000F9E700000148FFF747BA000038000020E9
:102F7000FEE70907090E002804DB00F1E02080F8D5
:102F80000014704700F00F0000F1E02080F8141DDD
:102F9000704730380A2801D201207047002070475E
:102FA0007047000003490A685206FCD5C2B24A6065
:102FB000704700000010014086B00024FDF70CFEB1
:102FC000FFF7C2FDFFF7AAFCFFF746FDFFF7E6FC9F
:102FD0000A251426641CE4B2B4FBF5F005FB10408E
:102FE00000BB002269461648FEF7F0FC9DF802304F
:102FF0009DF801209DF8001012A0FDF7B7F90022FE
:1030000005A90F48FEF79AFC9DF816309DF815208B
:103010009DF8171011A0FDF7A9F99DF8141015A03F
:10302000FDF7A4F9B4FBF6F006FB104018B9012136
:103030001348FDF75DFD0A20FDF7EEFBCAE700002F
:103040001800002054696D653A253032643A253005
:1030500032643A253032640D0A0000004461746520
:103060003A3230253032642D253032642D2530320D
:10307000640D0A005765656B3A25640D0A0D0A0058
:10308000000802404FF04070E1EE100A7047000067
:103090000000000000000102030406070809000008
:1030A000000001020304040000080000000000000A
:1030B0000002000100001000D830000800000020CD
:1030C00018000000D0010008F030000818000020AF
:1030D000C8060000EC01000801000000100000001C
:1030E000000000000024F4000000000000000000C8
:040000050800019559
:00000001FF
