:020000040800F2
:10000000009800208502000897380008D1330008C6
:1000100095380008EB0900086D4C0008000000004E
:10002000000000000000000000000000354700084C
:10003000A90A0008000000009938000837470008A6
:100040009F0200089F0200089F0200089F0200080C
:100050009F0200089F0200089F0200089F020008FC
:100060009F0200089F0200089F0200089F020008EC
:100070009F0200089F0200089F0200089F020008DC
:100080009F0200089F0200089F0200080000000075
:100090000000000000000000000000009F020008B7
:1000A0009F0200089F0200089F0200089F020008AC
:1000B000E14700089F0200089F0200089F02000815
:1000C0009F0200089F0200089F0200089F0200088C
:1000D0009F020008614C00089F0200080000000019
:1000E0009F0200089F0200089F0200080000000015
:1000F0000000000000000000000000009F02000857
:10010000000000009F0200089F0200089F020008F4
:1001100000000000000000000000000000000000DF
:10012000ED0900089F0200089F020008F909000875
:100130009F02000800000000000000000000000016
:100140000000000000000000000000009F02000806
:100150009F0200089F0200089F0200089F020008FB
:100160009F0200089F02000800000000000000003D
:10017000000000000000000000000000000000007F
:10018000000000009F0200080000000000000000C6
:100190009F02000800F002F800F065F80AA090E85D
:1001A000000C82448344AAF10107DA4501D100F032
:1001B0005AF8AFF2090EBAE80F0013F0010F18BF9A
:1001C000FB1A43F00103184730C9020050C902006E
:1001D0000A444FF0000C10F8013B13F0070408BF6D
:1001E00010F8014B1D1108BF10F8015B641E05D00B
:1001F00010F8016B641E01F8016BF9D113F0080FC0
:100200001EBF10F8014BAD1C0C1B09D16D1E58BF51
:1002100001F801CBFAD505E014F8016B01F8016B88
:100220006D1EF9D59142D6D37047000000230024FB
:1002300000250026103A28BF78C1FBD8520728BFF6
:1002400030C148BF0B607047782900F05181002011
:1002500070471FB527F0A7FB9DE8030000F076FA72
:100260001FBD10B510BD00F04AFB1146FFF7F1FFAE
:1002700022F02CF900F068FB03B4FFF7F2FF03BC97
:1002800000F042FA0948804709480047FEE7FEE7C8
:10029000FEE7FEE7FEE7FEE7FEE7FEE7FEE7FEE736
:1002A00004480549054A064B70470000D14700083D
:1002B0009501000800920020009800200094002082
:1002C0000094002070B5064600F024FA056806F197
:1002D0000B0020F00704B4429CBF002070BD2B46E9
:1002E0006A68BAB11068A04210D304F108018842CC
:1002F0003CBF5068586007D35168101941601168BD
:10030000091B016058601460101D70BD13465268CF
:10031000002AE7D12146284600F004FA0028DED161
:1003200070BD70B50446051F00F0F4F90068002C9C
:1003300014BF446870BD002C18BFAC423CBF2046BF
:100340006468F8D301680A18AA4218BF456003D14F
:100350002A6805461144016028684119A1421CBF62
:100360006C6070BD6168696021680844286070BD78
:1003700053EA020C00F069802DE9F04B4FF00006C3
:10038000002B1FBFB3FA83F503FA05F424FA05F630
:100390005E4012BF1643B2FA82F502FA05F4C5F1C7
:1003A00020051EBF22FA05FC44EA0C04203556EA5B
:1003B000044C4FEA144418BF641C4FF000084FF07F
:1003C0000009904271EB030C39D3002919BFB1FA2F
:1003D00081F701FA07F6B0FA80F700FA07F6C7F1DD
:1003E00020071EBF20FA07FC46EA0C062037B6FBA2
:1003F000F4FCA7EB0507103F07F01F0BCBF120061D
:100400000CFA0BFB2CFA06F644BFB3460026202F4D
:10041000A4BF5E464FF0000B5BEA060C08BF4FF02E
:10042000010B19EB0B09ABFB027C48EB0608C01B68
:1004300006FB02CC0BFB03CC71EB0C01C1E70B46B6
:10044000024641464846BDE8F08B13B54FF0000028
:100450004FF00001AFF30080BDE81C407047000082
:100460000FB41CB5074B06AA7B446946009005985B
:1004700000F001FA0020694600F010FA1CBC5DF89B
:1004800014FB0000310400002DE9F0410E46044643
:10049000002020622046E168884730B3252805D037
:1004A000D4E901219047206A401CF2E7E168204628
:1004B00000278847050018D0A5F14100192802D867
:1004C00020354FF400673246294620462760FFF763
:1004D000BBFE40B1012804D0F61D26F00706083601
:1004E000D8E7361DD6E72846DAE7206ABDE8F0816E
:1004F00070B504460D4621461068AFF30080218890
:10050000090502D50F4A7A4402E00E4A7A440E32B7
:10051000002104F1240305E000F00F060009965DB8
:100520005E54491C0028F7D120780023000704D529
:10053000702D02D009B1022311322046BDE870406F
:1005400000F03AB9F4C0020040EA0103024630B5B7
:100550009B0710D14FF0013400E008C208C91D1BF1
:100560009D4315EAC41FF8D013F0FF0102F8011BE8
:100570000DD01B0AF8E711F8013B002B02F8013BF4
:1005800005D011F8013B002B02F8013BF3D130BD3F
:1005900010B5431C02E010F8011B71B18107FAD1BC
:1005A0004FF0013202C88C1A8C4314EAC211F9D000
:1005B000C01A0A0603D0C01E10BDC01A10BD0A041E
:1005C00001D0801E10BD0902FCD0401E10BD10B528
:1005D000203AC0F00B80B1E81850203AA0E818503B
:1005E000B1E81850A0E81850BFF4F5AF5FEA027CFC
:1005F00024BFB1E81850A0E8185044BF18C918C06B
:10060000BDE810405FEA827C24BF51F8043B40F80B
:10061000043B08BF7047D20728BF31F8023B48BFF0
:1006200011F8012B28BF20F8023B48BF00F8012B2E
:1006300070474FF0000200B51346944696462039A5
:1006400022BFA0E80C50A0E80C50B1F12001BFF48B
:10065000F7AF090728BFA0E80C5048BF0CC05DF8F1
:1006600004EB890028BF40F8042B08BF704748BF3F
:1006700020F8022B11F0804F18BF00F8012B7047B3
:100680004FF0013C50F8042B51F8043B9A4221D121
:10069000A2EB0C03934313EACC1317D150F8042BAD
:1006A00051F8043B9A4215D1A2EB0C03934313EA91
:1006B000CC130BD150F8042B51F8043B9A4209D1CA
:1006C000A2EB0C03934313EACC13DBD04FF00000F2
:1006D000704700BFD01A01BAB1FA81F101F01801D8
:1006E00022FA01F0CB40C1F12001DBB2C0B2C01A46
:1006F0002CFA01F3D11A914311EAC311E6D17047E4
:10070000704770477047000001491820ABBEFEE7F4
:100710002600020000487047A491002070477047EF
:100720007047704738B504460A4600206946AFF363
:100730000080002808BF38BD02460099204600F01E
:10074000B8F8012038BD012000F0D2B8F8B5AFF3F9
:100750000080054600200C46102000BF0646A81960
:10076000A0420DD9324669460020AFF30080070051
:1007700008BF00F0BDF80098A04218BF0546C41994
:10078000FFF7C8FF05600746F01D20F00700461977
:10079000284600F00AF8B44208BFF8BDA21B314653
:1007A0003868BDE8F84000F084B800210160C0E975
:1007B00001107047102070472DE9F0470D4699460B
:1007C0009246044600F124080168880604D5E069D1
:1007D00021F01001216000E00120A84201DD471B4B
:1007E00000E00027A1697A1902EB0900081AA0614C
:1007F0002078C00602D42046AFF30080002608E02F
:10080000D4E901211AF806009047206A401C761CA2
:1008100020624E45F4DB2078C0060AD52046AFF3AF
:10082000008006E0D4E9012130209047206A401C76
:100830002062381EA7F10107F4DC07E0D4E90121AA
:1008400018F805009047206A401C2062281EA5F178
:100850000105F3DC2046AFF300802078000602D5C6
:100860000220BDE8F0870120FBE7000001694A1C77
:1008700002610878704700B58FB0CDE901310021E1
:10088000059105497944CDE9031011466846FFF703
:10089000FBFD0FB000BD0000E5FFFFFF0A6802F896
:1008A000010B0A6070470000004870479C910020CF
:1008B0007047034640688C46002818BF88423CBFFA
:1008C00003464068F8D318681844884207D00CF1F2
:1008D000030020F00700001D411A521A0146081DAE
:1008E0000A60FFF71EBD002801D0FFF70DBF70475B
:1008F00010B500F04BF8BDE81040FFF7F4BF7546A7
:10090000FFF7D2FFAE4605006946534620F00700C8
:10091000854618B020B5FFF7C3FCBDE820404FF076
:1009200000064FF000074FF000084FF0000B21F0D9
:100930000701AC46ACE8C009ACE8C009ACE8C009A6
:10094000ACE8C0098D46704710B50446AFF300808F
:100950002046BDE81040FFF78FBC70B505460C4639
:100960000A2000E06D1C00F039F835B12878002825
:10097000F8D102E0641C00F031F814B120780028AE
:10098000F8D1BDE870400A2000F028B810B5012861
:1009900005D0002103A0FFF7E0FF012010BD09A151
:1009A000F8E7000053494752544D454D3A204F75E2
:1009B00074206F662068656170206D656D6F727957
:1009C000000000003A2048656170206D656D6F720F
:1009D0007920636F727275707465640008B569463A
:1009E0008DF800000320ABBE08BDFEE7014800F013
:1009F000B9B8000080030020014800F0B3B800003F
:100A00002003002001681823CAB2103AB2FBF3F2A7
:100A1000054B6FF30901032A9B5CC36500D9091DCF
:100A20008165084670470000B079020810B501469C
:100A300000208B698A6A4FF0C07453B1B3F5005F30
:100A400015D072B1012A0CD0022A0AD0032A09D18A
:100A500004E01AB1012A06D0022A03D1C96AC901E9
:100A600000D5012010BDC96AA142FAD010BD002AEC
:100A7000F7D0012AF2D0022AF3D0032AF3D010BD16
:100A800030B50468256825F4802525600468636016
:100A90008368402B036803D099600068C26030BD52
:100AA0009A600068C16030BD704772B6FEE72DE9FC
:100AB000F0410446876D00F0D3FC064694F83500FB
:100AC0000025022806D08020606584F8345001207B
:100AD000BDE8F0812068016821F0160101602068FE
:100AE000416921F080014161206C08B9A06C20B1FE
:100AF0002068016821F0080101602068016821F088
:100B0000010101600CE000F0ABFC801B052807D957
:100B100020206065032084F8350084F83450D7E73E
:100B200020680068C007EED194F85C103F20884030
:100B3000B860012084F8350084F834500020C7E7FD
:100B400090F83510022903D08021416501207047BB
:100B5000052180F835100068016821F0010101606D
:100B6000002070472DE9F84304464FF00009CDF806
:100B7000009063484FF41651A56D0068B0FBF1F783
:100B80002E6894F85C10082000FA01F131420FD071
:100B900021680A6852070BD50A6822F004020A602D
:100BA00094F85C108840A860606D40F001006065BA
:100BB00094F85C104FF0010808FA01F0304208D0B8
:100BC00021684969090604D5A860606D40F00200FB
:100BD000606594F85C1004208840304208D0216899
:100BE0000968890704D5A860606D40F0040060655D
:100BF00094F85C1010208840304218D021680968B1
:100C0000090714D5A86020680168490304D5006865
:100C1000000308D5A16C07E00168C90503D4016889
:100C200021F008010160216C09B12046884794F841
:100C30005C1020208840304231D021680968C90604
:100C40002DD5A86094F8350005282068016806D0E5
:100C5000490347D5006800031DD4616C1CE021F0F6
:100C6000160101602068416921F080014161206C1A
:100C700008B9A06C20B12068016821F0080101606A
:100C800094F85C103F208840A86084F8358084F890
:100C90003490216D1FE0E16B09B120468847606DFB
:100CA00000282BD0606DC00714D0052084F83500D3
:100CB0002068016821F0010101600098401C00904B
:100CC000B84203D820680068C007F6D184F83580A0
:100CD00084F83490E16C002910D001B02046BDE8C2
:100CE000F04308470168C905D5D4016821F0100117
:100CF000016084F8358084F83490CCE7BDE8F8834F
:100D0000100000202DE9F041044600F0A9FB054643
:100D1000002C7CD0A249206888423ED0A0491831DE
:100D200088423AD09E493031884236D09C49483179
:100D3000884232D09A49603188422ED09849783121
:100D400088422AD096499031884226D09449A831C9
:100D5000884222D0934988421FD092491831884254
:100D60001BD090493031884217D08E494831884293
:100D700013D08C49603188420FD08A49783188423B
:100D80000BD088499031884207D08649A8318842E3
:100D900003D0B72184A005F05EFF6068C0B1B0F158
:100DA000007F15D0B0F1806F12D0B0F1C06F0FD0BE
:100DB000B0F1006F0CD0B0F1206F09D0B0F1406FEE
:100DC00006D0B0F1606F03D0B82177A005F043FFE3
:100DD000A06838B1402805D0802803D0B92172A07E
:100DE00005F039FFE068B0F5007F04D018B1BA21F2
:100DF0006DA005F030FF2069B0F5806F04D018B108
:100E0000BB2169A005F027FF606958B100E071E0DF
:100E1000B0F5006F06D0B0F5805F03D0BC2162A0B2
:100E200005F019FFA06948B1B0F5005F06D0B0F534
:100E3000804F03D0BD215CA005F00DFFE06940B1FB
:100E4000B0F5807F05D0202803D0BE2156A005F044
:100E500002FF206A60B1B0F5803F09D0B0F5003FD5
:100E600006D0B0F5403F03D0BF214FA005F0F3FE00
:100E7000606A002832D0042806D0C0214AA005F0BC
:100E8000EAFE606A002829D0A06A48B1012807D08C
:100E9000022805D0032803D0C52143A005F0DBFEBE
:100EA000E06A60B1B0F5000F09D0B0F1807F06D0E4
:100EB000B0F1C07F03D0C6213BA005F0CCFE206B73
:100EC00060B1B0F5001F09D0B0F5800F06D0B0F5C5
:100ED000C00F03D0C72134A005F0BDFE022084F866
:100EE0003500002684F834602068016821F0010193
:100EF00001600EE00120BDE8F08100BF00F0B0FA13
:100F0000401B052805D920206065032084F83500A2
:100F1000F1E720680068C007F0D122681168304806
:100F20000140D4E901031843D4E903352B431843A6
:100F300063691843A3691843E3691843236A184394
:100F40000843616A042903D1D4E90B131943084308
:100F5000106020684069656A20F007002946054353
:100F6000012704290CD1A06A0543E06A40B120465C
:100F7000FFF75CFD20B14020606584F83570B9E76B
:100F8000206845612046FFF73DFD94F85C203F2135
:100F900091408160666584F835700020ABE7000001
:100FA00010600240106402402E2E2F447269766554
:100FB00072732F53544D3332463478785F48414C26
:100FC0005F4472697665722F5372632F73746D3349
:100FD00032663478785F68616C5F646D612E63009F
:100FE0003F8010F02DE9F04789460446876D0025C3
:100FF000581E4FF6FF711E469046884204D340F2B9
:10100000CB111CA005F027FE94F8340001280DD068
:10101000012084F8340094F835100020012907D00D
:1010200084F8340002252846BDE8F0870220FBE75B
:10103000022184F835106065334642464946204611
:10104000FFF71EFD94F85C103F208840B8602068D0
:10105000016841F016010160206C20B12068016830
:1010600041F0080101602068016841F00101016060
:10107000D9E700002E2E2F447269766572732F53C4
:10108000544D3332463478785F48414C5F4472693E
:101090007665722F5372632F73746D3332663478B2
:1010A000785F68616C5F646D612E630070B50446A3
:1010B00000F0D6F90546601C02D0044800780444CC
:1010C00000F0CEF9401BA042FAD370BD040000200E
:1010D0002DE9F84FDFF84CB20D460446584512D0C2
:1010E000914884420FD0914884420CD09048844269
:1010F00009D09048844206D08F48844203D0AC2166
:101100008EA005F0A8FD28680104090C01D0000C90
:1011100003D0AD2189A005F09EFD6868F8B10128D3
:101120001DD011281BD0022819D0122817D0B0F5D5
:10113000881F14D0B0F5041F11D0B0F5441F0ED095
:10114000B0F5901F0BD0B0F5081F08D0B0F5481FC0
:1011500005D0032803D0AE2178A005F07CFD002641
:101160004FF0010A4FF003090AFA06F02F68804693
:10117000074047457DD1287900F00300012801D0C0
:1011800002281DD1E86848B1012807D0022805D0FF
:10119000032803D0C02169A005F05DFDA06872009E
:1011A00009FA02F18843E96891400143A16060684F
:1011B000297920EA0800C1F30011B14001436160C0
:1011C0002879C043800712D0A86838B1012805D01B
:1011D000022803D0D12159A005F03DFDE06872003E
:1011E00009FA02F18843A96891400143E160287936
:1011F00000F0030002282AD12869D8B10C2819D0A0
:10120000012817D0022815D0032813D0042811D0A4
:1012100005280FD006280DD007280BD0082809D0A4
:10122000092807D00A2805D00F2803D0DE2143A0C3
:1012300005F011FDF00804EB8003186A7107CA0E6F
:101240000F21914088432969914001431962206828
:10125000720009FA02F18843297901F003019140F3
:1012600001432160686810F4403F55D0424801684E
:1012700000E051E041F480410160006826F0030184
:1012800000F4804000903D480A18D2F80808B107E1
:101290000B0F0F21994088435C4501D1002114E0D8
:1012A00021498C4201D101210FE020498C4201D11A
:1012B00002210AE01E498C4201D1032105E01D49AB
:1012C0008C4201D1042100E0072199400143C2F87A
:1012D00008182B4908686A68B843D20200D5384319
:1012E00008602749091D08686A68B843920200D55A
:1012F000384308602249091F08686A68B8439203A6
:1013000000D5384308601E49083908686A68B84340
:10131000D20300D538430860761C102EFFF424AFAA
:10132000BDE8F88F000002400004024000080240BF
:10133000000C024000100240001C02402E2E2F44E0
:101340007269766572732F53544D33324634787810
:101350005F48414C5F4472697665722F5372632F08
:1013600073746D3332663478785F68616C5F677070
:10137000696F2E63000000004438024000300140D5
:10138000083C014070B50C00054604D14FF4DB71F8
:1013900005A005F060FC696924EA0100214040EAEB
:1013A0000140A86170BD00002E2E2F447269766541
:1013B00072732F53544D3332463478785F48414C22
:1013C0005F4472697665722F5372632F73746D3345
:1013D00032663478785F68616C5F6770696F2E631E
:1013E0000000000070B515460C00064604D140F21E
:1013F0009D1108A005F02FFC45B1012D04D04FF43C
:10140000CF7104A005F027FCB46170BD2004B06169
:1014100070BD00002E2E2F447269766572732F53B3
:10142000544D3332463478785F48414C5F4472699A
:101430007665722F5372632F73746D33326634780E
:10144000785F68616C5F6770696F2E6300000000F1
:1014500002480068C0F30B0070470000002004E061
:10146000014880687047000004000020024881683D
:101470000278114481607047040000200B4810B5C9
:10148000016841F400710160016841F4806101600C
:10149000016841F480710160032000F0C3F80F205F
:1014A00000F006F800F024F8002010BD003C0240D7
:1014B00070B50D4D04464FF47A712878B1FBF0F009
:1014C0000A490968B1FBF0F001F074F848B9102C32
:1014D00007D200222146501E00F054F800206C6014
:1014E00070BD012070BD000004000020100000202D
:1014F0000A4808B5016841F480410160006800F4C1
:10150000804000900548001F016841F08051016053
:10151000006800F08050009008BD00004438024090
:1015200010B5040003D5BC2107A005F094FB002CE6
:1015300009DB04F01F01012088406109890001F1E5
:10154000E021C1F8000110BD2E2E2F44726976658E
:1015500072732F53544D3332463478785F48414C80
:101560005F4472697665722F5372632F73746D33A3
:1015700032663478785F68616C5F636F7274657827
:101580002E63000070B515460C460646102A03D39C
:10159000A82114A005F05FFB102C03D3A92111A0F2
:1015A00005F059FB1E480068C0F30223C3F107028F
:1015B0002046042A00D90422191D072901D200233C
:1015C00000E0DB1E012404FA02F1491E01409940AB
:1015D0009C40641E2C4021433046BDE8704003F01F
:1015E00046BB00002E2E2F447269766572732F530E
:1015F000544D3332463478785F48414C5F447269C9
:101600007665722F5372632F73746D33326634783C
:10161000785F68616C5F636F727465782E63000039
:101620000CED00E010B5044607280BD0062C09D0BD
:10163000052C07D0042C05D0032C03D0902108A042
:1016400005F009FB154904F0070208684FF6FF038F
:10165000184040EA0220124A1043086010BD000002
:101660002E2E2F447269766572732F53544D333288
:10167000463478785F48414C5F4472697665722FD2
:101680005372632F73746D3332663478785F686198
:101690006C5F636F727465782E6300000CED00E080
:1016A0000000FA052DE9F0470E4604007DD02068C1
:1016B000401E0E2804D940F25A217AA005F0CBFA38
:1016C00096B1012E10D0022E0ED0032E0CD0042E77
:1016D0000AD0052E08D0062E06D0072E04D040F2E0
:1016E0005B2170A005F0B7FADFF8F081D8F80000B0
:1016F000F7B200F00700B04207D288F80070D8F8BF
:10170000000000F00700B0424FD12068744D8107FF
:1017100029D5400703D5286840F4E0502860207898
:10172000000703D5286840F460402860A068A0B195
:10173000802812D0902810D0A0280ED0B0280CD02D
:10174000C0280AD0D02808D0E02806D0F02804D03D
:1017500040F27E2153A005F07EFA2868A16820F0AF
:10176000F000084328602078C00743D0DFF870916C
:101770006068A9F1080988B1012822D0022824D084
:10178000032822D040F2852146A005F064FA606863
:10179000012816D0022818D0032816D0D9F8000046
:1017A0008007002833DA286800E030E0616820F024
:1017B000030008432860FFF753FE814641F2883A50
:1017C00011E0D9F800008003EBE7D9F800008001B0
:1017D000E7E700BFFFF744FEA0EB0901514502D93E
:1017E0000320BDE8F0872868616800F00C00B0EBCA
:1017F000810FEFD1D8F80010404601F00701B14247
:1018000007D90770006800F00700B04201D001203E
:10181000E7E720784FF4805640074FF4A0574FF485
:10182000C0584FF4E05914D5E06860B1B0420AD016
:10183000B84208D0404506D0484504D040F2C32104
:1018400018A005F008FA2868E16820F4E050084381
:1018500028602078000715D5206960B1B0420AD011
:10186000B84208D0404506D0484504D040F2CA21CD
:101870000CA005F0F0F92868216920F4604040EAE6
:10188000C100286000F054F82968164AC1F303111A
:10189000515CC8401449086014480068FFF708FE0E
:1018A00000209EE72E2E2F447269766572732F53A7
:1018B000544D3332463478785F48414C5F44726906
:1018C0007665722F5372632F73746D33326634787A
:1018D000785F68616C5F7263632E6300003C024056
:1018E00008380240B87902081000002008000020E3
:1018F0000448054900680968044AC1F38221515C23
:10190000C84070471000002008380240C87902081B
:101910000448054900680968044AC1F34231515C32
:10192000C84070471000002008380240C8790208FB
:10193000154810B5006810F00C02144813D041107F
:10194000042A0FD0082A0ED10F4C241F22682368C6
:1019500002F03F025B0207D52068C0F38810A0FBAD
:10196000010106E0084610BD2168C1F38811A1FB02
:1019700000010023FEF7FCFC2168C1F30141491C72
:101980004900B0FBF1F010BD083802400024F4001B
:101990002DE9F84F04007DD020680F2803D9E621F7
:1019A000F7A005F058F92078DFF80C94C007A9F1EA
:1019B000040555D060684FF480364FF4A02738B145
:1019C000B04205D0B84203D0EB21EDA005F043F9B9
:1019D000F948001D0168C1F38101012908D00068A0
:1019E000C0F3810002280AD1D9F80000400206D5D0
:1019F0002868800334D560680028CCD030E0606867
:101A0000B04203D1286840F480300CE0B842286826
:101A100003D140F480202860F4E720F4803028606F
:101A2000286820F480202860606860B1FFF718FD06
:101A3000064604E0FFF714FD801B64287ED8286862
:101A40008003F7D50CE0FFF70BFD064605E000BF6D
:101A5000FFF706FD801B6428F0D828688003F7D4C0
:101A60002078DFF8588380074FF0000A56D5E068E9
:101A700030B1012804D040F21D11C1A005F0EBF8EF
:101A800020691F2804D94FF48F71BDA005F0E3F839
:101A9000C94800E092E0001D016811F00C0F08D069
:101AA0000068C0F38100022810D1D9F8000040027C
:101AB0000CD42868800702D5E06801287ED1286808
:101AC000216920F0F80040EAC10017E0E068B8B1F1
:101AD0000120C8F80000FFF7C3FC064605E000BF80
:101AE000FFF7BEFC801B0228A8D828688007F7D51E
:101AF000286820F0F801206941EAC00028600DE064
:101B0000C8F800A0FFF7ACFC064604E0FFF7A8FC0D
:101B1000801B022892D828688007F7D42078000715
:101B20002ED5A54EA64F60697036D0B1012808D0D9
:101B30004FF4AF7192A005F08EF800E04BE16069C0
:101B400078B101203860FFF78BFC074605E000BF45
:101B5000FFF786FCC01B0228C6D830688007F7D57F
:101B60000EE0C7F800A0FFF77BFC074605E000BFCA
:101B7000FFF776FCC01B0228B6D830688007F7D480
:101B80002078400776D5A068002740B1012806D00C
:101B9000052804D04FF4C57179A005F05CF8DFF892
:101BA00018B20BF13C0BDBF80000C0000DD4DBF8E1
:101BB000001041F08051CBF8001000E038E1DBF874
:101BC0000000012700F0805000907E4E3068C00574
:101BD00011D4306840F480703060FFF741FC009011
:101BE00006E000BFFFF73CFC0099401A022891D89C
:101BF0003068C005F6D5704EA0686C3601280FD04D
:101C00000528306810D020F001003060306820F0E6
:101C100004003060A068B8B1FFF722FC00900FE02C
:101C2000306840F00100F4E740F004003060F7E76E
:101C3000FFF716FC0099411A41F2883081428BD897
:101C400030688007F4D50EE0FFF70AFC009007E04B
:101C5000FFF706FC0099411A41F2883081428BD887
:101C600030688007F4D42FB1DBF8001021F08051E8
:101C7000CBF80010A069002876D0012809D00228EE
:101C800007D040F2CD113EA004F0E5FFA069002886
:101C9000F2D04948001D0068C0F381000228A06905
:101CA0006DD0022805D0C8F860A0FFF7D9FB044624
:101CB00094E0E06938B1B0F5800F04D04FF4EB71D7
:101CC0002FA004F0C8FF206A3F2804D940F2D711A2
:101CD0002BA004F0C0FF606A3238B0F5BF7F04D992
:101CE0004FF4EC7126A004F0B6FFA06A02280AD0D7
:101CF000042808D0062806D0082804D040F2D911BC
:101D00001FA004F0A8FFE06A801E0D2804D94FF43C
:101D1000ED711BA004F09FFF4746C8F860A0FFF7D5
:101D20009FFB064605E000BFFFF79AFB801B0228D9
:101D300051D828688001F7D4D4E907010843A16A83
:101D4000214A490802EB0141626A41EA82110843D3
:101D500094F82C1040EA0161C9F80010012038669F
:101D6000FFF77EFB044606E064E000BFFFF778FB68
:101D7000001B02282FD828688001F7D55AE031E0EF
:101D80002E2E2F447269766572732F53544D333261
:101D9000463478785F48414C5F4472697665722FAB
:101DA0005372632F73746D3332663478785F686171
:101DB0006C5F7263632E6300043802400000474288
:101DC000800E4742007000400000FFFFFFF748FB15
:101DD000001B022802D90320BDE8F88F2868800183
:101DE000F4D427E00128F7D0D9F80000E26900F424
:101DF000800191421CD1226A00F03F01914217D12B
:101E000047F6C071626A0140B1EB821F10D1A26A2D
:101E10004FF0FF3300F4403103EB5202B1EB024FBD
:101E200006D194F82C1000F07060B0EB016F01D077
:101E30000120D1E70020CFE7704790F851007047AC
:101E400070B504007ED08149206888420DD0804959
:101E500088420AD07F49884207D07F49884204D00F
:101E60004FF4A0717DA004F0F6FE60684FF4827616
:101E700030B1B04204D040F2411178A004F0EBFE42
:101E8000A06850B1B0F5806F07D0B0F5004F04D016
:101E90004FF4A17171A004F0DEFEE068B0F5006FB0
:101EA00005D020B140F243116CA004F0D4FEA0692B
:101EB000B0F5007F08D038B1B0F5802F04D04FF4D2
:101EC000A27166A004F0C7FEE06990B1082810D0A6
:101ED00010280ED018280CD020280AD0282808D086
:101EE000302806D0382804D040F245115BA004F019
:101EF000B2FE206A30B1802804D04FF4A37157A0FD
:101F000004F0A9FE606A002548B3102806D040F20C
:101F1000471152A004F09FFE606A00B3E069A0B1CF
:101F2000082812D0102810D018280ED020280CD045
:101F300028280AD0302808D0382806D040F2591175
:101F400046A000E009E004F086FE25616561A56217
:101F500094F85100002830D034E0012070BD206991
:101F600030B1022804D04FF4A5713CA004F073FEF8
:101F7000606930B1012804D040F24B1137A004F061
:101F80006AFE6068B04216D1E0690028DFD00828F8
:101F9000DDD01028DBD01828D9D02028D7D0282889
:101FA000D5D03028D3D03828D1D040F24F112BA033
:101FB00004F051FECBE7E561C9E784F850502046B4
:101FC00000F068F8022084F851002068016821F0D0
:101FD00040010160A088218900F4827001F404416D
:101FE0000843A18901F400610843217C01F002014A
:101FF0000843217D01F001010843218B01F40071A8
:102000000843217F01F03801084394F8201001F0C3
:1020100080010843218D01F40051084321680860C4
:10202000A069042101EA104094F8241001F0100185
:102030000843216848602068C16921F40061C161DA
:102040006565012084F85100002070BD003001401A
:1020500000380040003C0040003401402E2E2F4448
:102060007269766572732F53544D333246347878E3
:102070005F48414C5F4472697665722F5372632FDB
:1020800073746D3332663478785F68616C5F737037
:10209000692E63002DE9F04186B00646142168469A
:1020A000FEF7C7FA2B49306888424FD12A480024EE
:1020B000016841F480510160006800F4805005908F
:1020C00025481438016841F0020101600068694642
:1020D00000F002000590282000900220CDE90104C4
:1020E00003200390052004901C48FEF7F1FF1D4DCE
:1020F0001B484FF0C067E5E8020740204FF48068B6
:10210000A5E81101174845F81449AC61EC612C624F
:102110006C62FEF7F7FD08B1FEF7C7FCB564AE636D
:10212000104D0F48603548382860C5E90174C5E98D
:1021300003486C61AC61EC612C6228466C62FEF76E
:10214000E1FD08B1FEF7B1FCF564AE6306B0BDE891
:10215000F081000000300140443802400004024099
:1021600058640240200300202DE9F0470446C06C6B
:1021700016460F46002520B94FF4D96140A004F05F
:102180006AFDA168042019B96268B2F5827F0FD098
:1021900094F85020012A1CD04FF0010884F8508098
:1021A00094F851204FF00009012A15D0022562E071
:1021B00084F85100A06C20B940F2CF6130A004F047
:1021C0004AFD3A4633462046BDE8F047114600F046
:1021D0007BB80220BDE8F087A7B19EB184F851001A
:1021E0004846C4F85490A763A687E687C4F8409091
:1021F000C4F84490A4F83490A4F83690B1F5004F98
:1022000002D00BE0012536E021680A6822F0400286
:102210000A6021680A6822F480420A60E26C26495A
:102220001164E26C2549D163E26C2549D164E16C0B
:102230000865E38F2168A26B0C31E06CFEF7D2FEDB
:1022400038B1606D40F010006065012584F8518060
:1022500011E020680168490603D4016841F040019B
:1022600001602068416841F02001416020684168B8
:1022700041F00101416084F850902846AAE700002F
:102280002E2E2F447269766572732F53544D33325C
:10229000463478785F48414C5F4472697665722FA6
:1022A0005372632F73746D3332663478785F68616C
:1022B0006C5F7370692E6300BD380008DB3800085E
:1022C0009B380008704770472DE9F0470446C06C02
:1022D000984691468A46002620B940F23E714EA0AB
:1022E00004F0B9FCA06C20B940F23F714AA004F0A0
:1022F000B2FCA06820B140F2427147A004F0ABFCF0
:1023000094F8500001280CD0012784F8507094F8FC
:1023100051000025616801280CD0B1F5827F07D1FA
:1023200002E00220BDE8F087A16809B9042801D0C5
:1023300002266CE0BAF1000F33D0B9F1000F30D0B3
:10234000B8F1000F2DD094F85100042802D00520D8
:1023500084F851006565C4F830A0A4F83480A4F86E
:102360003680C4F83890A4F83C80A4F83E802564F8
:10237000656494F85100042815D0E16C3448086471
:102380003448E16CC863E16C3348C864E06C0565AF
:10239000E38F2168A26B0C31E06CFEF723FEE0B9FD
:1023A00006E0012633E0E16C2C4808642C48E8E79D
:1023B0002068416841F001014160A06C0564A06C97
:1023C000C563A06CC564A06C0565E38E2268216BB3
:1023D0000C32A06CFEF706FE38B1606D40F01000C4
:1023E0006065012684F8517011E020680168490693
:1023F00003D4016841F0400101602068416841F068
:10240000200141602068416841F00201416084F888
:102410005050304686E700002E2E2F4472697665B4
:1024200072732F53544D3332463478785F48414CA1
:102430005F4472697665722F5372632F73746D33C4
:1024400032663478785F68616C5F7370692E630000
:10245000D1380008A93900089B380008BD380008A9
:10246000DB3800082DE9F0470446806C16460F461D
:10247000002520B940F25C613BA004F0ECFBA068B1
:102480004FF4004A30B1504504D040F25F6136A0AD
:1024900004F0E1FB94F8500001280BD04FF0010943
:1024A00084F8509094F851004FF00008012804D0AF
:1024B000022554E00220BDE8F087DFB3D6B3032045
:1024C00084F851004046C4F854802763A686E68607
:1024D000C4F83880C4F84480C4F84080A4F83C8034
:1024E000A4F83E80A168514509D121680A6822F00C
:1024F00040020A6021680A6842F480420A60A26CC5
:1025000027491164A26C2749D163A26C2649D16482
:10251000A16C0865E38E2268216B0C32A06CFEF77B
:1025200061FD50B1606D40F010006065012584F8D8
:10253000519014E0FFE7012511E020680168490689
:1025400003D4016841F0400101602068416841F016
:10255000200141602068416841F00201416084F837
:1025600050802846A7E700002E2E2F44726976651A
:1025700072732F53544D3332463478785F48414C50
:102580005F4472697665722F5372632F73746D3373
:1025900032663478785F68616C5F7370692E6300AF
:1025A000C7380008453900089B3800087047704755
:1025B0007047704710B5401EB0F1807F01D30120F5
:1025C00010BD4FF0E02460610F21601702F04FFB57
:1025D0000020A06107202061002010BD70477047D7
:1025E0002DE9F04704460068324E334FDFF8CC80C7
:1025F000DFF8CC900D464FF0804AB0420CD05045E9
:102600000AD0B84208D0404506D0484504D040F230
:10261000B1712CA004F01FFB286890B1102810D0D5
:1026200020280ED030280CD040280AD0502808D0BE
:10263000602806D0702804D040F2B27121A004F0C6
:102640000AFB6868802805D020B140F2B3711DA054
:1026500004F001FB94F83C00012828D0012284F802
:102660003C20022084F83D00216848688B6820F0F7
:10267000700C286840EA0C0048602068B0420AD01C
:10268000504508D0B84206D0404504D0484502D055
:102690001B49884204D1696823F080031943816093
:1026A00084F83D20002084F83C00BDE8F08702203B
:1026B000FBE700000000014000040040000800406B
:1026C000000C00402E2E2F447269766572732F53D2
:1026D000544D3332463478785F48414C5F447269D8
:1026E0007665722F5372632F73746D33326634784C
:1026F000785F68616C5F74696D5F65782E63000058
:102700000040014010B5040046D036492068884298
:1027100019D0B0F1804F16D03349884213D03349D5
:10272000884210D0324988420DD0324988420AD0BE
:102730003149884207D03149884204D040F2131110
:102740002FA004F088FAA06860B110280AD02028D1
:1027500008D0402806D0602804D04FF48A7128A001
:1027600004F079FA206950B1B0F5807F07D0B0F558
:10277000007F04D040F2151121A004F06CFAA0698A
:1027800030B1802804D04FF48B711DA004F063FA9F
:1027900094F83D0010B107E0012010BD002084F83E
:1027A0003C00204600F048F8022084F83D00211D3E
:1027B000206802F01BF8012084F8460084F83E00EF
:1027C00084F83F0084F8400084F8410084F8420017
:1027D00084F8430084F8440084F8450084F83D0000
:1027E000002010BD0000014000040040000800402F
:1027F000000C0040004001400044014000480140FE
:102800002E2E2F447269766572732F53544D3332D6
:10281000463478785F48414C5F4472697665722F20
:102820005372632F73746D3332663478785F6861E6
:102830006C5F74696D2E630008B50068B0F1804F5D
:1028400012D10A48016841F00101016000680022CC
:1028500000F00100009001211C20FEF793FEBDE86E
:1028600008401C20FEF75CBE08BD00004038024056
:102870002DE9F04707460068234C244D244EDFF82D
:102880009480DFF894904FF0804AA04214D05045D5
:1028900012D0A84210D0B0420ED040450CD04845CE
:1028A0000AD01E49884207D01D49884204D040F210
:1028B000CF111CA004F0CFF997F83D00012802D0F9
:1028C0000120BDE8F087022087F83D003868C16824
:1028D00041F00101C1603868A04209D0504507D0DD
:1028E000A84205D0B04203D0404501D0484504D1AC
:1028F000816801F00701062903D0016841F0010158
:1029000001600020DDE700000000014000040040FD
:1029100000080040000C004000400140004401401D
:10292000004801402E2E2F447269766572732F5332
:10293000544D3332463478785F48414C5F44726975
:102940007665722F5372632F73746D3332663478E9
:10295000785F68616C5F74696D2E63002DE9F05FCC
:10296000054690F83C000C464FF0000B01283ED085
:10297000012085F83C00022085F83D0020684FF4D6
:1029800080594FF4005A484515D0702813D050454F
:1029900011D040280FD050280DD060280BD050B156
:1029A000102808D0202806D0302804D041F2B741A2
:1029B000BCA004F050F92868816821F0770121F467
:1029C0007F4181602068C549C54AC64BC64EC74F86
:1029D0004FF0804C4FF40048502870D00FDC202876
:1029E00004D007DC0028FBD0102869D13AE102208E
:1029F000BDE8F09F3028F9D04028F6D103E16028E7
:102A00007ED070285DD0484540D05045EDD1286833
:102A100088420CD060450AD0904208D0984206D037
:102A2000B04204D041F2E2419EA004F014F9A06843
:102A300058B1484509D0504507D0B0F5405F04D0A3
:102A400041F2E54197A004F006F96068404509D0DD
:102A500040B1022806D00A2804D041F2E64191A0F4
:102A600004F0F9F8E0680F2804D941F2E7418DA09D
:102A700004F0F1F8D4E90121E368286801F002FFCD
:102A80002868816841F48041816002E128688842B9
:102A9000FBD06045F9D09042F7D09842F5D0B042D3
:102AA000F3D0B842F1D092498842EED091498842A1
:102AB000EBD041F2C3417BA004F0CDF8E9E042E065
:102AC000E5E0286888420ED060450CD090420AD0DC
:102AD000984208D0B04206D0B84204D041F2CA4170
:102AE00070A004F0B8F8A06868B148450BD0504514
:102AF00009D0B0F5405F06D041F2CD4169A000E0B9
:102B000050E004F0A8F86068404509D040B10228C0
:102B100006D00A2804D041F2CE4162A004F09BF80E
:102B2000E0680F2804D941F2CF415EA004F093F889
:102B3000D4E90121E368286801F0A4FE28688168CF
:102B400041F07701A0E7286888420ED060450CD09C
:102B500090420AD0984208D0B04206D0B84204D081
:102B600041F2F6414FA004F076F86068404509D084
:102B700040B1022806D00A2804D041F2F94149A008
:102B800004F069F8E0680F2804D941F2FA4145A041
:102B900004F061F8E2686168286801F085FE502160
:102BA00028682DE0286888420ED060450CD09042FD
:102BB0000AD0984208D0B04206D0B84204D041F2C0
:102BC000065138A004F047F86068404509D040B18C
:102BD000022806D00A2804D041F2095131A004F09D
:102BE0003AF8E0680F2804D941F20A512DA004F008
:102BF00032F8E2686168286801F067FE60212868A1
:102C000001F04AFE45E0286888420ED060450CD0AD
:102C100090420AD0984208D0B04206D0B84204D0C0
:102C200041F216511FA004F016F86068404509D023
:102C300040B1022806D00A2804D041F2195119A047
:102C400004F009F8E0680F2804D941F21A5115A0E0
:102C500004F001F8E2686168286801F025FE40216F
:102C60002868CDE7286888420ED060450CD0904295
:102C70000AD0984208D0B04206D0B84204D041F2FF
:102C8000295108A003F0E7FF21682868B8E74FF052
:102C9000010B012085F83D00002085F83C005846D6
:102CA000A6E600002E2E2F447269766572732F53AC
:102CB000544D3332463478785F48414C5F447269F2
:102CC0007665722F5372632F73746D333266347866
:102CD000785F68616C5F74696D2E6300000001406D
:102CE0000004004000080040000C0040004001408B
:102CF0000044014000480140704770B50446006838
:102D000001694FF00005C943890715D4C168C9435B
:102D1000890711D4E91E01610120207720688069AC
:102D20008007204602D0FFF7E7FF04E000F098F8A4
:102D3000204600F096F8257720680169C9434907C5
:102D400017D4C168C943490713D46FF00401016166
:102D5000022020772068806910F4407F204602D04E
:102D6000FFF7CAFF04E000F07BF8204600F079F896
:102D7000257720680169C943090716D4C168C9438A
:102D8000090712D46FF00801016104202077206840
:102D9000C0698007204602D0FFF7AEFF04E000F0D4
:102DA0005FF8204600F05DF8257720680169C94387
:102DB000C90617D4C168C943C90613D46FF01001FE
:102DC0000161082020772068C06910F4407F204608
:102DD00002D0FFF791FF04E000F042F8204600F037
:102DE00040F8257720680169C943C90708D1C1683F
:102DF000C943C90704D1891E0161204600F032F899
:102E000020680169C943090609D4C168C943090694
:102E100005D46FF0800101612046FFF7DFFB2068D9
:102E20000169C943490609D4C168C943490605D4A3
:102E30006FF040010161204600F036F8206801691A
:102E4000C94389060BD4C168C943890607D46FF00A
:102E5000200101612046BDE87040FFF7C0BB70BD96
:102E6000704770470D4910B5884216D101201EF0F9
:102E70002FFE1EF0B9FE0A480168491C01604FF49C
:102E8000FA7091FBF0F200FB1210002805D1BDE8AA
:102E9000104001210348FEF775BA10BDE003002081
:102EA0000000002000080240704770477047000093
:102EB000F8B5016804460868CA684B6910F00F0F3E
:102EC0004FF0000559D003F0010602F49077374324
:102ED00065D0C10705D0D10503D5216C41F00101B2
:102EE0002164410705D5D90703D0216C41F00201C7
:102EF0002164810705D5D90703D0216C41F0040175
:102F00002164010707D502F02001314303D0216C71
:102F100041F008012164216C00293AD0800604D5D3
:102F2000900602D5204601F011FD20684069216C11
:102F3000C0F38010090700D460B3204601F0DFFC25
:102F400020684069400621D52068143050E8001FF1
:102F500021F0400140E80012002AF5D1A06BA8B191
:102F60006C490165A06BFDF7EBFD002811D0A06B4B
:102F7000016D01B0BDE8F040084783060FD5930608
:102F80000DD52046BDE8F84001F0E0BC2046FFF733
:102F90008DFFF8BD2046FFF789FF2564F8BD266B3D
:102FA0002023012E79D1C60677D5D60675D50868B7
:102FB000486800904869400640D5A16B08684068A1
:102FC0000004000CEAD0A28D8242E7D9E085C869EE
:102FD000B0F5807F2DD020680C3050E8001F21F420
:102FE000807140E80012002AF5D12068143050E8C2
:102FF000001F21F0010140E80012002AF5D12068ED
:10300000143050E8001F21F0400140E80012002A6F
:10301000F5D184F83E30256320680C3050E8001F5D
:1030200021F0100140E80012002AF5D1A06BFDF755
:103030003EFDA08DE18D401A81B229E0A08DE18D89
:10304000401A81B2E08D0028A8D00029A6D02068BF
:103050000C3050E8002F22F4907240E80026002E39
:10306000F5D12068143050E8002F22F0010240E82A
:103070000026002EF5D184F83E30256320680C3000
:1030800050E8002F22F0100240E80023002BF5D179
:103090002046FFF70AFFF8BDFFE705062BD515060A
:1030A00029D594F83D002128F5D1A068B0F5805FBE
:1030B00001D12069B0B1206A411C216221680078E9
:1030C0004860E08C401E0004000CE084E3D12068DE
:1030D000C16821F08001C1602068C16841F04001F1
:1030E000C160D8E7206A0088C0F308004860206A01
:1030F000801C2062E5E74006CDD55006CBD5CA68D6
:10310000204622F04002CA6084F83D3000F05FF9AA
:10311000C1E70000EF48000870B5040020D0A069A6
:1031200035490028354A364B20681BD088420AD0E2
:10313000904208D0984206D040F2731131A003F0BB
:103140008AFDA069C8B1A069B0F5807F15D0B0F53F
:10315000007F12D0B0F5407F0FD04FF4BA7109E074
:10316000012070BD884208D0904206D0984204D019
:103170004FF4BC7123A003F06EFDA06838B1B0F528
:10318000805F04D04FF4BD711EA003F064FDE069C0
:1031900038B1B0F5004F04D040F27B1119A003F014
:1031A0005AFD94F83D00002520B984F83C50204693
:1031B00000F046F8242084F83D002068C16821F41E
:1031C0000051C160204601F021FC2068016921F412
:1031D000904101612068416921F02A014161206824
:1031E000C16841F40051C1602564202084F83D008D
:1031F00084F83E00002070BD0010014000440040F3
:10320000001401402E2E2F447269766572732F537D
:10321000544D3332463478785F48414C5F4472698C
:103220007665722F5372632F73746D333266347800
:10323000785F68616C5F756172742E6300000000D6
:1032400010B586B0044614216846FDF7F2F9184916
:103250002068884229D117480021026842F01002F4
:103260000260006800F010000590124814380268EF
:1032700042F001020260006800F0010005904FF486
:10328000C06000900220CDE90101032003900720D7
:10329000049069460848FDF71BFF002211462520CF
:1032A000FEF770F92520FEF73BF906B010BD0000CF
:1032B00000100140443802400000024090F83E30C7
:1032C000202B0ED159B152B190F83C30012B08D0CF
:1032D000012380F83C300023036301F067BC012028
:1032E000704702207047000010B500680849884206
:1032F0000DD1012207490848FFF7E0FFBDE8104063
:103300004FF47A7301220349034800F007B810BD57
:103310000010014014000020280400202DE9F8438B
:10332000044690F83D001F4616460D4620284CD115
:10333000C5B1BEB194F83C00012846D0012084F804
:103340003C004FF00008C4F84080212084F83D0084
:10335000FEF786F8A6848146E684A068B0F5805F13
:1033600003D004E00120BDE8F883206928B12E468F
:103370005FF0000584F83C800EE00026FAE780212B
:10338000204601F030FCA0B9AEB116F8010B21685F
:103390004860E08C401EE084E08C4B464FF0000219
:1033A00000970028EBD14FF04001204601F01BFCB4
:1033B00030B10320D7E735F8020BC0F30800E6E789
:1033C000202084F83D000020CDE70220CBE77047A5
:1033D000FEE700002DE9FF4F85B01D4605980490DB
:1033E0006548DDF848B0904606880C4689460C2BA7
:1033F00018D0082715FB07F04000FCF763FF824652
:1034000003A95E4800F0A6FD02A95C4800F0AAFDF1
:10341000A8F12000C0B207900020BBF1000F0146C8
:1034200002D098E00627E5E7DFF84CE14AE00C2DF2
:103430000ED0534A079B02EB03120023525C21F08B
:10344000010B009313060AD573BAAEF800300CE0F6
:10345000079A02EB42034B4A02EB8302EDE7BEF808
:1034600002C09CFA9CFCAEF800C007FB00FC0AEB13
:103470004C08401CBEF8003080B228F80B30A8423F
:1034800000D300205206641C029B120EA4B29C4280
:1034900003D300BFAEF8006047E0A4EB0903AB42E2
:1034A00008D1059A039B521C92B24C4605929A424F
:1034B000F0D205E0009B5B1CDBB20093082BC1D36C
:1034C000491CC9B2A942B2D347E00C2D33D02C4AD3
:1034D000079B02EB03124FF0000B525C21F0010E30
:1034E000130608D5244B07FB00FC0AEB4C081B888D
:1034F0005BBA28F80E30401C80B2A84200D30020EE
:103500005206641C029B120EA4B29C420BD2A4EB86
:103510000903AB4216D1059A039B521C92B24C464A
:1035200005929A4215D3144806805046FCF7F9FEDE
:1035300009B0BDE8F08F079A02EB4203114A02EB93
:103540008302C8E70BF1010303F0FF0BBBF1080F87
:10355000C6D3491CC9B2A942B7D30C2D09D0082043
:10356000CDE9000553464A460448049900F05AFC48
:10357000D9E70620F4E70000180000206C040020C2
:10358000447E0208D07902082DE9F84F044600F085
:10359000FF0910190D46DDE90AB61FFA80F858191F
:1035A00087B24FF0000A12E0444503D305EB0B004D
:1035B0004C4685B2BD420FD25B4629462046CDF827
:1035C00000A0FFF707FF04EB5B0084B2761C3278A3
:1035D000A2F120005E28E7D9BDE8F88F30B587B0AA
:1035E0002249234800F05CFF224C03220521236876
:1035F0001F4898471D49A268091F1D489047002190
:103600005020CDE90001A46BA0230A461848A0472A
:1036100019A102A8FCF724FF102502ACCDE9005443
:1036200004212B46A0220846FFF7AEFFFDF710FF4E
:10363000024614A102A8FCF713FFCDE900541023A1
:10364000A02216210420FFF79FFF084811A1083887
:10365000426802A8FCF704FFCDE900541023A02221
:1036600028210420FFF790FF07B030BD2000002084
:103670006C040020400000204C4344205445535427
:103680000000000053544D333248377878203078AA
:10369000255800004C43442049443A2030782558AE
:1036A000000000000D4808B5016841F48001016088
:1036B0000068002200F48000009011463820FDF7D9
:1036C00061FF3820FDF72CFF002211463B20FDF75B
:1036D00059FFBDE808403B20FDF722BF30380240CB
:1036E000F0B587B014216846FCF7A3FF2C480025ED
:1036F000016841F004010160016801F004010591D5
:10370000016841F080010160016801F080010591CC
:10371000016841F001010160016801F001010591BA
:10372000016841F00201016000681E4F00F00200D4
:103730000590012207213846FDF754FE1A4E01225A
:1037400050213046FDF74EFE002280213046FDF725
:1037500049FE4FF40050CDE900050124694602946A
:103760003846FDF7B5FC0720CDE900046946384628
:10377000CDE90245FDF7ACFC10208DE831000325B2
:10378000694630460395FDF7A3FCC020CDE900044F
:1037900069463046CDE90245FDF79AFC07B0F0BD19
:1037A000303802400008024000040240114810B5C1
:1037B0000F4901604FF4827141604FF40041816014
:1037C0000021C1604FF400720161C0E905121022AE
:1037D000C0E90721416281620A21C162FEF730FB24
:1037E000002803D0BDE81040FDF75FB910BD000010
:1037F00000300140C802002010B586B000241648F1
:10380000009401940294039404944FF08041059431
:10381000016042F2CF01C0E901140921C0E903149B
:103820008461FEF76FFF08B1FDF73FF94FF4805058
:10383000009069460848FFF791F808B1FDF735F99F
:10384000049404A904480594FEF7CAFE002801D098
:10385000FDF72BF906B010BDE00300200C4810B5B1
:103860000A4901604FF4E1314160002181600C227E
:10387000C160C0E904128161C161FFF74DFC0028FD
:1038800003D0BDE81040FDF710B910BD0010014095
:1038900028040020FEE7FEE7704710B5806B016842
:1038A0004A6822F003024A60416D41F0100141650F
:1038B000012180F85110FEF7BFFA10BD10B5806BE2
:1038C000FEF701FD10BD10B5806BFEF770FE10BD58
:1038D00010B5806BFEF76DFE10BD70B50546846BAC
:1038E000FDF7BEFD024628680068C00526D42068A2
:1038F000416821F020014160A06818B96068B0F506
:10390000827F16D02068416821F001014160642166
:10391000204600F076F808B1202060650020E0879E
:10392000012084F85100606D40B12046FEF784FA12
:1039300070BD2068416821F00301E7E72046FEF7EB
:10394000C1FC70BD38B50546846BFDF789FD0246A4
:1039500028680068C00523D42068416821F0200150
:1039600041602068416821F00201416064212046E5
:1039700000F076F818B1606D40F020006065A06836
:10398000002118B92068C26880680090E186012093
:1039900084F85100606D18B12046FEF74DFA38BD2D
:1039A0002046FEF703FE38BD70B50546846BFDF773
:1039B00057FD024628680068C0051ED4206841688B
:1039C00021F0200141606421204600F049F818B13F
:1039D000606D40F0200060652068416821F00301BF
:1039E00041600020E086E087012084F85100606D8E
:1039F00018B12046FEF720FA70BD2046FEF7D8FD2C
:103A000070BDF8B5044640684FF48273984221D1E6
:103A1000A0684FF48065B0F5004F01D0A8420AD1EC
:103A20002068066826F0400606606068984211D15A
:103A3000A068A8420ED000920B46002280212046AA
:103A400000F03AF8002804D0606D40F02000606576
:103A50000320F8BD00920B4600220121EFE7000091
:103A600038B504461248134B0068B0FBF3F04FF42E
:103A70007A73584300906068B0F5827F0DD10B4691
:103A8000009200228021204600F016F870B1606D8F
:103A900040F020006065032038BD009830B1401E22
:103AA000009020688068C0430006F6D5002038BD2D
:103AB0001000002000366E012DE9F8431E469146A5
:103AC00088460446089DFDF7CBFC401B351AFDF7E0
:103AD000C7FC074625480068C0F3CB30684338E090
:103AE000701C37D0FDF7BCFCC01BA84203D215B137
:103AF000009860B32CE02068416821F0E00141604B
:103B00006068B0F5827F0BD1A068B0F5004F02D09D
:103B1000B0F5806F04D12068016821F04001016098
:103B2000A06AB0F5005F09D12068016821F4005156
:103B300001602068016841F400510160012084F8AF
:103B40005100002084F850000320BDE8F8830025D0
:103B5000401E00902068816838EA010004D00021EE
:103B60004945BDD10020F0E70121F9E71000002010
:103B700000207047F8B5044600208DF80000034689
:103B800004F120006A461321064620F0D0FD0546C8
:103B90000A21204600F0EEF900236A46282130462B
:103BA00020F0C5FD05440A21204600F0E3F900237A
:103BB0006A463621304620F0BAFD441908480949C2
:103BC0000122806801EBC000694600798DF8000091
:103BD000304620F0A5FD001901D04FF0FF30F8BDB0
:103BE000A40900208C000020F8B5044600208DF8C0
:103BF0000000034604F120006A461321064620F027
:103C000096FD05460A21204600F0B4F900236A46D5
:103C10002921304620F08BFD05440A21204600F082
:103C2000A9F900236A463621304620F080FD441968
:103C3000084809490122806801EBC0006946007903
:103C40008DF80000304620F06BFD001901D04FF0D8
:103C5000FF30F8BDA40900208C0000202DE9FF4FA3
:103C6000987AD97A5D7B00EB0120197B5F7D09048E
:103C700001EB05610144987CDD7C93F819C000EBF1
:103C800005201D7D93F805802D0405EB076505448F
:103C9000987DDF7DDFF8E09000EB07201F7E83B08A
:103CA0003F0407EB0C6738449F7893F803C0002467
:103CB00007EB0C2793F804C026464FEA0C4C0CEB9C
:103CC000086C6744A7EB01085F18D9F8041000904E
:103CD000891A091A8B460A46DDE903012B4600F0D2
:103CE0005DFC651EF0BBDFF894A0D9F80810012335
:103CF00001AA1AF831008DF804000398362120300B
:103D0000009020F014FD68BBDDE903015A4600F085
:103D1000FBFB38BB78788DF8080038788DF80900FF
:103D2000022202A9009820F0FBFC08B12C4603E017
:103D3000B61CBF1C4645EDD3D9F808104E460AEB19
:103D4000C100012300798DF8040001AA36210098F2
:103D500020F0EDFC30B97068009000221146336805
:103D6000039800E002E000F019FC00B12C4607B017
:103D70002046BDE8F08F0000A40900208C00002040
:103D80002DE9F0411D46134B804600241B6848195D
:103D9000069F661E984218D8404600F0B5FBA0B9B1
:103DA0000020C7F307220C49FBB205E001F8102000
:103DB00001EB4007401C7B70A842F7D36A0006491C
:103DC00008F1200020F0ACFC00B134462046BDE8EC
:103DD000F0810000A4090020240700202DE9F05FF5
:103DE0008A460F491E468346496800259019DDF82A
:103DF000289017464FF0FF38884208D8002409E081
:103E00003A194B465146584600F066FC08B1454603
:103E100002E0641CB442F3D32846BDE8F09F0000E2
:103E2000A40900202DE9FF5F1D48DDE90E679146DA
:103E30008B46026831444FF000081C464FF0FF3AB1
:103E4000914204D8406809EB0701814201D9D0466C
:103E500022E000251EE000BF09EB0502594600984C
:103E600000F052FBA0B900200E4908E0627801F88A
:103E7000102001EB400314F8022B5A70401CB04292
:103E8000F4D3009872000749203020F049FC00B1BB
:103E9000D0466D1CBD42DFD304B04046BDE8F09F64
:103EA000A4090020A40400202DE9F84F0026DDE934
:103EB0000A7899468A468346144635460DE04B46B5
:103EC000224651465846CDF80080FFF759FF10B101
:103ED0004FF0FF3603E0641C6D1CBD42EFD330464B
:103EE000BDE8F88F4FF0FF3070470000024880684F
:103EF0000860002070470000A4090020FEB51C46A1
:103F0000054600F001FB064605F1200002AA2E211D
:103F1000054620F0F7FB0644012202A9284620F0BE
:103F2000F8FB064401226946284620F0F2FB0644CD
:103F3000012201A9284620F0ECFB9DF800109DF815
:103F40000420801901EB0221216001D04FF0FF30E5
:103F5000FEBD0000024800680860002070470000B5
:103F6000A409002002484068086000207047000053
:103F7000A409002070B50546C0690E468047044676
:103F8000E8698047001BB042FAD3002070BD2DE9DC
:103F9000F74F84B05FEA00087DD0002408F12000CC
:103FA0008DF80440234601AA0121029020F0BFFBB6
:103FB000054678214046FFF7DDFF8DF804400123D8
:103FC00001AA1121029820F0B2FB0544002301AAA6
:103FD000B121029820F0ABFB012605448DF8046066
:103FE000324601A9029820F09BFB05442C278DF84E
:103FF0000470012201A9029820F092FB00EB050950
:104000002D258DF80450012201A9029820F088FB8B
:1040100081448DF80460012301AAB221029820F0A6
:1040200086FB81448DF80470012201A9029820F0DA
:1040300077FB81448DF80450012201A9029820F0F9
:104040006FFB81448DF80460012301AAB32102981B
:1040500020F06DFB81448DF80470012201A90298C3
:1040600020F05EFB81448DF80450012201A90298E2
:1040700020F056FB81448DF80460012201A90298CA
:1040800020F04EFB81448DF80470012201A90298B2
:1040900020F046FB00E0C9E181448DF80450012284
:1040A00001A9029820F03CFB00EB090A4FF0070938
:1040B0008DF80490012301AAB421029820F037FB67
:1040C0008244A2208DF80400012301AAC021029895
:1040D00020F02DFB00EB0A0B4FF0020A8DF804A034
:1040E000012201A9029820F01BFB834484208DF853
:1040F0000400012201A9029820F012FB8344C5208C
:104100008DF80400012301AAC121029820F00FFBC1
:1041100083440A208DF80400012301AAC2210298D9
:1041200020F005FB83448DF80440012201A9029888
:1041300020F0F6FA83448A208DF80400012301AAB6
:10414000C321029820F0F3FA83442A208DF804005A
:10415000012201A9029820F0E3FA83448A208DF815
:104160000400012301AAC421029820F0E0FA83444C
:10417000EE208DF80400012201A9029820F0D0FA67
:1041800083440E208DF80400012301AAC521029862
:1041900020F0CDFA8344002301AA2021029820F0C8
:1041A000C6FA8344012305AA3A21029820F0BFFAF7
:1041B00083448DF804A0012301AAE021029820F095
:1041C000B6FA83441C208DF80400012201A902984C
:1041D00020F0A6FA83448DF80490012201A90298E8
:1041E00020F09EFA834412208DF80400012201A9D8
:1041F000029820F095FA834437208DF804000122BC
:1042000001A9029820F08CFA834432208DF8040032
:10421000012201A9029820F083FA00EB0B014FF074
:10422000290B00918DF804B0012201A9029820F019
:1042300077FA00998DF8045001440091012201A9F8
:10424000029820F06DFA00998DF804B001440091B5
:10425000012201A9029820F063FA00990122014489
:10426000252000918DF8040001A9029820F058FA49
:104270000099012201442B2000918DF8040001A92E
:10428000029820F04DFA0099012201443920009152
:104290008DF8040001A9029820F042FA00998DF8E7
:1042A000044001440091012201A9029820F038FA4B
:1042B00000998DF8046001440091012201A902983F
:1042C00020F02EFA00990122461803208DF80400F0
:1042D00001A9029820F024FA064410208DF8040069
:1042E000012201A9029820F01BFA064403208DF850
:1042F0000400012301AAE121029820F018FA0644E3
:104300001D208DF80400012201A9029820F008FA6E
:1043100006448DF80490012201A9029820F000FAC9
:10432000064406208DF80400012201A9029820F01D
:10433000F7F900EB06092E268DF80460012201A989
:10434000029820F0EDF981448DF80470012201A952
:10435000029820F0E5F900EB09078DF804B001227E
:1043600001A9029820F0DCF907448DF804500122DD
:1043700001A9029820F0D4F9C5198DF80460012232
:1043800001A9029820F0CCF905448DF804600122BF
:1043900001A9029820F0C4F9054437208DF80400E3
:1043A000012201A9029820F0BBF905443F208DF8B5
:1043B0000400012201A9029820F0B2F905448DF809
:1043C0000440012201A9029820F0AAF905448DF8C1
:1043D0000440012201A9029820F0A2F905448DF8B9
:1043E00004A0012201A9029820F09AF905441020A6
:1043F0008DF80400012201A9029820F091F90544EA
:104400008DF80440012301AA1321029820F08FF9AE
:104410004419012301AA2921029820F088F90444B3
:104420004046069900F028F9001901D04FF0FF30FE
:1044300007B0BDE8F08FF8B50E4620306A46DA21A5
:10444000074620F05FF94FF0FF3408B12046F8BD71
:104450006D46DB2138466A1C20F054F90028F5D15E
:10446000AA1CDC21384620F04DF90028EED1BDF819
:1044700001009DF8001040BA61F31F403060002039
:10448000F8BD30B40C460369204630BC11461847CD
:1044900030B40C468369204630BC114618470000F2
:1044A00010B54FF0FF32D8B10B6803604C68446020
:1044B0000C890481CC68C4600C6904614C69446156
:1044C0008C698461C969C16106494162064901621A
:1044D000064981620649C0E90B100BB198470246B4
:1044E000104610BD8344000821470008F544000829
:1044F0009144000830B40C464369204630BC114654
:1045000018474FF0FF307047F8B50D462249144662
:104510008968012901D8183501E002F1180420301A
:1045200000236A462A21064620F001F90746280A98
:104530008DF8000001226946304620F0F1F807446A
:104540008DF8005001226946304620F0E9F8C5197F
:1045500000236A462B21304620F0E9F80544200A62
:104560008DF8000001226946304620F0D9F8054454
:104570008DF8004001226946304620F0D1F84419F8
:1045800000236A462C21304620F0D1F8001901D0D2
:104590004FF0FF30F8BD0000A40900202DE9F843DA
:1045A0000D463449DDF820801F46896814460129EC
:1045B00001D8183501E002F11804203000236A46C2
:1045C0002A21814620F0B3F80646280A8DF800001B
:1045D00001226946484620F0A3F806448DF80050B1
:1045E00001226946484620F09BF83D4406446D1E72
:1045F000280A8DF8000001226946484620F090F80C
:1046000006448DF8005001226946484620F088F89B
:10461000851900236A462B21484620F088F8054476
:10462000200A8DF8000001226946484620F078F8FB
:1046300005448DF8004001226946484620F070F894
:1046400044440544641E200A8DF800000122694696
:10465000484620F065F805448DF80040012269467F
:10466000484620F05DF8401901D04FF0FF30BDE81A
:10467000F8830000A40900207CB50C000546144A0C
:104680004FF050004FF0A0011FD0012C1DD0C2E907
:10469000001094605068009013680022114628466C
:1046A000FFF77CFF06460B48012300EBC40001AA7C
:1046B00000798DF80400362105F1200020F037F84C
:1046C000801901D04FF0FF307CBDC2E90001E0E766
:1046D000A40900208C000020F8B506464FF6FF70B4
:1046E00000EA032040EA1320ADF800000B48002444
:1046F000651E03688B420DD9406890420AD9304646
:10470000FFF702FF30B90222694606F1200020F0CF
:1047100007F800B12C462046F8BD0000A40900208F
:10472000F0B414460D46C66821462846B446F0BC8F
:104730001A4660477047FCF799BE000030B593B049
:1047400030216846FBF775FF14210CA8FBF771FFB9
:104750001D480025016841F080510160006800F0AB
:10476000805011901948016821F4404141F4004102
:1047700001600068022400F4404011900120009084
:10478000000401908001CDE9064008AA04205421CC
:1047900082E813000B906846FDF7FAF808B172B68C
:1047A000FEE70CA90F2081E831004FF48050CDE9DD
:1047B0000F0502210CA8FCF775FF002801D072B686
:1047C000FEE713B030BD00004038024000700040EA
:1047D0000248016841F470010160704788ED00E013
:1047E0000148FEF78ABA0000E0030020F0B5026835
:1047F0001D4B1E4C9F031E4D1E4E984207D0B842C3
:1048000005D0A04203D0A84201D0B04204D122F08A
:10481000700C4A6842EA0C02984210D0B8420ED09E
:10482000A0420CD0A8420AD0B04208D0124CA042FC
:1048300005D0124CA04202D0114CA04203D122F468
:104840004074CA6822434C6922F08002224302600D
:104850008A68C2620A688262984201D1096901636A
:1048600001214161F0BD0000000001400004004052
:1048700000080040000C004000400140004401409E
:104880000048014010B5846842EA032224F47F44C2
:104890000A432243826010BD826822F070020A43FC
:1048A00042F007018160704710B5036A046A24F082
:1048B00001040462846924F0F00444EA021423F041
:1048C0000A020A438461026210BD10B5036A23F034
:1048D000100303628369046A23F4704343EA0232DB
:1048E00024F0A00343EA01118261016210BD10B5FA
:1048F000806B0021C185C184FEF7D8FA10BD016824
:104900000C3151E8002F22F4907241E80023002B73
:10491000F5D10168143151E8002F22F0010241E87D
:104920000023002BF5D1016B012909D101680C315D
:1049300051E8002F22F0100241E80023002BF5D1AE
:10494000202180F83E1000210163704708B590F8DF
:104950003E10222901D0022008BD82684FF4805306
:104960009A4201D1016921B1816A9A421BD04AB1B0
:104970000AE00268816A5268C2F308020A80816A0A
:10498000891C08E0026972B10268526802F07F0275
:104990000A70816A491C8162C18D491E0904090C93
:1049A000C18503D019E002685268F1E70168CA685E
:1049B00022F02002CA600168CA6822F48072CA60CC
:1049C00001684A6922F001024A61202180F83E1004
:1049D000016B012903D0FEF787FC002008BD0021F0
:1049E000016301680C3151E8002F22F0100241E808
:1049F0000023002BF5D101680A68D20602D50A68A7
:104A000049680091818DFEF750FAE6E770B50446DB
:104A100040685449884204D940F6616152A002F0CE
:104A20001AF9E06838B1B0F5005F04D040F6626171
:104A30004DA002F010F9206950B1B0F5806F07D099
:104A4000B0F5C06F04D040F6636147A002F003F9EF
:104A500060694FF6F371084200D120B940F66461F5
:104A600041A002F0F8F820680169E26821F44051A1
:104A7000114301612169A068E2690843616911433A
:104A800022680843D16849F20C6399430143D1601D
:104A900020684169A26921F4407111434161414993
:104AA0002068884202D04049884202D1FCF730FF9A
:104AB00001E0FCF71DFFE26900231921642532267D
:104AC000B2F5004F626828D0A0FB0101930F92005D
:104AD000FBF74EFC0146B0FBF5F06FF018025043B7
:104AE00001EB800006EB0010B0FBF5F000F0F002E7
:104AF000B1FBF5F002EB0012B1FBF5F06FF018031B
:104B0000584301EB800006EB0010B0FBF5F000F01D
:104B10000F0021681044886070BDA0FB010192184D
:104B20005B41FBF725FC0146B0FBF5F00201B1FB50
:104B3000F5F06FF01803584301EB800006EBC0005E
:104B4000B0FBF5F000F0F80002EB4002B1FBF5F02D
:104B5000584301EB800006EBC000B0FBF5F000F01D
:104B60000700D6E7A037A0002E2E2F447269766585
:104B700072732F53544D3332463478785F48414C2A
:104B80005F4472697665722F5372632F73746D334D
:104B900032663478785F68616C5F756172742E6319
:104BA0000000000000100140001401408162828575
:104BB000C28500210164222280F83E2080F83C104A
:104BC000016921B10168CA6842F48072CA60016853
:104BD0004A6942F001024A610068C16841F020015F
:104BE000C160002070472DE9F041984617460E46F7
:104BF0000446069D27E0681C25D02DB1FCF730FC4B
:104C0000A0EB0800A8421ED920680C3050E8001F15
:104C100021F4D07140E80012002AF5D12068143048
:104C200050E8001F21F0010140E80012002AF5D1F0
:104C3000202084F83D0084F83E00002084F83C00E9
:104C40000320BDE8F0812068006836EA000004D047
:104C50000020B842CFD00020F3E70120F9E70000A0
:104C60000148FEF725B9000028040020FEE70907E7
:104C7000090E002804DB00F1E02080F800147047E2
:104C800000F00F0000F1E02080F8141D704770B5AF
:104C9000044600256FF02F0608E02068411C2160C3
:104CA000007805EB850106EB410145182068007886
:104CB00000F004F80028F0D1284670BD30380928EB
:104CC00001D80120704700207047000010B54C212A
:104CD000074800F017FC0022212106481CF052FF73
:104CE000054C606001F052FD0020207010BD0000F6
:104CF000D4160020416800081001002070B5B1F9F9
:104D00000030B2F90040A34200DC23460380B1F931
:104D10000250B2F90240A54200DD2C464480B1F9B0
:104D20000460B2F90450AE4200DA35468580B1F92C
:104D30000610B2F90620914200DB1146C180012025
:104D4000AB4201DC8C4200DD002070BDF8B50D46A1
:104D50000446B0F90000B1F900101646884247DB5E
:104D6000B4F90210B5F90220914241DBB4F9041004
:104D7000B5F9042091423BDCB4F90610B5F90620E0
:104D8000914235DC96B3ADF800006088ADF80200C2
:104D900032466946284600F099F8002827D0A088B6
:104DA000ADF800006088ADF802003246694628463A
:104DB00000F08CF800281AD02088ADF80000E088B8
:104DC000ADF8020032466946284600F07FF8002818
:104DD0000DD0A088ADF80000E088ADF802003246A2
:104DE0006946284600F072F8002800D00120F8BD7E
:104DF0000020F8BDB0F90020B1F904309A4213DC6C
:104E0000B0F90420B1F900309A420DDBB0F902206C
:104E1000B1F906309A4207DCB0F90600B1F9021088
:104E2000884201DB0120704700207047F8B50D462D
:104E30000446B0F90400B1F900101646884243DB7D
:104E4000B4F90600B5F9021088423DDBB4F9000060
:104E5000B5F90410884237DCB4F90210B5F9062020
:104E6000914231DC76B3ADF800006088ADF8020005
:104E700032466946284600F029F818BBA088ADF8EC
:104E800000006088ADF8020032466946284600F00E
:104E90001DF8B8B92088ADF80000E088ADF8020030
:104EA00032466946284600F011F858B9A088ADF896
:104EB0000000E088ADF8020032466946284600F05E
:104EC00005F808B10020F8BD0120F8BD2DE9FC412E
:104ED00014460E46B1F90020B0F9001005468A428A
:104EE0003ADBB5F90400824236DCB6F90270B5F956
:104EF0000220974230DBB5F906309F422CDC002CB3
:104F000075DD401A9A1A401C521C00B212B200EB16
:104F1000D07002EBD27240105210904200DB10466B
:104F2000844200DD0446ADF80010288800222044A9
:104F3000ADF804006888ADF8020068883146204466
:104F4000ADF806006846FFF7C1FF40B1BDF80400A8
:104F50002044ADF804003FE00020BDE8FC81E88873
:104F60000022001BADF80200E888ADF806003146CB
:104F70006846FFF7ABFF28B1BDF804002044ADF848
:104F8000040011E0A8880022001BADF80000A888EA
:104F9000ADF8040031466846FFF798FF50B1BDF800
:104FA0000000001BADF80000BDF80200001BADF8CA
:104FB000020016E06888ADF80200688800222044EC
:104FC000ADF8060031466846FFF780FF70B1BDF8C6
:104FD0000000001BADF80000BDF806002044ADF84D
:104FE0000600314668461AF0FBF9B6E7FFE70120F4
:104FF000B3E710B5B1F90040B2F900309C4200DAD5
:1050000023460380B1F90240B2F902309C4200DA33
:1050100023464380B1F90440B2F904309C4200DDDC
:1050200023468380B1F90610B2F90620914200DCD4
:105030001146C18010BD0000FEB506461CF03EFDC5
:10504000394C054636B1F068606030461CF068FEA9
:10505000606802E00FF0DCFC6060D0F85C011CF0DE
:1050600027FD07466068C0F85C5100691AF0B4F883
:105070006068406908B11AF0AFF86068C0691AF05A
:10508000ABF86068006A1AF0A7F86068002501694B
:10509000F1B30068017CC90703D0806B407B002816
:1050A00041D11AF055FA1EF049FB6068B0F8501172
:1050B00079B30168097C890715D50FF007FD401EFB
:1050C00006B260680FF0BCFC401E03B2002211461D
:1050D00001A800960DF0C6FA606801A90268926BFB
:1050E000516004F0E9F860684FF48071303015F0D9
:1050F0009DFD6068202100F5987015F097FD6068AF
:10510000A0F850510068036A1BB13946226801E0DB
:1051100007E000E0984700F035F8BDE8FE4000F0F9
:1051200005B8A0F85051FEBDDC00002070B50A4D56
:10513000002400BFC4EBC40655F8260008B112F0E5
:10514000FBFE05EB86001C2115F074FD641CE4B227
:10515000042CEFD370BD00003017002008494968C7
:105160000AE04A68824202D00A68824203D10A7E7B
:1051700042F001020A7649690029F2D17047000025
:10518000B0000020704700000421014800F0BAB9C7
:10519000C81600202021014800F0B4B9E016002014
:1051A0002DE9FF410446DDE90A671D004FF00000CC
:1051B00002D1B6F5807F2BD0039001900290ADF81C
:1051C0000C100090ADF80410ADF80A20ADF80E20D8
:1051D0003B463246294668461AF062F83B4632465C
:1051E000294601A81AF05CF83B463246294602A837
:1051F0001AF056F83B463246294603A81AF050F8F2
:10520000BDF90000BDF90430984209DA054608E00E
:105210002080491E6080A180521EE280BDE8FF818F
:105220001D46BDF90820BDF90C108A4201DA164668
:1052300000E00E46B54203DA984206DB184604E069
:105240008A4201DA104600E00846801E2080BDF93F
:105250000030BDF90420934201DD1D4600E01546F3
:10526000BDF90800BDF90C10884201DD064600E0DA
:105270000E46B54205DD934201DD194604E01146B4
:1052800002E0884200DD0146891CA180BDF90230A0
:10529000BDF90620934201DA1D4600E01546BDF92E
:1052A0000A00BDF90E10884201DA064600E00E46FB
:1052B000B54205DA934201DA194604E0114602E0EC
:1052C000884200DA0146891E6180BDF90230BDF9CD
:1052D0000620934201DD1D4600E01546BDF90A0097
:1052E000BDF90E10884201DD064600E00E46B542CB
:1052F00005DD934201DD194604E0114602E08842D3
:1053000000DD0146891CE18088E700000EB5684693
:1053100013F0F6F904480090044801900448029004
:10532000684613F0E3F90EBD455300080D870108E8
:10533000E9860108024B1B6803B11847FEE700002D
:10534000981600202DE9F04115460E460746124CEE
:105350001CF0B4FB80462B4632463946204613F0FB
:105360007FFD20B10020A062E06958B111E0204625
:105370002C22002115F02CFC4FF00040A0620020F0
:10538000BDE8F08140461CF093FBE06108B90120C4
:10539000E0612046F4E700000417002010B5142156
:1053A000074800F0AFF813F021FD40B10549016056
:1053B00005494160054981600549C16010BDFEE7AE
:1053C000EC1600201D880108998B01080D8D01083D
:1053D000E98701087FB50E46040003D10FF018FBE2
:1053E00004002CD00FF088FB002828D094F8280067
:1053F000400724D4002506B3ADF80050ADF80250A4
:1054000020460FF01DFB401EADF8040020460FF0B3
:105410005DFB401EADF806006A46314602A8FFF764
:105420006DFC00280BD02068017C890708D5DDE9D8
:105430000001C4E90C01012029E0A4F850517FBD0E
:1054400082690AB102A9904700260AE004EBC6016E
:10545000002202A83031FFF779FC0028EFD1761C3A
:10546000B6B2B4F85001B042F0D880B2202804D2CD
:1054700004EBC00002A9303004E0A4F8505104F15C
:10548000300069460DF03CF8B4F85001401CA4F817
:10549000500160680028D2D01CF04EFC7FBD70B572
:1054A000054600F012F804460CE02146284600F0BC
:1054B0001EF806462146284600F071F8204612F0F4
:1054C0003BFD3446002CF0D170BD002800D0406870
:1054D000704700B503460022FFF7F7FF03E01846C8
:1054E000521C00F004F80100F9D1104600BD00681C
:1054F000091D40587047006840587047002800D088
:105500008068704700224260C91C21F0030182605C
:105510000160704770B504460068083015F078FAED
:10552000050013D00146002220461DF0E7FC294665
:10553000204662681DF0DCFC616819B12A462046ED
:105540001DF0DCFC6560A06800B9A560284670BD50
:1055500070B504460068083015F05AFA050013D0FB
:105560000146002220461DF0C3FC29462046A268C1
:105570001DF0C4FCA16819B12A4620461DF0B8FCF4
:10558000A560606800B96560284670BD28B14168B3
:1055900009B9806808B1002070470120704770B5D4
:1055A00004000DD0FFF791FF00228842204608D169
:1055B000FFF79DFF6060011E01D000221EE0A26087
:1055C00070BDFFF79BFF8842206808440AD101683C
:1055D000A16029B12046BDE8704000221DF088BCC2
:1055E000626070BD05682046FFF781FF06460246EF
:1055F000294620461DF07CFC2A4631462046BDE85F
:1056000070401DF07BBC10B50446006882680AB18A
:105610002146904720680068002801D02060F5E707
:1056200010BD8068002801D0B0F91600704780686E
:10563000002801D0807E8009704770B51646054667
:105640000C4651EA06001AD0284616F00DF8A86854
:1056500001233246018A21440182A868418A3144EB
:1056600041822146284618F0BFFB00220C21284623
:1056700012F04EFB012803D1284618F00EFB012042
:1056800070BD77B581B00E46050017D0612217F0C6
:10569000ADFD040012D0206880B128463146622258
:1056A00017F0A4FD10F0FF0208D0236820460399EC
:1056B00098470090BDF80000ADF80C00039804B0C6
:1056C00070BD00002DE9F047074694B0408C1C9E49
:1056D00040F00400788490463A8499468A4632899C
:1056E000384617F083FD0546A7F8209032895146C9
:1056F000384617F07BFD0446788CA54220F0040064
:10570000788403D12904B1EB044F64D0A7F820803A
:1057100032895146384617F069FD05468046A7F89C
:105720002090514638460BF0EBF8318900682A4644
:105730001BF0EAF830890B2823D147F6FF794D4555
:1057400001D04C451DD1384617F0C9FF00EBD07091
:105750004510384616F01BFE00EBD0704010C845CF
:1057600006D1691C431C994200DA00E019468846BC
:105770004C4506D1691C421C914201DA6C1C00E0C8
:1057800014461748FFF7C6FE050027D02F60C5E96D
:1057900003843089A8806846C5F808A00CF0CCF9CD
:1057A0001048FF21CDE900500F4802900F480390A8
:1057B00000200890CDE9090130880B9070884042A4
:1057C0000C90F068079000208DF842003069069038
:1057D00068460CF023FA14B0BDE8F087FEE700003D
:1057E000F8160020CD720208B57402081174020880
:1057F00014210148FFF786BEF81600202DE9F84F66
:1058000000259046894606462C460427E6E000BF60
:10581000F06807EBC401405881017CD480B230EAC3
:10582000090112D05FF0000230EA08000FD000201A
:10583000824270D0F0686A46102150F834008246E7
:105840001AF0C6FD002871D103E00122ECE7012027
:10585000EEE76A46112150461AF0BAFD002865D1DC
:105860006A46122150461AF0B3FD00285ED16A46FE
:10587000132150461AF0ACFD002857D16A46152175
:1058800050461AF0A5FD002850D16A461421504612
:105890001AF09EFDF0BB6A460A2150461AF098FDA8
:1058A000C0BB6A466A2150461AF092FD90BB6A4618
:1058B0006B2150461AF08CFD60BB6A4601215046B0
:1058C0001AF086FD30BB6A46042150461AF080FD6E
:1058D00000BB6A46022150461AF07AFDD0B96A46EA
:1058E000032150461AF074FDA0B96A4605215046BE
:1058F0001AF06EFD70B96A46062150461AF068FD2E
:1059000040B96A46322150461AF062FD10B96A4623
:105910006D2101E00AE060E050461AF059FD28B917
:105920006A466C2150461AF053FD10B10320BDE8C1
:10593000F88F6A46682150461AF04AFDF0BB6A4665
:10594000692150461AF044FDC0BB6A466D2150469D
:105950001AF03EFD90BB6A466C2150461AF038FDA5
:1059600060BB6A46372150461AF032FD30BB6A46AA
:10597000382150461AF02CFD00BB6A4635215046AE
:105980001AF026FDD0B96A46402150461AF020FD93
:10599000A0B96A46452150461AF01AFD70B96A4608
:1059A000412150461AF014FD40B96A464221504642
:1059B0001AF00EFD10B96A46432100E009E0504696
:1059C0001AF006FD28B96A46492150461AF000FD32
:1059D00008B1022501E005B90125641C708CC0F3F3
:1059E000C500A0423FF614AF2846A0E70148406832
:1059F00070470000DC0000207047C0F30410072847
:105A000000D9072070470000A0F57F41FF3905D07D
:105A1000002804D0702803D208490AE01F207047EC
:105A20000749703880B2096829B1064A5268904225
:105A300001D2085C7047002070470000D4BB020808
:105A4000380100204C01002010B518210348FFF751
:105A500059FD03490120087010BD0000A416002064
:105A6000540100202DE9F04190460C46050015D068
:105A7000FAF78EFD0A4F06462146BA682846904737
:105A80000446BA682819414690470146701A03E057
:105A90006218AA5C2A55641CA042F9D2BDE8F081C4
:105AA000680100202DE9F041094D90460E466A68D4
:105AB0001C46074619469047306020B120686A6846
:105AC000384400219047C8F80000BDE8F08100008C
:105AD000680100202DE9F04F87B08A46DDE91058B3
