:020000040800F2
:10000000D00B00203D020008753400089124000840
:1000100071340008D5060008B5380008000000005B
:10002000000000000000000000000000753500081E
:10003000D90600080000000079340008793500086E
:10004000570200085702000857020008570200082C
:10005000570200085702000857020008570200081C
:10006000570200085702000857020008570200080C
:1000700057020008570200085702000857020008FC
:10008000570200085702000857020008000000004D
:1000900000000000000000000000000057020008FF
:1000A00057020008570200085702000857020008CC
:1000B00057020008570200085702000857020008BC
:1000C00057020008570200085702000857020008AC
:1000D00057020008A9380008570200080000000075
:1000E00057020008570200085702000800000000ED
:1000F000000000000000000000000000570200089F
:1001000000000000570200085702000857020008CC
:1001100000000000000000000000000000000000DF
:10012000570200085702000857020008570200084B
:10013000570200080000000000000000000000005E
:10014000000000000000000000000000570200084E
:10015000570200085702000857020008570200081B
:1001600057020008570200080000000000000000CD
:10017000000000000000000000000000000000007F
:10018000000000005702000800000000000000000E
:100190005702000800F002F800F041F80AA090E8C9
:1001A000000C82448344AAF10107DA4501D100F032
:1001B00036F8AFF2090EBAE80F0013F0010F18BFBE
:1001C000FB1A43F00103184788850000A88500004A
:1001D000103A24BF78C878C1FAD8520724BF30C873
:1001E00030C144BF04680C60704700000023002445
:1001F00000250026103A28BF78C1FBD8520728BF37
:1002000030C148BF0B607047642900F0EB800020CC
:1002100070471FB503F019FC1FBD10B510BD00F0ED
:100220001EFA1146FFF7F5FF03F048FB00F03CFA19
:1002300003B4FFF7F2FF03BC00F044FA094880471B
:1002400009480047FEE7FEE7FEE7FEE7FEE7FEE7B8
:10025000FEE7FEE7FEE7FEE704480549054A064BD0
:10026000704700002936000895010008D0050020DD
:10027000D00B0020D0070020D007002053EA020C4A
:1002800000F069802DE9F04B4FF00006002B1FBFF6
:10029000B3FA83F503FA05F424FA05F65E4012BFBB
:1002A0001643B2FA82F502FA05F4C5F120051EBF25
:1002B00022FA05FC44EA0C04203556EA044C4FEAC5
:1002C000144418BF641C4FF000084FF0000990421E
:1002D00071EB030C39D3002919BFB1FA81F701FA88
:1002E00007F6B0FA80F700FA07F6C7F120071EBF3D
:1002F00020FA07FC46EA0C062037B6FBF4FCA7EB15
:100300000507103F07F01F0BCBF120062CFA06F66D
:100310000CFA0BFB44BFB3460026202FA4BF5E4659
:100320004FF0000B5BEA060C08BF4FF0010B19EB16
:100330000B0948EB0608ABFB027C06FB02CC0BFB6F
:1003400003CCC01B71EB0C01C1E70B4602464146D2
:100350004846BDE8F08B13B5084318BF4FF0FF3097
:100360000146AFF30080BDE81C4070470FB41CB5D8
:10037000074B06AA7B4469460090059800F057F9A0
:100380000020694600F066F91CBC5DF814FB000013
:10039000DD02000070B5044685690068C10601D51C
:1003A000302600E02026C00707D070BDD4E9012127
:1003B00030469047206A401C20626D1EF6D570BD05
:1003C00070B5044685690078C00707D170BDD4E9CF
:1003D000012120209047206A401C20626D1EF6D526
:1003E00070BD00002DE9F041064600241068752913
:1003F000314616A510D0AFF30080002802DA404243
:1004000013A507E031688A0701D512A502E0490764
:1004100004D511A5012401E0AFF3008000210A22D8
:1004200006F1240709E0B0FBF2FCB0FBF2F302FB9B
:100430001C00303078541846491C0028F3D123465C
:100440002A463046BDE8F04100F092B800000000B6
:100450002D0000002B000000200000002DE9F047D7
:100460004FF0000A89460446C0F820A02046E16803
:100470008847002876D0252806D0D4E90121904766
:10048000206A401C2062F1E7E16820460025884789
:10049000C4F81CA006460027C4F818A02A2E09D0CC
:1004A000304603F0CBFA38B304EB8708303EC8F887
:1004B000186019E059F8041B204604EB870291618B
:1004C000E1688847012F064618D1E069002820DA44
:1004D00025F020051DE0D8F8180000EB800006EBA1
:1004E00040003038C8F818002046E16888470646C2
:1004F00003F0A4FA0028EED1012F0AD02E2E08D145
:100500002046E16888477F1C0646022F45F02005FB
:10051000C4DBA069002803DA404245F00105A06170
:10052000E80701D025F01005B6B1A6F14100192861
:1005300002D8203645F400654A46314620462560FB
:100540004D46FFF761FE58B1012806D0ED1D25F09C
:10055000070000F1080989E704E005F1040985E7CF
:1005600030468AE7206ABDE8F087704770477047D9
:100570002DE9F0470D4699469246044600F12408BD
:100580000168880604D5E06921F01001216000E0CF
:100590000120A84201DD471B00E00027A1697A196C
:1005A00002EB0900081AA0612078C00602D4204698
:1005B000FFF7F0FE002608E0D4E901211AF8060052
:1005C0009047206A401C761C20624E45F4DB207860
:1005D000C0060AD52046FFF7DDFE06E0D4E901217A
:1005E00030209047206A401C2062381EA7F1010786
:1005F000F4DC07E0D4E9012118F805009047206AEF
:10060000401C2062281EA5F10105F3DC2046FFF7FF
:10061000D7FE2078000602D50220BDE8F087012031
:10062000FBE7000001694A1C02610878704700B5C9
:100630008FB0CDE901310021059105497944CDE91B
:10064000031011466846FFF709FF0FB000BD000018
:10065000E5FFFFFF0A6802F8010B0A607047754664
:1006600000F02CF8AE4605006946534620F007001E
:10067000854618B020B5FFF7EFFDBDE820404FF0EC
:1006800000064FF000074FF000084FF0000BAC469B
:10069000ACE8C009ACE8C009ACE8C009ACE8C009E6
:1006A00021F007018D46704710B50446AFF3008076
:1006B0002046BDE81040FFF7BBBD00000048704772
:1006C0001000002001491820ABBEFEE72600020002
:1006D00070470000FEE7000070470000EFF3108055
:1006E00072B600BFFEE7000070B5866D044600F0EC
:1006F0000FFA94F83510022928D105462068216C9C
:10070000026822F016020260426922F08002426111
:1007100009B9A16C19B1016821F0080101600168F3
:1007200021F00101016000BF20680068C00715D0FA
:1007300000F0EEF9401B0628F6D320206065032068
:1007400084F83500002184F8341070BD8020606585
:100750000120002184F8341070BD00BFE06D3F21FE
:1007600001FA00F0B060012084F83500002000217B
:1007700084F8341070BD000090F83510022909D1BA
:10078000052180F835100068016821F00101016041
:10079000002070478021416501207047B0B50446B4
:1007A00000F0B6F9054640F20000C2F20000007801
:1007B000611C18BF044400BF00F0AAF9401BA0420E
:1007C000FAD3B0BD2DE9F04F83B0044600F13E40AE
:1007D00000F1FF704FEAB027052F0D4680F03A81F7
:1007E00028680021B1EB104F40F0188180B200283A
:1007F00000F014816868B0F5881F80F21B81122810
:1008000000F23E81012101FA00F00F21C0F2060141
:10081000084200F0358105F11000019041F200001E
:10082000C4F20200072143F60049844208BF0421B4
:10083000C4F20109042F38BF39464FF0010C4FF0C4
:10084000030E4FF0000A4FF0000B0027009107E065
:1008500001370BF1020B102F0AF1040A00F0DA80C5
:1008600028680CFA07F810EA080FF1D0686800F061
:1008700003014A1E012A07D9032929D100F00301E7
:10088000022941D06DE000BFE86804280BD348F28C
:10089000A060C0F60000C02103F00EF8E8684FF039
:1008A000030E4FF0010CA1680EFA0BF2914300FA0F
:1008B0000BF00843A0606168686821EA0801C0F392
:1008C0000012BA401143616000F003010329D5D042
:1008D000A86803280BD348F2A060C0F60000D1211D
:1008E00002F0EAFFA8684FF0030E4FF0010CE16838
:1008F0000EFA0BF2914300FA0BF00843E0606868CF
:1009000000F0030102292CD101980068102806D2BA
:1009100081B249F2FF7222FA01F1C9070CD148F203
:10092000A060C0F60000DE2102F0C6FF01984FF083
:10093000030E4FF0010C02E055A101EB80006FF0B7
:10094000030101EA5701214400680A6A0AF01C0306
:100950000F269E40B243984010430862686800F03A
:10096000030122680EFA0BF39A4301FA0BF11143CB
:1009700010F4403F21603FF46BAF002043F6440188
:100980000290C4F2020108684FF6084640F4804025
:1009900008600868CFF6FF7600F480400290029865
:1009A00027F00300484481590AF00C020F239340BA
:1009B0009943009B03FA02F211438151D9F80800D0
:1009C000696840EA080243F60C46CB0258BF20EAA9
:1009D0000802C9F80820C4F2010630688B0240EA18
:1009E000080258BF20EA08023260D9F804008B03DD
:1009F00040EA080258BF20EA0802C9F80420D9F8E2
:100A00000000C90340EA080258BF20EA0802C9F8FA
:100A100000201DE703B0BDE8F08F00BF48F2A060E2
:100A2000C0F60000AD2102F047FF6868B0F5881FEE
:100A3000FFF6E5AEB0F5081F18DAB0F5881F3FF4F1
:100A4000EAAEB0F5901F3FF4E6AEB0F5041F3FF4F8
:100A5000E2AE15E0072F3FF4C3AE48F2A060C0F647
:100A60000000AC2102F028FFBAE600BF3FF4D3AE8D
:100A7000B0F5441F3FF4CFAEB0F5481F3FF4CBAE06
:100A800048F2A060C0F60000AE2102F015FFC2E6F9
:100A90000000000001000000020000000300000050
:100AA0000400000005000000060000000700000030
:100AB00008000000090000000A000000000000001B
:100AC0000C00000000000000000000000F0000000B
:100AD00070B516460C46054631B1022E0ED2002ED8
:100AE00008BF2404AC6170BD48F2A060C0F60000ED
:100AF00040F29D1102F0E0FE022EF0D348F2A06019
:100B0000C0F600004FF4CF7102F0D6FEAC6170BDAC
:100B100040F2C850C2F200000068704740F2000086
:100B200040F2C851C2F20000C2F2000100780A6827
:100B3000104408607047000080B543F60040C4F2DE
:100B40000200016841F400710160016841F48061B4
:100B50000160016841F480710160032000F0A4F895
:100B60000F2000F005F800F027F8002080BD0000FD
:100B700070B540F20006C2F2000640F20C01327875
:100B8000C2F200014FF47A730968B3FBF2F2044633
:100B9000B1FBF2F1084600F043FF0F2C4FF00105C6
:100BA00008D838B94FF0FF3021460022002500F068
:100BB0003BF87460284670BD82B0002043F64001C7
:100BC0000190C4F202014A6842F480424A604A68D5
:100BD00002F480420192019A0090086840F080502F
:100BE0000860086800F080500090009802B07047DC
:100BF000B0F1FF3F10DDC1B200F01F00012202FA88
:100C000000F04EF20012CEF2000242EAD10121F0D1
:100C100003010860704700BF48F2D960C0F60000C9
:100C2000BC2102F049BE000070B515460E46102AE0
:100C3000044606D348F2D960C0F60000A82102F0AD
:100C40003BFE102E06D348F2D960C0F60000A92161
:100C500002F032FE4EF60C50CEF2000001684FF06A
:100C6000FF33C1F3022181F00702042A28BF0422C6
:100C7000033903FA02F238BF002126EA02028A4051
:100C800003FA01F125EA0101114304F00F02043ACD
:100C9000104404F16042090102F56442002C48BF8F
:100CA00000F10C02117070BD10B504460338052820
:100CB00006D348F2D960C0F60000902102F0FCFD96
:100CC0004EF60C50CEF2000001684FF6FF021140C4
:100CD00064F30A2141F0806141F0FD71016010BDB3
:100CE0002DE9F041002800F0DB80044600680D4645
:100CF00001380F2807D348F26860C0F6000040F2C0
:100D00005A2102F0D9FD082D07D348F26860C0F6D9
:100D1000000040F25B2102F0CFFD43F60808C4F268
:100D20000208D8F8F80300F00700A84208D288F8B3
:100D3000F853D8F8F80300F00700A84240F0B0805C
:100D4000206881071FD5410705D5D8F8001041F468
:100D5000E051C8F80010000705D5D8F8000040F4AD
:100D60006040C8F80000A0686FF0070101EB301187
:100D7000082980F0B780D8F8001021F0F00108436E
:100D8000C8F800002068C00764D1D8F8F80300F064
:100D90000700A84207D988F8F853D8F8F80300F0FC
:100DA0000700A8427CD1206841071AD5E0686FF09F
:100DB000030101EBB02104290BD34FEAB02141B16B
:100DC00048F26860C0F6000040F2C32102F074FDF2
:100DD000E068D8F8001021F4E0510843C8F800009A
:100DE000206800071AD520696FF0030101EBB021DC
:100DF00004290BD34FEAB02141B148F26860C0F634
:100E0000000040F2CA2102F057FD2069D8F8001016
:100E100021F4604141EAC000C8F8000000F09AF8EF
:100E2000D8F8001043F66422C1F30311C0F60002A3
:100E3000515C40F20C0220FA01F140F20400C2F2CF
:100E400000000068C2F200021160FFF791FE00206E
:100E5000BDE8F0816068042808D348F26860C0F6F5
:100E6000000040F2852102F027FD6068811E022902
:100E700008D258F8081C89015CBF0120BDE8F08148
:100E800012E000BF012807D158F8081C89035CBF95
:100E90000120BDE8F08107E058F8081C890703D459
:100EA0000120BDE8F08100BFD8F8001021F0030157
:100EB0000843C8F80000FFF72BFE064641F28837CA
:100EC000D8F80000616800F00C00B0EB810F3FF42F
:100ED0005CAFFFF71DFE801BB842F1D90320BDE8CF
:100EE000F08100BF4FEA301100293FF444AF48F2CF
:100EF0006860C0F6000040F27E2102F0DDFCA068D0
:100F000039E7000040F20C0043F60801C2F200008D
:100F1000C4F202010068096843F67422C1F3822119
:100F2000C0F60002515CC8407047000040F20C005F
:100F300043F60801C2F20000C4F202010068096829
:100F400043F67422C1F34231C0F60002515CC8403E
:100F50007047000010B543F60404C4F20204606850
:100F600000F00C0142F200400829C0F2F40007D062
:100F7000042918BF10BD41F20020C0F27A0010BD54
:100F8000216801F03F02216823684902C3F38811F8
:100F900006D4A1FB00010023FFF770F907E000BFB2
:100FA00041F20020C0F27A004843B0FBF2F0216821
:100FB0000222C1F3014102EB4101B0FBF1F010BD8F
:100FC0002DE9F04182B0002800F0BE8004460068A0
:100FD000102807D348F26860C0F60000E62102F04E
:100FE0006BFC206843F60006C007C4F2020612D06C
:100FF0006068002818BFB0F5803F40F02181B068DC
:1010000000F00C00042815D13068800303D5606817
:10101000002800F099802078800753D5E0680228E6
:1010200022D2206920282AD2B06810F00C0F32D1C9
:101030003BE000BFB06800F00C00082802D17068E7
:101040004002E1D46068B0F5803F07D0B0F5A02F32
:1010500040F06881306840F480203060306840F4AF
:101060008030306068E100BF48F26860C0F6000080
:1010700040F21D1102F020FC20692028D4D348F250
:101080006860C0F600004FF48F7102F015FCB06884
:1010900010F00C0F09D0B06800F00C00082840F0E8
:1010A000AB807068400200F1A7803068800702D5ED
:1010B000E068012848D13068216920F0F80040EA52
:1010C000C10030602078000742D42078400761D406
:1010D000A069032808D348F26860C0F6000040F217
:1010E000CD1102F0E9FBA06950B3B16801F00C0129
:1010F000082940F0C180012826D07068E16900F419
:1011000080028A4220D1216A00F03F028A421BD12C
:1011100047F6C071626A0140B1EB821F14D1A16A27
:101120004FF6FF73C903994300F44032A1F58031B3
:101130008A4209D1E16A00F07060B0EB016F03D11F
:10114000002002B0BDE8F081012002B0BDE8F081CE
:101150006069022808D348F26860C0F600004FF4C6
:10116000AF7102F0A9FB6069002840F26000C4F290
:10117000472071D00121C0F8201EFFF7C9FC0546A9
:10118000706F8007A1D4FFF7C3FC401B0228F7D97A
:10119000DFE000BFA068052800F29C80012101FA71
:1011A00000F010F0230F00F09580306C10F08058A4
:1011B0000AD100200190306C40F080503064306CD7
:1011C00000F080500190019847F20007C4F2000738
:1011D0003868C00526D4386840F480703860FFF75E
:1011E00097FC05463868C0051CD4FFF791FC401BEE
:1011F0000228F7D9ADE000BFE068002854D0602095
:10120000C4F24720012140F8601CFFF781FC05462D
:10121000306880073FF54FAFFFF77AFC401B02288C
:10122000F6D996E0A068012805D0052860D1306F76
:1012300040F004003067306F40F00100306761E03B
:10124000B0F5A02F3FF4DBAE48F26860C0F60000B6
:10125000EB2102F031FBD2E60021C0F8201EFFF79F
:1012600057FC0546706F80077FF52FAFFFF750FCE6
:10127000401B0228F6D96CE002286FD1E06940F4E7
:101280008000B0F5800F40F0A980206A402880F0EF
:10129000B180606A3238B0F5BF7F00F2B980A06AD1
:1012A000082840F2C08007E16020C4F247200021F6
:1012B00040F8601CFFF72CFC054600BF3068800733
:1012C0007FF500AFFFF724FC401B02284FF003001E
:1012D000F4D936E748F26860C0F600004FF4C571F3
:1012E00002F0EAFA306C10F080583FF462AF6BE71E
:1012F000316F002821F001013167316F21F00401C5
:1013000031673FD0FFF704FC054641F2883700BF44
:10131000306F800748D4FFF7FBFB401BB842F7D97A
:1013200017E000BF3168002821F480313160316856
:1013300021F48021316041D0FFF7EAFB054600BF70
:10134000306880033FF567AEFFF7E2FB401B64287F
:10135000F6D9032002B0BDE8F08100BF6020C4F2DE
:10136000472000210160FFF7D3FB0446306880016D
:101370007FF5E6AEFFF7CCFB001B02284FF0030021
:10138000F4D9DEE6FFF7C4FB054641F2883700BF1B
:10139000306F800708D5FFF7BBFB401BB8424FF00A
:1013A0000300F5D9CDE600BFB8F1000F7FF490AE91
:1013B000306C20F0805030648AE600BFFFF7A8FB55
:1013C000054600BF306880037FF525AEFFF7A0FB20
:1013D000401B64284FF00300F4D9B2E648F268607D
:1013E000C0F600004FF4EB7102F066FA206A402864
:1013F000FFF44FAF48F26860C0F6000040F2D7112A
:1014000002F05AFA606A3238B0F5BF7F7FF647AF14
:1014100048F26860C0F600004FF4EC7102F04CFA3C
:10142000A06A082848D8012101FA00F010F4AA7F28
:1014300042D0E06A02380E2807D348F26860C0F64E
:1014400000004FF4ED7102F037FA6027C4F247272D
:1014500000203860FFF75CFB054600BF3068800164
:1014600008D5FFF755FB401B02284FF00300F5D9C4
:1014700067E600BF04F11C052FCD084340EA821047
:10148000D9034FF6FF729143A1F5803140EA056020
:101490000843706001203860FFF73AFB044600BF44
:1014A000306880013FF54CAEFFF732FB001B02288D
:1014B0004FF00300F4D944E648F26860C0F600003B
:1014C00040F2D91102F0F8F9E06A02380E28B4D2DD
:1014D000BBE7000070B5A8B10446006842F6FF7192
:1014E000C4F2010188420FDC43F60001C4F200019E
:1014F00088421DD043F60041C4F20001884217D053
:101500000EE000BF012070BD43F20001C4F20101F2
:1015100088420DD043F20041C4F20101884207D055
:1015200048F23060C0F600004FF4A07102F0C4F938
:10153000606850B1B0F5827F07D048F23060C0F6E5
:10154000000040F2411102F0B7F9A068002818BF6E
:10155000B0F5806F74D1E06840F40060B0F5006FC2
:1015600007D048F23060C0F6000040F2431102F0AC
:10157000A3F9A069002818BFB0F5007F6ED1E0691B
:101580004FEAF00008281BD2206A40F08000802833
:1015900023D1606A40F0100110292BD1A8B3E06973
:1015A0004FEAF000082807D348F23060C0F6000088
:1015B00040F2591102F080F90020C4E9040074E0FF
:1015C00048F23060C0F6000040F2451102F074F9B4
:1015D000206A40F080008028DBD048F23060C0F6FE
:1015E00000004FF4A37102F067F9606A40F0100147
:1015F0001029D3D048F23060C0F6000040F2471105
:1016000002F05AF9606A0028C9D1206940F002004E
:10161000022831D16069022839D26068B0F5827F32
:1016200041D1E0694FEAF00008283ED348F230602B
:10163000C0F6000040F24F1102F03EF935E000BF65
:10164000B0F5004F3FF487AF48F23060C0F60000BD
:101650004FF4A17102F030F97DE700BFB0F5802FA3
:101660003FF48DAF48F23060C0F600004FF4A27135
:1016700002F022F983E700BF48F23060C0F60000B4
:101680004FF4A57102F018F960690228C5D348F239
:101690003060C0F6000040F24B1102F00DF96068B6
:1016A000B0F5827FBDD00020E0610026A66294F8EC
:1016B000510020B9204684F8506000F03DF8022027
:1016C00084F8510094E80F0001F48271056802F477
:1016D000044225F040050560114403F400622369CB
:1016E000114403F002026369114403F00102A3698B
:1016F000E569114403F40072114405F03802256ACB
:10170000114405F08002A56A114305F4005211430B
:101710000160626A042101EA134102F010021144DF
:101720004160C16921F40061C1610120666584F8EE
:101730005100304670BD000080B586B0016843F2AC
:101740000000C4F20100814202D006B080BD00BF9B
:10175000002143F630020191C4F20202536900F500
:10176000544043F480535361536903F4805301930D
:10177000019B0191116841F002011160116801F0B3
:101780000201019101992821019102210291012177
:101790000391032104910521059101A9FFF712F896
:1017A00006B080BD2DE9F04383B0044680681D4635
:1017B00040F400401646B0F5004F0F4608D194F8AB
:1017C0005000012810D1022003B0BDE8F08300BF13
:1017D00048F23060C0F600004FF4427102F06CF83D
:1017E00094F850000128EED04FF0010984F8509091
:1017F000FFF78EF994F85110012945D18046002F4A
:101800004FF0010018BF002E00F0D7800320002108
:1018100084F8510061652763A686E686A163A187E7
:10182000E187A0682164B0F5004F2068616407D1AA
:10183000016821F040010160016841F480410160CC
:101840000168490603D4016841F040010160616804
:10185000731EE268B1FA81F1B3FA83F349095B09B7
:10186000B2F5006F41EA03013ED131B137F8021BF6
:10187000C1602763E08E0138E086E08E00286DD0DD
:10188000681C0ED11FE000BF022096E0216B31F8EA
:10189000022BC2602163E08E0138E086E08E0028D2
:1018A0005CD0206881688907F0D4FFF731F9A0EB9C
:1018B0000800A842F2D303207FE000BFFFF728F919
:1018C000E08E00284AD0206881688907F6D5216B10
:1018D00031F8022BC2602163E08E0138E086E08E91
:1018E0000028F0D13AE000BF39B139780173206B9C
:1018F00001302063E08E0138E086E08E70B3681C12
:101900000BD11BE0216B09780173206B0130206340
:10191000E08E0138E086E08E00B320688168890798
:10192000F0D4FFF7F5F8A0EB0800A842F3D30320AA
:1019300043E000BFFFF7ECF8E08E78B120688168E3
:101940008907F7D5216B09780173206B013020637B
:10195000E08E0138E086E08E0028EFD140F20C00E6
:10196000C2F20000006849F68171C1F25E61A0FB1D
:101970000101480D4FF47A71484302906068B0F558
:10198000827F23D1204680212A46434601F080FDF4
:1019900028B1606D40F02000606520206065A0687F
:1019A00038B9002001902068C168019180680190D9
:1019B0000198606D002818BF0120002184F8519023
:1019C00084F8501003B0BDE8F08300BF02980028EF
:1019D000E5D0029801380290206880680006DED5C4
:1019E00002980028DBD002980138029020688068B5
:1019F0000006D4D502980028D1D002980138029070
:101A0000206880680006CAD502980028C7D00298CE
:101A100001380290206880680006D7D4BFE7000034
:101A2000411E0020B0EB116F1CBF012070474EF229
:101A30001002CEF2000251604EF62351CEF20001A8
:101A4000F0230B7007219060116070477047000011
:101A500070470000B0B582B0044600680168C368F2
:101A6000426901F02F05202D03F0200506D12DB18C
:101A7000204602B0BDE8B04001F0E6BD5FEA017C5F
:101A80001EBF02F0010E03F4907212EB0E0253D14E
:101A9000226B012A05D111F0100218BF13F01002B9
:101AA00036D10A0622D513F080021FD094F83D10DB
:101AB00021293FD1A168B1F5805F03D121690029B7
:101AC00000F07282216A4A1C226209784160E18C2E
:101AD00001390A04E1842DD1C16821F08001C1607F
:101AE000C16841F04001C16002B0B0BD490621D5D6
:101AF00013F040011ED0C16821F04001C1602021D7
:101B0000204684F83D1002B0BDE8B04000F0BEBCF5
:101B10000021019101680191416801910199406999
:101B2000400613D4A08DE18DE28D002A18BF8842B3
:101B300040F0BE8102B0B0BDCA0718BF13F4807276
:101B400040F0BA804A0700F1BD80C2E0A16B08688E
:101B5000426893B2002BEDD0A08D8342EAD2E28599
:101B6000C969B1F5807F00F09D80206850E8030FBF
:101B7000216820F4807041E80302DAB1206850E85F
:101B8000030F216820F4807041E8030292B12068BD
:101B900050E8030F216820F4807041E803024AB145
:101BA000206850E8030F216820F4807041E80302A8
:101BB000002ADAD1206850E8050F216820F00100E2
:101BC00041E80502DAB1206850E8050F216820F0ED
:101BD000010041E8050292B1206850E8050F216834
:101BE00020F0010041E805024AB1206850E8050FE5
:101BF000216820F0010041E80502002ADAD12068BE
:101C000050E8050F216820F0400041E80502DAB1F4
:101C1000206850E8050F216820F0400041E80502E7
:101C200092B1206850E8050F216820F0400041E89B
:101C300005024AB1206850E8050F216820F04000F5
:101C400041E80502002ADAD1202084F83E00002075
:101C50002063206850E8030F216820F0100041E85D
:101C60000302DAB1206850E8030F216820F0100069
:101C700041E8030292B1206850E8030F216820F088
:101C8000100041E803024AB1206850E8030F2168C0
:101C900020F0100041E80302002ADAD1A06BFEF721
:101CA00023FDA08DE18D401A81B2204602B0BDE82F
:101CB000B040FFF7CBBE00BF226C42F001022264AD
:101CC0004A0706D5BEF1000F03D0226C42F0020293
:101CD00022648A0706D5BEF1000F03D0226C42F0C1
:101CE00004022264BCF1000F09D545EA0E02B2FAE3
:101CF00082F2520903D1226C42F008022264226C63
:101D0000002A3FF417AF11F0200118BF002D03D0B7
:101D1000204601F099FC20684069216C00F04000E9
:101D200001F00801401800F0B58000BF206850E8BD
:101D3000030F216820F4907041E80302BAB32068D1
:101D400050E8030F216820F4907041E8030272B359
:101D5000206850E8030F216820F4907041E80302E6
:101D60002AB3206850E8030F216820F4907041E8FE
:101D70000302002ADAD11AE0206850E8050F216832
:101D800020F0010041E80502DAB1206850E8050FB3
:101D9000216820F0010041E8050292B1206850E876
:101DA000050F216820F0010041E805024AB12068D2
:101DB00050E8050F216820F0010041E80502002AE3
:101DC000DAD1206B012824D1206850E8030F216864
:101DD00020F0100041E80302DAB1206850E8030F58
:101DE000216820F0100041E8030292B1206850E819
:101DF000030F216820F0100041E803024AB1206877
:101E000050E8030F216820F0100041E80302002A87
:101E1000DAD1202084F83E00002020632068406949
:101E200040063FD5206850E8050F216820F04000AB
:101E300041E80502DAB1206850E8050F216820F07A
:101E4000400041E8050292B1206850E8050F216882
:101E500020F0400041E805024AB1206850E8050F33
:101E6000216820F0400041E80502002ADAD1A06B89
:101E7000C0B143F23D61C0F600010165FEF77CFC94
:101E800000283FF457AEA06B016D02B0BDE8B04032
:101E9000084700BF2046FFF7DBFD0020206402B0AA
:101EA000B0BD00BF204602B0BDE8B040FFF7D0BDD6
:101EB000401A216851E8031F226821F4907142E81A
:101EC0000313DBB1216851E8031F226821F49071EC
:101ED00042E8031393B1216851E8031F226821F4FB
:101EE000907142E803134BB1216851E8031F226847
:101EF00021F4907142E80313002BDAD1216851E8F4
:101F0000051F226821F0010142E80513DBB12168B9
:101F100051E8051F226821F0010142E8051393B141
:101F2000216851E8051F226821F0010142E80513EC
:101F30004BB1216851E8051F226821F0010142E8F8
:101F40000513002BDAD1202184F83E1000212163F3
:101F5000216851E8031F226821F0100142E80313B1
:101F6000002B3FF4A1AE216851E8031F226821F045
:101F7000100142E80313002B3FF496AE216851E8AC
:101F8000031F226821F0100142E80313002B3FF4E5
:101F90008BAE216851E8031F226821F0100142E84E
:101FA0000313002BD4D17FE6216A31F8022B6FF3A3
:101FB0005F22426021628AE5002804BF0120704749
:101FC00010B504468069216810B344F20042C4F29F
:101FD0000002914214D041F20002C4F20102914287
:101FE0000ED041F20042C4F20102914208D048F200
:101FF0001470C0F6000040F2731101F05DFCA0699E
:102000004FEA302004281DD34FF4BA7114E000BF0A
:1020100044F20040C4F20000814213D041F20000BB
:10202000C4F2010081420DD041F20040C4F201002F
:10203000814207D04FF4BC7148F21470C0F6000022
:1020400001F03AFCA06840F48050B0F5805F2FD1D9
:10205000E06940F40040B0F5004F37D194F83D00FE
:1020600028B9002084F83C00204600F03DF82420E8
:1020700084F83D002068C16821F40051C160204609
:1020800001F062FB2068016921F49041016141691E
:1020900021F02A014161C16841F40051C160002072
:1020A0002021206484F83D1084F83E1010BD00BF4C
:1020B00048F21470C0F600004FF4BD7101F0FCFB53
:1020C000E06940F40040B0F5004FC7D048F214700A
:1020D000C0F6000040F27B1101F0EEFB94F83D00E9
:1020E0000028C4D1BDE7000080B586B0016841F288
:1020F0000000C4F20100814202D006B080BD00BFE2
:10210000002143F630020191C4F20202536900F546
:10211000704043F010035361536903F010030193BF
:10212000019B0191136843F001031360126802F0F0
:1021300001020192019A4FF4C06201920222CDE99C
:102140000221032104910721059101A9FEF73AFB21
:10215000252000210022FEF767FD2520FEF748FD1F
:1021600006B080BD90F83E30202B0BD100294FF0F7
:10217000010318BF002A01D11846704790F83C307F
:10218000012B01D1022070470023036381622221C9
:102190008285C285036480F83E100269016880F878
:1021A0003C301AB1C86840F48070C86048690023A8
:1021B00040F001004861C86840F02000C86018463F
:1021C00070470000B0B5006841F20001C4F201019F
:1021D000884218BFB0BD40F2001440F2C455C2F2AC
:1021E0000004C2F20005204629460122FFF7BAFF8B
:1021F0002046294601224FF47A73BDE8B04000F032
:1022000001B800002DE9F04381B0044690F83D008C
:1022100020280DD10F4600294FF0010000F0DD808D
:102220001646002A00F0D98094F83C00012803D11A
:10223000022001B0BDE8F083012084F83C000020BA
:10224000206421201D4684F83D00FEF761FCA68431
:10225000E684A1680646B1F5805F03D120690028B5
:1022600000F01081B8460027002084F83C00E18C83
:102270002068002900F0908005F101090DE000BF01
:10228000B8F1000F28D018F8011B4160E18C01392A
:10229000E184E18C002900F07F8001680906EFD419
:1022A000B9F1000F0AD0FDB1FEF732FC801BA84245
:1022B0001AD8206801680906F6D5E1E70168090621
:1022C000DED4016809065CBF01685FEA0161D7D40A
:1022D00001680906F2D5D3E737F8021B4FF0000872
:1022E0006FF35F21D1E700BF206850E8030F21683A
:1022F00020F4D07041E80302BAB3206850E8030F1D
:10230000216820F4D07041E8030272B3206850E8DD
:10231000030F216820F4D07041E803022AB320683B
:1023200050E8030F216820F4D07041E80302002A2E
:10233000DAD11AE0206850E8050F216820F001008A
:1023400041E80502DAB1206850E8050F216820F065
:10235000010041E8050292B1206850E8050F2168AC
:1023600020F0010041E805024AB1206850E8050F5D
:10237000216820F0010041E80502002ADAD120207E
:1023800084F83D0084F83E00002084F83C000320DF
:1023900001B0BDE8F08300BF0168490619D4FDB162
:1023A000691C0DD10168490613D4016849065CBF58
:1023B00001685FEA41610CD401684906F2D508E082
:1023C000FEF7A6FB801BA8420AD8206800684006DA
:1023D000F6D5202084F83D00002001B0BDE8F08350
:1023E000206850E8030F216820F4D07041E8030210
:1023F000E2B3206850E8030F216820F4D07041E870
:1024000003029AB3206850E8030F216820F4D070CB
:1024100041E8030252B3206850E8030F216820F41A
:10242000D07041E80302002ADAD11FE0206850E8AA
:10243000050F216820F0010041E80502002A9ED026
:10244000206850E8050F216820F0010041E80502EE
:10245000002A3FF494AF206850E8050F216820F06F
:10246000010041E80502002A3FF489AF206850E8E6
:10247000050F216820F0010041E80502002AD5D1AE
:102480007DE700BF4FF00008EEE600007047000057
:10249000FEE700002DE9F04184B040F2004405461B
:1024A0002A20C4F2020417460E468DF80300204687
:1024B000102100229846FEF70BFB0DF103000121CD
:1024C00000F0DCFF68BAADF80400204610210122BC
:1024D000FEF7FEFA01A8022100F0D0FF78BAADF8AD
:1024E0000600204610210122FEF7F2FA0DF1060047
:1024F000022100F0C3FF2B208DF809002046102197
:102500000022FEF7E5FA0DF10900012100F0B6FF07
:1025100006F1180000BA000CADF80A0020461021A0
:102520000122FEF7D5FA0DF10A00022100F0A6FF04
:1025300008F1180000BA000CADF80C00204610217C
:102540000122FEF7C5FA03A8022100F097FF2C2014
:102550008DF80F00204610210022FEF7B9FA0DF188
:102560000F00012100F08AFF04B0BDE8F0810000F7
:102570002DE9F047044600200021A02250234FF00F
:102580000008FFF787FF40F2004940F24416270A8F
:1025900046F262154FF4906AC4F20209C2F20006D4
:1025A00016E000BF484610210122FEF791FA1FFAFB
:1025B0008AF1304600F062FF002D08BFBDE8F087C9
:1025C000B5F5906F98BFAA46A5F5906538BF45460A
:1025D0005FEA5A00E6D00022002100BF06EB42036A
:1025E00006F8127041F0010292B290425C70D9D9A3
:1025F00006EB420306F8127041F0020292B29042DA
:102600005C70CFD906EB420306F8127041F003026A
:1026100092B290425C70C5D9043106EB420306F8D1
:1026200012708AB290425C70D8D8BBE72DE9F04FA7
:1026300081B040F20044C4F202042046402100224E
:102640000027FEF745FAC820FEF7A8F820464021EB
:102650000122FEF73DFA1420FEF7A0F82046802163
:102660000022FEF735FA11208DF8030020461021D4
:102670000022FEF72DFA0DF10300012100F0FEFE0D
:102680006420FEF78BF8B1208DF80300204610215E
:102690000022FEF71DFA0DF10300012100F0EEFE0D
:1026A00005208DF803002046102101220526FEF7A3
:1026B0000FFA0DF10300012100F0E0FE3C25204659
:1026C000102101228DF80350FEF702FA0DF10300EC
:1026D000012100F0D3FE2046102101228DF8035085
:1026E000FEF7F6F90DF10300012100F0C7FEB2205C
:1026F0008DF80300204610210022FEF7E9F90DF1C4
:102700000300012100F0BAFE2046102101228DF8BD
:1027100003600526FEF7DCF90DF10300012100F04E
:10272000ADFE2046102101228DF80350FEF7D0F9AE
:102730000DF10300012100F0A1FE2046102101222D
:102740008DF80350FEF7C4F90DF10300012100F0EC
:1027500095FEB3208DF80300204610210022FEF7DD
:10276000B7F90DF10300012100F088FE2046102189
:1027700001228DF803600526FEF7AAF90DF103008A
:10278000012100F07BFE2046102101228DF803502C
:10279000FEF79EF90DF10300012100F06FFE2046C7
:1027A000102101228DF80350FEF792F90DF103007C
:1027B000012100F063FE2046102101228DF8036004
:1027C000FEF786F90DF10300012100F057FE2046C7
:1027D000102101228DF80350FEF77AF90DF1030064
:1027E000012100F04BFE2046102101228DF80350FC
:1027F000FEF76EF90DF10300012100F03FFEB42059
:102800008DF80300204610210022FEF761F90DF13A
:102810000300012100F032FE03208DF80300204662
:1028200010210122FEF754F90DF10300012100F0FF
:1028300025FEC0208DF80300204610210022FEF75F
:1028400047F90DF10300012100F018FE0E26204685
:10285000102101228DF80360FEF73AF90DF1030013
:10286000012100F00BFE2046102101228DF80360AB
:10287000FEF72EF90DF10300012100F0FFFD042009
:102880008DF80300204610210122FEF721F90DF1F9
:102890000300012100F0F2FDC1208DF80300204665
:1028A00010210022FEF714F90DF10300012100F0C0
:1028B000E5FDC5262046102101228DF80360FEF7B4
:1028C00007F90DF10300012100F0D8FDC2208DF8B9
:1028D0000300204610210022FEF7FAF80DF1030054
:1028E000012100F0CBFD0D208DF8030020461021C2
:1028F00001224FF00D08FEF7EBF80DF10300012166
:1029000000F0BCFD2046102101228DF803704FF02D
:10291000000AFEF7DDF80DF10300012100F0AEFD25
:10292000C3208DF80300204610210022FEF7D0F8C6
:102930000DF10300012100F0A1FD8D27204610219B
:1029400001228DF80370FEF7C3F80DF10300012199
:1029500000F094FD2A208DF803002046102101226A
:10296000FEF7B6F80DF10300012100F087FDC42049
:102970008DF80300204610210022FEF7A9F80DF182
:102980000300012100F07AFD2046102101228DF87C
:102990000370FEF79DF80DF10300012100F06EFDBC
:1029A00006272046102101228DF80370FEF790F8CB
:1029B0000DF10300012100F061FD204610210022ED
:1029C0008DF80360FEF784F80DF10300012100F09B
:1029D00055FD2046102101228DF80370FEF778F88E
:1029E0000DF10300012100F049FD36208DF80300B0
:1029F000204610210022FEF76BF80DF103000121A3
:102A000000F03CFDA8208DF8030020461021012293
:102A1000FEF75EF80DF10300012100F02FFD3A20D2
:102A20008DF80300204610210022FEF751F80DF129
:102A30000300012100F022FD55208DF803002046FF
:102A400010210122FEF744F80DF10300012100F0EE
:102A500015FDE0208DF80300204610210022FEF72E
:102A600037F80DF10300012100F008FD0B208DF86F
:102A70000300204610210122FEF72AF80DF1030081
:102A8000012100F0FBFC17208DF8030020461021E7
:102A90000122FEF71DF80DF10300012100F0EEFC0C
:102AA0000A208DF80300204610210122FEF710F8BD
:102AB0000DF10300012100F0E1FC2046102101226C
:102AC0008DF80380FEF704F80DF10300012100F0FA
:102AD000D5FC1A208DF80300204610210122FDF7B5
:102AE000F7FF0DF10300012100F0C8FC1927204673
:102AF000102101228DF80370FDF7EAFF0DF10300AC
:102B0000012100F0BBFC16208DF8030020461021A7
:102B10000122FDF7DDFF0DF10300012100F0AEFC05
:102B20001D262046102101228DF80360FDF7D0FFFD
:102B30000DF10300012100F0A1FC4FF02108204617
:102B4000102101228DF80380FDF7C2FF0DF1030073
:102B5000012100F093FC4FF02609204610210122AC
:102B60008DF80390FDF7B4FF0DF10300012100F093
:102B700085FC37208DF80300204610210122FDF747
:102B8000A7FF0DF10300012100F078FC2046102181
:102B900001228DF80350FDF79BFF0DF10300012189
:102BA00000F06CFC2046102101228DF803A0FDF7F7
:102BB0008FFF0DF10300012100F060FC0925204684
:102BC000102101228DF80350FDF782FF0DF1030063
:102BD000012100F053FC4FF0050B2046102101228B
:102BE0008DF803B0FDF774FF0DF10300012100F033
:102BF00045FC4FF0100A2046102101228DF803A059
:102C0000FDF766FF0DF10300012100F037FCE12024
:102C10008DF80300204610210022FDF759FF0DF129
:102C20000300012100F02AFC0C208DF8030020464F
:102C300010210122FDF74CFF0DF10300012100F0EE
:102C40001DFC2046102101228DF80370FDF740FF86
:102C50000DF10300012100F011FC2046102101229A
:102C60008DF80350FDF734FF0DF10300012100F052
:102C700005FC0D208DF80300204610210122FDF7F0
:102C800027FF0DF10300012100F0F8FB1B208DF858
:102C90000300204610210122FDF71AFF0DF1030069
:102CA000012100F0EBFB2046102101228DF803707A
:102CB000FDF70EFF0DF10300012100F0DFFB1520F1
:102CC0008DF80300204610210122FDF701FF0DF1D0
:102CD0000300012100F0D2FB2046102101228DF8D3
:102CE0000360FDF7F5FE0DF10300012100F0C6FBC6
:102CF0002046102101228DF80380FDF7E9FE0DF139
:102D00000300012100F0BAFB2046102101228DF8BA
:102D10000390FDF7DDFE0DF10300012100F0AEFB95
:102D200039208DF80300204610210122FDF7D0FE46
:102D30000DF10300012100F0A1FB3E208DF80300FE
:102D4000204610210122FDF7C3FE0DF103000121F1
:102D500000F094FB00208DF8030020461021012292
:102D6000FDF7B6FE0DF10300012100F087FB2046C0
:102D7000102101228DF80350FDF7AAFE0DF103008A
:102D8000012100F07BFB2046102101228DF803B0C9
:102D9000FDF79EFE0DF10300012100F06FFB2046C0
:102DA000102101228DF803A0FDF792FE0DF1030022
:102DB000012100F063FB7820FDF7F0FC29208DF85D
:102DC0000300204610210022FDF782FE0DF10300D2
:102DD000012100F053FB01B0BDE8F08F2DE9F04F69
:102DE00083B01546A022A2EB5302824204D3C3F162
:102DF00050021C468A4203DA03B0BDE8F08F00BFE0
:102E0000660882190B19013A013B92B29BB2FFF797
:102E100041FBA4F10C00C1B2800140EA9100C1B2B3
:102E20000529E9D8A5F12000DFE811F0C400080069
:102E30000600520106000800DEE700BFE10801229B
:102E4000630718BF02EBD4017143CEB2002ED3D07A
:102E5000102CC0B200F07C81202CCDD145F2B061A5
:102E6000C0F6000140F2004801EBC01040F2A40996
:102E700040F2080AC4F20208471EC2F20009C2F278
:102E8000000A0DF1060500BF17F9014F4846002C56
:102E900048BF50460088102100BA000CADF806006B
:102EA00040460122FDF714FE2846022100F0E6FA12
:102EB0006006484648BF50460088102100BA000C02
:102EC000ADF8060040460122FDF702FE2846022129
:102ED00000F0D4FAA006484648BF504600881021AA
:102EE00000BA000CADF8060040460122FDF7F0FDE7
:102EF0002846022100F0C2FAE006484648BF504684
:102F00000088102100BA000CADF8060040460122EE
:102F1000FDF7DEFD2846022100F0B0FA2007484602
:102F200048BF50460088102100BA000CADF80600DA
:102F300040460122FDF7CCFD2846022100F09EFA12
:102F40006007484648BF50460088102100BA000C70
:102F5000ADF8060040460122FDF7BAFD28460221E1
:102F600000F08CFAA007484648BF50460088102160
:102F700000BA000CADF8060040460122FDF7A8FD9E
:102F80002846022100F07AFAE007504608BF48467A
:102F90000088102100BA000CADF80600404601225E
:102FA000FDF796FD2846022100F068FA013E7FF405
:102FB0006BAF21E714F0FE063FF41EAFC1B249002B
:102FC00051FA80F043F67C21C0F6000140F200483F
:102FD00001EB800040F2A40A40F20809C4F20208A2
:102FE000471EC2F2000AC2F2000902AD17F9014FF2
:102FF0005046002C48BF48460088102100BA000CFB
:10300000ADF8080040460122FDF762FD2846022186
:1030100000F034FA6006504648BF48460088102148
:1030200000BA000CADF8080040460122FDF750FD43
:103030002846022100F022FAA006504648BF484622
:103040000088102100BA000CADF8080040460122AB
:10305000FDF73EFD2846022100F010FAE00650463A
:1030600048BF48460088102100BA000CADF808009F
:1030700040460122FDF72CFD2846022100F0FEF912
:103080002007504648BF48460088102100BA000C6F
:10309000ADF8080040460122FDF71AFD284602213E
:1030A00000F0ECF96007504648BF48460088102100
:1030B00000BA000CADF8080040460122FDF708FDFB
:1030C0002846022100F0DAF9013E8FD194E600BFD4
:1030D000C0B244F2E04140F2004A00EB4000C0F6CA
:1030E000000140F2A40B40F20806C4F2020A4FF0BD
:1030F000000901EB0018C2F2000BC2F200060DF14C
:103100000A0500BF18F8094004275FEAC97008BF24
:10311000082700BF60B20028584648BF30460088E4
:10312000102100BA000CADF80A0050460122FDF74C
:10313000CFFC2846022100F0A1F9013F4FEA4404E8
:10314000E8D109F10109B9F1300FDBD154E600BF34
:1031500043F6F061C0F6000140F2004801EB0010B8
:1031600040F2A40940F2080AC4F20208471EC2F263
:103170000009C2F2000A0DF1060500BF17F9014F60
:103180004846002C48BF50460088102100BA000C69
:10319000ADF8060040460122FDF79AFC28460221C0
:1031A00000F06CF96006484648BF50460088102180
:1031B00000BA000CADF8060040460122FDF788FC7D
:1031C0002846022100F05AF9A006484648BF50465A
:1031D0000088102100BA000CADF80600404601221C
:1031E000FDF776FC2846022100F048F9E006484643
:1031F00048BF50460088102100BA000CADF8060008
:1032000040460122FDF764FC2846022100F036F911
:103210002007484648BF50460088102100BA000CDD
:10322000ADF8060040460122FDF752FC2846022177
:1032300000F024F96007484648BF50460088102136
:1032400000BA000CADF8060040460122FDF740FC34
:103250002846022100F012F9A007484648BF504610
:103260000088102100BA000CADF80600404601228B
:10327000FDF72EFC2846022100F000F9E007504639
:1032800008BF48460088102100BA000CADF80600BF
:1032900040460122FDF71CFC2846022100F0EEF812
:1032A000013E7FF46BAFA7E52DE9F04F81B00B9F96
:1032B0000C463E78A6F12001C9B25E2927D80A9DA6
:1032C0008046104419196A0801371FFA80F91FFA5D
:1032D00081FBC246009200BF1FFA8AF0484528BF12
:1032E0002C44A1B2594512D2484528BF5FFA88FA4A
:1032F0001FFA8AF0F2B22B46FFF770FD17F8016B48
:10330000A6F12000C0B25F2800988244E4D301B047
:10331000BDE8F08F2DE9F04786B0002743F6300076
:10332000CDE904770097C4F20200016840F6000579
:1033300041F0040101600168C4F2020501F00401DA
:103340000091009900970168012241F0800101601D
:1033500001684FF0070901F0800100910099009782
:103360000168012641F001010160016801F00101DD
:10337000009100990097016841F002010160006826
:10338000072100F00200009000982846FDF7A0FBFE
:10339000A5F580642046D02100224FF0D00AFDF729
:1033A00097FB4FF400500DF10408CDE901072846C2
:1033B00041460396FDF706FA28464146CDE90196B7
:1033C000CDE90367FDF7FEF903200490204641464E
:1033D000CDE901A60396FDF7F5F906B0BDE8F08743
:1033E00070B540F2A80043F2000CC2F20000C4F233
:1033F000010C4FF482724FF4004300214FF0020E93
:1034000001244FF400751026C0E900C20A22C0E969
:103410000231C0E904E4C0E90656C0E90811C0E978
:103420000A12FEF757F8002808BF70BDBDE87040CB
:10343000FDF754B980B540F2001041F20001C2F22C
:103440000000C4F2010100234FF00C0C4FF4E132F4
:1034500080E80E00C0E90333C0E905C3C361FEF78D
:10346000ABFD002808BF80BDBDE88040FDF736B940
:10347000FEE70000FEE70000704700000A46014634
:1034800040F2A800C2F200004FF47A73FEF78AB946
:103490002DE9F04182B01E4690460D460446FDF7E8
:1034A00037FB301A00EB0807FDF732FB40F20C0146
:1034B000C2F200010968C1F3CB317943019121685F
:1034C0008A682A40AA4227D1064618F101001FD077
:1034D000FDF71EFB801BB84222D2019801990028FB
:1034E000A1F1010101912168896808BF074601EA3D
:1034F0000500A842ECD00FE088682840A8420BD114
:1035000088682840A84207D188682840A84203D18B
:1035100088682840A842EFD0002002B0BDE8F081C2
:10352000D4E900014268B1F5827F22F0E0024260F6
:103530000AD1A168B1F5004F02D0B1F5806F03D177
:10354000016821F040010160A16AB1F5005F07D177
:10355000016821F400510160016841F400510160EB
:10356000012084F85100002084F85000032002B0AC
:10357000BDE8F08170470000FDF7D0BAB0B592B059
:10358000002443F64000CDE90A44CDE908440594FF
:10359000CDE90344CDE901440094C4F2020001687E
:1035A000022541F080510160006800F080500090D9
:1035B000009847F200000094C4F20000016865F32F
:1035C0008F3101600068542100F440400090009861
:1035D000012006904FF4803007904FF480000D904A
:1035E00004200E90119006A80C95CDE90F15FDF75B
:1035F000E7FC28B1EFF3108072B600BFFEE700BF12
:103600000F20CDE901054FF48050CDE9040401A855
:1036100002210394FDF764FB20B1EFF3108072B632
:10362000FEE700BF12B0B0BD4EF68850CEF20000EB
:10363000016841F47001016070470000806B002157
:10364000C185C184FEF704BA81B090F83E102229EA
:1036500021D183680246B3F5805F09D152F8281F53
:1036600052F8183C002B63D003685B680AE000BF87
:1036700052F8281F13B90369002BF5D003685B6863
:1036800003F07F030B70116801311160C18D0139A6
:103690000A04C18502D001B0704700BF0168CA6842
:1036A00022F02002CA60CA6822F48072CA604A69A5
:1036B00022F001024A61202180F83E10016B0129AD
:1036C0003ED10021016300BF016851E8031F026879
:1036D00021F0100142E80313DBB1016851E8031F38
:1036E000026821F0100142E8031393B1016851E828
:1036F000031F026821F0100142E803134BB1016877
:1037000051E8031F026821F0100142E80313002B67
:10371000DAD101680A68D20606D5002200920A684A
:103720000092496800910099818D01B0FEF78EB931
:10373000026852686FF35F2221F8022B8162A5E7CD
:1037400001B0FEF73FBD0000B0B50446406843F24B
:10375000A171C0F2A001884207D348F21470C0F6EC
:10376000000040F6616100F0A7F8E06840F4005006
:10377000B0F5005F07D048F21470C0F6000040F6C4
:10378000626100F099F82069002818BFB0F5806FD9
:1037900032D1606918B14FF6F371084007D048F292
:1037A0001470C0F6000040F6646100F085F82068EF
:1037B00004F108030ECB0569194325F440552A434B
:1037C00002616269E3691143C268194349F20C63FB
:1037D0009A431143C1604169A26921F4407141F2E9
:1037E0000043114340F48062C4F201039A424161F4
:1037F0000ED1FDF79BFB0DE0B0F5C06FC9D048F2CC
:103800001470C0F6000040F6636100F055F8C0E7A0
:10381000FDF778FBE1694FF69C7563681922C0F6E5
:10382000FF75B1F5004FA0FB02011FD15A00DB0F5D
:10383000FCF724FD48F21F51C5F2EB11A0FB012358
:103840005A0905F1805302FB0300322303EBC00049
:10385000A0FB01014FF4F87000EA111000EB021018
:10386000C1F34211084421688860B0BD9A009B0FE3
:10387000FCF704FD48F21F51C5F2EB11A0FB012338
:103880005A0902FB0500322303EB0010A0FB0101E3
:10389000F02000EA511000EB0210C1F3431108447C
:1038A00021688860B0BD000040F20010C2F2000044
:1038B000FEF7D0B8FEE700007047000082B040F687
:1038C0000004C4F20204FDF737F9FFF757FEFFF7D3
:1038D00021FDFFF7AFFDFFF783FDFEF7A7FE0020F8
:1038E0000025FEF745FE40F2A400C2F2000040F2BF
:1038F00008080580C2F2000847F6FF70A8F800002B
:1039000038A00C26019000200021A0220C23009654
:10391000FFF7CAFC36A700200F21A0220C23009637
:103920000197FFF7C1FC4FF47840A8F8000034A7D6
:1039300000201E21A022102300960197FFF7B4FC5F
:1039400033A700202D21A0220C2300960197FFF71A
:10395000ABFC40F2700B0FF2CC090FF2D00AC2F2AE
:10396000000B0FF2D00800BFE8B225214843A5EBB9
:103970001021C9B2490801EB10208008A0EBC0005B
:103980002844C0B225A10A5C19F800601AF800703A
:1039900020460121FDF79CF8204602213246FDF722
:1039A00097F8204604213A46FDF792F89BF800204C
:1039B0000BF10106304641460135FCF7D7FC0C20DF
:1039C000009000203C21F0220C230196FFF76CFCB4
:1039D0009BF8000001308BF800004FF4FA70FCF700
:1039E000DDFEC1E74E656F6C7578204C65650000A3
:1039F0005446544C4344203136302A3830000000BD
:103A000053544D3332463430315243543600000063
:103A1000323032332F31302F3100000000010100ED
:103A2000000100000100010001000000010100018F
:103A300000000000253464414243440030380A2825
:103A400001D20120704700207047F1EE100A4FF6B6
:103A5000FF71C0F2C03120EA010040F04070E1EE99
:103A6000100A70470000000000000000010203047B
:103A7000060708090000000001020304000000001E
:103A80000000000000000000000020202020200096
:103A90000020000028285000000000000000000066
:103AA00000005050F85050F850500000002070A80E
:103AB000A0603028A8702000000048A8B0A8743486
:103AC0005448000000002050506CA8A894680000E2
:103AD000404080000000000000000000081010209E
:103AE000202020201010080040202010101010105E
:103AF0002020400000000020A87070A820000000D6
:103B000000000010107C10100000000000000000F9
:103B100000000000404080000000000000FC0000A9
:103B20000000000000000000000000000040000055
:103B30000004080810102020404080000000708819
:103B4000888888888870000000002060202020205D
:103B500020700000000070888810204080F800006D
:103B600000007088083008088870000000001030DD
:103B7000305090F8103800000000F88080F088087D
:103B8000887000000000304880B0C888887000004D
:103B9000000078081010202020200000000070880D
:103BA000887088888870000000007088889868088D
:103BB00090600000000000002000000000200000D5
:103BC000000000000020000000202000000008107D
:103BD000204040201008000000000000FC00FC0015
:103BE00000000000000040201008081020400000E5
:103BF0000000708888102020002000000000384459
:103C000094B4B4B8443800000000202030505078FC
:103C100048CC00000000F0484870484848F00000D8
:103C20000000788880808080887000000000F04864
:103C30004848484848F000000000F848507050409C
:103C400048F800000000F8485070504040E0000084
:103C50000000384880809C88483000000000CC4834
:103C60004878484848CC00000000F8202020202058
:103C700020F8000000007C1010101010101090E0D0
:103C80000000EC485060504848EC00000000E04064
:103C90004040404044FC00000000DCD8D8D8A8A830
:103CA000A8AC00000000DC486868585848E80000EC
:103CB0000000708888888888887000000000F048BC
:103CC0004870404040E0000000007088888888E824
:103CD000987018000000F0484870504848EC000008
:103CE000000078888060100888F000000000F8A8C4
:103CF00020202020207000000000CC484848484880
:103D0000483000000000CC484850503020200000CF
:103D10000000A8A8A8A87050505000000000D8507B
:103D20005020205050D800000000D8505050202083
:103D3000207000000000F8901020204048F800009B
:103D40003820202020202020202038000040402043
:103D50002020101010080800701010101010101003
:103D60001010700020500000000000000000000053
:103D70000000000000000000000000FC40200000E7
:103D80000000000000000000000000000030483883
:103D9000483C000000C04040407048484870000067
:103DA00000000000003848404830000000180808B3
:103DB00008384848483C00000000000000304878BF
:103DC00040380000001824202078202020780000AF
:103DD00000000000003C48304038443800C04040FB
:103DE0004070484848EC000000202000006020207F
:103DF000207000000010100000301010101010E0B3
:103E000000C040404058506050C8000000E02020F2
:103E10002020202020F800000000000000F0A8A8CA
:103E2000A8A800000000000000F0484848EC00008E
:103E3000000000000030484848300000000000004A
:103E400000F04848487040E0000000000038484852
:103E50004838081C0000000000D8604040E0000026
:103E600000000000007840300878000000000020CA
:103E700020782020203800000000000000D84848AA
:103E8000483C00000000000000D8505020200000F6
:103E90000000000000A8A8705050000000000000C2
:103EA00000D8502050D800000000000000CC484846
:103EB000301020C0000000000078102020780000A2
:103EC00018101010103010101010180010101010D2
:103ED0001010101010101010602020202010202032
:103EE000202060006890000000000000000000003A
:103EF00000000000000000000000000000000000C2
:103F00000000001010101010101000001010000021
:103F100000122424480000000000000000000000FF
:103F20000000001212127E2424247E242424000087
:103F30000000083C4A4A48380C0A0A4A4A3C080829
:103F400000000044A4A8A8B0541A2A2A4A44000039
:103F500000000030484848506EA4949889760000CC
:103F60000060202040000000000000000000000071
:103F700000020408081010101010100808040200B5
:103F80000040201010080808080808101020400001
:103F9000000000001010D63838D6101000000000C5
:103FA00000000000000808087F0808080000000062
:103FB0000000000000000000000000006020204021
:103FC00000000000000000007E0000000000000073
:103FD0000000000000000000000000006060000021
:103FE00000000204040408081010102020404000C3
:103FF000000000182442424242424242241800007B
:10400000000000083808080808080808083E0000F2
:104010000000003C4242420204081020427E0000A0
:104020000000003C4242020418040242423C0000EC
:10403000000000040C0C142424447F04041F00001E
:104040000000007E404040784402024244380000B4
:10405000000000182440405C62424242221C0000E2
:104060000000007E42040408081010101010000028
:104070000000003C4242422418244242423C0000DC
:104080000000003844424242463A0202241800002E
:1040900000000000000018180000000018180000C0
:1040A00000000000000000100000000000101010D0
:1040B0000000000204081020402010080402000044
:1040C0000000000000007E00007E000000000000F4
:1040D00000000040201008040204081020400000E6
:1040E0000000003C42426204080808001818000062
:1040F00000000038445AAAAAAAAAAA5C423C0000BE
:104100000000001010182828243C444242E7000018
:10411000000000F8444444784442424244F800001D
:104120000000003E4242808080808042443800008F
:10413000000000F8444242424242424244F8000039
:10414000000000FC424848784848404242FC0000D9
:10415000000000FC424848784848404040E00000E9
:104160000000003C44448080808E84444438000039
:10417000000000E7424242427E42424242E70000E3
:104180000000007C1010101010101010107C0000A7
:104190000000003E0808080808080808080888F019
:1041A000000000EE444850705048484444EE00007F
:1041B000000000E0404040404040404042FE0000DF
:1041C000000000EE6C6C6C6C6C54545454D60000BF
:1041D000000000C7626252524A4A4A4646E2000064
:1041E0000000003844828282828282824438000049
:1041F000000000FC424242427C40404040E000005F
:104200000000003844828282828282B24C380600EA
:10421000000000FC4242427C4848444442E3000023
:104220000000003E4242402018040242427C00004E
:10423000000000FE92101010101010101038000036
:10424000000000E74242424242424242423C0000F9
:10425000000000E7424244242428281810100000DF
:10426000000000D654545454546C282828280000C8
:10427000000000E7422424181818242442E7000014
:10428000000000EE444428281010101010380000E0
:104290000000007E840408081020204242FC000038
:1042A000001E1010101010101010101010101E0012
:1042B000000040202020101010080804040402020E
:1042C000007808080808080808080808080878009E
:1042D00000182400000000000000000000000000A2
:1042E000000000000000000000000000000000FFCF
:1042F000006010000000000000000000000000004E
:104300000000000000000038440C34444C3600002B
:1043100000000000C040405864424242645800001F
:10432000000000000000001C22404040221C000051
:10433000000000000602023E42424242463B0000AC
:10434000000000000000003C42427E40423C000071
:10435000000000000C12107C10101010107C0000E7
:10436000000000000000003E444438403C42423C13
:1043700000000000C040405C6242424242E7000050
:10438000000000303000007010101010107C000091
:104390000000000C0C00001C040404040404447815
:1043A00000000000C040404E4850704844EE0000FD
:1043B000000000107010101010101010107C000081
:1043C00000000000000000FE4949494949ED000095
:1043D00000000000000000DC6242424242E70000B0
:1043E000000000000000003C42424242423C00000B
:1043F00000000000000000D864424242645840E0DF
:10440000000000000000001A26424242261A02075D
:1044100000000000000000EE3220202020F8000004
:10442000000000000000003E42403C02427C0000D0
:10443000000000000010107C10101010120C000082
:1044400000000000000000C642424242463B00001D
:1044500000000000000000EE444428281010000076
:1044600000000000000000DB894A5A5424240000A8
:10447000000000000000007624181818246E0000C8
:1044800000000000000000E742242418181010600B
:10449000000000000000007E44081010227E000092
:1044A00000030404040404040804040404040300D2
:1044B000080808080808080808080808080808087C
:1044C00000C0202020202020102020202020C000FC
:1044D000205A04000000000000000000000000005E
:1044E00000000000000000000000000000000000CC
:1044F00000000000000000000000000000000000BC
:1045000000000000000000000000000000000000AB
:104510000000000000000000060006000600060083
:10452000060006000600020004000400040000006B
:104530000000000006000600060000000000000069
:1045400000000000066006600CC019801100220007
:10455000000000000000000000000000000000005B
:10456000000000000000000000000000000000004B
:10457000000000000000000008400840084008401B
:104580007FE07FE0104010801080108010807FE07E
:104590007FE020802080208020800000000000003C
:1045A000000000000000020002000F801AC032C0AC
:1045B00033C032001A000E0007000380038002C0DF
:1045C00032C03AC032C012800F0002000200000068
:1045D0000000000000000000708050808900890009
:1045E00089008A008A005C0075C005400A200A2004
:1045F000122012201220214021C0000000000000E3
:1046000000000000000000001C00360036003600EC
:1046100036003600340019E038805880CC80CC80D9
:10462000C680C700C31063903CE00000000000009B
:1046300000000000300038000800080010002000D2
:10464000000000000000000000000000000000006A
:10465000000000000000000000000000000000005A
:104660000000000000200040008001000100020066
:10467000020004000400040004000400040004001C
:104680000200020001000100008000400020000044
:104690000000000040002000100008000800040096
:1046A00004000200020002000200020002000200F8
:1046B0000400040008000800100020004000000072
:1046C00000000000000000000000000002000300E5
:1046D0000200623072F00B800F807AF062300200CC
:1046E00002000200000000000000000000000000C6
:1046F00000000000000000000000000000000200B8
:1047000002000200020002007FF00200020002002C
:104710000200020000000000000000000000000095
:104720000000000000000000000000000000000089
:104730000000000000000000000000000000000079
:1047400000000000300038000800080010002000C1
:104750000000000000000000000000000000000059
:1047600000000000000000007FE0000000000000EA
:104770000000000000000000000000000000000039
:104780000000000000000000000000000000000029
:104790000000000000000000000000000000000019
:1047A0000000000038003800380000000000000061
:1047B0000000000000200060004000C00080008079
:1047C00001000100020002000600040004000800CD
:1047D00008001000100030002000600040000000C1
:1047E000000000000000000000000F00198030C031
:1047F00030C0606060606060606060606060606089
:10480000606030C030C019800F0000000000000060
:104810000000000000000000000002003E00060052
:104820000600060006000600060006000600060058
:1048300006000600060006003FC000000000000061
:10484000000000000000000000001F00218040C0A8
:1048500060C060C000C0008001800300060004004A
:1048600008001040204060407FC0000000000000B1
:10487000000000000000000000001E0063006180D6
:1048800061800180018003000E000180008000C073
:1048900000C060C060C061801F0000000000000018
:1048A0000000000000000000000001800180038083
:1048B00005800580098011801180218041807FF072
:1048C000018001800180018007E0000000000000FD
:1048D000000000000000000000003FC02000200099
:1048E0002000200020002F00318020C000C000C028
:1048F00060C060C0418021801F00000000000000F7
:1049000000000000000000000000078018C030C058
:10491000300020006000678068C070606060606088
:1049200060602060304018C00F00000000000000F0
:10493000000000000000000000001FE03060204088
:1049400020800080008001000100020002000200BF
:104950000600060006000600060000000000000039
:10496000000000000000000000001F8030C06060F8
:1049700060606060304038C00F00138030C06060FD
:1049800060606060606030C00F8000000000000068
:10499000000000000000000000000F00308030C068
:1049A000604060606060606060E031601E60006078
:1049B00000C000C0308031801E00000000000000F8
:1049C00000000000000000000000000000000000E7
:1049D00000000000070007000700000000000000C2
:1049E00000000000070007000700000000000000B2
:1049F00000000000000000000000000000000000B7
:104A0000000000000600060000000000000000009A
:104A10000000000000000600060002000400040080
:104A200000000000000000000020004000800100A5
:104A3000020004000800100020001000080004001C
:104A40000200010000800040002000000000000083
:104A50000000000000000000000000000000000056
:104A6000000000007FE00000000000007FE0000088
:104A70000000000000000000000000000000000036
:104A800000000000000000002000100008000400EA
:104A90000200010000800040002000400080010072
:104AA00002000400080010002000000000000000C8
:104AB0000000000000000000000007C01860203067
:104AC00020303030303000E001800200020002006F
:104AD00000000000070007000700000000000000C1
:104AE0000000000000000000070018C0304033A0A4
:104AF00026A066A065A06D206D206D206D206D4004
:104B000027803020304018C00F0000000000000057
:104B100000000000000000000000060006000A007F
:104B20000B00090009001100118010801F8020C0B7
:104B300020C0204040404060F0F000000000000035
:104B4000000000000000000000007F0031C030C005
:104B500030C030C030C031803F0030C030403060A5
:104B600030603060306030C07F80000000000000A6
:104B70000000000000000000000007C018C0306006
:104B80003020202060006000600060006000600055
:104B900060203020304018C00F00000000000000EE
:104BA00000000000000000000000FE00318030C066
:104BB00030C0306030603060306030603060306015
:104BC000306030C030C03180FE00000000000000C6
:104BD00000000000000000000000FFC060C0602076
:104BE00060206000610061007F0061006100610081
:104BF0006000602060206040FFC0000000000000F6
:104C000000000000000000000000FFC060C0602045
:104C100060206000610061007F0061006100610050
:104C20006000600060006000F8000000000000000C
:104C3000000000000000000000000F00188030405D
:104C400030402040600060006000600063F060C0A1
:104C500060C030C030C018C00F000000000000006D
:104C600000000000000000000000F0F060606060E4
:104C700060606060606060607FE060606060606095
:104C80006060606060606060F0F000000000000044
:104C9000000000000000000000003FC00600060009
:104CA00006000600060006000600060006000600D4
:104CB00006000600060006003FC0000000000000DD
:104CC000000000000000000000001FE003000300DF
:104CD00003000300030003000300030003000300BC
:104CE00003000300030003000300630066003C00B0
:104CF00000000000000000000000F3C061806300BD
:104D00006200640068006C0074007600620063005A
:104D100061006180608060C0F1E000000000000080
:104D200000000000000000000000F80060006000CB
:104D30006000600060006000600060006000600073
:104D40006000602060206040FFC0000000000000A4
:104D500000000000000000000000E0E061C061C051
:104D600071C071C072C072C052C05AC05AC05CC01B
:104D70004CC04CC04CC048C0E1E000000000000046
:104D80000000000000000000000071F030403840DA
:104D900038402C402C4026402640224023402140D1
:104DA00021C021C020C020C0F84000000000000049
:104DB000000000000000000000000F00198030C05B
:104DC0003040606060606060606060606060606033
:104DD0006060304030C019800F000000000000000B
:104DE00000000000000000000000FF0060C06060E4
:104DF000606060606060606061C07F006000600053
:104E00006000600060006000F8000000000000002A
:104E1000000000000000000000000F00198030C0FA
:104E200030406060606060606060606060606060D2
:104E30006E60324033C019800F0001E000C00000F6
:104E400000000000000000000000FF8060C0606003
:104E500060606060606060C07F006200630061004D
:104E6000618060C060C06060F07000000000000001
:104E7000000000000000000000001F4030C0604043
:104E80006040600070003C001F0007C001C000E0EF
:104E900040604060606030C00F8000000000000093
:104EA000000000000000000000007FE046208610A7
:104EB0008610060006000600060006000600060032
:104EC00006000600060006001F800000000000002B
:104ED0000000000000000000000078E0304030409A
:104EE0003040304030403040304030403040304042
:104EF00030403040304018800F00000000000000BB
:104F000000000000000000000000F0E06040208091
:104F100020803080308011001100190019000A0033
:104F20000A000E000C000400040000000000000055
:104F300000000000000000000000EF70462042204A
:104F40006220622026402640274027403940398091
:104F5000198019801180110011000000000000006C
:104F60000000000000000000000079E030801080A8
:104F7000188009000D0006000400060006000B0062
:104F800009001180108020C071E0000000000000C6
:104F900000000000000000000000F0F06020204051
:104FA0003040108018801D000D000E000600060025
:104FB00006000600060006001F800000000000003A
:104FC000000000000000000000003FE0304060C032
:104FD000408001800100020002000400040008007B
:104FE00018001020302020407FC00000000000008A
:104FF0000000000007C004000400040004000400D6
:105000000400040004000400040004000400040080
:1050100004000400040004000400040007C00000B1
:105020000000000000000000200020001000100020
:105030000800080008000400040002000200030049
:10504000010001000080008000400040004000207E
:10505000000000003E000200020002000200020008
:105060000200020002000200020002000200020030
:105070000200020002000200020002003E000000E6
:105080000000060009001080000000000000000081
:105090000000000000000000000000000000000010
:1050A0000000000000000000000000000000000000
:1050B00000000000000000000000000000000000F0
:1050C00000000000000000000000000000000000E0
:1050D0000000000000000000000000000000FFF0E1
:1050E00000000000180006000000000000000000A2
:1050F00000000000000000000000000000000000B0
:10510000000000000000000000000000000000009F
:10511000000000000000000000000000000000008F
:10512000000000000F8030C030C000C007C038C091
:1051300070C060C060C071D03E7000000000000010
:10514000000000000000000010007000300030007F
:105150003000300033803CC03860306030603060F8
:1051600030603060304038C0278000000000000010
:10517000000000000000000000000000000000002F
:10518000000000000F00318031806180600060000D
:1051900060006040304030800F00000000000000E0
:1051A0000000000000000000004003C000C000C07C
:1051B00000C000C01EC031C030C060C060C060C050
:1051C00060C060C020C031E01E8000000000000010
:1051D00000000000000000000000000000000000CF
:1051E00000000000078018C01040306030603FE0D1
:1051F0003000300018201840078000000000000038
:105200000000000000000000000003C006600C6009
:105210000C000C007F800C000C000C000C000C003B
:105220000C000C000C000C003F800000000000008F
:10523000000000000000000000000000000000006E
:10524000000000000FE01B60318031803180198048
:105250001F0030003F0033C060C060C071C01F003D
:10526000000000000000000010007000300030005E
:1052700030003000378038C030C030C030C030C05F
:1052800030C030C030C030C079E000000000000005
:105290000000000000000000000006000600000002
:1052A000000002003E0006000600060006000600A0
:1052B00006000600060006003FC0000000000000D7
:1052C00000000000000000000000038003800000D8
:1052D000000000800F80018001800180018001803A
:1052E00001800180018001800180018033003E0047
:1052F00000000000000000001000700030003000CE
:105300003000300031C031003100320036003A0048
:1053100031003180308030C079E0000000000000B2
:10532000000000000000000002003E000600060031
:10533000060006000600060006000600060006003D
:1053400006000600060006003FC000000000000046
:10535000000000000000000000000000000000004D
:1053600000000000ECE07760666066606660666082
:105370006660666066606660FFF000000000000026
:10538000000000000000000000000000000000001D
:1053900000000000778038C030C030C030C030C05E
:1053A00030C030C030C030C079E0000000000000E4
:1053B00000000000000000000000000000000000ED
:1053C000000000000F00198030C060606060606005
:1053D0006060606030C030C00F000000000000005E
:1053E00000000000000000000000000000000000BD
:1053F00000000000778038C030603060306030607E
:105400003060306030C038C03780300030007C0001
:10541000000000000000000000000000000000008C
:10542000000000001E4031C030C060C060C060C0DD
:1054300060C060C020C031C01EC000C000C003E01A
:10544000000000000000000000000000000000005C
:1054500000000000F9C01A601C6018001800180055
:105460001800180018001800FF00000000000000DD
:10547000000000000000000000000000000000002C
:10548000000000000FC038C0304030401C000F004A
:1054900003C020C020C031C03F80000000000000D9
:1054A00000000000000000000000000004000400F4
:1054B0000C000C007F800C000C000C000C000C0099
:1054C0000C000C000C400C400780000000000000A5
:1054D00000000000000000000000000000000000CC
:1054E0000000104071C030C030C030C030C030C08B
:1054F00030C030C030C039E01E8000000000000025
:10550000000000000000000000000000000000009B
:105510000000000078E03040108010801880090002
:105520000D000D0006000600040000000000000051
:10553000000000000000000000000000000000006B
:1055400000000000EF7046206220264026403740D1
:1055500039801980198019801000000000000000B7
:10556000000000000000000000000000000000003B
:10557000000000003DE0188008800D0006000600D5
:1055800007000900108010C079E000000000000052
:10559000000000000000000000000000000000000B
:1055A0000000000079E010801080108009000900E0
:1055B0000D00060006000600040004002400380068
:1055C00000000000000000000000000000000000DB
:1055D000000000003F80218023002200060004001C
:1055E0000C001840104030C03F8000000000000058
:1055F0000000000000C001000100010001000100E6
:10560000010001000100020004000200010001008D
:1056100001000100010001000100010000C00000C4
:10562000020002000200020002000200020002006A
:10563000020002000200020002000200020002005A
:10564000020002000200020002000200020002004A
:1056500000000000300008000800080008000800F2
:105660000800080008000400020004000800080008
:1056700008000800080008000800080030000000CA
:10568000000038004420432001C00000000000005A
:10569000000000000000000000000000000000000A
:1056A00000000000000000000000000000000000FA
:1056B00000000000000000000000000000000000EA
:1056C00000000000000000000000000000000000DA
:1056D00000000000000000000000000000000000CA
:1056E00000000000000000000000000000000000BA
:1056F00000000000000000000000000000000000AA
:105700000000000000000000000000000000000099
:105710000000000000000000000000000000000089
:105720000000000000000000000000000000000079
:1057300000000000000000000000000003C003C0E3
:1057400003C003C003C003C001C001800180018009
:1057500001800180018001800180000000000000C4
:10576000018003C003C001800000000000000000B1
:105770000000000000000000000000000000000029
:105780000000000000000000000000000000000019
:105790000000000000000000000000000000000009
:1057A00000000000000000000000000000000000F9
:1057B000000000000318073807380E700C6018C08E
:1057C0003180210000000000000000000000000007
:1057D00000000000000000000000000000000000C9
:1057E00000000000000000000000000000000000B9
:1057F00000000000000000000000000000000000A9
:105800000000000000000000000000000000000098
:105810000000000000000000000000000000000088
:105820000000000000000000000000000000000078
:105830000000000000000000000000000408040850
:105840000408040804087FFE7FFE7FFE081008108D
:1058500008100810081008107FFE7FFE7FFE183029
:105860001020102010201020000000000000000078
:105870000000000000000000000000000000000028
:105880000000000000000000000000000000000018
:105890000000000000000000000000000000000008
:1058A00000000000000000000000000000000000F8
:1058B00000000000000000000100010003C00D30E6
:1058C00009181918193819381D000D000F000700A4
:1058D00003C001E001F0013001380118391839180E
:1058E00031183130196007C00100010001000000CB
:1058F00000000000000000000000000000000000A8
:105900000000000000000000000000000000000097
:105910000000000000000000000000000000000087
:105920000000000000000000000000000000000077
:1059300000000000000000000000000038106C10A3
:105940004420C620C640C640C640C680C6804480AB
:105950006D38396C024402C602C604C604C608C6C5
:1059600008C60844106C1038000000000000000059
:105970000000000000000000000000000000000027
:105980000000000000000000000000000000000017
:105990000000000000000000000000000000000007
:1059A00000000000000000000000000000000000F7
:1059B0000000000000000000000000000F001900BF
:1059C0003180318031803180310033003A001C0059
:1059D000387C3C104C10CE10C620C720C320C1C05C
:1059E000C1C260E6317C1E380000000000000000EB
:1059F00000000000000000000000000000000000A7
:105A00000000000000000000000000000000000096
:105A10000000000000000000000000000000000086
:105A20000000000000000000000000000000000076
:105A30000000000038003C003C000C000C00080096
:105A400030006000000000000000000000000000C6
:105A50000000000000000000000000000000000046
:105A60000000000000000000000000000000000036
:105A70000000000000000000000000000000000026
:105A80000000000000000000000000000000000016
:105A90000000000000000000000000000000000006
:105AA00000000000000000000000000000000000F6
:105AB0000000000000020004000800180030002070
:105AC0000060004000C000C00180018001800180B2
:105AD0000180018001800180018000C000C0004081
