:020000040800F2
:10000000B806002035020008C713000809130008CD
:10001000C51300082B040008151600080000000096
:10002000000000000000000000000000CB130008EA
:100030002D04000800000000C9130008CD130008BB
:100040004F0200084F0200084F0200084F0200084C
:100050004F0200084F0200084F0200084F0200083C
:100060004F0200084F0200084F0200084F0200082C
:100070004F0200084F0200084F0200084F0200081C
:100080004F0200084F0200084F0200080000000065
:100090000000000000000000000000004F02000807
:1000A0004F0200084F0200084F0200084F020008EC
:1000B0004F0200084F0200084F0200084F020008DC
:1000C0004F0200084F0200084F0200084F020008CC
:1000D0004F0200084F0200084F0200080000000015
:1000E0004F0200084F0200084F0200080000000005
:1000F0000000000000000000000000004F020008A7
:10010000000000004F0200084F0200084F020008E4
:1001100000000000000000000000000000000000DF
:100120004F0200084F0200084F0200084F0200086B
:100130004F02000800000000000000000000000066
:100140000000000000000000000000004F02000856
:100150004F0200084F0200084F0200084F0200083B
:100160004F0200084F0200080000000000000000DD
:10017000000000000000000000000000000000007F
:10018000000000004F020008000000000000000016
:100190004F02000800F002F800F03CF80AA090E8D6
:1001A000000C82448344AAF10107DA4501D100F032
:1001B00031F8AFF2090EBAE80F0013F0010F18BFC3
:1001C000FB1A43F001031847D0140000F01400009C
:1001D000103A24BF78C878C1FAD8520724BF30C873
:1001E00030C144BF04680C60704700000023002445
:1001F00000250026103A28BF78C1FBD8520728BF37
:1002000030C148BF0B6070471FB501F033FA1FBD06
:1002100010B510BD00F0CFF81146FFF7F5FF01F063
:100220000BFA00F0EDF803B4FFF7F2FF03BC00F0A7
:10023000F5F800000948804709480047FEE7FEE757
:10024000FEE7FEE7FEE7FEE7FEE7FEE7FEE7FEE786
:1002500004480549054A064B70470000651400082C
:1002600095010008B8000020B8060020B802002060
:10027000B802002053EA020C00F069802DE9F04B2F
:100280004FF00006002B1FBFB3FA83F503FA05F405
:1002900024FA05F65E4012BF1643B2FA82F502FA5E
:1002A00005F4C5F120051EBF22FA05FC44EA0C0442
:1002B000203556EA044C4FEA144418BF641C4FF032
:1002C00000084FF00009904271EB030C39D300296C
:1002D00019BFB1FA81F701FA07F6B0FA80F700FA10
:1002E00007F6C7F120071EBF20FA07FC46EA0C06F6
:1002F0002037B6FBF4FCA7EB0507103F07F01F0BF8
:10030000CBF120060CFA0BFB2CFA06F644BFB346E1
:100310000026202FA4BF5E464FF0000B5BEA060CC0
:1003200008BF4FF0010B19EB0B09ABFB027C48EB4C
:100330000608C01B06FB02CC0BFB03CC71EB0C01C7
:10034000C1E70B46024641464846BDE8F08B13B56F
:100350004FF000004FF00001AFF30080BDE81C40FB
:1003600070474FF0000200B5134694469646203978
:1003700022BFA0E80C50A0E80C50B1F12001BFF45E
:10038000F7AF090728BFA0E80C5048BF0CC05DF8C4
:1003900004EB890028BF40F8042B08BF704748BF12
:1003A00020F8022B11F0804F18BF00F8012B704786
:1003B000704770477047754600F02CF8AE46050050
:1003C0006946534620F00700854618B020B5FFF770
:1003D0003FFFBDE820404FF000064FF000074FF010
:1003E00000084FF0000B21F00701AC46ACE8C00953
:1003F000ACE8C009ACE8C009ACE8C0098D4670475C
:1004000010B50446AFF300802046BDE81040FFF76A
:100410000ABF00000048704754000020014918201E
:10042000ABBEFEE7260002007047FEE7704772B6DB
:10043000FEE7000070B5044600F0CEF90546601CEA
:1004400002D004480078044400F0C6F9401BA042E2
:10045000FAD370BD000000202DE9F84FDFF84CB250
:100460000D460446584512D0914884420FD0914819
:1004700084420CD09048844209D09048844206D0EF
:100480008F48844203D0AC218EA001F0D4F82868B4
:100490000104090C01D0000C03D0AD2189A001F0AA
:1004A000CAF86868F8B101281DD011281BD00228AD
:1004B00019D0122817D0B0F5881F14D0B0F5041F3A
:1004C00011D0B0F5441F0ED0B0F5901F0BD0B0F591
:1004D000081F08D0B0F5481F05D0032803D0AE216F
:1004E00078A001F0A8F800264FF0010A4FF00309A8
:1004F0000AFA06F02F688046074047457DD12879E3
:1005000000F00300012801D002281DD1E86848B19D
:10051000012807D0022805D0032803D0C02169A0F4
:1005200001F089F8A068720009FA02F18843E968CD
:1005300091400143A1606068297920EA0800C1F375
:100540000011B140014361602879C043800712D097
:10055000A86838B1012805D0022803D0D12159A0BC
:1005600001F069F8E068720009FA02F18843A968AD
:1005700091400143E160287900F0030002282AD16C
:100580002869D8B10C2819D0012817D0022815D015
:10059000032813D0042811D005280FD006280DD029
:1005A00007280BD0082809D0092807D00A2805D029
:1005B0000F2803D0DE2143A001F03DF8F00804EB42
:1005C0008003186A7107CA0E0F2191408843296978
:1005D0009140014319622068720009FA02F18843D0
:1005E000297901F00301914001432160686810F40A
:1005F000403F55D04248016800E051E041F480415D
:100600000160006826F0030100F4804000903D483E
:100610000A18D2F80808B1070B0F0F219940884338
:100620005C4501D1002114E021498C4201D1012116
:100630000FE020498C4201D102210AE01E498C4280
:1006400001D1032105E01D498C4201D1042100E0C4
:10065000072199400143C2F808182B4908686A68C5
:10066000B843D20200D5384308602749091D0868FD
:100670006A68B843920200D5384308602249091FCE
:1006800008686A68B843920300D5384308601E4979
:10069000083908686A68B843D20300D5384308604F
:1006A000761C102EFFF424AFBDE8F88F0000024046
:1006B0000004024000080240000C0240001002400A
:1006C000001C02402E2E2F447269766572732F53E0
:1006D000544D3332463478785F48414C5F447269F8
:1006E0007665722F5372632F73746D33326634786C
:1006F000785F68616C5F6770696F2E63000000004F
:100700004438024000300140083C014070B50C0004
:10071000054604D14FF4DB7105A000F08CFF696938
:1007200024EA0100214040EA0140A86170BD0000B8
:100730002E2E2F447269766572732F53544D3332C7
:10074000463478785F48414C5F4472697665722F11
:100750005372632F73746D3332663478785F6861D7
:100760006C5F6770696F2E630000000070B51546FE
:100770000C00064604D140F29D1108A000F05BFF7A
:1007800045B1012D04D04FF4CF7104A000F053FF08
:10079000B46170BD2004B06170BD00002E2E2F44E6
:1007A0007269766572732F53544D333246347878BC
:1007B0005F48414C5F4472697665722F5372632FB4
:1007C00073746D3332663478785F68616C5F67701C
:1007D000696F2E63000000000148806870470000C8
:1007E000000000200248816802781144816070474F
:1007F000000000200B4810B5016841F40071016051
:10080000016841F480610160016841F48071016018
:10081000032000F091F80F2000F006F800F024F813
:10082000002010BD003C024070B50D4D04464FF451
:100830007A712878B1FBF0F00A490968B1FBF0F051
:1008400000F084FC48B9102C07D200222146501E2B
:1008500000F022F800206C6070BD012070BD000027
:10086000000000200C0000200A4808B5016841F48F
:1008700080410160006800F4804000900548001F3E
:10088000016841F080510160006800F080500090E4
:1008900008BD00004438024070B515460C460646B7
:1008A000102A03D3A82114A000F0C5FE102C03D3F6
:1008B000A92111A000F0BFFE1E480068C0F302236A
:1008C000C3F107022046042A00D90422191D072972
:1008D00001D2002300E0DB1E012404FA02F1491ECC
:1008E000014099409C40641E2C4021433046BDE8A5
:1008F000704000F090BE00002E2E2F447269766585
:1009000072732F53544D3332463478785F48414CDC
:100910005F4472697665722F5372632F73746D33FF
:1009200032663478785F68616C5F636F7274657883
:100930002E6300000CED00E010B5044607280BD034
:10094000062C09D0052C07D0042C05D0032C03D08D
:10095000902108A000F06FFE154904F00702086816
:100960004FF6FF03184040EA0220124A1043086085
:1009700010BD00002E2E2F447269766572732F53BE
:10098000544D3332463478785F48414C5F44726945
:100990007665722F5372632F73746D3332663478B9
:1009A000785F68616C5F636F727465782E630000B6
:1009B0000CED00E00000FA052DE9F0470E460400BA
:1009C0007DD02068401E0E2804D940F25A217AA01A
:1009D00000F031FE96B1012E10D0022E0ED0032E63
:1009E0000CD0042E0AD0052E08D0062E06D0072ED5
:1009F00004D040F25B2170A000F01DFEDFF8F08112
:100A0000D8F80000F7B200F00700B04207D288F82B
:100A10000070D8F8000000F00700B0424FD1206805
:100A2000744D810729D5400703D5286840F4E0506C
:100A300028602078000703D5286840F460402860CB
:100A4000A068A0B1802812D0902810D0A0280ED085
:100A5000B0280CD0C0280AD0D02808D0E02806D072
:100A6000F02804D040F27E2153A000F0E4FD286875
:100A7000A16820F0F000084328602078C00743D028
:100A8000DFF870916068A9F1080988B1012822D0C7
:100A9000022824D0032822D040F2852146A000F06D
:100AA000CAFD6068012816D0022818D0032816D085
:100AB000D9F800008007002833DA286800E030E029
:100AC000616820F0030008432860FFF785FE814637
:100AD00041F2883A11E0D9F800008003EBE7D9F839
:100AE00000008001E7E700BFFFF776FEA0EB0901F9
:100AF000514502D90320BDE8F0872868616800F0FD
:100B00000C00B0EB810FEFD1D8F80010404601F097
:100B10000701B14207D90770006800F00700B04232
:100B200001D00120E7E720784FF4805640074FF4CA
:100B3000A0574FF4C0584FF4E05914D5E06860B1A5
:100B4000B0420AD0B84208D0404506D0484504D04B
:100B500040F2C32118A000F06EFD2868E16820F47F
:100B6000E050084328602078000715D5206960B15F
:100B7000B0420AD0B84208D0404506D0484504D01B
:100B800040F2CA210CA000F056FD2868216920F42B
:100B9000604040EAC100286000F054F82968164A15
:100BA000C1F30311515CC84014490860144800683F
:100BB000FFF73AFE00209EE72E2E2F4472697665DD
:100BC00072732F53544D3332463478785F48414C1A
:100BD0005F4472697665722F5372632F73746D333D
:100BE00032663478785F68616C5F7263632E63008D
:100BF000003C0240083802407E1600080C0000202D
:100C0000040000200448054900680968044AC1F34B
:100C10008221515CC84070470C0000200838024017
:100C20008E1600080448054900680968044AC1F3A3
:100C30004231515CC84070470C0000200838024027
:100C40008E160008154810B5006810F00C02144804
:100C500013D04110042A0FD0082A0ED10F4C241FA4
:100C60002268236802F03F025B0207D52068C0F3C8
:100C70008810A0FB010106E0084610BD2168C1F301
:100C80008811A1FB00010023FFF7F4FA2168C1F3EA
:100C90000141491C4900B0FBF1F010BD0838024089
:100CA0000024F4002DE9F84F04007DD020680F28BF
:100CB00003D9E621F7A000F0BEFC2078DFF80C9401
:100CC000C007A9F1040555D060684FF480364FF491
:100CD000A02738B1B04205D0B84203D0EB21EDA037
:100CE00000F0A9FCF948001D0168C1F38101012948
:100CF00008D00068C0F3810002280AD1D9F80000AA
:100D0000400206D52868800334D560680028CCD01E
:100D100030E06068B04203D1286840F480300CE0D5
:100D2000B842286803D140F480202860F4E720F41A
:100D300080302860286820F480202860606860B1D6
:100D4000FFF74AFD064604E0FFF746FD801B6428D6
:100D50007ED828688003F7D50CE0FFF73DFD0646F6
:100D600005E000BFFFF738FD801B6428F0D8286835
:100D70008003F7D42078DFF8588380074FF0000A0B
:100D800056D5E06830B1012804D040F21D11C1A051
:100D900000F051FC20691F2804D94FF48F71BDA0C9
:100DA00000F049FCC94800E092E0001D016811F024
:100DB0000C0F08D00068C0F38100022810D1D9F8C8
:100DC000000040020CD42868800702D5E0680128A2
:100DD0007ED12868216920F0F80040EAC10017E0C0
:100DE000E068B8B10120C8F80000FFF7F5FC06463E
:100DF00005E000BFFFF7F0FC801B0228A8D8286898
:100E00008007F7D5286820F0F801206941EAC00082
:100E100028600DE0C8F800A0FFF7DEFC064604E0FD
:100E2000FFF7DAFC801B022892D828688007F7D4E5
:100E3000207800072ED5A54EA64F60697036D0B138
:100E4000012808D04FF4AF7192A000F0F4FB00E04D
:100E50004BE1606978B101203860FFF7BDFC0746BF
:100E600005E000BFFFF7B8FCC01B0228C6D83068F9
:100E70008007F7D50EE0C7F800A0FFF7ADFC0746E6
:100E800005E000BFFFF7A8FCC01B0228B6D83068F9
:100E90008007F7D42078400776D5A068002740B1B6
:100EA000012806D0052804D04FF4C57179A000F0C0
:100EB000C2FBDFF818B20BF13C0BDBF80000C000FE
:100EC0000DD4DBF8001041F08051CBF8001000E0A9
:100ED00038E1DBF80000012700F0805000907E4EE2
:100EE0003068C00511D4306840F480703060FFF77E
:100EF00073FC009006E000BFFFF76EFC0099401AFB
:100F0000022891D83068C005F6D5704EA0686C36BE
:100F100001280FD00528306810D020F00100306083
:100F2000306820F004003060A068B8B1FFF754FCCE
:100F300000900FE0306840F00100F4E740F004005A
:100F40003060F7E7FFF748FC0099411A41F288301A
:100F500081428BD830688007F4D50EE0FFF73CFC67
:100F6000009007E0FFF738FC0099411A41F2883001
:100F700081428BD830688007F4D42FB1DBF80010A1
:100F800021F08051CBF80010A069002876D001280C
:100F900009D0022807D040F2CD113EA000F04BFB53
:100FA000A0690028F2D04948001D0068C0F3810004
:100FB0000228A0696DD0022805D0C8F860A0FFF70C
:100FC0000BFC044694E0E06938B1B0F5800F04D022
:100FD0004FF4EB712FA000F02EFB206A3F2804D9BC
:100FE00040F2D7112BA000F026FB606A3238B0F532
:100FF000BF7F04D94FF4EC7126A000F01CFBA06A5F
:1010000002280AD0042808D0062806D0082804D0D0
:1010100040F2D9111FA000F00EFBE06A801E0D28DF
:1010200004D94FF4ED711BA000F005FB4746C8F84A
:1010300060A0FFF7D1FB064605E000BFFFF7CCFB41
:10104000801B022851D828688001F7D4D4E9070111
:101050000843A16A214A490802EB0141626A41EA58
:101060008211084394F82C1040EA0161C9F800107D
:1010700001203866FFF7B0FB044606E064E000BFDD
:10108000FFF7AAFB001B02282FD828688001F7D59C
:101090005AE031E02E2E2F447269766572732F5319
:1010A000544D3332463478785F48414C5F4472691E
:1010B0007665722F5372632F73746D333266347892
:1010C000785F68616C5F7263632E6300043802406E
:1010D00000004742800E4742007000400000FFFFC2
:1010E000FFF77AFB001B022802D90320BDE8F88F26
:1010F00028688001F4D427E00128F7D0D9F800004F
:10110000E26900F4800191421CD1226A00F03F01A3
:10111000914217D147F6C071626A0140B1EB821F5C
:1011200010D1A26A4FF0FF3300F4403103EB5202BA
:10113000B1EB024F06D194F82C1000F07060B0EBC8
:10114000016F01D00120D1E70020CFE710B5401E8C
:10115000B0F1807F01D3012010BD4FF0E024606129
:101160000F21601700F057FA0020A06107202061CE
:10117000002010BD70B5040020D0A06935490028BA
:10118000354A364B20681BD088420AD0904208D09E
:10119000984206D040F2731131A000F04CFAA069D9
:1011A000C8B1A069B0F5807F15D0B0F5007F12D02E
:1011B000B0F5407F0FD04FF4BA7109E0012070BD47
:1011C000884208D0904206D0984204D04FF4BC71B7
:1011D00023A000F030FAA06838B1B0F5805F04D0E9
:1011E0004FF4BD711EA000F026FAE06938B1B0F5E9
:1011F000004F04D040F27B1119A000F01CFA94F8C3
:101200003D00002520B984F83C50204600F046F807
:10121000242084F83D002068C16821F40051C16099
:10122000204600F027F92068016921F4904101610E
:101230002068416921F02A0141612068C16841F4B8
:101240000051C1602564202084F83D0084F83E00F0
:10125000002070BD00100140004400400014014017
:101260002E2E2F447269766572732F53544D33328C
:10127000463478785F48414C5F4472697665722FD6
:101280005372632F73746D3332663478785F68619C
:101290006C5F756172742E630000000010B586B03B
:1012A000044614216846FFF75CF814492068884218
:1012B00021D113480021026842F010020260006848
:1012C00000F0100005900E481438026842F0010248
:1012D0000260006800F0010005904FF4C0600090CB
:1012E0000220CDE901010320039007200490694604
:1012F0000448FFF7B1F806B010BD0000001001402F
:101300004438024000000240FEE7000070B586B09D
:1013100014216846FFF725F81A480025016841F0B6
:1013200004010160016801F004010591016841F0C8
:1013300080010160016801F080010591016841F0C0
:10134000010101600068104E00F0010005900122CB
:1013500007213046FFF70AFA4FF40050CDE90005A7
:101360000124694602943046FFF776F80720CDE95C
:10137000000469463046CDE90245FFF76DF806B036
:1013800070BD000030380240000802400C4810B523
:101390000A4901604FF4E1314160002181600C2273
:1013A000C160C0E904128161C161FFF7E3FE00285A
:1013B00003D0BDE81040FFF73AB810BD001001405F
:1013C00010000020FEE7FEE770477047FFF70ABAFB
:1013D00030B593B030216846FEF7C3FF14210CA846
:1013E000FEF7BFFF1D480025016841F080510160F4
:1013F000006800F0805011901948016821F44041C4
:1014000041F4004101600068022400F44040119062
:1014100001200090000401908001CDE9064008AA57
:101420000420542182E813000B906846FFF73AFC31
:1014300008B172B6FEE70CA90F2081E831004FF425
:101440008050CDE90F0502210CA8FFF7B5FA00285E
:1014500001D072B6FEE713B030BD00004038024044
:10146000007000400248016841F47001016070475B
:1014700088ED00E070B5044640685449884204D9BC
:1014800040F6616152A000F0D6F8E06838B1B0F5DE
:10149000005F04D040F662614DA000F0CCF82069F6
:1014A00050B1B0F5806F07D0B0F5C06F04D040F6F2
:1014B000636147A000F0BFF860694FF6F37108421E
:1014C00000D120B940F6646141A000F0B4F8206872
:1014D0000169E26821F44051114301612169A0686A
:1014E000E26908436169114322680843D16849F2FF
:1014F0000C6399430143D16020684169A26921F4DA
:1015000040711143416141492068884202D04049FD
:10151000884202D1FFF786FB01E0FFF773FBE26927
:101520000023192164253226B2F5004F626828D0C5
:10153000A0FB0101930F9200FEF79CFE0146B0FB59
:10154000F5F06FF01802504301EB800006EB00103D
:10155000B0FBF5F000F0F002B1FBF5F002EB001289
:10156000B1FBF5F06FF01803584301EB800006EB78
:101570000010B0FBF5F000F00F0021681044886007
:1015800070BDA0FB010192185B41FEF773FE01469E
:10159000B0FBF5F00201B1FBF5F06FF01803584312
:1015A00001EB800006EBC000B0FBF5F000F0F800A6
:1015B00002EB4002B1FBF5F0584301EB800006EB73
:1015C000C000B0FBF5F000F00700D6E7A037A000A0
:1015D0002E2E2F447269766572732F53544D333219
:1015E000463478785F48414C5F4472697665722F63
:1015F0005372632F73746D3332663478785F686129
:101600006C5F756172742E63000000000010014071
:1016100000140140FEE70907090E002804DB00F171
:10162000E02080F80014704700F00F0000F1E02087
:1016300080F8141D70477047FFF7DCF8FFF7C8FE0D
:10164000FFF764FEFFF7A2FE094C4FF4FA75012183
:101650002046FFF75BF802212046FFF757F80421E8
:101660002046FFF753F82846FEF7E4FEEFE70000B8
:10167000000802404FF04070E1EE100A7047000091
:101680000000000000000102030406070809000032
:101690000000010203040000B8160008000000204A
:1016A00010000000D0010008C8160008100000203B
:1016B000A8060000EC010008010000001000000076
:0816C000000000000024F4000A
:040000050800019559
:00000001FF
