:020000040800F2
:10000000881D0020E1020008DB3D00088D3C00084F
:10001000D93D0008831D0008C962000800000000E7
:10002000000000000000000000000000593F000830
:10003000091E000800000000573F00085B3F000851
:10004000FB020008FB020008FB020008FB0200089C
:10005000FB020008FB020008FB020008FB0200088C
:10006000FB020008FB020008FB020008FB0200087C
:10007000FB020008FB020008FB020008FB0200086C
:10008000FB020008FB020008FB0200080000000061
:10009000000000000000000000000000FB0200085B
:1000A000FB020008FB020008FB020008FB0200083C
:1000B000FB020008FB020008FB020008FB0200082C
:1000C000FB020008FB020008FB020008FB0200081C
:1000D000FB02000879430008FB0200080000000052
:1000E000FB020008FB020008FB0200080000000001
:1000F000000000000000000000000000FB020008FB
:1001000000000000FB020008FB020008FB020008E0
:1001100000000000000000000000000000000000DF
:10012000FB020008FB020008FB020008FB020008BB
:10013000FB020008000000000000000000000000BA
:10014000000000000000000000000000DD3D00088D
:10015000FB020008FB020008FB020008FB0200088B
:10016000FB020008FB020008000000000000000085
:10017000000000000000000000000000000000007F
:1001800000000000FB02000800000000000000006A
:10019000FB02000800F002F800F092F80AA090E8D4
:1001A000000C82448344AAF10107DA4501D100F032
:1001B00087F8AFF2090EBAE80F0013F0010F18BF6D
:1001C000FB1A43F0010318476C6300008C630000C6
:1001D000103A24BF78C878C1FAD8520724BF30C873
:1001E00030C144BF04680C60704700000023002445
:1001F00000250026103A28BF78C1FBD8520728BF37
:1002000030C148BF0B6070476E2900F02D82702905
:1002100000F06F83662906F0FE80652906F0FB80FA
:10022000672906F0F880612906F0F78003681B0A49
:1002300028BF41F08001692900F0DA81642900F0CB
:10024000D781752900F0D4816F2900F0FC827829CC
:1002500000F03B83E92900F09782E42900F09482C2
:10026000F52900F09182EF2900F0F982F82900F0D9
:100270003A830368DB0928BF41F08001632901F05C
:100280003D80732901F04280E32901F04D80F3297C
:1002900001F05280002070471FB506F0B7F801F05A
:1002A0009DF804000020002106F09AF8401C6060D0
:1002B0000020002106F07EF8E0601FBD10B510BDE3
:1002C00001F05EF81146FFF7E7FF06F035F801F0A0
:1002D0003BF903B4FFF7F2FF03BC01F083F9000020
:1002E0000948804709480047FEE7FEE7FEE7FEE7CA
:1002F000FEE7FEE7FEE7FEE7FEE7FEE70448054906
:10030000054A064B70470000F53F000895010008BC
:1003100088150020881D00208819002088190020D9
:1003200053EA020C00F069802DE9F04B4FF0000613
:10033000002B1FBFB3FA83F503FA05F424FA05F680
:100340005E4012BF1643B2FA82F502FA05F4C5F117
:1003500020051EBF22FA05FC44EA0C04203556EAAB
:10036000044C4FEA144418BF641C4FF000084FF0CF
:100370000009904271EB030C39D3002919BFB1FA7F
:1003800081F701FA07F6B0FA80F700FA07F6C7F12D
:1003900020071EBF20FA07FC46EA0C062037B6FBF2
:1003A000F4FCA7EB0507103F07F01F0BCBF120066D
:1003B0000CFA0BFB2CFA06F644BFB3460026202F9E
:1003C000A4BF5E464FF0000B5BEA060C08BF4FF07F
:1003D000010B19EB0B09ABFB027C48EB0608C01BB9
:1003E00006FB02CC0BFB03CC71EB0C01C1E70B4607
:1003F000024641464846BDE8F08B13B54FF0000079
:100400004FF00001AFF30080BDE81C4070470000D2
:100410001CB50C46064B7B4469460090204600F014
:100420003CF904460020694600F04AF920461CBD0C
:10043000A702000010B5431C02E010F8011B71B1C7
:100440008107FAD14FF0013202C88C1A8C4314EAAA
:10045000C211F9D0C01A0A0603D0C01E10BDC01ABE
:1004600010BD0A0401D0801E10BD0902FCD0401E40
:1004700010BD10B5203AC0F00B80B1E81850203AFA
:10048000A0E81850B1E81850A0E81850BFF4F5AF34
:100490005FEA027C24BFB1E81850A0E8185044BFBE
:1004A00018C918C0BDE810405FEA827C24BF51F82B
:1004B000043B40F8043B08BF7047D20728BF31F81F
:1004C000023B48BF11F8012B28BF20F8023B48BF70
:1004D00000F8012B70474FF0000200B51346944618
:1004E0009646203922BFA0E80C50A0E80C50B1F18C
:1004F0002001BFF4F7AF090728BFA0E80C5048BFA0
:100500000CC05DF804EB890028BF40F8042B08BF3D
:10051000704748BF20F8022B11F0804F18BF00F839
:10052000012B704770477047704770B50446856966
:100530000068C10601D5302600E02026C00707D09C
:1005400070BDD4E9012130469047206A401C2062EA
:100550006D1EF6D570BD70B5044685690078C0077C
:1005600007D170BDD4E9012120209047206A401CAA
:1005700020626D1EF6D570BD09684A0501D540B2EE
:100580007047C905FCD500B2704709684A0501D516
:10059000C0B27047C905FCD580B2704770B50C4633
:1005A0000546012A05D02878800600D5EA6900238F
:1005B00002E0012305E05B1C934202D2E05C0028CC
:1005C000F9D1A869E618C01AA861286A18442862F7
:1005D0002846FFF7AAFF04E0D5E9012114F8010B32
:1005E0009047B442F8D32846FFF7B5FF70BD00002E
:1005F0002DE9F0410646002410687529314616A5FC
:1006000010D0FFF7B9FF002802DA404213A507E037
:1006100031688A0701D512A502E0490704D511A562
:10062000012401E0FFF7B1FF00210A2206F12407AF
:1006300009E0B0FBF2FCB0FBF2F302FB1C0030302F
:1006400078541846491C0028F3D123462A463046E0
:10065000BDE8F04100F061BA000000002D0000008C
:100660002B0000002000000011680268006A53059A
:1006700001D508700AE0D30501D5088006E013060D
:1006800003D5C217C1E9000200E0086001207047ED
:1006900001694A1C02610878704700B58FB0CDE946
:1006A00001310021059105497944CDE90310114636
:1006B000684600F029F90FB000BD0000E5FFFFFF1C
:1006C0000A6802F8010B0A60704700002DE9FF5F1D
:1006D00015468A460446DFF8AC80F8440027D8E97E
:1006E00000103E46CDE9001010E03AF816106A46B8
:1006F00002A800F025FE411C07D02178890603D509
:10070000E269391891420DD80744761C207880069A
:1007100002D5E069B84205DDAE42E6DB3AF81600E4
:100720000028E2D1A069C01BA0612046FFF7FDFEB2
:10073000D8E90010CDE90010002017E03AF81810B1
:100740006A4602A800F0FCFDB0F1FF3F81460BD0E5
:1007500000250DF1080B05E0D4E901211BF8050087
:1007600090476D1C4D45F7D308F10100B04280461B
:10077000E4DB206A384420622046FFF7ECFEBDE847
:10078000FF9F00005A5D00002DE9F0418046D21D18
:1007900022F007020025D2E90002F52915A614D09F
:1007A000011E72F1000106DA0023D0EB030063EBB7
:1007B000020211A608E0D8F800108B0701D50FA699
:1007C00002E0490701D50EA601251146002408F1D3
:1007D000240704E000F05CF930323A55641C50EA1A
:1007E0000102F7D12B46324621464046BDE8F04192
:1007F00000F093B9000000002D0000002B00000065
:100800002000000030B4002100F1240408E002F0D0
:100810000705D208303542EA4372DB086554491CAB
:1008200052EA0305F3D10468002310A2250707D577
:10083000A40600D421B1C46901230DA2641EC461C1
:1008400030BC00F06AB910B5044621461068FFF7C5
:100850009CFE02462046BDE810400023D2E7D21D90
:1008600022F00701D1E90023CCE7000000000000DE
:1008700030000000F0B40D460188090502D5214C76
:100880007C4402E01F4C7C440E34002100F124061D
:1008900008E002F00F071209E75D42EA03721B0944
:1008A0007754491C52EA0307F3D102780023120758
:1008B00004D5702D06D009B1022311342246F0BCB4
:1008C00000F02BB901231034F8E770B504460D464B
:1008D00021461068FFF759FE024629462046BDE82A
:1008E00070400023C6E7D21D22F00703D3E900239E
:1008F000C0E70368126843F0200303600823C36164
:100900000023B7E7BC5B00002DE9F05F8946044691
:100910004FF0000ADFF874B1FB44C0F820A0204675
:10092000E1688847002874D0252806D0D4E9012141
:100930009047206A401C2062F1E700265F4620466F
:10094000E16888472028054607DB312D05D2781954
:1009500010F8200C08B10643F1E7B00701D526F0E6
:100960000406C4F81CA00027C4F818A02A2D09D03A
:10097000284605F0D8FC38B304EB8708303DC8F8AA
:10098000185019E059F8041B204604EB87029161C6
:10099000E1688847012F054618D1E069002820DA70
:1009A00026F020061DE0D8F8180000EB800005EBCB
:1009B00040003038C8F818002046E16888470546EE
:1009C00005F0B1FC0028EED1012F0AD02E2D08D160
:1009D0002046E16888477F1C0546022F46F0200626
:1009E000C4DBA069002803DA404246F00106A0619A
:1009F000F00701D026F010066C2D0BD0682D09D021
:100A00004C2D39D06A2D35D0742D35D07A2D33D078
:100A100016E038E0E1682F4620468847B842054690
:100A200009D16C2F26D04FF48060E1680643204640
:100A30008847054604E06C2F1AD04FF480700643B7
:100A40000DB3A5F14100192802D8203546F40066FF
:100A50004A462946204626604E46FFF7D5FB80B120
:100A600001280BD0F61D26F0070000F1080956E713
:100A70004020E4E78020D8E70020D6E706F104090B
:100A80004DE7284652E7206ABDE8F09F4C5B000026
:100A900030B5B0F10A024FEA900E71F100034EEA50
:100AA000817EB0EB0E0061EB91014FEA101E4EEA21
:100AB000017E10EB0E0041EB11114FEA102E4EEAB1
:100AC000016E10EB0E0041EB11214FEA104E4EEA81
:100AD000014E10EB0E0041EB1141401841F10001B5
:100AE0004FEAD00040EA41704FEAD10110EB800597
:100AF0004FEA810444EA907444EB01046D1944EB1D
:100B00000404521BA3414FF0000348BF0A3200D532
:100B100030BD401C41F1000130BD2DE9F0470D46CC
:100B200099469246044600F124080168880604D5D7
:100B3000E06921F01001216000E00120A84201DD00
:100B4000471B00E00027A1697A1902EB0900081A87
:100B5000A0612078C00602D42046FFF7E6FC0026FC
:100B600008E0D4E901211AF806009047206A401CE9
:100B7000761C20624E45F4DB2078C0060AD520465C
:100B8000FFF7D3FC06E0D4E9012130209047206A2A
:100B9000401C2062381EA7F10107F4DC07E0D4E90D
:100BA000012118F805009047206A401C2062281E89
:100BB000A5F10105F3DC2046FFF7CDFC2078000607
:100BC00002D50220BDE8F0870120FBE770472DE940
:100BD000FF4F0C461E464FF0FF378BB0D2E90001A5
:100BE000DDF860800A908A46C1F30A5505B93D4692
:100BF000002108464FF00000BAF1000F00F4400059
:100C000005DA00EB80004FF4400101EA50004FEAA2
:100C10009059B9F1010F00DDB9460A9850EA4A002F
:100C20000ED044F61050A5F2FF3545432F14B8F10D
:100C3000000F1ED07542291E1EDDC9F100021CE006
:100C4000B8F1010F4FF0000001D0302103E0F24372
:100C500005E02154401CB042FBDB3046002200215D
:100C600021540B99C1F80880C1E900200FB0BDE8FC
:100C7000F08FBD1B6D1CDEE74A4600DA694206A80C
:100C800000F0F0FB06AB93E8070003AB83E8070036
:100C900050460A9900F0ADFC8DE80700A0F5005021
:100CA0001F3800900398002D0ADD42F21F014A46CA
:100CB0000844002303A90390684600F016FF09E0EA
:100CC000A0F500504A461F38002303A90390684648
:100CD00000F020FF8DE807000004000C03D04FF067
:100CE000FF30410800E01046B8F1000F03D00022A9
:100CF000009215461EE0751E05D4FFF7C9FE30327E
:100D000062556D1EF9D5B3460122084302D0002278
:100D10007F1C04E02078302801D100227F1E002AA9
:100D2000099784D01DE0112D07DAFFF7B1FE3032AC
:100D300062556D1C50EA0102F5D1084302D00098BB
:100D4000C8B10EE00021681E05E0235C625C6354BC
:100D50002254401E491C8142F7DBAB46A81B401EB3
:100D60000990002004F80B000B98099AC0F808803D
:100D7000C0E9002B7AE711264FF0000857E72DE96C
:100D8000F04F88460446D21D22F0070191B0D1E908
:100D90000001CDE90A0105F09EFA02460B98C00F4A
:100DA00001D02D2007E02068810701D52B2002E02B
:100DB000202101EAC000032A099001D0072A05DB9F
:100DC00003464146204600F00DFB0BE120788006EB
:100DD00001D5E06900E00620B8F1650F814606D034
:100DE000B8F1660F18D0B8F1670F70D131E000206C
:100DF000B9F1110F009001DB112301E009F10103AA
:100E00000AAA01A90CA8FFF7E2FEDDE90C70002692
:100E100009F10105834647E001204B4600904FF061
:100E200000470AAA01A90CA8FFF7D1FEDDE90DB021
:100E30000C995D46002610B909F101000D18B9EBB7
:100E4000050003D4C0F1FF3609F10105A5EB090047
:100E50002BE0B9F1010F01DA4FF001090020B9F1DF
:100E6000110F0090484601DD112300E003460AAA55
:100E700001A90CA8FFF7ABFEDDE90C704D4600267A
:100E80008346207800070AD4AB4500DA5D4601A806
:100E9000012D04DD411911F8011C302907D04F45FF
:100EA00002DA17F1040F04DA012082460FE06D1E0A
:100EB000EEE7002F02DCED1B3E4403E0781CA84265
:100EC00000DD7D1CB81B00F1010A4FF000472078BF
:100ED000000703D4AA4501DB4FF0FF3A0021B7F128
:100EE000004F0DF143088DF8431024D002202B232E
:100EF000002F01DA7F422D230A21021EA0F10100FA
:100F000000DC5FB197FBF1FC97FBF1F201FB1C7C6D
:100F100017460CF1300C08F801CDEEE7A8F10100FE
:100F200003702188090501D5452100E06521A0F164
:100F3000010800F8011C09980FA9A1EB0807FF1D83
:100F400000B10120411901EBEA70A1693844081A87
:100F5000401EA0612078C00602D42046FFF7E5FAC3
:100F6000099828B1D4E901219047206A401C2062E9
:100F70002078C00622D52046FFF7D7FA1EE0002EC3
:100F800004DBB34502DD01A8805D00E03020D4E938
:100F900001219047206A401C2062761CAAF10100C2
:100FA0005FEA000A0AD100F019FAC0680168405CE3
:100FB000D4E901219047206A401C2062281EA5F137
:100FC0000105DCDC07E0D4E9012118F8010B9047AA
:100FD000206A401C2062381EA7F10107F3DC20467E
:100FE000FFF7B9FA032011B041E600002DE9F04FF8
:100FF00004460D46D21D22F0070089B0D0E90097C3
:101000004846394605F067F90246F80F01D02D230E
:1010100007E02068810701D52B2302E0202101EAA7
:10102000C0038DF820300BB1012000E00020032A1E
:10103000824601D0072A04DB2946204600F0D2F977
:101040003FE12078800601D40D2500E0E569C7F373
:101050000A560D2D49DA00214FEA175B08464FF07A
:101060000000002F00F4400007DA00EB80004FF48E
:10107000400100EBD07001EA60008115012901DD1B
:101080004FF0FF3100224FEA850CBCF1180F06D358
:101090001346ACF118004FF08052C24003E04FF409
:1010A000801323FA0CF30CF10C0CBCF1200F04D3C9
:1010B000ACF1200C09FA0CF001E007FA0CF0002961
:1010C0004FF0004801DD18B90FE00ED140450CD3B8
:1010D00019EB02095F4121B9404502D19F4329EA3A
:1010E0000209BBEB175F00D0761C2088000502D5F3
:1010F0007B48784402E07A487844193808AA3023BB
:1011000002F80A30037C0AF10101002E0AF1020AFA
:1011100053546A4602DC4FF0300101E04FF03101D8
:101120004FF001088DF8001002D0A6F2FF3603E060
:1011300059EA470100D06B4E002D02DC21780907E7
:1011400004D54FF002082E218DF80110C44600216D
:101150000BE0C7F303433F01C35C491C6D1E02F85B
:101160000830052908F1010801DA002DF1DC002121
:101170000CE000EB1973491C1B786D1E082902F85E
:1011800008304FEA091908F1010801DA002DF0DCF6
:1011900021688B0602D516E0A8F10108E04505DDBF
:1011A00002EB080313F8013C302BF5D0B8F1000F27
:1011B00009DD02EB080313F8013C2E2B03D10907CC
:1011C00001D4A8F10108002D05DD3E2102F8081028
:1011D0006D1E08F10108407C002E02F8080008F19D
:1011E000010804DA2D20764202F8080002E02B20E4
:1011F00002F808000A214FF47A70864208F10108CB
:101200000BDB96FBF0F3303302F8083096FBF0F37B
:1012100008F1010800FB136601E0642E0CDB64207A
:1012200096FBF0F3303302F8083096FBF0F308F148
:10123000010800FB136601E00A2E06DB96FBF1F0C5
:10124000303002F8080008F1010896FBF1F001FBCC
:101250001060303002F80800A16908F1010808EBBD
:10126000050202EB0A00081AA0612078C00602D429
:101270002046FFF75AF9216A08AE01EB0A00206206
:1012800004E0D4E9012116F8010B9047BAF1010AF4
:10129000F7D22078C00602D52046FFF746F96E4601
:1012A00009E016F8010B3E280FD0D4E90121904740
:1012B000206A401C2062B8F10108F2D22046FFF7F4
:1012C0004AF909B00320BDE8F08F206A2844206263
:1012D00003E0D4E90121302090476D1EEBD3F8E7FD
:1012E0009653000002FCFFFF10B5436913B1AFF342
:1012F000008001E0FFF752F9012010BD127800F1E3
:1013000024010A7000224A700122EDE711684FF0B3
:10131000FF32E9E710B5436913B1AFF3008001E094
:10132000FFF7D4F9012010BD128800F12401828456
:101330000022C2840122EDE711684FF0FF32E9E795
:1013400070B516460C46054600F040F8036893F861
:101350000101012806D0FF2C0FD8185D68B10120CB
:101360002C7070BDD3F807013246214603F20713F3
:1013700003442846BDE8704018474FF0FF3070BD69
:10138000754600F0EBF8AE4605006946534620F07E
:101390000700854618B020B5FEF7B0FFBDE8204035
:1013A0004FF000064FF000074FF000084FF0000B21
:1013B00021F00701AC46ACE8C009ACE8C009ACE8D4
:1013C000C009ACE8C0098D467047000010B500F0B8
:1013D00005F8001D10BD00BF09500000004870470F
:1013E000441500202DE9F0411F46044603260168FC
:1013F000072A01F4006004DB08B116A505E016A574
:1014000003E008B115A500E015A521F0100020604B
:10141000A069C01EA0610FB1401EA0612046FFF769
:1014200084F84FB1D4E9012138469047206A401C26
:101430002062C01C206206E0206AFAE7D4E901219C
:1014400015F8010B9047761EF8D22046FFF783F877
:10145000BDE8F0814E414E006E616E00494E46007F
:10146000696E66002DE9F047814616468AB0354818
:1014700078440DC88DE80D0032487844801C03ACD8
:101480000DC884E80D0041F69B300844372190FBDD
:10149000F1F290FBF1F5A5F1800501FB12041B3C74
:1014A00002D56442012000E00020DFF898A08046C9
:1014B0000027FA44AAF1BE0A0EE0E0070AD032463D
:1014C000684607EB470101230AEB810100F022FB8C
:1014D0008DE8070064107F1C002CEED1194F7F446B
:1014E000AE3F19E0E80715D007EB04100DF1180A1C
:1014F00090E80E008AE80E00C068F04201D1981909
:1015000008903246012306A903A800F003FB03ABB1
:1015100083E807006D10641C002DE3D14FF0010338
:1015200032466946B8F1000F03A802D000F0DDFA98
:1015300001E000F0EFFAC9E90001C9F808200AB09B
:10154000BDE8F087A850000010B50446AFF3008056
:101550002046BDE81040FEF7BCBE000000487047C2
:10156000241500204FF0013C50F8042B51F8043BA7
:101570009A4221D1A2EB0C03934313EACC1317D167
:1015800050F8042B51F8043B9A4215D1A2EB0C03FE
:10159000934313EACC130BD150F8042B51F8043BBE
:1015A0009A4209D1A2EB0C03934313EACC13DBD08C
:1015B0004FF00000704700BFD01A01BAB1FA81F1B4
:1015C00001F0180122FA01F0CB40C1F12001DBB299
:1015D000C0B2C01A2CFA01F3D11A914311EAC31117
:1015E000E6D1704701491820ABBEFEE72600020095
:1015F00070475FEA400C08BF91F0000F4FEA8C2360
:101600004FEAC12243EA51514FEA1C5018BF00F57E
:10161000F0404FEA300018BF41F000415FEA6C5CD7
:1016200000F02980BCF1FF3F08BF40F080407047C8
:10163000130C06BF12044FF0100C4FF0000C130EE9
:1016400004BF12020CF1080C130F04BF12010CF1BD
:10165000040C930F04BF92000CF1020CD30F04BFD3
:1016600052000CF1010C11464FF00002A0F11F00D6
:10167000A0EB0C00704711F0004F08BF704731F02D
:1016800000413FF4D5AF0B0C06BF09044FF0100C1E
:101690004FF0000C0B0E04BF09020CF1080C0B0FED
:1016A00004BF09010CF1040C8B0F04BF89000CF17D
:1016B000020CCB0F04BF49000CF1010CCCF120034C
:1016C000A0EB0C0022FA03F302FA0CF241EA030148
:1016D00000F10100704720F07F4C80EA030023F006
:1016E0007F47ACEB070303F57C5300F0004003F1A8
:1016F000FF032DE980494FEA154B09B44FEA144323
:1017000025EA0B4E24EA03480FF2042606EB1327C2
:1017100049083E785FEA320203FB0667C7F5000717
:1017200007FB06F64FEA54374FEAD64606F10206A3
:1017300007FB066CCCF1005C4FEA1C472CEA074C17
:1017400007FB06F40CFB06F504EB15464FEA96166C
:1017500034BF00204FF000404FEAD13706FB07FCB2
:101760004FEA1C4C0CFB0BF7D21B03FB0CF761EB95
:1017700007010CFB0EF7B0EB074072EB17420CFBB6
:1017800008F734BFA2EB0742B2EB074261EB174107
:101790004FEA0C444FEA910706FB07FC4FEA1C4C4A
:1017A0000CFB0BF7B0EBC74072EB573203FB0CF7A7
:1017B00034BFA2EBC742B2EBC74261EB57310CFB1F
:1017C0000EF7B0EBC70072EB57720CFB08F734BF93
:1017D000A2EBC702B2EBC70261EB5771039F4FEA5E
:1017E000816141EA921104EBCC044FEAD1374FEA10
:1017F000826206FB07FC42EA90124FEA80604FEAE1
:101800001C4C0CFB0BF7D21B03FB0CF761EB070125
:101810000CFB0EF7B0EB074072EB17420CFB08F71E
:1018200034BFA2EB0742B2EB074261EB17414FEA2C
:101830008C554FEA910704EB9C2406FB07FC4FEA0A
:101840001C4C0CFB0BF7B0EBC74072EB573203FBA1
:101850000CF734BFA2EBC742B2EBC74261EB573182
:101860000CFB0EF7B0EBC70072EB57720CFB08F7DE
:1018700034BFA2EBC702B2EBC70261EB577115EBA5
:101880004C254FEA816141EA92114FEA82624FEAA8
:10189000D13742EA901206FB07FC44F100044FEAFC
:1018A00080604FEA1C4C0CFB0BF7D21B03FB0CF7C0
:1018B00061EB07010CFB0EF7B0EB074072EB174230
:1018C0000CFB08F734BFA2EB0742B2EB074261EB17
:1018D000174115EB1C154FEA813141EA92414FEA5D
:1018E000823242EA90424FEA80304FEA0C7644F16D
:1018F000000448EA03434EEA0B484FF0000EB2EBF7
:10190000080C71EB030724BF624639464EEB0E0EFE
:101910004FF0000B0018524149414BEB0B0BB2EB5F
:10192000080C71EB03077BF1000B24BF62463946BC
:101930004EEB0E0E4FF0000B0018524149414BEB9D
:101940000B0BB2EB080C71EB03077BF1000B24BF10
:10195000624639464EEB0E0E51EA020718BF46F0BA
:10196000010616EB0E7655F1000254F1000103D585
:10197000BDE88901BDE80088BDE88901BDE80048EF
:10198000B619524141EB0101A3F101037047808078
:101990007F7E7D7C7B7A79787776767574737271C9
:1019A00071706F6E6E6D6C6C6B6A6A696868676681
:1019B00066656464636362616160605F5F5E5E5D13
:1019C0005D5C5C5B5B5A5A59595858575756565587
:1019D00055555454535352525251515050504F4FE9
:1019E0004F4E4E4D4D4D4C4C4C4B4B4B4A4A4A4939
:1019F000494948484847474747464646454545447C
:101A00004444444343434342424242414141002B08
:101A10009C4630D477002BD01CB54FEA370703B46F
:101A20004FF010004FF01001BAF1000F06D0BCF1DA
:101A3000000FDCBF40F0080040F008014FF000004C
:101A40000FBCBDE810400BF1010BBBF1010F08BF4B
:101A50005FEA170722BF12F1010211F101014FF0F5
:101A6000004143F1000300F0004043EA00007047EA
:101A7000F9D35708D0E746EA064613F1400F4FEA7C
:101A800016461FDD13F1200FDFBF16430A46002163
:101A900020335B42BED0C3F1200746EA064602FA75
:101AA00007F74FEA164646EA0706C3F1200722FA6F
:101AB00003F201FA07F721FA03F14FF0000342EABB
:101AC0000702A7E746EA020646EA06464FEA164636
:101AD00046EA0106BCBF46EA0646360C4FF0000354
:101AE0004FF000024FF0000194E72DE9804C9A4638
:101AF000934670B491E8380007C831EA400C48BFFB
:101B000034EA430C03D5FFF7E6FDFFF780FFF0BC96
:101B1000BDE8008C2DE9804C9A46934670B491E85C
:101B2000380007C810F0804F08BF13F0804F03D172
:101B300000F005F8FFF76BFFF0BCBDE8008C20F06B
:101B40007F4780EA030023F07F4C07EB0C03A3F5EB
:101B50007C5300F00040A3F1FE0392F0000F00F070
:101B6000B38095F0000F00F077802DE901494FEA2E
:101B700011404FEA144621EA004800FB06FC24EA23
:101B8000064708FB06F607FB08F800FB07F718EB0B
:101B900006484CEB164C4FEA124B18EB07484FEA3D
:101BA00015464CEB174022EA0B4E0BFB06FC25EAD0
:101BB00006470EFB06F607FB0EFE0BFB07F71EEBB8
:101BC000064E4CEB164C4FF000061EEB074E4CEB4E
:101BD000174B18EB0B0840F1000018EB0E0B58EBFD
:101BE000000840F100008F1A4FF000013CBFC943CC
:101BF000661B14BFB5EB040C00213CBFC943F61BA8
:101C00004FEA17444EEA8E0E27EA04454FEA1C4776
:101C100004FB07622CEA074C05FB07F70CFB05F6F3
:101C200004FB0CFC16EB074642EB174216EB0C4686
:101C300042EB1C421BEB060658EB0202414146EA0E
:101C40009E0601D5BDE80189B619524141EB01015B
:101C5000A3F10103BDE801894FEA14454FEA11479A
:101C600024EA054621EA074C05FB07F406FB07F7C3
:101C70000CFB06F105FB0CFC11EB074144EB174490
:101C80004FEA124711EB0C4144EB1C4422EA074C8B
:101C900005FB07F206FB07F70CFB06F605FB0CFC41
:101CA00016EB074642EB174216EB0C4642EB1C457F
:101CB0006A1854F1000148BF7047B619524141EB10
:101CC0000101A3F10103704795F0000F37D04FEAEF
:101CD00011424FEA144721EA024624EA074C02FB6C
:101CE00007F106FB07F70CFB06F402FB0CFC14EBF8
:101CF000074441EB17414FEA154714EB0C4441EB05
:101D00001C4125EA074C02FB07F506FB07F70CFB15
:101D100006F602FB0CFC16EB074645EB174516EBE7
:101D20000C4645EB1C42121951F1000148BF7047A7
:101D3000B619524141EB0101A3F1010370474FEA8B
:101D400014454FEA114724EA054621EA074C05FBF2
:101D500007F106FB07F70CFB06F24FF0000605FB48
:101D60000CFC12EB074241EB174112EB0C4251EB1A
:101D70001C4148BF7047921841EB0101A3F10103D8
:101D80007047FEE704284FF00000704700207047BE
:101D900010B500220449054802F006FD0449034835
:101DA00002F0F4FC002010BD100A00204C010020BD
:101DB0002806002070B505460C462946054802F065
:101DC000E5FC044802F0B2FC2846216804F07DFAE4
:101DD000002070BD4C0100200020704710B50A465D
:101DE0000849D1F8BC12D1F81412002901D0012001
:101DF00010BD0146034802F0D7FCBDE81040014881
:101E000002F06ABD4C010020704772B6FEE7000088
:101E100070B50B480168001D0568001D0068084486
:101E200000280CD0074C0822A11C01F030FF04F15F
:101E300012012846BDE87040042201F028BF70BDA1
:101E4000107AFF1F480000202DE9F0410446876DFD
:101E500000F028FA064694F835000025022806D03E
:101E60008020606584F834500120BDE8F08120684E
:101E7000016821F0160101602068416921F08001AC
:101E80004161206C08B9A06C20B12068016821F084
:101E9000080101602068016821F0010101600CE087
:101EA00000F000FA801B052807D920206065032078
:101EB00084F8350084F83450D7E720680068C007FC
:101EC000EED194F85C103F208840B860012084F87F
:101ED000350084F834500020C7E790F83510022907
:101EE00003D08021416501207047052180F835101D
:101EF0000068016821F001010160002070470000C6
:101F000070B5044600F0CEF90546601C02D00448C6
:101F10000078044400F0C6F9401BA042FAD370BD1B
:101F2000000000202DE9F84FDFF84CB20D460446C2
:101F3000584512D0914884420FD0914884420CD029
:101F40009048844209D09048844206D08F48844209
:101F500003D0AC218EA004F0EDF928680104090C2F
:101F600001D0000C03D0AD2189A004F0E3F968682A
:101F7000F8B101281DD011281BD0022819D0122831
:101F800017D0B0F5881F14D0B0F5041F11D0B0F5EC
:101F9000441F0ED0B0F5901F0BD0B0F5081F08D02D
:101FA000B0F5481F05D0032803D0AE2178A004F077
:101FB000C1F900264FF0010A4FF003090AFA06F0B2
:101FC0002F688046074047457DD1287900F00300FF
:101FD000012801D002281DD1E86848B1012807D0A6
:101FE000022805D0032803D0C02169A004F0A2F97B
:101FF000A068720009FA02F18843E9689140014340
:10200000A1606068297920EA0800C1F30011B1409D
:10201000014361602879C043800712D0A86838B1B5
:10202000012805D0022803D0D12159A004F082F95B
:10203000E068720009FA02F18843A96891400143FF
:10204000E160287900F0030002282AD12869D8B17C
:102050000C2819D0012817D0022815D0032813D036
:10206000042811D005280FD006280DD007280BD042
:10207000082809D0092807D00A2805D00F2803D03E
:10208000DE2143A004F056F9F00804EB8003186A3F
:102090007107CA0E0F21914088432969914001437D
:1020A00019622068720009FA02F18843297901F067
:1020B0000301914001432160686810F4403F55D00E
:1020C0004248016800E051E041F48041016000684D
:1020D00026F0030100F4804000903D480A18D2F831
:1020E0000808B1070B0F0F21994088435C4501D1C7
:1020F000002114E021498C4201D101210FE0204947
:102100008C4201D102210AE01E498C4201D10321F7
:1021100005E01D498C4201D1042100E007219940CE
:102120000143C2F808182B4908686A68B843D2020C
:1021300000D5384308602749091D08686A68B84314
:10214000920200D5384308602249091F08686A686E
:10215000B843920300D5384308601E49083908681F
:102160006A68B843D20300D538430860761C102E45
:10217000FFF424AFBDE8F88F0000024000040240E5
:1021800000080240000C024000100240001C024007
:102190002E2E2F447269766572732F53544D33324D
:1021A000463478785F48414C5F4472697665722F97
:1021B0005372632F73746D3332663478785F68615D
:1021C0006C5F6770696F2E63000000004438024046
:1021D00000300140083C014070B50C00054604D1B8
:1021E0004FF4DB7105A004F0A5F8696924EA010049
:1021F000214040EA0140A86170BD00002E2E2F440E
:102200007269766572732F53544D33324634787841
:102210005F48414C5F4472697665722F5372632F39
:1022200073746D3332663478785F68616C5F6770A1
:10223000696F2E630000000070B515460C0006465D
:1022400004D140F29D1108A004F074F845B1012DAD
:1022500004D04FF4CF7104A004F06CF8B46170BDE9
:102260002004B06170BD00002E2E2F447269766587
:1022700072732F53544D3332463478785F48414C53
:102280005F4472697665722F5372632F73746D3376
:1022900032663478785F68616C5F6770696F2E634F
:1022A0000000000001488068704700000000002026
:1022B0000248816802781144816070470000002064
:1022C0000B4810B5016841F400710160016841F4E8
:1022D00080610160016841F480710160032000F0B9
:1022E000C3F80F2000F006F800F024F8002010BD1D
:1022F000003C024070B50D4D04464FF47A712878C9
:10230000B1FBF0F00A490968B1FBF0F001F018FAEE
:1023100048B9102C07D200222146501E00F054F874
:1023200000206C6070BD012070BD00000000002026
:102330000C0000200A4808B5016841F480410160A2
:10234000006800F4804000900548001F016841F0DB
:1023500080510160006800F08050009008BD0000CE
:102360004438024010B5040003D5BC2107A003F097
:10237000E1FF002C09DB04F01F0101208840610906
:10238000890001F1E021C1F8000110BD2E2E2F447B
:102390007269766572732F53544D333246347878B0
:1023A0005F48414C5F4472697665722F5372632FA8
:1023B00073746D3332663478785F68616C5F636F15
:1023C000727465782E63000070B515460C4606469B
:1023D000102A03D3A82114A003F0ACFF102C03D3C0
:1023E000A92111A003F0A6FF1E480068C0F3022334
:1023F000C3F107022046042A00D90422191D072927
:1024000001D2002300E0DB1E012404FA02F1491E80
:10241000014099409C40641E2C4021433046BDE859
:10242000704003F070BF00002E2E2F447269766555
:1024300072732F53544D3332463478785F48414C91
:102440005F4472697665722F5372632F73746D33B4
:1024500032663478785F68616C5F636F7274657838
:102460002E6300000CED00E010B5044607280BD0E9
:10247000062C09D0052C07D0042C05D0032C03D042
:10248000902108A003F056FF154904F007020868E0
:102490004FF6FF03184040EA0220124A104308603A
:1024A00010BD00002E2E2F447269766572732F5373
:1024B000544D3332463478785F48414C5F447269FA
:1024C0007665722F5372632F73746D33326634786E
:1024D000785F68616C5F636F727465782E6300006B
:1024E0000CED00E00000FA05704700684162002032
:1024F0007047F0B50368586A39B19C6A4FF4827628
:1025000000EB144400204D1E0AE040EA02409862AD
:102510000FE006EB8007DF59401C04EB1744C0B204
:10252000A842F6D344EA02404FF4807202EB8101E4
:1025300058500020F0BDD0F8080502F051BD01EB65
:10254000C10200EB8202D0F80805D26C02F072BC26
:1025500001EBC10200EB8202D0F80805D2F88C2210
:1025600002F0D6BCD0F8080502F03CBD0A0601F026
:102570000F0101EBC10100EB810101D53C3101E00C
:1025800001F51F71006803F0E7BC70B504460B0647
:1025900001F00F0000EBC00104EB81014FF00102DC
:1025A0004FF0000503D581F83D203C3103E081F870
:1025B0007D5201F51F71087094F8BC04012808D001
:1025C00084F8BC24206803F081F984F8BC5400200E
:1025D00070BD022070BD70B5044601F00F00626846
:1025E000904201D9012070BD0B0601F00F0101EBF3
:1025F000C10104EB81014FF001024FF0000503D54A
:1026000081F83D203C3103E081F87D5201F51F71D6
:102610008D70087094F8BC04012808D084F8BC249C
:10262000206803F04FFB84F8BC54002070BD0220EA
:1026300070BD01F00F0101EBC10100EB8100D0F88A
:102640009C0270472DE9F04104460F0601F00F008F
:1026500000EBC00104EB81014FF001064FF00005D3
:1026600003D581F83D603C3103E081F87D5201F5EE
:102670001F710870CA600B714A7802B10881022B81
:1026800000D14D7194F8BC04012809D084F8BC64D1
:10269000206803F073F8284684F8BC54BDE8F08144
:1026A0000220FBE770B50C4601F00F0505EBC501F4
:1026B00000EB8101C1F89432C1F88C220023C1F8EB
:1026C0009C3281F87D3281F87C52036901F51F71DB
:1026D000012B00D14A612207027C006803D003F07D
:1026E00049FB002070BD03F033FAFAE770B50446E9
:1026F0000D4601F00F006168884201D9012070BDCC
:1027000029064FF000064FF0010207D500EBC0018B
:1027100004EB810181F83D203C3107E005EBC50168
:1027200004EB810181F87D6201F51F718A700870E8
:1027300094F8BC04012807D084F8BC24206803F076
:10274000EDFA280702D007E0022070BD217C04F2D8
:10275000C442206803F08AFA84F8BC64002070BD8B
:1027600070B50C4601F00F0505EBC50100EB8101CA
:102770004B65CA640023CB65012381F83D3001F825
:102780003C5F0369012B00D14A612207027C00688B
:1027900003D003F0EFFA002070BD03F0D9F9FAE797
:1027A0002DE9FC5F05680446284603F076FC002806
:1027B0007DD1206803F09DFC002878D0D5F808086A
:1027C000C0F30D20C4F8FC04206803F092FC8007DD
:1027D00004D52068416901F002014161206803F0DD
:1027E00088FCC10604F2C440009034D52068816999
:1027F00021F0100181612F6A07F00F0000EBC0008B
:1028000004EB8006C7F3434006F51F76022802D08A
:10281000062811D01AE047F6F070074216D0C7F329
:102820000A1217462846316903F067FC30693844BC
:102830003061306A384408E008222846009903F0E5
:102840005CFC306AC7F30A11084430622068816971
:1028500041F010018161206803F04BFC00034FF050
:10286000080B4FF0000A4FF001097CD500262068C4
:1028700003F01EFC074674E0F80770D0F1B2206840
:1028800003F02FFC8046C00707D005EB4611C1F8C6
:10289000089B3146204601F0A7FA5FEA087024D56C
:1028A00005EB4611C1F808BB2068016C00E025E289
:1028B00000EB46100191D0F8082BFC4B994205D94A
:1028C000110403D54FF40041C0F8081B204600F066
:1028D00026FBF6490198884207D92069012804D1CE
:1028E00020680121009A03F0C1F95FEAC86004D5AD
:1028F00005EB46111020C1F8080B5FEA88701DD562
:102900006869000605D5D5F8040840F48061C5F86B
:10291000041806EBC60004EB800090F87F1200F567
:102920001F70012905D180F803A0F1B2204600F004
:10293000EBF905EB46110220C1F8080B5FEA88604D
:1029400004D505EB46102021C0F8081B5FEA88403B
:1029500005D505EB46104FF40051C0F8081B7F0861
:10296000761C002F88D1206803F0C3FB40036FD58D
:10297000206803F096FB0746002667E0F80763D05F
:10298000F1B2206803F09BFB8046C00723D006F01D
:102990000F0209FA02F0D5F834288243C5F834282A
:1029A00005EB4610C0F80899206901280FD106EB05
:1029B000C60004EB8000D0E912211144C16436B98D
:1029C000606D20B920680121009A03F04FF9F1B23F
:1029D0002046FFF7B4FD5FEA087003D505EB46110A
:1029E000C1F808B95FEAC86004D505EB46111020AC
:1029F000C1F808095FEA486004D505EB461040219C
:102A0000C0F808195FEA887017D53146284603F0E8
:102A100017FB06EBC60004EB800090F83F103C303B
:102A2000012905D180F803A0F1B2204600F068F931
:102A300005EB46110220C1F808095FEA086003D5DA
:102A40003146204601F036FA7F08761C002F95D1DA
:102A5000206803F04EFB002811DAD5F8040820F0B6
:102A60000101C5F8041894F8F40401282BD020467D
:102A700000F039FA2068416901F0004141612068A5
:102A800003F037FB00050BD5D5F80808C00702D0C6
:102A9000204600F06DFA2068416901F4006141614F
:102AA000206803F026FBC00466D5D5F8040820F0A2
:102AB0000100C5F804081021206803F0C1FA0021C4
:102AC0004FF67F321FE084F8F4A400212046FFF780
:102AD0000BFDCFE705EB4110C0F80829D0F800390D
:102AE00023F40013C0F80039C0F8082BD0F8003BDD
:102AF00023F40013C0F8003BD0F8003B43F0006320
:102B0000C0F8003B491C60688842E3D8D5F81C082F
:102B100040F00111C5F81C18206B002828460DD084
:102B2000D0F8840840F00B01C5F88418D5F84408A3
:102B300040F00B012846C5F844180DE0D0F8140801
:102B400042F22B010843C5F81408D5F8100840F0EC
:102B50000B012846C5F81018D0F8000820F4FE61D3
:102B6000C5F80018217C2068009A03F07FF82068DF
:102B7000416901F480514161206803F0BAFA800490
:102B800015D5206802F03AFE206803F079FAE0607B
:102B900000F02CFB0146227B206803F00DFB204651
:102BA00000F08EF92068416901F40051416120680C
:102BB00003F09FFA000707D5204600F098F9206837
:102BC000416901F008014161206803F092FA0006B2
:102BD00016D5A86920F08000A86101260DE000BF8D
:102BE00006EBC60004EB800090F87F02012803D1B9
:102BF000F1B22046FFF7BAFC761C6068B042EFD80D
:102C0000206803F076FAC00221D501264F4616E06F
:102C100005EB4610D0F8001906EBC60004EB800067
:102C200090F84020012A09D1002907DA80F83F7086
:102C3000F0B240F080012046FFF798FC761C6068F7
:102C4000B042E5D82068416901F4801141612068F3
:102C500003F04FFA800234D501204B4629E000BF33
:102C600005EB4011D1F8001B00EBC00204EB82061B
:102C700096F88022012A1BD1002919DA94F8FC2445
:102C800001F4803102F00102914211D186F87F32C5
:102C9000A96941F08002AA616969090608D4D5F8DA
:102CA000040840F40070C5F8040805E00A30544FE9
:102CB000401C61688142D3D82068416901F4001149
:102CC0004161206803F015FA400007D52046FFF760
:102CD00032FC2068416901F080414161206803F0C5
:102CE00008FA40070AD520684568680702D52046DB
:102CF000FFF738FC2068416829434160BDE8FC9F2C
:102D0000D0F8080502F0C3B9D0F8080502F0D4B92C
:102D10002DE9F0418AB004000DD02068B0F1A04F39
:102D200003D0872137A003F005FB94F8BD04266883
:102D3000002520B108E001200AB0BDE8F08184F848
:102D4000BC54204600F07AF8032084F8BD04F06BF0
:102D5000C00500D42561206802F0F4FE04F11001E2
:102D6000282288466846FDF784FB94E80F0002F0AD
:102D700053FD0226C8BB0021206803F0DDF90020C6
:102D800001270EE000EBC00104EB810181F83D70EA
:102D900001F83C0F08810D71CD600D61401CC0B27F
:102DA0008D6161688142EDD8002011E000EBC00127
:102DB00004EB810181F87D5281F87C0281F8805218
:102DC000C1F88852C1F88C52401CC0B2C1F894526C
:102DD00061688142EAD8282241466846FDF749FBEE
:102DE00094E80F0002F0F4FD10B184F8BD64A2E78E
:102DF00084F8385084F8BD74206802F0DBFD0020B0
:102E00009AE700002E2E2F447269766572732F5355
:102E1000544D3332463478785F48414C5F44726990
:102E20007665722F5372632F73746D333266347804
:102E3000785F68616C5F7063642E630000B587B073
:102E40000021029103910491059106910068B0F16F
:102E5000A04F2BD11648016841F0010101600068C4
:102E600000F0010001904FF4C05002900220039046
:102E7000032005900A20069002A90E48FFF752F899
:102E80000D48016841F0800101600C48016841F47F
:102E900080410160006800F48040019000221146EA
:102EA0004320FFF791FA4320FFF75CFA07B000BD1B
:102EB00030380240000002403438024044380240BA
:102EC00070B504460125E068022801D0FEF79DFF99
:102ED0002946D4F8080502F060F9D4F80805BDE8E1
:102EE000704002F013B9D0F8080502F03FB9D0F8ED
:102EF000080502F045B910B5044690F8BC04012855
:102F00000BD0012084F8BC0484F83810206803F04A
:102F100041F9002084F8BC0410BD022010BDD0F897
:102F2000082500F2C441104602F043B910B504462A
:102F3000006894F8BC14012906D0012184F8BC145F
:102F4000A16A012902D008E0022010BDA16901296F
:102F500003D0816B41F480318163206803F04BF82A
:102F6000206802F019FD002084F8BC0410BD0000A8
:102F700010B50446D4F8080502F05FF92068D0F8CF
:102F8000001E41F00101C0F8001E206A002804D094
:102F90000248016841F00601016010BD10ED00E03B
:102FA0002DE9F0470E4604007DD02068401E0E2813
:102FB00004D940F25A217AA003F0BCF996B1012E4F
:102FC00010D0022E0ED0032E0CD0042E0AD0052EC7
:102FD00008D0062E06D0072E04D040F25B2170A048
:102FE00003F0A8F9DFF8F081D8F80000F7B200F09C
:102FF0000700B04207D288F80070D8F8000000F04F
:103000000700B0424FD12068744D810729D5400791
:1030100003D5286840F4E05028602078000703D5E5
:10302000286840F460402860A068A0B1802812D0D1
:10303000902810D0A0280ED0B0280CD0C0280AD0DC
:10304000D02808D0E02806D0F02804D040F27E2115
:1030500053A003F06FF92868A16820F0F00008433E
:1030600028602078C00743D0DFF870916068A9F12C
:10307000080988B1012822D0022824D0032822D0B0
:1030800040F2852146A003F055F96068012816D06A
:10309000022818D0032816D0D9F80000800700288D
:1030A00033DA286800E030E0616820F0030008436C
:1030B0002860FFF7F7F8814641F2883A11E0D9F825
:1030C00000008003EBE7D9F800008001E7E700BFCC
:1030D000FFF7E8F8A0EB0901514502D90320BDE84C
:1030E000F0872868616800F00C00B0EB810FEFD129
:1030F000D8F80010404601F00701B14207D9077027
:10310000006800F00700B04201D00120E7E7207816
:103110004FF4805640074FF4A0574FF4C0584FF477
:10312000E05914D5E06860B1B0420AD0B84208D086
:10313000404506D0484504D040F2C32118A003F012
:10314000F9F82868E16820F4E05008432860207806
:10315000000715D5206960B1B0420AD0B84208D046
:10316000404506D0484504D040F2CA210CA003F0E7
:10317000E1F82868216920F4604040EAC100286035
:1031800000F05AF82968164AC1F30311515CC8408F
:103190001449086014480068FFF7ACF800209EE767
:1031A0002E2E2F447269766572732F53544D33322D
:1031B000463478785F48414C5F4472697665722F77
:1031C0005372632F73746D3332663478785F68613D
:1031D0006C5F7263632E6300003C0240083802405B
:1031E0001E6400080C000020040000200148006854
:1031F000704700000C000020044805490068096879
:10320000044AC1F38221515CC84070470C00002081
:10321000083802402E64000804480549006809681F
:10322000044AC1F34231515CC84070470C00002091
:10323000083802402E640008154810B5006810F0E8
:103240000C02144813D04110042A0FD0082A0ED1C2
:103250000F4C241F2268236802F03F025B0207D54F
:103260002068C0F38810A0FB010106E0084610BDED
:103270002168C1F38811A1FB00010023FDF750F87C
:103280002168C1F30141491C4900B0FBF1F010BDB8
:10329000083802400024F4002DE9F84F04007DD0E6
:1032A00020680F2803D9E621F7A003F043F820781F
:1032B000DFF80C94C007A9F1040555D060684FF4FD
:1032C00080364FF4A02738B1B04205D0B84203D0C1
:1032D000EB21EDA003F02EF8F948001D0168C1F3C1
:1032E0008101012908D00068C0F3810002280AD1B9
:1032F000D9F80000400206D52868800334D56068FC
:103300000028CCD030E06068B04203D1286840F497
:1033100080300CE0B842286803D140F48020286057
:10332000F4E720F480302860286820F480202860AA
:10333000606860B1FEF7B6FF064604E0FEF7B2FF34
:10334000801B64287ED828688003F7D50CE0FEF740
:10335000A9FF064605E000BFFEF7A4FF801B642816
:10336000F0D828688003F7D42078DFF858838007E6
:103370004FF0000A56D5E06830B1012804D040F281
:103380001D11C1A002F0D6FF20691F2804D94FF4F7
:103390008F71BDA002F0CEFFC94800E092E0001D91
:1033A000016811F00C0F08D00068C0F381000228FA
:1033B00010D1D9F8000040020CD42868800702D54B
:1033C000E06801287ED12868216920F0F80040EAF1
:1033D000C10017E0E068B8B10120C8F80000FEF7AE
:1033E00061FF064605E000BFFEF75CFF801B022878
:1033F000A8D828688007F7D5286820F0F801206948
:1034000041EAC00028600DE0C8F800A0FEF74AFFBE
:10341000064604E0FEF746FF801B022892D8286883
:103420008007F7D4207800072ED5A54EA64F6069F7
:103430007036D0B1012808D04FF4AF7192A002F0DD
:1034400079FF00E04BE1606978B101203860FEF758
:1034500029FF074605E000BFFEF724FFC01B022836
:10346000C6D830688007F7D50EE0C7F800A0FEF791
:1034700019FF074605E000BFFEF714FFC01B022836
:10348000B6D830688007F7D42078400776D5A06892
:10349000002740B1012806D0052804D04FF4C5719B
:1034A00079A002F047FFDFF818B20BF13C0BDBF814
:1034B0000000C0000DD4DBF8001041F08051CBF8C3
:1034C000001000E038E1DBF80000012700F0805038
:1034D00000907E4E3068C00511D4306840F4807092
:1034E0003060FEF7DFFE009006E000BFFEF7DAFE78
:1034F0000099401A022891D83068C005F6D5704E60
:10350000A0686C3601280FD00528306810D020F054
:1035100001003060306820F004003060A068B8B16D
:10352000FEF7C0FE00900FE0306840F00100F4E7C5
:1035300040F004003060F7E7FEF7B4FE0099411A4E
:1035400041F2883081428BD830688007F4D50EE094
:10355000FEF7A8FE009007E0FEF7A4FE0099411ACE
:1035600041F2883081428BD830688007F4D42FB183
:10357000DBF8001021F08051CBF80010A069002882
:1035800076D0012809D0022807D040F2CD113EA004
:1035900002F0D0FEA0690028F2D04948001D006862
:1035A000C0F381000228A0696DD0022805D0C8F8B8
:1035B00060A0FEF777FE044694E0E06938B1B0F50C
:1035C000800F04D04FF4EB712FA002F0B3FE206AFD
:1035D0003F2804D940F2D7112BA002F0ABFE606A5D
:1035E0003238B0F5BF7F04D94FF4EC7126A002F059
:1035F000A1FEA06A02280AD0042808D0062806D016
:10360000082804D040F2D9111FA002F093FEE06A0E
:10361000801E0D2804D94FF4ED711BA002F08AFE24
:103620004746C8F860A0FEF73DFE064605E000BF2D
:10363000FEF738FE801B022851D828688001F7D495
:10364000D4E907010843A16A214A490802EB014174
:10365000626A41EA8211084394F82C1040EA016141
:10366000C9F8001001203866FEF71CFE044606E08B
:1036700064E000BFFEF716FE001B02282FD8286862
:103680008001F7D55AE031E02E2E2F44726976651D
:1036900072732F53544D3332463478785F48414C1F
:1036A0005F4472697665722F5372632F73746D3342
:1036B00032663478785F68616C5F7263632E630092
:1036C0000438024000004742800E4742007000402C
:1036D0000000FFFFFEF7E6FD001B022802D90320D1
:1036E000BDE8F88F28688001F4D427E00128F7D0DE
:1036F000D9F80000E26900F4800191421CD1226AED
:1037000000F03F01914217D147F6C071626A014053
:10371000B1EB821F10D1A26A4FF0FF3300F44031A9
:1037200003EB5202B1EB024F06D194F82C1000F0DB
:103730007060B0EB016F01D00120D1E70020CFE72E
:1037400010B5401EB0F1807F01D3012010BD4FF0B5
:10375000E02460610F21601702F0D5FD0020A06118
:1037600007202061002010BD70477047F8B5016840
:1037700004460868CA684B6910F00F0F4FF0000547
:1037800059D003F0010602F49077374365D0C107A2
:1037900005D0D10503D5216C41F001012164410719
:1037A00005D5D90703D0216C41F0020121648107BE
:1037B00005D5D90703D0216C41F00401216401072C
:1037C00007D502F02001314303D0216C41F00801FC
:1037D0002164216C00293AD0800604D5900602D5D8
:1037E000204600F03EFC20684069216CC0F3801048
:1037F000090700D460B3204600F00CFC2068406943
:10380000400621D52068143050E8001F21F0400107
:1038100040E80012002AF5D1A06BA8B16C490165FF
:10382000A06BFEF75AFB002811D0A06B016D01B010
:10383000BDE8F040084783060FD593060DD5204616
:10384000BDE8F84000F00DBC2046FFF78EFFF8BD44
:103850002046FFF78AFF2564F8BD266B2023012E42
:1038600079D1C60677D5D60675D508684868009020
:103870004869400640D5A16B086840680004000C08
:10388000EAD0A28D8242E7D9E085C869B0F5807F91
:103890002DD020680C3050E8001F21F4807140E8E2
:1038A0000012002AF5D12068143050E8001F21F0E2
:1038B000010140E80012002AF5D12068143050E8D8
:1038C000001F21F0400140E80012002AF5D184F8E1
:1038D0003E30256320680C3050E8001F21F01001B5
:1038E00040E80012002AF5D1A06BFEF7ADFAA08DDA
:1038F000E18D401A81B229E0A08DE18D401A81B29C
:10390000E08D0028A8D00029A6D020680C3050E80F
:10391000002F22F4907240E80026002EF5D1206896
:10392000143050E8002F22F0010240E80026002E5B
:10393000F5D184F83E30256320680C3050E8002F24
:1039400022F0100240E80023002BF5D12046FFF7BB
:103950000BFFF8BDFFE705062BD5150629D594F812
:103960003D002128F5D1A068B0F5805F01D1206924
:10397000B0B1206A411C2162216800784860E08C67
:10398000401E0004000CE084E3D12068C16821F0EF
:103990008001C1602068C16841F04001C160D8E782
:1039A000206A0088C0F308004860206A801C2062FA
:1039B000E5E74006CDD55006CBD5CA68204622F0B3
:1039C0004002CA6084F83D3000F05FF9C1E70000B2
:1039D0000540000870B5040020D0A06935490028D2
:1039E000354A364B20681BD088420AD0904208D016
:1039F000984206D040F2731131A002F09BFCA069FE
:103A0000C8B1A069B0F5807F15D0B0F5007F12D0A5
:103A1000B0F5407F0FD04FF4BA7109E0012070BDBE
:103A2000884208D0904206D0984204D04FF4BC712E
:103A300023A002F07FFCA06838B1B0F5805F04D00D
:103A40004FF4BD711EA002F075FCE06938B1B0F50D
:103A5000004F04D040F27B1119A002F06BFC94F8E7
:103A60003D00002520B984F83C50204600F046F87F
:103A7000242084F83D002068C16821F40051C16011
:103A8000204600F04FFB2068016921F4904101615C
:103A90002068416921F02A0141612068C16841F430
:103AA0000051C1602564202084F83D0084F83E0068
:103AB000002070BD0010014000440040001401408F
:103AC0002E2E2F447269766572732F53544D333204
:103AD000463478785F48414C5F4472697665722F4E
:103AE0005372632F73746D3332663478785F686114
:103AF0006C5F756172742E630000000010B586B0B3
:103B0000044614216846FCF7E6FC18492068884200
:103B100029D117480021026842F0100202600068B3
:103B200000F01000059012481438026842F00102BB
:103B30000260006800F0010005904FF4C060009042
:103B40000220CDE90101032003900720049069467B
:103B50000848FEF7E7F9002211462520FEF734FC5D
:103B60002520FEF7FFFB06B010BD0000001001404D
:103B7000443802400000024090F83E30202B0ED125
:103B800059B152B190F83C30012B08D0012380F894
:103B90003C300023036300F095BB012070470220F6
:103BA0007047000010B50068084988420DD1012215
:103BB00007490848FFF7E0FFBDE810404FF47A736B
:103BC00001220349034800F007B810BD001001406E
:103BD00010000020080100202DE9F843044690F869
:103BE0003D001F4616460D4620284CD1C5B1BEB13A
:103BF00094F83C00012846D0012084F83C004FF0A6
:103C00000008C4F84080212084F83D00FEF74AFBFC
:103C1000A6848146E684A068B0F5805F03D004E006
:103C20000120BDE8F883206928B12E465FF0000529
:103C300084F83C800EE00026FAE78021204600F060
:103C40005EFBA0B9AEB116F8010B21684860E08CAC
:103C5000401EE084E08C4B464FF0000200970028A5
:103C6000EBD14FF04001204600F049FB30B103207A
:103C7000D7E735F8020BC0F30800E6E7202084F808
:103C80003D000020CDE70220CBE77047FEE7F0B40F
:103C90000023002A18D90A24302537269C46B4EB85
:103CA000107F04D905EB107701F8137003E006EBE1
:103CB000107701F81370000101EB430787F801C08A
:103CC0005B1CDBB29342EAD3F0BC704770B586B0A0
:103CD00014216846FCF7FFFB1A480025016841F0F3
:103CE00004010160016801F004010591016841F0DF
:103CF00080010160016801F080010591016841F0D7
:103D0000010101600068104E00F0010005900122E1
:103D100007213046FEF790FA4FF40050CDE9000538
:103D20000124694602943046FEF7FCF80720CDE9ED
:103D3000000469463046CDE90245FEF7F3F806B0C7
:103D400070BD000030380240000802400C4810B539
:103D50000A4901604FF4E1314160002181600C2289
:103D6000C160C0E904128161C161FFF733FE002820
:103D700003D0BDE81040FEF748B810BD0010014068
:103D80000801002010B500220F49104801F02CF85E
:103D900008B1FEF73AF80E490C4801F079FA08B17B
:103DA000FEF733F80B49094800F0E4FC08B1FEF7D0
:103DB0002CF8064801F042FB002803D0BDE8104073
:103DC000FEF723B810BD0000140000204C010020B5
:103DD000D000002064000020FEE7FEE70148FEF767
:103DE000DFBC0000181000202DE9F04103680D46EB
:103DF00004461E6C03EB4511D1F8080BD4F810E013
:103E00004FF400474FF0200C04F2C442BEF1010F02
:103E100009D0DFF898E0764539D1020432D500BFE9
:103E2000C1F8087B3FE0224B5FEA007E04D59E424A
:103E300039D90004F4D436E05FEA806E02D5C1F8C7
:103E400008CB30E010F0280F2DD19E4201D900049C
:103E5000E6D405EBC50004EB8000D1F8101BD0F8C8
:103E60009832C1F31201591AC0F89C1200F51F7064
:103E7000ADB983691BB10269114401610FE00121F1
:103E800020680AE080060AD5C1F808CB07E035B9FA
:103E9000D4F8940218B90021184601F0E7FEE9B2FF
:103EA0002046FEF755FB0020BDE8F0810A31544F53
:103EB0000A30544F2DE9F84F0E4601EBC60100EBD6
:103EC000810481460568616DE06D3C34884202D909
:103ED0000120BDE8F88F081AE168814200D2084647
:103EE000C01C870805EB46181BE000BFA0EB010AC9
:103EF000E068504500D282460AF10300870899F82D
:103F0000100000901FFA8AF3F2B22846216902F0ED
:103F1000C7F9216901EB0A002061216A01EB0A005F
:103F20002062D8F8180980B2B84205D3216AA06986
:103F3000814201D20028D9D1216AA069884208D8DB
:103F400006F00F0101208840D5F834188143C5F8E8
:103F500034180020BDE770477047FEF7A9B900008C
:103F600030B593B030216846FCF7B5FA14210CA89F
:103F7000FCF7B1FA1D480025016841F0805101604D
:103F8000006800F0805011901948016821F4404108
:103F900041F4004101600068022400F440401190A7
:103FA00001200090000401908001CDE9064004202A
:103FB00008904820CDE9090403200B906846FFF7DC
:103FC0006BF908B172B6FEE70CA90F2081E8310049
:103FD0004FF48050CDE90F0502210CA8FEF7E0FF59
:103FE000002801D072B6FEE713B030BD4038024061
:103FF000007000400248016841F4700101607047A0
:1040000088ED00E010B5806B0021C185C184FFF709
:10401000ACFB10BD01680C3151E8002F22F4907206
:1040200041E80023002BF5D10168143151E8002F3D
:1040300022F0010241E80023002BF5D1016B012998
:1040400009D101680C3151E8002F22F0100241E83B
:104050000023002BF5D1202180F83E1000210163C0
:10406000704708B590F83E10222901D0022008BD03
:1040700082684FF480539A4201D1016921B1816A6B
:104080009A421BD04AB10AE00268816A5268C2F3C0
:1040900008020A80816A891C08E0026972B102681C
:1040A000526802F07F020A70816A491C8162C18DE8
:1040B000491E0904090CC18503D019E00268526841
:1040C000F1E70168CA6822F02002CA600168CA6884
:1040D00022F48072CA6001684A6922F001024A61D2
:1040E000202180F83E10016B012903D0FFF75AFD13
:1040F000002008BD0021016301680C3151E8002F48
:1041000022F0100241E80023002BF5D101680A6873
:10411000D20602D50A6849680091818DFFF724FB19
:10412000E6E7000070B5044640685449884204D967
:1041300040F6616152A002F0FDF8E06838B1B0F5D8
:10414000005F04D040F662614DA002F0F3F82069F0
:1041500050B1B0F5806F07D0B0F5C06F04D040F615
:10416000636147A002F0E6F860694FF6F371084218
:1041700000D120B940F6646141A002F0DBF820686C
:104180000169E26821F44051114301612169A0688D
:10419000E26908436169114322680843D16849F222
:1041A0000C6399430143D16020684169A26921F4FD
:1041B00040711143416141492068884202D0404921
:1041C000884202D1FFF728F801E0FFF715F8E2690D
:1041D0000023192164253226B2F5004F626828D0E9
:1041E000A0FB0101930F9200FCF79AF80146B0FB87
:1041F000F5F06FF01802504301EB800006EB001061
:10420000B0FBF5F000F0F002B1FBF5F002EB0012AC
:10421000B1FBF5F06FF01803584301EB800006EB9B
:104220000010B0FBF5F000F00F002168104488602A
:1042300070BDA0FB010192185B41FCF771F80146CB
:10424000B0FBF5F00201B1FBF5F06FF01803584335
:1042500001EB800006EBC000B0FBF5F000F0F800C9
:1042600002EB4002B1FBF5F0584301EB800006EB96
:10427000C000B0FBF5F000F00700D6E7A037A000C3
:104280002E2E2F447269766572732F53544D33323C
:10429000463478785F48414C5F4472697665722F86
:1042A0005372632F73746D3332663478785F68614C
:1042B0006C5F756172742E63000000000010014095
:1042C0000014014081628285C2850021016422229E
:1042D00080F83E2080F83C10016921B10168CA686D
:1042E00042F48072CA6001684A6942F001024A6180
:1042F0000068C16841F02001C160002070472DE9CD
:10430000F041984617460E460446069D27E0681C75
:1043100025D02DB1FDF7C6FFA0EB0800A8421ED99D
:1043200020680C3050E8001F21F4D07140E80012E2
:10433000002AF5D12068143050E8001F21F0010157
:1043400040E80012002AF5D1202084F83D0084F8CE
:104350003E00002084F83C000320BDE8F081206886
:10436000006836EA000004D00020B842CFD0002018
:10437000F3E70120F9E700000148FFF7F7B9000073
:104380000801002070B5D0F8C822D0F8D43200EB74
:104390008303D3F8C032002B28D001F00F0C0CEBB4
:1043A0008C0400EB84050026AC6954B10CEBCC0CFA
:1043B00002EB8C02D2F848C0B4FBFCF20CFB1242B8
:1043C000B2B1C3F81462D0F8D42200EB8200D0F866
:1043D000C402D0F810C0BCF1000F05D00A4603F5A6
:1043E0000471D3F80802E047002070BD032070BDBF
:1043F000AE6100231A4600F029FFF5E770B50446C8
:10440000D4F8D40204EB8000D0F8C052002D12D0B2
:10441000204600F0F7FDC5F80C02D4F8D412D5F808
:10442000040204EB8101D1F8C412CA6805F50371D6
:104430009047002070BD032070BD000070B5044699
:10444000224D2046297800F0ECFC2878002600F068
:104450000F0000EB800004EB800086846978204622
:1044600000F0DFFC687800F00F0000EB800004EB48
:104470008000A0F86461A978204600F0D2FCA878FA
:1044800000F00F0000EB800004EB80008684C684FF
:10449000D4F8D40204EB8000D0F8C01299B1D0F85F
:1044A000C40240688047D4F8D40204EB8000D0F8FE
:1044B000C00201F05EF9D4F8D40204EB8000C0F829
:1044C000C062C4F8BC62002070BD00007C00002007
:1044D00010B5D0F8D41200EB8100D0F8C042002C07
:1044E00010D0D0F8C41259B194F80002FF2807D0B8
:1044F0008B6894F8012221469847FF2084F8000237
:10450000002010BD032010BD0A2101800048704723
:104510008000002070B5064682210C4800F0E4FBC4
:1045200005460121094800F0DFFB044681210748C8
:1045300000F0DAFB0DB11021A971402104B1A18076
:1045400000B1818043203080004870BD8C00002085
:1045500070B5064682210D4800F0C6FB05460121D4
:104560000A4800F0C1FB04468121084800F0BCFB6A
:104570000DB11021A9714FF4007104B1A18000B1F7
:10458000818043203080014870BD00008C000020F5
:1045900070B5064682210C4800F0A6FB05460121B5
:1045A000094800F0A1FB04468121074800F09CFB6C
:1045B0000DB11021A971402104B1A18000B1818009
:1045C00043203080004870BD8C0000202DE9F0476A
:1045D00004464FF4077001F0CDF805464FF000088F
:1045E000002D63D04FF407712846FBF774FFD4F811
:1045F000D40204EB8000C0F8C052C4F8BC52207C46
:104600000127494E4FF01009002858D040230222BC
:104610003178204600F065FD307800F00F0000EBA7
:10462000800004EB800087844023022271782046BA
:1046300000F057FD707800F00F0000EB800004EBF5
:104640008000A0F86471B07800F00F0000EB8000EB
:1046500004EB8000A0F8269008230322B1782046BE
:1046600000F03FFDB07800F00F0000EB800004EB9D
:1046700080008784C5F80482D4F8D40204EB80005B
:10468000D0F8C40200688047C5F81482C5F81882C3
:10469000D5F80422002A3CD0207CC8B3402371788E
:1046A000204600F02AFD0020BDE8F087D4F8D402AF
:1046B00004EB8000C0F8C0820220BDE8F0874FF410
:1046C000007302223178204600F00BFD307800F0B4
:1046D0000F0000EB800004EB800087844FF4007330
:1046E00002227178204600F0FCFC707800F00F0088
:1046F00000EB800004EB8000A0F86471B07800F05B
:104700000F0000EB800004EB8000A0F82690A3E7E8
:1047100002E00220BDE8F0874FF400737178204674
:1047200000F0EBFCBFE700007C00002010B5D0F8E3
:10473000D41200EB8101D1F8C01200290CD0027C08
:10474000DFF82CC052B1D1F8042240239CF80110AC
:1047500000F0D3FC002010BD032010BDD1F80422CE
:104760004FF400739CF8011000F0C7FCF2E7000062
:104770007C000020002907D0D0F8D42200EB820072
:10478000C0F8C4120020704703207047D0F8D4222C
:1047900000EB8200D0F8C002002803D0C0F8041259
:1047A0000020704703207047D0F8D43200EB83001C
:1047B000D0F8C002002805D0C0F80812C0F81022B6
:1047C0000020704703207047F0B583B006460C46C2
:1047D000D6F8D40206EB8000D0F8C0720021029116
:1047E00001910025002F0DD0217811F060023BD0FF
:1047F000202A0AD02146304600F0C9F8032503B02C
:104800002846F0BD03B00320F0BDE28812B311F0DA
:10481000800F10D0D0F8C40294F801C039468368E4
:1048200060469847E288072A00D907223946304671
:1048300000F0D3F8E3E7607887F80002E0884028CA
:1048400000D34020C2B287F801223946304600F03A
:10485000AAF8D4E7D0F8C40294F801C00022836813
:10486000214660469847CAE7607858B10128C6D00B
:104870000A2817D00B2825D02146304600F087F8AB
:104880000325BCE796F89C02032805D02146304654
:1048900000F07DF80325B2E7022201A9304600F0BE
:1048A0009CF8ACE796F89C02032805D021463046D8
:1048B00000F06DF80325A2E7012202A9304600F0BE
:1048C0008CF89CE796F89C02032898D02146304645
:1048D00000F05DF8032592E710B5D0F8D41200EB94
:1048E0008101D1F8C0220121002A03D0D2F814326C
:1048F00013B117E0032010BD0121C2F814120A49B8
:10490000D2F810C2097801F00F0303EB830300EB28
:104910008303C3F818C0D2F81032D2F8082200F08E
:1049200095FC0021084610BD7C00002010B5002435
:10493000D0F8B8225268904700B10324204610BD39
:1049400090F89C22012A05D0022A03D0032A01D024
:1049500000F01DB84988012904D10021C0F8A41233
:1049600000F048B87047002070470020704710B52D
:1049700013460A46002100F0C0FB002010BD10B510
:1049800013460A46002100F061FC002010BD10B55E
:1049900004468021204600F03EFC2046BDE8104041
:1049A000002100F038BC10B50323C0F89432C0F8E1
:1049B0005821C0F85C2113460A46002100F09DFBF7
:1049C000002010BD10B50521C0F8941200231A462E
:1049D000194600F092FB002010BD10B50223C0F86C
:1049E00094328261C26113460A46002100F02EFC17
:1049F000002010BD10B50421C0F8941200231A46FF
:104A0000194600F023FC002010BD000010B500285E
:104A100006D00A46054906A000F0B2F9034810BDC9
:104A20000A46024902A000F0ABF9F7E7280400208B
:104A300043444320436F6E6669670000122008807C
:104A4000004870473400002010B5002806D00A4600
:104A5000054906A000F094F9034810BD0A46024932
:104A600002A000F08DF9F7E728040020434443201A
:104A7000496E7465726661636500000004200880F9
:104A8000004870473000002010B50A46024903A0D4
:104A900000F076F9004810BD2804002053544D69F9
:104AA00063726F656C656374726F6E696373000027
:104AB00010B5002806D00A46054906A000F060F9A6
:104AC000034810BD0A46024902A000F059F9F7E771
:104AD0002804002053544D33322056697274756196
:104AE0006C20436F6D506F727400000010B51A2077
:104AF0000880FDF78DF9014810BD00004800002036
:104B0000CA88012A01D0FFF742BF90F89C22012AEF
:104B100005D0022A03D0032A08D0FFF738BF0021AE
:104B20008160012200F10801FFF757BF0122011D3A
:104B3000FFF753BF2DE9F84304460F4600200090CD
:104B4000002600257888010A082970D2DFE801F0E4
:104B5000AB040C22ABAB8B9AD4F8B412207C0A685D
:104B6000694690470646A3E0207C4FF0020840B11A
:104B7000D4F8B802C16A68468847064686F80180BC
:104B800096E0D4F8B802816A68468847064686F8F7
:104B900001808DE0C0B206285FD2DFE800F003128A
:104BA00021303F4FD4F8B402426822B1207C6946DC
:104BB000904706467CE039462046FFF7E8FE01258F
:104BC00076E0D4F8B402826822B1207C694690472E
:104BD00006466DE039462046FFF7D9FE012567E01D
:104BE000D4F8B402C26822B1207C694690470646D8
:104BF0005EE039462046FFF7CAFE012558E0D4F8AA
:104C0000B402026922B1207C6946904706464FE013
:104C100039462046FFF7BBFE012549E0D4F8B4022F
:104C200042692AB1207C69469047064640E03AE056
:104C300039462046FFF7ABFE012539E0D4F8B4022F
:104C4000826922B1207C69469047064630E03946A9
:104C50002046FFF79CFE01252AE039462046FFF753
:104C600096FE012524E0207C28B139462046FFF736
:104C70008EFE01251CE0D4F8B802416B68468847D7
:104C8000064615E0207C28B139462046FFF77FFE16
:104C900001250DE0D4F8B802016B68468847064646
:104CA0000721717004E039462046FFF770FE0125A8
:104CB000002D0CD1FA8892B1BDF8000048B18242B3
:104CC00000D90246009231462046FFF786FEBDE835
:104CD000F88339462046FFF75AFEBDE8F8832046A0
:104CE000FFF788FEBDE8F88378B50E460546002438
:104CF0006A88297828468A4212D900918A420FD9B7
:104D0000694600F01BF84178052904D10446A178D2
:104D1000B14205D000246988BDF800209142EFD847
:104D2000204678BD00210278002A05D0491CC9B26E
:104D3000401C0278002AF9D1084670470A88037897
:104D40001A440A8001780844704790F89C22012A8E
:104D500005D0022A03D0032A01D0FFF718BECA8863
:104D6000022A01D0FFF713BE0121C160D0F8A412BE
:104D700009B10321C160022200F10C01FFF72DBE31
:104D800070B50D46164600281BD004462046FFF796
:104D9000C9FF022101EB40003080307828700320E9
:104DA00068700222207800280BD000212078A854B7
:104DB000641C501CC0B22954401CC2B22078002888
:104DC000F4D170BD01460020002906D0012905D08C
:104DD000022905D0032905D003207047032070471E
:104DE000012070470320704700280FD00023C0F82F
:104DF000B832C0F8C432C0F8D03209B1C0F8B41229
:104E0000012180F89C12027000F000B90320704765
:104E100010B5D0F8C802FDF7DEFBBDE81040FFF783
:104E2000D1BF10B5D0F8C802FDF7AFFBBDE8104008
:104E3000FFF7C8BF70B504460B469446002B09D057
:104E400043F080012046FFF78EFDFF285ED000284A
:104E50004CD05BE004F11400D4F894120025022930
:104E60003BD18268C1688A420CD9521A826061467D
:104E70002046FFF784FD00231A461946204600F01D
:104E80003CF92AE0914214D14068884211D3D4F809
:104E9000981288420DD2002211462046FFF76FFD7E
:104EA000C4F8985200231A461946204600F025F906
:104EB00013E094F89C02032808D1D4F8B802C16822
:104EC00021B1C4F8D452C1682046884780212046C9
:104ED00000F0A1F92046FFF775FD94F8A00220B17B
:104EE000204600F0F2F984F8A0520FE094F89C12EA
:104EF00003290BD1D4F8B8124A693AB1C4F8D402E4
:104F00004A69194620469047002800D1002070BD0C
:104F100010B504460B4694460022002B09D003F03E
:104F20007F012046FFF71FFDFF2857D0002840D003
:104F300054E004F5AA70D4F8941203294ED1C26843
:104F4000816891420AD98A1A8260C068824200D37D
:104F5000024661462046FFF70AFD3FE094F8AA02A8
:104F600010F01F0006D0012806D002280AD0002029
:104F700070B11AE00020FBE794F8AE122046FFF76C
:104F8000F4FCF5E794F8AE122046FFF7ECFCEFE7EF
:104F900094F89C12032908D1D4F8B8120A6922B1F6
:104FA000C4F8D4020969204688472046FFF722FD4D
:104FB00014E094F89C1203290DD1D4F8B812D1F85A
:104FC00018C0BCF1000F06D0C4F8D4028A69194693
:104FD0002046904702460AB1104610BD002010BD81
:104FE0000020704710B50024012180F89C12D0F8F1
:104FF000B822002A04D052680179904700B10324F6
:10500000204610BDD0F8C802FDF713BB10B50178DB
:10501000002927D11449C1F80805C0F8C8124FF07B
:10502000A0400860042048600222CA600020086195
:105030008A61C86108624862C86208630846FDF771
:1050400067FE08B1FCF7E1FE80210748FDF74DFA45
:10505000402200210448FDF74CFA80220121024839
:10506000FDF747FA002010BD1810002011F0800F46
:1050700001F07F01D0F8C80201EBC10100EB810013
:1050800002D090F83E00704790F87E02704710B54D
:10509000D0F8D42200EB8202D2F8B822002A04D041
:1050A00090F89C32032B02D004E0032010BD126A5A
:1050B00002B19047002010BD10B5D0F8D42200EB0B
:1050C0008202D2F8B822002A04D090F89C32032B36
:1050D00002D004E0032010BD526A02B190470020C4
:1050E00010BD10B59C461346D0F8C8026246FDF7C5
:1050F000A9FABDE81040FFF765BE10B5D0F8C802A8
:10510000FDF7D0FABDE81040FFF75CBE2DE9F04195
:1051100004460025012684F89C620020C4F894020D
:105120006060C4F8A40284F8A002D4F8B802002891
:1051300006D0426822B100212046904700B10325E5
:105140000022402311462046FFF7CBFFA4F86461FC
:105150004027C4F860714023002280212046FFF7D9
:10516000C0FFA68427622846BDE8F08190F89C1213
:10517000042903D190F89D1280F89C1200207047FA
:1051800010B590F89C12032905D1D0F8B81211B1CE
:10519000C96901B18847002010BD01740020704723
:1051A00010B5D0F8C802FDF7A6FEBDE81040FFF725
:1051B00009BE10B5044604F2AA2000F050F8012000
:1051C000C4F89402B4F8B002C4F8980294F8AA1291
:1051D00011F01F000AD001280FD0022814D0204659
:1051E000BDE8104001F0800100F015B804F2AA21DA
:1051F0002046BDE8104000F023B904F2AA21204661
:10520000BDE8104000F06EBA04F2AA212046BDE8C5
:10521000104000F050B910B5D0F8C802FDF766FA9A
:10522000BDE81040FFF7CEBD10B5D0F8C802FDF7BD
:105230007DFEBDE81040FFF7C5BD90F89C1280F8D8
:105240009D12042180F89C120020704710B5D0F800
:10525000C802FDF785FABDE81040FFF7B3BD0A7834
:105260000270491C0A784270491C0A784B1C1B7852
:1052700042EA03224280891C0A784B1C1B7842EACE
:10528000032282808A78C97842EA0121C18070476E
:1052900038B5044600200090002914D0C4F8B81294
:1052A000D4F8D40204EB8000D0F8B802C16A19B176
:1052B00068468847C4F8D002D4F8D802401CC4F825
:1052C000D802002038BD032038BD0020704770B5DB
:1052D00004468888002821D1C888F8B948888028E1
:1052E0001CD200F07F0594F89C0203280DD084F8AE
:1052F0009E5229462046FFF753FF2046FFF77AFBD0
:1053000045B1022084F89C0270BD2046BDE8704083
:10531000FFF73DBB012084F89C0270BD2046BDE82C
:105320007040FFF734BB03460020D3F8B822002AB0
:1053300002D0126818461047704700002DE9F0416E
:1053400004460F460025334EB9783170012906D93D
:1053500039462046FFF71BFB0320BDE8F08194F897
:105360009C024FF0020802280DD0032825D03946B0
:105370002046FFF70CFB31782046FFF7D7FA0325CC
:105380002846BDE8F081A1B161602046FFF7CBFF60
:105390000546280006D039462046FFF7F8FA84F87B
:1053A0009C82EDE72046FFF725FB032084F89C0252
:1053B000E6E72046FFF71EFBE2E7C9B160688842D6
:1053C00024D0C1B22046FFF7B1FA3178616020469F
:1053D000FFF7A9FF0546280014D039462046FFF7FD
:1053E000D6FA21792046FFF7A1FA84F89C82C7E714
:1053F00084F89C8261602046FFF798FA2046FFF708
:10540000F9FABDE72046FFF7F5FAB9E72046FFF7BE
:10541000F1FAB5E7780000204A88012A03D0022A71
:1054200006D0FFF7B4BA0121C0F8A412FFF7E2BA20
:105430008988090A80F8A012FFF7DCBAFFF7F4BEEA
:1054400010B500240A7812F0600211D0202A05D08D
:10545000402A03D0FFF79BFA204610BDD0F8D42293
:1054600000EB8202D2F8B822926890470446F3E734
:105470004A780A2A1CD2DFE802F012181B151B0812
:10548000051B0F0BFFF756FBE6E7FFF720FFE3E7EF
:10549000FFF754FF0446DFE7FFF732FBDCE7FFF7D7
:1054A00054FCD9E7FFF7B8FFD6E7FFF749FAD3E78F
:1054B000FFF76DFAD0E72DE9F04105460E460027CB
:1054C0003479307810F060001ED0202808D04028B1
:1054D00006D031462846FFF75AFA3846BDE8F08133
:1054E00021462846FFF73FFAFF28F6D00028F4D1DE
:1054F000C5F8D402D5F8B8028268002AEDD031464A
:10550000284690470746E8E77078002872D00128BF
:1055100031D0032804D031462846FFF738FADCE7BB
:1055200095F89C02022806D0032815D0314628465B
:10553000FFF72DFAD1E754B1802C08D02146284638
:10554000FFF769FE80212846FFF765FEC5E7314673
:105550002846FFF71CFAC0E7708840B93CB1802CA0
:1055600005D0F08818B921462846FFF754FE284692
:10557000FFF740FAB1E795F89C02022806D003280D
:1055800015D031462846FFF702FAA6E754B1802C21
:1055900008D021462846FFF73EFE80212846FFF727
:1055A0003AFE9AE731462846FFF7F1F995E7708809
:1055B000002892D114F07F0F03D021462846FFF730
:1055C00027FC2846FFF716FA21462846FFF7CBF9B5
:1055D000FF2882D0002880D1C5F8D402D5F8B802BF
:1055E0008268002A3FF479AF314628469047074643
:1055F00073E7FFE795F89C024FF00008022806D0F9
:10560000032827D031462846FFF7C1F965E734B1B2
:10561000802C04D031462846FFF7B9F95DE714F035
:10562000800F08D004F07F0000EB800005EB8000C5
:1056300000F1140107E004F07F0000EB800005EBAF
:10564000800000F5AA71C1F8008002222846FFF709
:10565000C4F942E714F0800F0CD004F00F0000EB07
:10566000800005EB8000808C68B931462846FFF742
:105670008EF932E704F00F0000EB800005EB8000AC
:10568000B0F8640158B114F0800F0DD004F07F0021
:1056900000EB800005EB800000F114060CE03146C1
:1056A0002846FFF774F918E704F07F0000EB80004C
:1056B00005EB800000F5AA764CB1802C07D021467E
:1056C0002846FFF7D3FC28B10120306004E0C6F87B
:1056D000008001E0C6F80080022231462846FFF72C
:1056E0007CF9FAE670B505460E460024307810F0D5
:1056F000600009D0202807D0402805D03146284630
:10570000FFF745F9204670BD95F89C02012808D0A6
:10571000022806D0032804D031462846FFF737F97F
:10572000F0E7B088C1B201291ED8C1B22846FFF700
:105730001CF9FF2800D048B10324F0880028E1D1EB
:10574000002CDFD12846FFF755F9DBE7D5F8B81272
:105750008A683AB1C5F8D4028A683146284690472B
:105760000446EAE70324E8E731462846FFF70FF945
:10577000C8E7704700487047F80D002070B50A78F8
:10578000012302F00F054E78AB401B4CD0F81C589B
:10579000012E17D045EA0343C0F81C3800EB421035
:1057A000D0F8002B12040BD4D0F8002B8B89097988
:1057B000C3F30A031A4344EA81410A43C0F8002BA9
:1057C000002070BD9BB21D43C0F81C5800EB421076
:1057D000D0F800391B04F3D4D0F800398D89097949
:1057E000C5F30A0589042B4341EA82510B43234345
:1057F000C0F80039E4E7000000800010D0F800197C
:105800006FF30A01C0F80019D0F8041841F4807150
:10581000C0F804180020704770B5044606990A9E27
:10582000049D0D98012916D0E06840F04000E0602A
:10583000204600F02BF8A16B1EB321F48031A16348
:10584000012D07D1A16841F00601A160A16841F0D6
:105850002001A16070BDA16B21F48031A163E168DA
:10586000094A1140E160E16821F44011E16001283A
:1058700003D1E06840F48010E060204600F006F8B4
:10588000DEE741F48031DAE7BFFFBDFF08B5002253
:105890000D490092009B5B1C00938B420CD803695E
:1058A000002BF7DA0092026942F001020261009ACD
:1058B000521C00928A4201D9032008BD0269D20716
:1058C000F5D1002008BD0000400D030030B54C7834
:1058D0000A78012300EB4212012C2CD0D2F8004BA5
:1058E000002C0BDAD2F8004B44F00064C2F8004BF5
:1058F000D2F8004B44F08044C2F8004BD0F83C583A
:105900000C7804F00F0403FA04F425EA0444C0F808
:105910003C48D0F81C48097801F00F018B4024EA7C
:105920000341C0F81C18D2F8000B19490840C2F80E
:10593000000B002030BDD2F80049002C0BDAD2F861
:10594000004944F00064C2F80049D2F8004944F02C
:105950008044C2F80049D0F83C480D7805F00F05A6
:1059600003FA05F5ADB2AC43C0F83C48D0F81C488A
:10597000097801F00F018B4099B28C43C0F81C48A4
:10598000D2F8000903490840C2F80009D1E7000035
:105990000078F3EF007833ECD0F8001E21F003011B
:1059A000C0F8001ED0F8041821F00201C0F8041855
:1059B00000207047D0F8001E21F00301C0F8001E3F
:1059C000D0F8041841F00201C0F804180020704714
:1059D0002DE9F04F00250E460446DDF82CC0DDF819
:1059E00024B0109F2846294604EB8002C2F8041117
:1059F000401C0F28F8D32046C7B1806B20F400125A
:105A0000A263A06B40F40022A26308468846C4F853
:105A1000000ED4F800182046C4F80018BCF1010F9D
:105A200016D0D0F8001841F0030116E0D0F80408B1
:105A300040F00202C4F80428A06B40F40012A263F4
:105A4000A06B20F40022A263A06B20F48022DBE78D
:105A5000D0F800180BB141F00101C0F80018102176
:105A600000F0EEFA00B10125204600F0CBFA00B1BB
:105A700001254046C4F81088C4F81488C4F81C886E
:105A800000214FF000694FF0904A4FF67F3314E049
:105A900004EB4112D2F800C9BCF1000F06DA11B1D3
:105AA000C2F800A904E0C4F8009901E0C2F80009B6
:105AB000C2F81009C2F80839491C8E42E8D8002102
:105AC00015E000BF04EB4112D2F800CBBCF1000F8F
:105AD00006DA11B1C2F800AB04E0C4F8009B01E0A3
