:020000040800F2
:10000000E80C002045020008F3270008CD23000873
:10001000F1270008410800085D39000800000000D1
:100020000000000000000000000000003135000862
:100030004308000800000000F527000833350008D9
:100040005F0200085F0200085F0200085F0200080C
:100050005F0200085F0200085F0200085F020008FC
:100060005F0200085F0200085F0200085F020008EC
:100070005F0200085F0200085F0200085F020008DC
:100080005F0200085F0200085F0200080000000035
:100090000000000000000000000000005F020008F7
:1000A0005F0200085F0200085F0200085F020008AC
:1000B0005F0200085F0200085F0200085F0200089C
:1000C0005F0200085F0200085F0200085F0200088C
:1000D0005F020008513900085F02000800000000BC
:1000E0005F0200085F0200085F02000800000000D5
:1000F0000000000000000000000000005F02000897
:10010000000000005F0200085F0200085F020008B4
:1001100000000000000000000000000000000000DF
:100120005F0200085F0200085F0200085F0200082B
:100130005F02000800000000000000000000000056
:100140000000000000000000000000005F02000846
:100150005F0200085F0200085F0200085F020008FB
:100160005F0200085F0200080000000000000000BD
:10017000000000000000000000000000000000007F
:10018000000000005F020008000000000000000006
:100190005F02000800F002F800F045F80AA090E8BD
:1001A000000C82448344AAF10107DA4501D100F032
:1001B0003AF8AFF2090EBAE80F0013F0010F18BFBA
:1001C000FB1A43F001031847A8430000C84300008E
:1001D000103A24BF78C878C1FAD8520724BF30C873
:1001E00030C144BF04680C60704700000023002445
:1001F00000250026103A28BF78C1FBD8520728BF37
:1002000030C148BF0B607047782900F05181002051
:1002100070471FB503F054FC9DE8030000F0BAF9E5
:100220001FBD10B510BD00F089FA1146FFF7F1FFB0
:1002300003F010FC00F0A7FA03B4FFF7F2FF03BCD1
:1002400000F0D8FA0948804709480047FEE7FEE772
:10025000FEE7FEE7FEE7FEE7FEE7FEE7FEE7FEE776
:1002600004480549054A064B70470000CD35000893
:1002700095010008E8060020E80C0020E8080020AE
:10028000E808002070B5064600F068F9056806F138
:100290000B0020F00704B4429CBF002070BD2B4629
:1002A0006A68BAB11068A04210D304F1080188420C
:1002B0003CBF5068586007D35168101941601168FD
:1002C000091B016058601460101D70BD1346526810
:1002D000002AE7D12146284600F048F90028DED15F
:1002E00070BD70B50446051F00F038F90068002C99
:1002F00014BF446870BD002C18BFAC423CBF204600
:100300006468F8D301680A18AA4218BF456003D18F
:100310002A6805461144016028684119A1421CBFA2
:100320006C6070BD6168696021680844286070BDB8
:1003300053EA020C00F069802DE9F04B4FF0000603
:10034000002B1FBFB3FA83F503FA05F424FA05F670
:100350005E4012BF1643B2FA82F502FA05F4C5F107
:1003600020051EBF22FA05FC44EA0C04203556EA9B
:10037000044C4FEA144418BF641C4FF000084FF0BF
:100380000009904271EB030C39D3002919BFB1FA6F
:1003900081F701FA07F6B0FA80F700FA07F6C7F11D
:1003A00020071EBF20FA07FC46EA0C062037B6FBE2
:1003B000F4FCA7EB0507103F07F01F0BCBF120065D
:1003C0000CFA0BFB2CFA06F644BFB3460026202F8E
:1003D000A4BF5E464FF0000B5BEA060C08BF4FF06F
:1003E000010B19EB0B09ABFB027C48EB0608C01BA9
:1003F00006FB02CC0BFB03CC71EB0C01C1E70B46F7
:10040000024641464846BDE8F08B13B54FF0000068
:100410004FF00001AFF30080BDE81C4070470000C2
:100420000FB41CB5074B06AA7B446946009005989B
:1004300000F045F90020694600F054F91CBC5DF855
:1004400014FB0000B90200002DE9F0410E460446FD
:10045000002020622046E168884730B3252805D077
:10046000D4E901219047206A401CF2E7E168204668
:1004700000278847050018D0A5F14100192802D8A7
:1004800020354FF400673246294620462760FFF7A3
:10049000BBFE40B1012804D0F61D26F00706083641
:1004A000D8E7361DD6E72846DAE7206ABDE8F081AE
:1004B00070B504460D4621461068AFF300802188D0
:1004C000090502D50F4A7A4402E00E4A7A440E32F8
:1004D000002104F1240305E000F00F060009965DF9
:1004E0005E54491C0028F7D120780023000704D56A
:1004F000702D02D009B1022311322046BDE87040B0
:1005000000F07EB87C4000004FF0000200B51346BA
:1005100094469646203922BFA0E80C50A0E80C5023
:10052000B1F12001BFF4F7AF090728BFA0E80C50D4
:1005300048BF0CC05DF804EB890028BF40F8042BCD
:1005400008BF704748BF20F8022B11F0804F18BF3A
:1005500000F8012B7047704770477047004870479C
:1005600090060020704770477047704738B50446C2
:100570000A4600206946AFF30080002808BF38BD56
:1005800002460099204600F0B7F8012038BD01204E
:1005900000F0CCB8F8B5AFF30080054600200C465B
:1005A000102000BF0646A819A0420DD93246694660
:1005B0000020AFF30080070008BF00F0B7F80098F4
:1005C000A04218BF0546C419FFF7C8FF05600746DB
:1005D000F01D20F007004619284600F00AF8B44242
:1005E00008BFF8BDA21B31463868BDE8F84000F0EE
:1005F00083B800210160C0E90110704710207047E6
:100600002DE9F0470D4699469246044600F124082C
:100610000168880604D5E06921F01001216000E03E
:100620000120A84201DD471B00E00027A1697A19DB
:1006300002EB0900081AA0612078C00602D4204607
:10064000AFF30080002608E0D4E901211AF8060083
:100650009047206A401C761C20624E45F4DB2078CF
:10066000C0060AD52046AFF3008006E0D4E9012198
:1006700030209047206A401C2062381EA7F10107F5
:10068000F4DC07E0D4E9012118F805009047206A5E
:10069000401C2062281EA5F10105F3DC2046AFF3C3
:1006A00000802078000602D50220BDE8F0870120F6
:1006B000FBE7000001694A1C02610878704700B539
:1006C0008FB0CDE901310021059105497944CDE98B
:1006D000031011466846FFF7B7FE0FB000BD0000DB
:1006E000E5FFFFFF0A6802F8010B0A60704700008F
:1006F0000048704788060020034640688C46002862
:1007000018BF88423CBF03464068F8D318681844B5
:10071000884207D00CF1030020F00700001D411AA9
:10072000521A0146081D0A60FFF7DBBD10B500F044
:1007300039F8BDE8104000F02FB870477546FFF754
:10074000D7FFAE4605006946534620F007008546B0
:1007500018B020B5FFF784FDBDE820404FF000063B
:100760004FF000074FF000084FF0000B21F0070199
:10077000AC46ACE8C009ACE8C009ACE8C009ACE8DC
:10078000C0098D46704710B50446AFF3008020467F
:10079000BDE81040FFF750BD002801D000F02AB896
:1007A0007047000010B5012805D0002103A000F01B
:1007B00027F8012010BD09A1F8E70000534947526E
:1007C000544D454D3A204F7574206F662068656121
:1007D00070206D656D6F7279000000003A204865E9
:1007E0006170206D656D6F727920636F72727570C4
:1007F0007465640001491820ABBEFEE726000200C4
:1008000070B505460C460A2000E06D1C00F011F89A
:1008100035B128780028F8D102E0641C00F009F80E
:1008200014B120780028F8D1BDE870400A20AFF359
:10083000008008B569468DF800000320ABBE08BDF6
:10084000FEE7704772B6FEE72DE9F0410446876D7A
:1008500000F030FA064694F835000025022806D04C
:100860008020606584F834500120BDE8F081206864
:10087000016821F0160101602068416921F08001C2
:100880004161206C08B9A06C20B12068016821F09A
:10089000080101602068016821F0010101600CE09D
:1008A00000F008FA801B052807D920206065032086
:1008B00084F8350084F83450D7E720680068C00712
:1008C000EED194F85C103F208840B860012084F895
:1008D000350084F834500020C7E790F8351002291D
:1008E00003D08021416501207047052180F8351033
:1008F0000068016821F001010160002070470000DC
:1009000070B5044600F0D6F90546601C02D00448D4
:100910000078044400F0CEF9401BA042FAD370BD29
:10092000000000202DE9F84FDFF84CB20D460446D8
:10093000584512D0914884420FD0914884420CD03F
:100940009048844209D09048844206D08F4884421F
:1009500003D0AC218EA003F012F828680104090C22
:1009600001D0000C03D0AD2189A003F008F868681D
:10097000F8B101281DD011281BD0022819D0122847
:1009800017D0B0F5881F14D0B0F5041F11D0B0F502
:10099000441F0ED0B0F5901F0BD0B0F5081F08D043
:1009A000B0F5481F05D0032803D0AE2178A002F08F
:1009B000E6FF00264FF0010A4FF003090AFA06F09D
:1009C0002F688046074047457DD1287900F0030015
:1009D000012801D002281DD1E86848B1012807D0BC
:1009E000022805D0032803D0C02169A002F0C7FF68
:1009F000A068720009FA02F18843E9689140014356
:100A0000A1606068297920EA0800C1F30011B140B3
:100A1000014361602879C043800712D0A86838B1CB
:100A2000012805D0022803D0D12159A002F0A7FF48
:100A3000E068720009FA02F18843A9689140014315
:100A4000E160287900F0030002282AD12869D8B192
:100A50000C2819D0012817D0022815D0032813D04C
:100A6000042811D005280FD006280DD007280BD058
:100A7000082809D0092807D00A2805D00F2803D054
:100A8000DE2143A002F07BFFF00804EB8003186A2C
:100A90007107CA0E0F219140884329699140014393
:100AA00019622068720009FA02F18843297901F07D
:100AB0000301914001432160686810F4403F55D024
:100AC0004248016800E051E041F480410160006863
:100AD00026F0030100F4804000903D480A18D2F847
:100AE0000808B1070B0F0F21994088435C4501D1DD
:100AF000002114E021498C4201D101210FE020495D
:100B00008C4201D102210AE01E498C4201D103210D
:100B100005E01D498C4201D1042100E007219940E4
:100B20000143C2F808182B4908686A68B843D20222
:100B300000D5384308602749091D08686A68B8432A
:100B4000920200D5384308602249091F08686A6884
:100B5000B843920300D5384308601E490839086835
:100B60006A68B843D20300D538430860761C102E5B
:100B7000FFF424AFBDE8F88F0000024000040240FB
:100B800000080240000C024000100240001C02401D
:100B90002E2E2F447269766572732F53544D333263
:100BA000463478785F48414C5F4472697665722FAD
:100BB0005372632F73746D3332663478785F686173
:100BC0006C5F6770696F2E6300000000443802405C
:100BD00000300140083C014070B50C00054604D1CE
:100BE0004FF4DB7105A002F0CAFE696924EA010036
:100BF000214040EA0140A86170BD00002E2E2F4424
:100C00007269766572732F53544D33324634787857
:100C10005F48414C5F4472697665722F5372632F4F
:100C200073746D3332663478785F68616C5F6770B7
:100C3000696F2E630000000070B515460C00064673
:100C400004D140F29D1108A002F099FE45B1012D9A
:100C500004D04FF4CF7104A002F091FEB46170BDD6
:100C60002004B06170BD00002E2E2F44726976659D
:100C700072732F53544D3332463478785F48414C69
:100C80005F4472697665722F5372632F73746D338C
:100C900032663478785F68616C5F6770696F2E6365
:100CA0000000000002480068C0F30B00704700001D
:100CB000002004E001488068704700000000002028
:100CC000024881680278114481607047000000206A
:100CD0000B4810B5016841F400710160016841F4EE
:100CE00080610160016841F480710160032000F0BF
:100CF000C3F80F2000F006F800F024F8002010BD23
:100D0000003C024070B50D4D04464FF47A712878CE
:100D1000B1FBF0F00A490968B1FBF0F001F0B0F85E
:100D200048B9102C07D200222146501E00F054F87A
:100D300000206C6070BD012070BD0000000000202C
:100D40000C0000200A4808B5016841F480410160A8
:100D5000006800F4804000900548001F016841F0E1
:100D600080510160006800F08050009008BD0000D4
:100D70004438024010B5040003D5BC2107A002F09E
:100D8000FEFD002C09DB04F01F01012088406109F1
:100D9000890001F1E021C1F8000110BD2E2E2F4481
:100DA0007269766572732F53544D333246347878B6
:100DB0005F48414C5F4472697665722F5372632FAE
:100DC00073746D3332663478785F68616C5F636F1B
:100DD000727465782E63000070B515460C460646A1
:100DE000102A03D3A82114A002F0C9FD102C03D3AC
:100DF000A92111A002F0C3FD1E480068C0F3022320
:100E0000C3F107022046042A00D90422191D07292C
:100E100001D2002300E0DB1E012404FA02F1491E86
:100E2000014099409C40641E2C4021433046BDE85F
:100E3000704002F094BD00002E2E2F44726976653A
:100E400072732F53544D3332463478785F48414C97
:100E50005F4472697665722F5372632F73746D33BA
:100E600032663478785F68616C5F636F727465783E
:100E70002E6300000CED00E010B5044607280BD0EF
:100E8000062C09D0052C07D0042C05D0032C03D048
:100E9000902108A002F073FD154904F007020868CC
:100EA0004FF6FF03184040EA0220124A1043086040
:100EB00010BD00002E2E2F447269766572732F5379
:100EC000544D3332463478785F48414C5F44726900
:100ED0007665722F5372632F73746D333266347874
:100EE000785F68616C5F636F727465782E63000071
:100EF0000CED00E00000FA052DE9F0470E46040075
:100F00007DD02068401E0E2804D940F25A217AA0D4
:100F100002F035FD96B1012E10D0022E0ED0032E18
:100F20000CD0042E0AD0052E08D0062E06D0072E8F
:100F300004D040F25B2170A002F021FDDFF8F081C7
:100F4000D8F80000F7B200F00700B04207D288F8E6
:100F50000070D8F8000000F00700B0424FD12068C0
:100F6000744D810729D5400703D5286840F4E05027
:100F700028602078000703D5286840F46040286086
:100F8000A068A0B1802812D0902810D0A0280ED040
:100F9000B0280CD0C0280AD0D02808D0E02806D02D
:100FA000F02804D040F27E2153A002F0E8FC28682B
:100FB000A16820F0F000084328602078C00743D0E3
:100FC000DFF870916068A9F1080988B1012822D082
:100FD000022824D0032822D040F2852146A002F026
:100FE000CEFC6068012816D0022818D0032816D03D
:100FF000D9F800008007002833DA286800E030E0E4
:10100000616820F0030008432860FFF753FE814623
:1010100041F2883A11E0D9F800008003EBE7D9F8F3
:1010200000008001E7E700BFFFF744FEA0EB0901E5
:10103000514502D90320BDE8F0872868616800F0B7
:101040000C00B0EB810FEFD1D8F80010404601F052
:101050000701B14207D90770006800F00700B042ED
:1010600001D00120E7E720784FF4805640074FF485
:10107000A0574FF4C0584FF4E05914D5E06860B160
:10108000B0420AD0B84208D0404506D0484504D006
:1010900040F2C32118A002F072FC2868E16820F435
:1010A000E050084328602078000715D5206960B11A
:1010B000B0420AD0B84208D0404506D0484504D0D6
:1010C00040F2CA210CA002F05AFC2868216920F4E1
:1010D000604040EAC100286000F054F82968164AD0
:1010E000C1F30311515CC8401449086014480068FA
:1010F000FFF708FE00209EE72E2E2F4472697665CA
:1011000072732F53544D3332463478785F48414CD4
:101110005F4472697665722F5372632F73746D33F7
:1011200032663478785F68616C5F7263632E630047
:10113000003C024008380240CA3A00080C00002077
:10114000040000200448054900680968044AC1F306
:101150008221515CC84070470C00002008380240D2
:10116000DA3A00080448054900680968044AC1F3EE
:101170004231515CC84070470C00002008380240E2
:10118000DA3A0008154810B5006810F00C0214484F
:1011900013D04110042A0FD0082A0ED10F4C241F5F
:1011A0002268236802F03F025B0207D52068C0F383
:1011B0008810A0FB010106E0084610BD2168C1F3BC
:1011C0008811A1FB00010023FFF7B2F82168C1F3E9
:1011D0000141491C4900B0FBF1F010BD0838024044
:1011E0000024F4002DE9F84F04007DD020680F287A
:1011F00003D9E621F7A002F0C2FB2078DFF80C94B7
:10120000C007A9F1040555D060684FF480364FF44B
:10121000A02738B1B04205D0B84203D0EB21EDA0F1
:1012200002F0ADFBF948001D0168C1F381010129FD
:1012300008D00068C0F3810002280AD1D9F8000064
:10124000400206D52868800334D560680028CCD0D9
:1012500030E06068B04203D1286840F480300CE090
:10126000B842286803D140F480202860F4E720F4D5
:1012700080302860286820F480202860606860B191
:10128000FFF718FD064604E0FFF714FD801B6428F5
:101290007ED828688003F7D50CE0FFF70BFD0646E3
:1012A00005E000BFFFF706FD801B6428F0D8286822
:1012B0008003F7D42078DFF8588380074FF0000AC6
:1012C00056D5E06830B1012804D040F21D11C1A00C
:1012D00002F055FB20691F2804D94FF48F71BDA07F
:1012E00002F04DFBC94800E092E0001D016811F0DA
:1012F0000C0F08D00068C0F38100022810D1D9F883
:10130000000040020CD42868800702D5E06801285C
:101310007ED12868216920F0F80040EAC10017E07A
:10132000E068B8B10120C8F80000FFF7C3FC06462A
:1013300005E000BFFFF7BEFC801B0228A8D8286884
:101340008007F7D5286820F0F801206941EAC0003D
:1013500028600DE0C8F800A0FFF7ACFC064604E0EA
:10136000FFF7A8FC801B022892D828688007F7D4D2
:10137000207800072ED5A54EA64F60697036D0B1F3
:10138000012808D04FF4AF7192A002F0F8FA00E003
:101390004BE1606978B101203860FFF78BFC0746AC
:1013A00005E000BFFFF786FCC01B0228C6D83068E6
:1013B0008007F7D50EE0C7F800A0FFF77BFC0746D3
:1013C00005E000BFFFF776FCC01B0228B6D83068E6
:1013D0008007F7D42078400776D5A068002740B171
:1013E000012806D0052804D04FF4C57179A002F079
:1013F000C6FADFF818B20BF13C0BDBF80000C000B6
:101400000DD4DBF8001041F08051CBF8001000E063
:1014100038E1DBF80000012700F0805000907E4E9C
:101420003068C00511D4306840F480703060FFF738
:1014300041FC009006E000BFFFF73CFC0099401A19
:10144000022891D83068C005F6D5704EA0686C3679
:1014500001280FD00528306810D020F0010030603E
:10146000306820F004003060A068B8B1FFF722FCBB
:1014700000900FE0306840F00100F4E740F0040015
:101480003060F7E7FFF716FC0099411A41F2883007
:1014900081428BD830688007F4D50EE0FFF70AFC54
:1014A000009007E0FFF706FC0099411A41F28830EE
:1014B00081428BD830688007F4D42FB1DBF800105C
:1014C00021F08051CBF80010A069002876D00128C7
:1014D00009D0022807D040F2CD113EA002F04FFA09
:1014E000A0690028F2D04948001D0068C0F38100BF
:1014F0000228A0696DD0022805D0C8F860A0FFF7C7
:10150000D9FB044694E0E06938B1B0F5800F04D00F
:101510004FF4EB712FA002F032FA206A3F2804D971
:1015200040F2D7112BA002F02AFA606A3238B0F5E7
:10153000BF7F04D94FF4EC7126A002F020FAA06A14
:1015400002280AD0042808D0062806D0082804D08B
:1015500040F2D9111FA002F012FAE06A801E0D2895
:1015600004D94FF4ED711BA002F009FA4746C8F800
:1015700060A0FFF79FFB064605E000BFFFF79AFB60
:10158000801B022851D828688001F7D4D4E90701CC
:101590000843A16A214A490802EB0141626A41EA13
:1015A0008211084394F82C1040EA0161C9F8001038
:1015B00001203866FFF77EFB044606E064E000BFCA
:1015C000FFF778FB001B02282FD828688001F7D589
:1015D0005AE031E02E2E2F447269766572732F53D4
:1015E000544D3332463478785F48414C5F447269D9
:1015F0007665722F5372632F73746D33326634784D
:10160000785F68616C5F7263632E63000438024028
:1016100000004742800E4742007000400000FFFF7C
:10162000FFF748FB001B022802D90320BDE8F88F12
:1016300028688001F4D427E00128F7D0D9F8000009
:10164000E26900F4800191421CD1226A00F03F015E
:10165000914217D147F6C071626A0140B1EB821F17
:1016600010D1A26A4FF0FF3300F4403103EB520275
:10167000B1EB024F06D194F82C1000F07060B0EB83
:10168000016F01D00120D1E70020CFE770B5040041
:101690007ED08149206888420DD0804988420AD096
:1016A0007F49884207D07F49884204D04FF4A07117
:1016B0007DA002F064F960684FF4827630B1B042E8
:1016C00004D040F2411178A002F059F9A06850B15D
:1016D000B0F5806F07D0B0F5004F04D04FF4A17182
:1016E00071A002F04CF9E068B0F5006F05D020B1B0
:1016F00040F243116CA002F042F9A069B0F5007FFE
:1017000008D038B1B0F5802F04D04FF4A27166A094
:1017100002F035F9E06990B1082810D010280ED0F9
:1017200018280CD020280AD0282808D0302806D025
:10173000382804D040F245115BA002F020F9206A5D
:1017400030B1802804D04FF4A37157A002F017F9EC
:10175000606A002548B3102806D040F2471152A015
:1017600002F00DF9606A00B3E069A0B1082812D058
:10177000102810D018280ED020280CD028280AD0E5
:10178000302808D0382806D040F2591146A000E091
:1017900009E002F0F4F825616561A56294F8510052
:1017A000002830D034E0012070BD206930B102281B
:1017B00004D04FF4A5713CA002F0E1F8606930B1AB
:1017C000012804D040F24B1137A002F0D8F860682D
:1017D000B04216D1E0690028DFD00828DDD01028FB
:1017E000DBD01828D9D02028D7D02828D5D0302829
:1017F000D3D03828D1D040F24F112BA002F0BFF83F
:10180000CBE7E561C9E784F85050204600F068F85E
:10181000022084F851002068016821F04001016035
:10182000A088218900F4827001F404410843A18951
:1018300001F400610843217C01F002010843217D8D
:1018400001F001010843218B01F400710843217F5D
:1018500001F03801084394F8201001F0800108439A
:10186000218D01F40051084321680860A06904211A
:1018700001EA104094F8241001F010010843216897
:1018800048602068C16921F40061C161656501207B
:1018900084F85100002070BD003001400038004045
:1018A000003C0040003401402E2E2F4472697665C2
:1018B00072732F53544D3332463478785F48414C1D
:1018C0005F4472697665722F5372632F73746D3340
:1018D00032663478785F68616C5F7370692E63007C
:1018E00010B586B0044614216846FEF70DFE134974
:1018F0002068884220D112480021026842F48052B8
:101900000260006800F4805005900D4814380268A9
:1019100042F002020260006800F0020005902820F8
:1019200000900220CDE901010320039005200490DE
:1019300069460448FEF7F6FF06B010BD00300140CE
:1019400044380240000402402DE9F84F0446406844
:101950000025984616460F464FF0040BB0F5827FDF
:1019600001D1A06888B194F85000012818D0012056
:1019700084F85000FFF79EF9814694F851004FF02B
:10198000000A01280ED0022582E084F851B01346E7
:101990000A462046CDF8008000F05EF9BDE8F88FD9
:1019A0000220FBE7002F72D0002E70D084F851B0D7
:1019B000C4F854A0A763A687E687C4F830A0A4F8AB
:1019C00034A0A4F836A0C4F840A0C4F844A0A0688D
:1019D000B0F5004F09D12068016821F04001016095
:1019E0002068016821F4804101602068016849068F
:1019F00003D4016841F040010160E068D8B139E0EA
:101A000020688168C90709D0007BA16B0870A06BB2
:101A1000401CA063E08F401EE0870CE0FFF74AF90E
:101A2000A0EB0901414503D3B8F1FF3F03D036E0F5
:101A3000B8F1000F33D0E08F0028E1D11DE020681D
:101A40008168C90709D0C068A16B0880A06B801CA1
:101A5000A063E08F401EE0870CE0FFF72BF9A0EBBE
:101A60000901414503D3B8F1FF3F03D017E0B8F1B6
:101A7000000F14D0E08F0028E1D14A4641462046AD
:101A800000F0B9FE08B120206065606D00B101254D
:101A9000012084F8510084F850A028467EE70325F1
:101AA000F6E700002DE9F84F044680681D4616460B
:101AB0008946002738B1B0F5004F04D04FF4427189
:101AC00057A001F05CFF94F8500001280ED04FF0B1
:101AD000010B84F850B0FFF7EDF8804694F8510000
:101AE0004FF0000A012804D0022793E00220BDE84D
:101AF000F88FB9F1000F73D0002E71D0032084F855
:101B00005100C4F854A0C4F83090A686E686C4F804
:101B100038A0A4F83CA0A4F83EA0C4F844A0C4F89F
:101B200040A0A068B0F5004F09D12068016821F0FD
:101B3000400101602068016841F480410160206833
:101B40000168490603D4016841F040010160E06882
:101B5000B0F5006F606803D030B3012E24D041E0AF
:101B600008B1012E1CD1206B21680088C86006E0F6
:101B700020688168890709D5216B0988C160206BBD
:101B8000801C2063E08E401EE08609E0FFF792F89B
:101B9000A0EB0800A84202D3681C01D031E07DB35D
:101BA000E08E0028E4D120E0206B216800780873E3
:101BB00006E020688168890709D5216B09780173DF
:101BC000206B401C2063E08E401EE0860AE0FFF799
:101BD00071F8A0EB0800A84203D3681C02D010E003
:101BE00017E06DB1E08E0028E3D142462946204639
:101BF00000F030FE08B120206065A06818B106E052
:101C0000FFE7032706E02068C16880680090606DE8
:101C100000B1012784F851B084F850A0384666E737
:101C20002E2E2F447269766572732F53544D3332C2
:101C3000463478785F48414C5F4472697665722F0C
:101C40005372632F73746D3332663478785F6861D2
:101C50006C5F7370692E63002DE9F84F04460A9E8D
:101C600080681D4692468B464FF00109002720B13F
:101C700040F27C4174A001F082FE94F850000128EB
:101C80000ED0012084F85000FFF714F8804694F835
:101C90005100616801280CD0B1F5827F07D102E0C4
:101CA0000220BDE8F88FA16809B9042801D00227F5
:101CB000C2E0BBF1000F27D0BAF1000F24D01DB352
:101CC00094F85100042802D0052084F85100002027
:101CD0006065C4F838A0E587A587C4F830B0E5860C
:101CE000A5862064606420680168490603D4016801
:101CF00041F040010160E068B0F5006F606805D018
:101D0000F0B3012D46D07FE0012795E008B1012D09
:101D100039D1206B21680088C860206B801C20634B
:101D2000E08E401EE0862EE02068816889070FD58E
:101D3000E18E69B1B9F1010F0AD1216B0988C16047
:101D4000206B801C2063E08E401EE0864FF000096F
:101D500020688168C9070CD0E18F51B1C068A16BC0
:101D60000880A06B801CA063E08F401EE0874FF0CE
:101D70000109FEF79FFFA0EB0800B04203D300E08B
:101D800008E0701C50D1E08E0028CDD1E08F0028F3
:101D9000CAD13FE0206B216800780873206B401C9B
:101DA0002063E08E401EE0862EE02068816889076F
:101DB0000FD5E18E69B1B9F1010F0AD1216B097814
:101DC0000173206B401C2063E08E401EE0864FF0C4
:101DD000000920688168C9070CD0E18F51B1C06843
:101DE000A16B0870A06B401CA063E08F401EE087D1
:101DF0004FF00109FEF75EFFA0EB0800B04202D3EE
:101E0000701C01D010E07EB1E08E0028CDD1E08FB3
:101E10000028CAD142463146204600F01BFD28B1B9
:101E200001272020606507E0032705E0A06818B9B6
:101E30002068C16880680090012084F8510000206B
:101E400084F8500038462CE72E2E2F4472697665B0
:101E500072732F53544D3332463478785F48414C77
:101E60005F4472697665722F5372632F73746D339A
:101E700032663478785F68616C5F7370692E6300D6
:101E800010B5401EB0F1807F01D3012010BD4FF08E
:101E9000E02460610F21601701F061FD0020A06166
:101EA00007202061002010BD70477047F8B5016819
:101EB00004460868CA684B6910F00F0F4FF0000520
:101EC00059D003F0010602F49077374365D0C1077B
:101ED00005D0D10503D5216C41F0010121644107F2
:101EE00005D5D90703D0216C41F002012164810797
:101EF00005D5D90703D0216C41F004012164010705
:101F000007D502F02001314303D0216C41F00801D4
:101F10002164216C00293AD0800604D5900602D5B0
:101F2000204601F08AFB20684069216CC0F38010D4
:101F3000090700D460B3204601F058FB20684069CF
:101F4000400621D52068143050E8001F21F04001E0
:101F500040E80012002AF5D1A06BA8B16C490165D8
:101F6000A06BFEF7BAFC002811D0A06B016D01B088
:101F7000BDE8F040084783060FD593060DD52046EF
:101F8000BDE8F84001F059BB2046FFF78EFFF8BDD1
:101F90002046FFF78AFF2564F8BD266B2023012E1B
:101FA00079D1C60677D5D60675D5086848680090F9
:101FB0004869400640D5A16B086840680004000CE1
:101FC000EAD0A28D8242E7D9E085C869B0F5807F6A
:101FD0002DD020680C3050E8001F21F4807140E8BB
:101FE0000012002AF5D12068143050E8001F21F0BB
:101FF000010140E80012002AF5D12068143050E8B1
:10200000001F21F0400140E80012002AF5D184F8B9
:102010003E30256320680C3050E8001F21F010018D
:1020200040E80012002AF5D1A06BFEF70DFCA08D50
:10203000E18D401A81B229E0A08DE18D401A81B274
:10204000E08D0028A8D00029A6D020680C3050E8E8
:10205000002F22F4907240E80026002EF5D120686F
:10206000143050E8002F22F0010240E80026002E34
:10207000F5D184F83E30256320680C3050E8002FFD
:1020800022F0100240E80023002BF5D12046FFF794
:102090000BFFF8BDFFE705062BD5150629D594F8EB
:1020A0003D002128F5D1A068B0F5805F01D12069FD
:1020B000B0B1206A411C2162216800784860E08C40
:1020C000401E0004000CE084E3D12068C16821F0C8
:1020D0008001C1602068C16841F04001C160D8E75B
:1020E000206A0088C0F308004860206A801C2062D3
:1020F000E5E74006CDD55006CBD5CA68204622F08C
:102100004002CA6084F83D3000F05FF9C1E700008A
:10211000DD35000870B5040020D0A06935490028DD
:10212000354A364B20681BD088420AD0904208D0EE
:10213000984206D040F2731131A001F020FCA06952
:10214000C8B1A069B0F5807F15D0B0F5007F12D07E
:10215000B0F5407F0FD04FF4BA7109E0012070BD97
:10216000884208D0904206D0984204D04FF4BC7107
:1021700023A001F004FCA06838B1B0F5805F04D062
:102180004FF4BD711EA001F0FAFBE06938B1B0F563
:10219000004F04D040F27B1119A001F0F0FB94F83D
:1021A0003D00002520B984F83C50204600F046F858
:1021B000242084F83D002068C16821F40051C160EA
:1021C000204601F09BFA2068016921F490410161E9
:1021D0002068416921F02A0141612068C16841F409
:1021E0000051C1602564202084F83D0084F83E0041
:1021F000002070BD00100140004400400014014068
:102200002E2E2F447269766572732F53544D3332DC
:10221000463478785F48414C5F4472697665722F26
:102220005372632F73746D3332663478785F6861EC
:102230006C5F756172742E630000000010B586B08B
:10224000044614216846FEF75FF918492068884261
:1022500029D117480021026842F01002026000688C
:1022600000F01000059012481438026842F0010294
:102270000260006800F0010005904FF4C06000901B
:102280000220CDE901010320039007200490694654
:102290000848FEF747FB002211462520FEF79CFD6B
:1022A0002520FEF767FD06B010BD000000100140BC
:1022B000443802400000024090F83E30202B0ED1FE
:1022C00059B152B190F83C30012B08D0012380F86D
:1022D0003C300023036301F0E1BA01207047022083
:1022E0007047000010B50068084988420DD10122EE
:1022F00007490848FFF7E0FFBDE810404FF47A7344
:1023000001220349034800F007B810BD0010014046
:1023100010000020000100202DE9F843044690F849
:102320003D001F4616460D4620284CD1C5B1BEB112
:1023300094F83C00012846D0012084F83C004FF07E
:102340000008C4F84080212084F83D00FEF7B2FC6C
:10235000A6848146E684A068B0F5805F03D004E0DF
:102360000120BDE8F883206928B12E465FF0000502
:1023700084F83C800EE00026FAE78021204601F038
:10238000AAFAA0B9AEB116F8010B21684860E08C3A
:10239000401EE084E08C4B464FF00002009700287E
:1023A000EBD14FF04001204601F095FA30B1032007
:1023B000D7E735F8020BC0F30800E6E7202084F8E1
:1023C0003D000020CDE70220CBE77047FEE700008C
:1023D0002DE9FF4F85B01D46059804906548DDF84E
:1023E00048B0904606880C4689460C2B18D0082722
:1023F00015FB07F04000FDF745FF824603A95E4844
:1024000000F0A4FC02A95C4800F0A8FCA8F12000A0
:10241000C0B207900020BBF1000F014602D098E047
:102420000627E5E7DFF84CE14AE00C2D0ED0534AD1
:10243000079B02EB03120023525C21F0010B009377
:1024400013060AD573BAAEF800300CE0079A02EB17
:1024500042034B4A02EB8302EDE7BEF802C09CFA4E
:102460009CFCAEF800C007FB00FC0AEB4C08401CCB
:10247000BEF8003080B228F80B30A84200D300200C
:102480005206641C029B120EA4B29C4203D300BFEE
:10249000AEF8006047E0A4EB0903AB4208D1059A0F
:1024A000039B521C92B24C4605929A42F0D205E030
:1024B000009B5B1CDBB20093082BC1D3491CC9B243
:1024C000A942B2D347E00C2D33D02C4A079B02EB34
:1024D00003124FF0000B525C21F0010E130608D5D9
:1024E000244B07FB00FC0AEB4C081B885BBA28F85E
:1024F0000E30401C80B2A84200D300205206641C5B
:10250000029B120EA4B29C420BD2A4EB0903AB4275
:1025100016D1059A039B521C92B24C4605929A42E0
:1025200015D3144806805046FDF7DBFE09B0BDE820
:10253000F08F079A02EB4203114A02EB8302C8E7CD
:102540000BF1010303F0FF0BBBF1080FC6D3491CCD
:10255000C9B2A942B7D30C2D09D00820CDE9000596
:1025600053464A460448049900F056FBD9E7062032
:10257000F4E700001400002044010020563F00084A
:10258000E23A00082DE9F84F044600F0FF0910195F
:102590000D46DDE90AB61FFA80F8581987B24FF0E8
:1025A000000A12E0444503D305EB0B004C4685B20C
:1025B000BD420FD25B4629462046CDF800A0FFF76A
:1025C00007FF04EB5B0084B2761C3278A2F1200096
:1025D0005E28E7D9BDE8F88F30B587B02249234897
:1025E00000F05AFE224C0322052123681F48984719
:1025F0001D49A268091F1D48904700215020CDE9C0
:102600000001A46BA0230A461848A04719A102A8FC
:10261000FDF706FF102502ACCDE9005404212B463E
:10262000A0220846FFF7AEFFFEF73CFB024614A1CE
:1026300002A8FDF7F5FECDE900541023A0221621D3
:102640000420FFF79FFF084811A10838426802A83C
:10265000FDF7E6FECDE900541023A0222821042036
:10266000FFF790FF07B030BD1C00002044010020A0
:102670003C0000204C4344205445535400000000CB
:1026800053544D333248377878203078255800003D
:102690004C43442049443A2030782558000000003B
:1026A000F0B587B014216846FDF72EFF2C480025B1
:1026B000016841F004010160016801F00401059125
:1026C000016841F080010160016801F0800105911D
:1026D000016841F001010160016801F0010105910B
:1026E000016841F00201016000681E4F00F0020025
:1026F0000590012207213846FEF79EFA1A4E012264
:1027000050213046FEF798FA002280213046FEF72D
:1027100093FA4FF40050CDE9000501246946029474
:102720003846FEF7FFF80720CDE900046946384631
:10273000CDE90245FEF7F6F810208DE831000325BB
:10274000694630460395FEF7EDF8C020CDE9000458
:1027500069463046CDE90245FEF7E4F807B0F0BD22
:10276000303802400008024000040240114810B511
:102770000F4901604FF4827141604FF40041816064
:102780000021C1604FF400720161C0E905121022FE
:10279000C0E90721416281620A21C162FEF776FF2A
:1027A000002803D0BDE81040FEF74CB810BD000073
:1027B00000300140A80000200C4810B50A49016013
:1027C0004FF4E1314160002181600C22C160C0E919
:1027D00004128161C161FFF79DFC002803D0BDE8B0
:1027E0001040FEF72FB810BD00100140000100207E
:1027F000FEE7FEE77047F8B5044640684FF4827381
:10280000984221D1A0684FF48065B0F5004F01D007
:10281000A8420AD12068066826F040060660606873
:10282000984211D1A068A8420ED000920B46002217
:102830008021204600F03AF8002804D0606D40F076
:10284000200060650320F8BD00920B4600220121A4
:10285000EFE7000038B504461248134B0068B0FBA0
:10286000F3F04FF47A73584300906068B0F5827FBC
:102870000DD10B46009200228021204600F016F870
:1028800070B1606D40F020006065032038BD009895
:1028900030B1401E009020688068C0430006F6D525
:1028A000002038BD0C00002000366E012DE9F843F1
:1028B0001E46914688460446089DFEF7FBF9401BDC
:1028C000351AFEF7F7F9074625480068C0F3CB3004
:1028D000684338E0701C37D0FEF7ECF9C01BA84203
:1028E00003D215B1009860B32CE02068416821F054
:1028F000E00141606068B0F5827F0BD1A068B0F55F
:10290000004F02D0B0F5806F04D12068016821F03B
:1029100040010160A06AB0F5005F09D1206801683C
:1029200021F4005101602068016841F40051016008
:10293000012084F85100002084F850000320BDE8F5
:10294000F8830025401E00902068816838EA010065
:1029500004D000214945BDD10020F0E70121F9E76D
:102960000C00002000207047F8B5044600208DF8C8
:102970000000034604F120006A461321064601F0D8
:1029800098F805460A21204600F0F0F900236A462F
:102990002821304601F08DF805440A21204600F038
:1029A000E5F900236A463621304601F082F84419E1
:1029B000084809490122806801EBC0006946007996
:1029C0008DF80000304601F06DF8001901D04FF08D
:1029D000FF30F8BD7C06002088000020F8B50446D2
:1029E00000208DF80000034604F120006A46132100
:1029F000064601F05EF805460A21204600F0B6F9C9
:102A000000236A462921304601F053F805440A2183
:102A1000204600F0ABF900236A463621304601F02B
:102A200048F84419084809490122806801EBC000B0
:102A3000694600798DF80000304601F033F800193E
:102A400001D04FF0FF30F8BD7C0600208800002048
:102A50002DE9FF4F987AD97A5D7B00EB0120197B35
:102A60005F7D090401EB05610144987CDD7C93F8EE
:102A700019C000EB05201D7D93F805802D0405EBA2
:102A800007650544987DDF7DDFF8E09000EB0720C7
:102A90001F7E83B03F0407EB0C6738449F7893F8A0
:102AA00003C0002407EB0C2793F804C026464FEA26
:102AB0000C4C0CEB086C6744A7EB01085F18D9F8C5
:102AC00004100090891A091A8B460A46DDE90301B1
:102AD0002B4600F05FFC651EF0BBDFF894A0D9F830
:102AE0000810012301AA1AF831008DF80400039898
:102AF00036212030009000F0DCFF68BBDDE90301E7
:102B00005A4600F0FDFB38BB78788DF8080038781D
:102B10008DF80900022202A9009800F0C3FF08B155
:102B20002C4603E0B61CBF1C4645EDD3D9F808106F
:102B30004E460AEBC100012300798DF8040001AA7A
:102B40003621009800F0B5FF30B97068009000227F
:102B500011463368039800E002E000F01BFC00B16E
:102B60002C4607B02046BDE8F08F00007C06002010
:102B7000880000202DE9F0411D46134B80460024BB
:102B80001B684819069F661E984218D8404600F0F8
:102B9000B7FBA0B90020C7F307220C49FBB205E040
:102BA00001F8102001EB4007401C7B70A842F7D3CE
:102BB0006A00064908F1200000F074FF00B13446B5
:102BC0002046BDE8F08100007C060020FC030020C8
:102BD0002DE9F05F8A460F491E4683464968002565
:102BE0009019DDF8289017464FF0FF38884208D832
:102BF000002409E03A194B465146584600F06AFC59
:102C000008B1454602E0641CB442F3D32846BDE84F
:102C1000F09F00007C0600202DE9FF5F1E48DDE9E3
:102C20000E6791468B46026831444FF000081C46FF
:102C30004FF0FF3A914204D8406809EB0701814206
:102C400001D9D04623E000251FE000BF09EB0502B3
:102C50005946009800F054FBA8B900200F4909E03C
:102C600014F8012B01F8102001EB400314F8012B9C
:102C70005A70401CB042F3D30098720007492030CC
:102C800000F010FF00B1D0466D1CBD42DED304B091
:102C90004046BDE8F09F00007C0600207C0100203B
:102CA0002DE9F84F0026DDE90A7899468A468346E1
:102CB000144635460DE04B46224651465846CDF85F
:102CC0000080FFF757FF10B14FF0FF3603E0641CA0
:102CD0006D1CBD42EFD33046BDE8F88F4FF0FF309A
:102CE00070470000024880680860002070470000BC
:102CF0007C060020FEB51C46054600F001FB06469A
:102D000005F1200002AA2E21054600F0BDFE064472
:102D1000012202A9284600F0BEFE064401226946AF
:102D2000284600F0B8FE0644012201A9284600F01A
:102D3000B2FE9DF800109DF80420801901EB0221DD
:102D4000216001D04FF0FF30FEBD00000248006856
:102D500008600020704700007C06002002484068A0
:102D600008600020704700007C06002070B5054612
:102D7000C0690E4680470446E8698047001BB042A0
:102D8000FAD3002070BD2DE9F74F84B05FEA000848
:102D90007DD0002408F120008DF80440234601AACC
:102DA0000121029000F085FE054678214046FFF79C
:102DB000DDFF8DF80440012301AA1121029800F0E3
:102DC00078FE0544002301AAB121029800F071FEAB
:102DD000012605448DF80460324601A9029800F0EE
:102DE00061FE05442C278DF80470012201A9029888
:102DF00000F058FE00EB05092D258DF80450012246
:102E000001A9029800F04EFE81448DF80460012370
:102E100001AAB221029800F04CFE81448DF80470A2
:102E2000012201A9029800F03DFE81448DF8045072
:102E3000012201A9029800F035FE81448DF804605A
:102E4000012301AAB321029800F033FE81448DF8DA
:102E50000470012201A9029800F024FE81448DF83B
:102E60000450012201A9029800F01CFE81448DF853
:102E70000460012201A9029800F014FE81448DF83B
:102E80000470012201A9029800F00CFE00E0C9E1E3
:102E900081448DF80450012201A9029800F002FE3D
:102EA00000EB090A4FF007098DF80490012301AAED
:102EB000B421029800F0FDFD8244A2208DF80400A8
:102EC000012301AAC021029800F0F3FD00EB0A0BD8
:102ED0004FF0020A8DF804A0012201A9029800F027
:102EE000E1FD834484208DF80400012201A90298A9
:102EF00000F0D8FD8344C5208DF80400012301AA09
:102F0000C121029800F0D5FD83440A208DF8040009
:102F1000012301AAC221029800F0CBFD83448DF861
:102F20000440012201A9029800F0BCFD83448A20DC
:102F30008DF80400012301AAC321029800F0B9FD15
:102F400083442A208DF80400012201A9029800F090
:102F5000A9FD83448A208DF80400012301AAC4211D
:102F6000029800F0A6FD8344EE208DF804000122B3
:102F700001A9029800F096FD83440E208DF804000C
:102F8000012301AAC521029800F093FD8344002388
:102F900001AA2121029800F08CFD8344012305AA97
:102FA0003A21029800F085FD83448DF804A00123A6
:102FB00001AAE021029800F07CFD83441C208DF8DA
:102FC0000400012201A9029800F06CFD83448DF8F1
:102FD0000490012201A9029800F064FD83441220AC
:102FE0008DF80400012201A9029800F05BFD8344E2
:102FF00037208DF80400012201A9029800F052FD4B
:10300000834432208DF80400012201A9029800F0C7
:1030100049FD00EB0B014FF0290B00918DF804B036
:10302000012201A9029800F03DFD00998DF804509D
:1030300001440091012201A9029800F033FD00999A
:103040008DF804B001440091012201A9029800F01A
:1030500029FD009901220144252000918DF80400EA
:1030600001A9029800F01EFD0099012201442B20C5
:1030700000918DF8040001A9029800F013FD009959
:1030800001220144392000918DF8040001A9029821
:1030900000F008FD00998DF80440014400910122E0
:1030A00001A9029800F0FEFC00998DF8046001442B
:1030B0000091012201A9029800F0F4FC009901227C
:1030C000461803208DF8040001A9029800F0EAFCDC
:1030D000064410208DF80400012201A9029800F096
:1030E000E1FC064403208DF80400012301AAE1213C
:1030F000029800F0DEFC06441D208DF80400012239
:1031000001A9029800F0CEFC06448DF8049001223B
:1031100001A9029800F0C6FC064406208DF80400C0
:10312000012201A9029800F0BDFC00EB06092E2641
:103130008DF80460012201A9029800F0B3FC8144DB
:103140008DF80470012201A9029800F0ABFC00EB9D
:1031500009078DF804B0012201A9029800F0A2FC31
:1031600007448DF80450012201A9029800F09AFC4E
:10317000C5198DF80460012201A9029800F092FCA3
:1031800005448DF80460012201A9029800F08AFC30
:10319000054437208DF80400012201A9029800F0AF
:1031A00081FC05443F208DF80400012201A902980A
:1031B00000F078FC05448DF80440012201A9029832
:1031C00000F070FC05448DF80440012201A902982A
:1031D00000F068FC05448DF804A0012201A90298C2
:1031E00000F060FC054410208DF80400012201A9C4
:1031F000029800F057FC05448DF80440012301AA11
:103200001321029800F055FC4419012301AA292139
:10321000029800F04EFC04444046069900F02AF95A
:10322000001901D04FF0FF3007B0BDE8F08FF8B5BE
:103230000E4620306A46DA21074600F025FC4FF0A2
:10324000FF3408B12046F8BD6D46DB2138466A1CC4
:1032500000F01AFC0028F5D1AA1CDC21384600F049
:1032600013FC0028EED1BDF801009DF8001040BA13
:1032700061F31F4030600020F8BD30B40C46036994
:10328000204630BC1146184730B40C4683692046AE
:1032900030BC11461847000010B54FF0FF32D8B1CE
:1032A0000B6803604C6844600C890481CC68C4607E
:1032B0000C6904614C6944618C698461C969C161AC
:1032C0000649416206490162064981620649C0E930
:1032D0000B100BB198470246104610BD7B32000818
:1032E0001D350008ED3200088932000830B40C4664
:1032F0004369204630BC114618474FF0FF307047F5
:10330000F8B5234B9B68012B03D801F11A04521C1A
:1033100001E04C1C1A321546203000236A462A214F
:10332000064600F0C6FB0746200A8DF80000012281
:103330006946304600F0B6FB07448DF80040012294
:103340006946304600F0AEFBC41900236A462B21C3
:10335000304600F0AEFB0444280A8DF8000001223C
:103360006946304600F09EFB04448DF8005001226F
:103370006946304600F096FB044400236A462C213F
:10338000304600F096FB001901D04FF0FF30F8BD39
:103390007C0600202DE9F8431E46354BDDF82090D1
:1033A0009B68012B03D801F11A04521C01E04C1C4C
:1033B0001A321546203000236A462A21804600F042
:1033C00078FB0746200A8DF8000001226946404636
:1033D00000F068FB07448DF8004001226946404632
:1033E00000F060FB34440744641E200A8DF800009E
:1033F00001226946404600F055FBC6198DF8004091
:1034000001226946404600F04DFB841900236A46BC
:103410002B21404600F04DFB0444280A8DF80000A3
:1034200001226946404600F03DFB04448DF80050FF
:1034300001226946404600F035FB061905EB0904F8
:10344000641E200A8DF8000001226946404600F003
:1034500029FB85198DF8004001226946404600F09D
:1034600021FB401901D04FF0FF30BDE8F883000088
:103470007C0600207CB50C000546144A4FF0500035
:103480004FF0A0011FD0012C1DD0C2E900109460A4
:10349000506800901368002211462846FFF77AFF13
:1034A00006460B48012300EBC40001AA00798DF801
:1034B0000400362105F1200000F0FBFA801901D04C
:1034C0004FF0FF307CBDC2E90001E0E77C06002040
:1034D00088000020F8B506464FF6FF7000EA03208A
:1034E00040EA1320ADF800000B480024651E036875
:1034F0008B420DD9406890420AD93046FFF700FF51
:1035000030B90222694606F1200000F0CBFA00B182
:103510002C462046F8BD00007C060020F0B414467E
:103520000D46C66821462846B446F0BC1A46604798
:103530007047FDF7C5BB000030B593B03021684639
:10354000FCF7E2FF14210CA8FCF7DEFF1D48002564
:10355000016841F080510160006800F080501190D6
:103560001948016821F4404141F4004101600068BC
:10357000022400F4404011900120009000040190CA
:103580008001CDE9064008AA0420542182E81300F6
:103590000B906846FDF726FE08B172B6FEE70CA94F
:1035A0000F2081E831004FF48050CDE90F05022152
:1035B0000CA8FDF7A1FC002801D072B6FEE713B0FD
:1035C00030BD0000403802400070004002480168F1
:1035D00041F470010160704788ED00E010B5806B28
:1035E0000021C185C184FEF760FC10BD01680C316B
:1035F00051E8002F22F4907241E80023002BF5D10E
:103600000168143151E8002F22F0010241E8002343
:10361000002BF5D1016B012909D101680C3151E86A
:10362000002F22F0100241E80023002BF5D12021C9
:1036300080F83E1000210163704708B590F83E10F5
:10364000222901D0022008BD82684FF480539A429B
:1036500001D1016921B1816A9A421BD04AB10AE0C5
:103660000268816A5268C2F308020A80816A891C72
:1036700008E0026972B10268526802F07F020A70C3
:10368000816A491C8162C18D491E0904090CC185EA
:1036900003D019E002685268F1E70168CA6822F0B5
:1036A0002002CA600168CA6822F48072CA60016898
:1036B0004A6922F001024A61202180F83E10016B24
:1036C000012903D0FEF70EFE002008BD0021016392
:1036D00001680C3151E8002F22F0100241E800236C
:1036E000002BF5D101680A68D20602D50A6849683C
:1036F0000091818DFEF7D8FBE6E7000070B5044627
:1037000040685449884204D940F6616152A000F0F3
:1037100036F9E06838B1B0F5005F04D040F6626178
:103720004DA000F02CF9206950B1B0F5806F07D0A2
:10373000B0F5C06F04D040F6636147A000F01FF9F8
:1037400060694FF6F371084200D120B940F6646118
:1037500041A000F014F920680169E26821F44051A9
:10376000114301612169A068E2690843616911435D
:1037700022680843D16849F20C6399430143D16040
:1037800020684169A26921F44071114341614149B6
:103790002068884202D04049884202D1FDF7E2FC0D
:1037A00001E0FDF7CFFCE2690023192164253226F0
:1037B000B2F5004F626828D0A0FB0101930F920080
:1037C000FCF7B6FD0146B0FBF5F06FF01802504370
:1037D00001EB800006EB0010B0FBF5F000F0F0020A
:1037E000B1FBF5F002EB0012B1FBF5F06FF018033E
:1037F000584301EB800006EB0010B0FBF5F000F041
:103800000F0021681044886070BDA0FB0101921870
:103810005B41FCF78DFD0146B0FBF5F00201B1FB09
:10382000F5F06FF01803584301EB800006EBC00081
:10383000B0FBF5F000F0F80002EB4002B1FBF5F050
:10384000584301EB800006EBC000B0FBF5F000F040
:103850000700D6E7A037A0002E2E2F4472697665A8
:1038600072732F53544D3332463478785F48414C4D
:103870005F4472697665722F5372632F73746D3370
:1038800032663478785F68616C5F756172742E633C
:103890000000000000100140001401408162828598
:1038A000C28500210164222280F83E2080F83C106D
:1038B000016921B10168CA6842F48072CA60016876
:1038C0004A6942F001024A610068C16841F0200182
:1038D000C160002070472DE9F041984617460E461A
:1038E0000446069D27E0681C25D02DB1FDF7E2F9BE
:1038F000A0EB0800A8421ED920680C3050E8001F39
:1039000021F4D07140E80012002AF5D1206814306B
:1039100050E8001F21F0010140E80012002AF5D113
:10392000202084F83D0084F83E00002084F83C000C
:103930000320BDE8F0812068006836EA000004D06A
:103940000020B842CFD00020F3E70120F9E70000C3
:103950000148FEF7ABBA000000010020FEE70907AE
:10396000090E002804DB00F1E02080F80014704705
:1039700000F00F0000F1E02080F8141D7047704740
:10398000FDF798B90020704773B50F4D0E46002221
:1039900010212846FDF750F96423012269460B489F
:1039A000FEF780F80446012210212846FDF744F96D
:1039B0004FF4FA73012231460448FDF7C5FF204455
:1039C000414290FBF1F07CBD00040240A8000020C1
:1039D0008AB210B501464FF4FA730348FDF7B4FFFD
:1039E000414290FBF1F010BDA80000208AB210B552
:1039F000014664230348FEF755F8414290FBF1F07D
:103A000010BD0000A8000020F7B5104F15460E4667
:103A1000002210213846FDF70FF964230122694680
:103A20000B48FEF73FF80446012210213846FDF707
:103A300003F93DB1AAB24FF4FA7331460448FEF7D8
:103A400031F80444604294FBF0F0FEBD00040240F3
:103A5000A8000020FDF73CF9FFF76EFDFEF720FE01
:103A6000FEF7AAFEFEF782FEFEF7B6FD054C4FF408
:103A7000FA7501212046FDF7AFF82846FCF740FF14
:103A8000F7E700000008024030B444680369A44628
:103A900030BC1846604730B4D0E90343A44630BC7C
:103AA0001846604730B484680369A44630BC1846A1
:103AB000604730B4046905682046AC4630BC6047B6
:103AC0004FF04070E1EE100A704700000000000067
:103AD00000000102030406070809000000000102BB
:103AE00003040000000000000000000000000000CF
:103AF00000003F40000000000000000030004000D7
:103B000030004000000009000BC03D000BC03D002C
:103B1000090018C024407FE02240318000001800D6
:103B200024C01B000D803240018003801C402740D0
:103B30001C800740004010006000000000000000F2
:103B400000000000000000001F8020404020000016
:103B5000402020401F8000000000090006001F8058
:103B6000060009000000040004003F800400040077
:103B700000000010006000000000000000000400D1
:103B800004000400040004000000000000400000E5
:103B9000000000000000002001C0060038004000C6
:103BA00000001F802040204020401F8000000000B7
:103BB00010403FC000400000000018C021402240DB
:103BC00024401840000010802040244024401B80E6
:103BD000000002000D0011003FC0014000003C80C9
:103BE000244024402440238000001F80244024409F
:103BF0003440038000003000200027C0380020003F
:103C000000001B802440244024401B8000001C0036
:103C100022C0224022401F80000000000000084017
:103C20000000000000000000000004600000000030
:103C30000000000004000A0011002080404009003C
:103C40000900090009000900000000004040208030
:103C500011000A000400180020002340240018006E
:103C600000001F802040274029401F4000000040E6
:103C700007C039000F0001C0004020403FC0244071
:103C800024401B8000001F802040204020403080C6
:103C9000000020403FC0204020401F800000204006
:103CA0003FC024402E4030C0000020403FC0244090
:103CB0002E00300000000F00108020402240338092
:103CC000020020403FC0040004003FC020402040CC
:103CD00020403FC0204020400000006020202020E5
:103CE0003FC02000200020403FC024400B0030C0D7
:103CF000204020403FC020400040004000C03FC066
:103D00003C0003C03C003FC0000020403FC00C40CE
:103D100023003FC020001F802040204020401F8003
:103D2000000020403FC024402400180000001F80F5
:103D30002140214020E01FA0000020403FC024403F
:103D4000260019C0004018C0244024402240318081
:103D50000000300020403FC0204030000000200024
:103D60003F80004000403F80200020003E0001C016
:103D7000070038002000380007C03C0007C03800AA
:103D80000000204039C0060039C02040000020005B
:103D9000384007C0384020000000304021C0264095
:103DA000384020C00000000000007FE0402040209C
:103DB0000000000070000C000380004000000000C4
:103DC000402040207FE00000000000002000400074
:103DD0002000000000000010001000100010001073
:103DE0000010000000004000000000000000000083
:103DF00002800540054003C0004020003FC0044051
:103E0000044003800000000003800440044006409A
:103E1000000000000380044024403FC00040000038
:103E200003800540054003400000000004401FC01F
:103E3000244024402000000002E0055005500650B8
:103E4000042020403FC00440040003C000400000A4
:103E5000044027C0004000000000001000100410C3
:103E600027E00000000020403FC00140070004C0E0
:103E70000440204020403FC000400040000007C0F8
:103E8000040007C0040003C00000044007C0044051
:103E9000040003C00040000003800440044003808D
:103EA0000000041007F004500440038000000000EC
:103EB00003800440045007F00010044007C0024093
:103EC000040004000000000006400540054004C056
:103ED0000000000004001F800440004000000400B7
:103EE00007800040044007C000400400070004C0F1
:103EF000018006000400060001C0070001C00600A2
:103F00000000044006C0010006C004400000041088
:103F1000071004E00180060004000000044005C012
:103F20000640044000000000000004007BE0402048
:103F30000000000000000000FFF000000000000092
:103F400040207BE0040000000000400080004000B2
:103F500020002000400000000000000000000000E1
:103F60000000000000000000000000001FCC000C5A
:103F700000000000000000000800300060000800A1
:103F8000300060000000022003FC1E20022003FC21
:103F90001E200220000000000E1811043FFF1084B4
:103FA0000C78000000000F0010840F3800C0077864
:103FB00018840078000000780F8410C411240E9833
:103FC00000E40084000808006800700000000000A1
:103FD00000000000000000000000000007E01818CA
:103FE000200440020000000040022004181807E0EE
:103FF0000000000000000240024001800FF001803C
:104000000240024000000080008000800FF8008025
:104010000080008000000001000D000E0000000084
:104020000000000000000000008000800080008090
:104030000080008000800000000C000C00000000E8
:104040000000000000000000000600180060018071
:10405000060018002000000007F0080810041004F3
:10406000080807F000000000080408041FFC000412
:1040700000040000000000000E0C10141024104476
:1040800011840E0C000000000C181004110411041F
:1040900012880C700000000000E0032004240824B3
:1040A0001FFC0024000000001F981084110411045C
:1040B000108810700000000007F008881104110437
:1040C00018880070000000001C00100010FC130095
:1040D0001C001000000000000E38114410841084F1
:1040E00011440E38000000000700088C10441044F2
:1040F000088807F00000000000000000030C030C1B
:1041000000000000000000000000000101060000A7
:1041100000000000000000000080014002200410A8
:1041200008081004000002200220022002200220C1
:1041300002200220000000001004080804100220E1
:1041400001400080000000000E001200100C106CF6
:1041500010800F00000003E00C1813E4142417C4AF
:10416000082807D000000004003C03C41C4007409E
:1041700000E4001C000410041FFC110411041104CD
:104180000E880070000003E00C18100410041004E6
:1041900010081C10000010041FFC10041004100470
:1041A000080807F0000010041FFC1104110417C4D4
:1041B00010040818000010041FFC1104110017C09F
:1041C00010000800000003E00C1810041004104454
:1041D0001C780040000010041FFC10840080008048
:1041E00010841FFC10040000100410041FFC1004B5
:1041F00010040000000000030001100110011FFE68
:1042000010001000000010041FFC1104038014644F
:10421000181C1004000010041FFC1004000400040B
:104220000004000C000010041FFC1F0000FC1F0015
:104230001FFC1004000010041FFC0C04030000E02D
:1042400010181FFC100007F00808100410041004D8
:10425000080807F0000010041FFC10841080108074
:1042600010800F00000007F0081810241024101C04
:10427000080A07F2000010041FFC1104110011C00D
:1042800011300E0C000400000E1C11041084108468
:1042900010441C3800001800100010041FFC10040B
:1042A00010001800000010001FF8100400040004A3
:1042B00010041FF8100010001E0011E0001C007018
:1042C00013801C0010001FC0103C00E01F0000E025
:1042D000103C1FC000001004180C163401C001C0AF
:1042E0001634180C100410001C00130400FC1304F6
:1042F0001C00100000000804101C1064108413043B
:104300001C04101800000000000000007FFE4002A6
:10431000400240020000000030000C0003800060FA
:10432000001C0003000000004002400240027FFE2B
:1043300000000000000000000000200040004000DD
:104340004000200000000001000100010001000108
:1043500000010001000100004000400020000000BA
:104360000000000000000000009801240144014406
:10437000014400FC000410001FFC0088010401043B
:104380000088007000000000007000880104010433
:10439000010400880000000000700088010401048E
:1043A00011081FFC0004000000F80144014401440E
:1043B000014400C800000000010401040FFC1104C6
:1043C000110411001800000000D60129012901295B
:1043D00001C90106000010041FFC00840100010057
:1043E000010400FC000400000104190419FC00048D
:1043F0000004000000000000000300010101190199
:1044000019FE0000000010041FFC0024004001B44D
:10441000010C010400000000100410041FFC000443
:10442000000400000000010401FC0104010001FC83
:104430000104010000FC010401FC008401000100F2
:10444000010400FC0004000000F801040104010460
:10445000010400F80000010101FF008501040104CE
:104460000088007000000000007000880104010452
:10447000010501FF00010104010401FC00840104A5
:10448000010001800000000000CC0124012401246F
:1044900001240198000000000100010007F8010458
:1044A000010400000000010001F800040004000401
:1044B000010801FC0004010001800170000C0010E3
:1044C00001600180010001F0010C003001C00030EA
:1044D000010C01F0010000000104018C0074017066
:1044E000018C01040000010101810171000E00181E
:1044F00001600180010000000184010C01340144CD
:104500000184010C00000000000000000000010018
:104510003EFC400240020000000000000000FFFFDF
:104520000000000000000000400240023EFC0100CC
:1045300000000000000000006000800080004000DB
:1045400040002000200030313233343536373839DE
:1045500041424344454640305800303132333435CF
:104560003637383961626364656640307800000030
:104570009045000800000020A8000000D0010008BD
:1045800038460008A8000020400C0000EC0100089C
:104590000100000010000000000000000024F400F2
:1045A00000000000FFFF0000000000008539000847
:1045B0000000000000000000093A000889390008E6
:1045C000ED390008D139000881390008872D00082D
:1045D000652900082F320008DD2900086929000834
:1045E000FB320008DD2C000875340008E52C0008BB
:1045F00001330008512A0008192C0008752B000807
:10460000D12B0008A12C0008F52C0008D534000897
:104610004D2D00085D2D000848000000C800000076
:10462000880000000800000028000000680000006A
:08463000E8000000A8000000F2
:040000050800019559
:00000001FF
