:020000040800F2
:100000001817002035020008C31E00088D1D0008C7
:10001000C11E0008C70400082524000800000000D5
:10002000000000000000000000000000F91F0008B0
:10003000C904000800000000C51E0008FB1F0008DE
:100040004F0200084F0200084F0200084F0200084C
:100050004F0200084F0200084F0200084F0200083C
:100060004F0200084F0200084F0200084F0200082C
:100070004F0200084F0200084F0200084F0200081C
:100080004F0200084F0200084F0200080000000065
:100090000000000000000000000000004F02000807
:1000A0004F0200084F0200084F0200084F020008EC
:1000B0004F0200084F0200084F0200084F020008DC
:1000C0004F0200084F0200084F0200084F020008CC
:1000D0004F020008192400084F0200080000000029
:1000E0004F0200084F0200084F0200080000000005
:1000F0000000000000000000000000004F020008A7
:10010000000000004F0200084F0200084F020008E4
:1001100000000000000000000000000000000000DF
:100120004F0200084F0200084F0200084F0200086B
:100130004F02000800000000000000000000000066
:100140000000000000000000000000004F02000856
:100150004F0200084F0200084F0200084F0200083B
:100160004F0200084F0200080000000000000000DD
:10017000000000000000000000000000000000007F
:10018000000000004F020008000000000000000016
:100190004F02000800F002F800F03CF80AA090E8D6
:1001A000000C82448344AAF10107DA4501D100F032
:1001B00031F8AFF2090EBAE80F0013F0010F18BFC3
:1001C000FB1A43F001031847DC270000FC2700005E
:1001D000103A24BF78C878C1FAD8520724BF30C873
:1001E00030C144BF04680C60704700000023002445
:1001F00000250026103A28BF78C1FBD8520728BF37
:1002000030C148BF0B6070471FB502F0ABFB1FBD8C
:1002100010B510BD00F00AF91146FFF7F5FF02F026
:10022000D5FA00F03CF903B4FFF7F2FF03BC00F08D
:1002300043F900000948804709480047FEE7FEE708
:10024000FEE7FEE7FEE7FEE7FEE7FEE7FEE7FEE786
:1002500004480549054A064B7047000095200008F0
:10026000950100081811002018170020181300200D
:100270001813002053EA020C00F069802DE9F04BBE
:100280004FF00006002B1FBFB3FA83F503FA05F405
:1002900024FA05F65E4012BF1643B2FA82F502FA5E
:1002A00005F4C5F120051EBF22FA05FC44EA0C0442
:1002B000203556EA044C4FEA144418BF641C4FF032
:1002C00000084FF00009904271EB030C39D300296C
:1002D00019BFB1FA81F701FA07F6B0FA80F700FA10
:1002E00007F6C7F120071EBF20FA07FC46EA0C06F6
:1002F0002037B6FBF4FCA7EB0507103F07F01F0BF8
:10030000CBF120060CFA0BFB2CFA06F644BFB346E1
:100310000026202FA4BF5E464FF0000B5BEA060CC0
:1003200008BF4FF0010B19EB0B09ABFB027C48EB4C
:100330000608C01B06FB02CC0BFB03CC71EB0C01C7
:10034000C1E70B46024641464846BDE8F08B13B56F
:100350004FF000004FF00001AFF30080BDE81C40FB
:10036000704700000FB4044910B503AA029800F0CA
:100370002FF810BC5DF814FB100000204FF00002B5
:1003800000B5134694469646203922BFA0E80C508B
:10039000A0E80C50B1F12001BFF4F7AF090728BF66
:1003A000A0E80C5048BF0CC05DF804EB890028BFE2
:1003B00040F8042B08BF704748BF20F8022B11F00B
:1003C000804F18BF00F8012B704770477047704787
:1003D000074B70B50D467B4400F011F804462846E3
:1003E00000F020F810B14FF0FF3070BD204670BD16
:1003F000DF23000001694A1C02610878704700B5DC
:100400008FB0CDE901310021059105497944CDE94D
:1004100003101146684600F02EF80FB000BD000032
:10042000E5FFFFFF007B00F080007047754600F09D
:100430003FF8AE4605006946534620F00700854662
:1004400018B020B5FFF704FFBDE820404FF00006CC
:100450004FF000074FF000084FF0000B21F00701AC
:10046000AC46ACE8C009ACE8C009ACE8C009ACE8EF
:10047000C0098D4670472DE9F04106460024D6E9B3
:100480000170F5688046304603E04146B847641C79
:100490003046A8470028F8D12046BDE8F08110B5C5
:1004A0000446AFF300802046BDE81040FFF7BBBE16
:1004B00000487047B410002001491820ABBEFEE789
:1004C000260002007047FEE7704772B6FEE72DE98E
:1004D000F0410446876D00F053FA064694F8350063
:1004E0000025022806D08020606584F83450012061
:1004F000BDE8F0812068016821F0160101602068E4
:10050000416921F080014161206C08B9A06C20B1E3
:100510002068016821F0080101602068016821F06D
:10052000010101600CE000F02BFA801B052807D9BF
:1005300020206065032084F8350084F83450D7E724
:1005400020680068C007EED194F85C103F20884016
:10055000B860012084F8350084F834500020C7E7E3
:1005600090F83510022903D08021416501207047A1
:10057000052180F835100068016821F00101016053
:100580000020704770B5044600F0FAF90546601C7B
:1005900002D004480078044400F0F2F9401BA04265
:1005A000FAD370BD000000202DE9F84FDFF84CB2FF
:1005B0000D460446584512D0914884420FD09148C8
:1005C00084420CD09048844209D09048844206D09E
:1005D0008F48844203D0AC218EA002F0EBF828684B
:1005E0000104090C01D0000C03D0AD2189A002F058
:1005F000E1F86868F8B101281DD011281BD0022845
:1006000019D0122817D0B0F5881F14D0B0F5041FE8
:1006100011D0B0F5441F0ED0B0F5901F0BD0B0F53F
:10062000081F08D0B0F5481F05D0032803D0AE211D
:1006300078A002F0BFF800264FF0010A4FF003093E
:100640000AFA06F02F688046074047457DD1287991
:1006500000F00300012801D002281DD1E86848B14C
:10066000012807D0022805D0032803D0C02169A0A3
:1006700002F0A0F8A068720009FA02F18843E96864
:1006800091400143A1606068297920EA0800C1F324
:100690000011B140014361602879C043800712D046
:1006A000A86838B1012805D0022803D0D12159A06B
:1006B00002F080F8E068720009FA02F18843A96844
:1006C00091400143E160287900F0030002282AD11B
:1006D0002869D8B10C2819D0012817D0022815D0C4
:1006E000032813D0042811D005280FD006280DD0D8
:1006F00007280BD0082809D0092807D00A2805D0D8
:100700000F2803D0DE2143A002F054F8F00804EBD8
:100710008003186A7107CA0E0F2191408843296926
:100720009140014319622068720009FA02F188437E
:10073000297901F00301914001432160686810F4B8
:10074000403F55D04248016800E051E041F480410B
:100750000160006826F0030100F4804000903D48ED
:100760000A18D2F80808B1070B0F0F2199408843E7
:100770005C4501D1002114E021498C4201D10121C5
:100780000FE020498C4201D102210AE01E498C422F
:1007900001D1032105E01D498C4201D1042100E073
:1007A000072199400143C2F808182B4908686A6874
:1007B000B843D20200D5384308602749091D0868AC
:1007C0006A68B843920200D5384308602249091F7D
:1007D00008686A68B843920300D5384308601E4928
:1007E000083908686A68B843D20300D538430860FE
:1007F000761C102EFFF424AFBDE8F88F00000240F5
:100800000004024000080240000C024000100240B8
:10081000001C02402E2E2F447269766572732F538E
:10082000544D3332463478785F48414C5F447269A6
:100830007665722F5372632F73746D33326634781A
:10084000785F68616C5F6770696F2E6300000000FD
:100850004438024000300140083C014070B50C00B3
:10086000054604D14FF4BE7103A001F0A3FF28692F
:10087000204000D0012070BD2E2E2F447269766575
:1008800072732F53544D3332463478785F48414C5D
:100890005F4472697665722F5372632F73746D3380
:1008A00032663478785F68616C5F6770696F2E6359
:1008B0000000000070B50C00054604D14FF4DB7158
:1008C00005A001F077FF696924EA0100214040EAB0
:1008D0000140A86170BD00002E2E2F44726976651C
:1008E00072732F53544D3332463478785F48414CFD
:1008F0005F4472697665722F5372632F73746D3320
:1009000032663478785F68616C5F6770696F2E63F8
:100910000000000070B515460C00064604D140F2F8
:100920009D1108A001F046FF45B1012D04D04FF400
:10093000CF7104A001F03EFFB46170BD2004B0612E
:1009400070BD00002E2E2F447269766572732F538E
:10095000544D3332463478785F48414C5F44726975
:100960007665722F5372632F73746D3332663478E9
:10097000785F68616C5F6770696F2E6300000000CC
:10098000014880687047000000000020024881682C
:100990000278114481607047000000200B4810B5B8
:1009A000016841F400710160016841F480610160F7
:1009B000016841F480710160032000F0C3F80F204A
:1009C00000F006F800F024F8002010BD003C0240C2
:1009D00070B50D4D04464FF47A712878B1FBF0F0F4
:1009E0000A490968B1FBF0F000F02AFF48B9102C61
:1009F00007D200222146501E00F054F800206C60FF
:100A000070BD012070BD0000000000200C0000201F
:100A10000A4808B5016841F480410160006800F4AB
:100A2000804000900548001F016841F0805101603E
:100A3000006800F08050009008BD0000443802407B
:100A400010B5040003D5BC2107A001F0B3FE002CB3
:100A500009DB04F01F01012088406109890001F1D0
:100A6000E021C1F8000110BD2E2E2F447269766579
:100A700072732F53544D3332463478785F48414C6B
:100A80005F4472697665722F5372632F73746D338E
:100A900032663478785F68616C5F636F7274657812
:100AA0002E63000070B515460C460646102A03D387
:100AB000A82114A001F07EFE102C03D3A92111A0BF
:100AC00001F078FE1E480068C0F30223C3F107025C
:100AD0002046042A00D90422191D072901D2002327
:100AE00000E0DB1E012404FA02F1491E0140994096
:100AF0009C40641E2C4021433046BDE8704001F00C
:100B000049BE00002E2E2F447269766572732F53F2
:100B1000544D3332463478785F48414C5F447269B3
:100B20007665722F5372632F73746D333266347827
:100B3000785F68616C5F636F727465782E63000024
:100B40000CED00E010B5044607280BD0062C09D0A8
:100B5000052C07D0042C05D0032C03D0902108A02D
:100B600001F028FE154904F0070208684FF6FF035C
:100B7000184040EA0220124A1043086010BD0000ED
:100B80002E2E2F447269766572732F53544D333273
:100B9000463478785F48414C5F4472697665722FBD
:100BA0005372632F73746D3332663478785F686183
:100BB0006C5F636F727465782E6300000CED00E06B
:100BC0000000FA052DE9F0470E4604007DD02068AC
:100BD000401E0E2804D940F25A217AA001F0EAFD05
:100BE00096B1012E10D0022E0ED0032E0CD0042E62
:100BF0000AD0052E08D0062E06D0072E04D040F2CB
:100C00005B2170A001F0D6FDDFF8F081D8F800007C
:100C1000F7B200F00700B04207D288F80070D8F8A9
:100C2000000000F00700B0424FD12068744D8107EA
:100C300029D5400703D5286840F4E0502860207883
:100C4000000703D5286840F460402860A068A0B180
:100C5000802812D0902810D0A0280ED0B0280CD018
:100C6000C0280AD0D02808D0E02806D0F02804D028
:100C700040F27E2153A001F09DFD2868A16820F07C
:100C8000F000084328602078C00743D0DFF8709157
:100C90006068A9F1080988B1012822D0022824D06F
:100CA000032822D040F2852146A001F083FD606830
:100CB000012816D0022818D0032816D0D9F8000031
:100CC0008007002833DA286800E030E0616820F00F
:100CD000030008432860FFF753FE814641F2883A3B
:100CE00011E0D9F800008003EBE7D9F8000080019B
:100CF000E7E700BFFFF744FEA0EB0901514502D929
:100D00000320BDE8F0872868616800F00C00B0EBB4
:100D1000810FEFD1D8F80010404601F00701B14231
:100D200007D90770006800F00700B04201D0012029
:100D3000E7E720784FF4805640074FF4A0574FF470
:100D4000C0584FF4E05914D5E06860B1B0420AD001
:100D5000B84208D0404506D0484504D040F2C321EF
:100D600018A001F027FD2868E16820F4E05008434E
:100D700028602078000715D5206960B1B0420AD0FC
:100D8000B84208D0404506D0484504D040F2CA21B8
:100D90000CA001F00FFD2868216920F4604040EAB2
:100DA000C100286000F054F82968164AC1F3031105
:100DB000515CC8401449086014480068FFF708FEF9
:100DC00000209EE72E2E2F447269766572732F5392
:100DD000544D3332463478785F48414C5F447269F1
:100DE0007665722F5372632F73746D333266347865
:100DF000785F68616C5F7263632E6300003C024041
:100E000008380240892900080C0000200400002056
:100E10000448054900680968044AC1F38221515C0D
:100E2000C84070470C00002008380240992900088B
:100E30000448054900680968044AC1F34231515C1D
:100E4000C84070470C00002008380240992900086B
:100E5000154810B5006810F00C02144813D041106A
:100E6000042A0FD0082A0ED10F4C241F22682368B1
:100E700002F03F025B0207D52068C0F38810A0FB98
:100E8000010106E0084610BD2168C1F38811A1FBED
:100E900000010023FFF7EEF92168C1F30141491C6D
:100EA0004900B0FBF1F010BD083802400024F40006
:100EB0002DE9F84F04007DD020680F2803D9E621E2
:100EC000F7A001F077FC2078DFF80C94C007A9F1B7
:100ED000040555D060684FF480364FF4A02738B130
:100EE000B04205D0B84203D0EB21EDA001F062FC86
:100EF000F948001D0168C1F38101012908D000688B
:100F0000C0F3810002280AD1D9F80000400206D5BA
:100F10002868800334D560680028CCD030E0606851
:100F2000B04203D1286840F480300CE0B842286811
:100F300003D140F480202860F4E720F4803028605A
:100F4000286820F480202860606860B1FFF718FDF1
:100F5000064604E0FFF714FD801B64287ED828684D
:100F60008003F7D50CE0FFF70BFD064605E000BF58
:100F7000FFF706FD801B6428F0D828688003F7D4AB
:100F80002078DFF8588380074FF0000A56D5E068D4
:100F900030B1012804D040F21D11C1A001F00AFCBB
:100FA00020691F2804D94FF48F71BDA001F002FC05
:100FB000C94800E092E0001D016811F00C0F08D054
:100FC0000068C0F38100022810D1D9F80000400267
:100FD0000CD42868800702D5E06801287ED12868F3
:100FE000216920F0F80040EAC10017E0E068B8B1DC
:100FF0000120C8F80000FFF7C3FC064605E000BF6B
:10100000FFF7BEFC801B0228A8D828688007F7D508
:10101000286820F0F801206941EAC00028600DE04E
:10102000C8F800A0FFF7ACFC064604E0FFF7A8FCF8
:10103000801B022892D828688007F7D42078000700
:101040002ED5A54EA64F60697036D0B1012808D0C4
:101050004FF4AF7192A001F0ADFB00E04BE160698D
:1010600078B101203860FFF78BFC074605E000BF30
:10107000FFF786FCC01B0228C6D830688007F7D56A
:101080000EE0C7F800A0FFF77BFC074605E000BFB5
:10109000FFF776FCC01B0228B6D830688007F7D46B
:1010A0002078400776D5A068002740B1012806D0F7
:1010B000052804D04FF4C57179A001F07BFBDFF85F
:1010C00018B20BF13C0BDBF80000C0000DD4DBF8CC
:1010D000001041F08051CBF8001000E038E1DBF85F
:1010E0000000012700F0805000907E4E3068C0055F
:1010F00011D4306840F480703060FFF741FC0090FC
:1011000006E000BFFFF73CFC0099401A022891D886
:101110003068C005F6D5704EA0686C3601280FD037
:101120000528306810D020F001003060306820F0D1
:1011300004003060A068B8B1FFF722FC00900FE017
:10114000306840F00100F4E740F004003060F7E759
:10115000FFF716FC0099411A41F2883081428BD882
:1011600030688007F4D50EE0FFF70AFC009007E036
:10117000FFF706FC0099411A41F2883081428BD872
:1011800030688007F4D42FB1DBF8001021F08051D3
:10119000CBF80010A069002876D0012809D00228D9
:1011A00007D040F2CD113EA001F004FBA069002859
:1011B000F2D04948001D0068C0F381000228A069F0
:1011C0006DD0022805D0C8F860A0FFF7D9FB04460F
:1011D00094E0E06938B1B0F5800F04D04FF4EB71C2
:1011E0002FA001F0E7FA206A3F2804D940F2D71176
:1011F0002BA001F0DFFA606A3238B0F5BF7F04D966
:101200004FF4EC7126A001F0D5FAA06A02280AD0AA
:10121000042808D0062806D0082804D040F2D911A6
:101220001FA001F0C7FAE06A801E0D2804D94FF410
:10123000ED711BA001F0BEFA4746C8F860A0FFF7A9
:101240009FFB064605E000BFFFF79AFB801B0228C4
:1012500051D828688001F7D4D4E907010843A16A6E
:10126000214A490802EB0141626A41EA82110843BE
:1012700094F82C1040EA0161C9F80010012038668A
:10128000FFF77EFB044606E064E000BFFFF778FB53
:10129000001B02282FD828688001F7D55AE031E0DA
:1012A0002E2E2F447269766572732F53544D33324C
:1012B000463478785F48414C5F4472697665722F96
:1012C0005372632F73746D3332663478785F68615C
:1012D0006C5F7263632E6300043802400000474273
:1012E000800E4742007000400000FFFFFFF748FB00
:1012F000001B022802D90320BDE8F88F286880016E
:10130000F4D427E00128F7D0D9F80000E26900F40E
:10131000800191421CD1226A00F03F01914217D115
:1013200047F6C071626A0140B1EB821F10D1A26A18
:101330004FF0FF3300F4403103EB5202B1EB024FA8
:1013400006D194F82C1000F07060B0EB016F01D062
:101350000120D1E70020CFE770B504007ED081499D
:10136000206888420DD0804988420AD07F4988424F
:1013700007D07F49884204D04FF4A0717DA001F0CE
:1013800019FA60684FF4827630B1B04204D040F26E
:10139000411178A001F00EFAA06850B1B0F5806F4D
:1013A00007D0B0F5004F04D04FF4A17171A001F047
:1013B00001FAE068B0F5006F05D020B140F24311AA
:1013C0006CA001F0F7F9A069B0F5007F08D038B142
:1013D000B0F5802F04D04FF4A27166A001F0EAF9B5
:1013E000E06990B1082810D010280ED018280CD031
:1013F00020280AD0282808D0302806D0382804D041
:1014000040F245115BA001F0D5F9206A30B1802887
:1014100004D04FF4A37157A001F0CCF9606A002505
:1014200048B3102806D040F2471152A001F0C2F98B
:10143000606A00B3E069A0B1082812D0102810D06B
:1014400018280ED020280CD028280AD0302808D000
:10145000382806D040F2591146A000E009E001F01A
:10146000A9F925616561A56294F85100002830D082
:1014700034E0012070BD206930B1022804D04FF45F
:10148000A5713CA001F096F9606930B1012804D043
:1014900040F24B1137A001F08DF96068B04216D1CF
:1014A000E0690028DFD00828DDD01028DBD018281C
:1014B000D9D02028D7D02828D5D03028D3D0382844
:1014C000D1D040F24F112BA001F074F9CBE7E561C8
:1014D000C9E784F85050204600F068F8022084F8EC
:1014E00051002068016821F040010160A088218935
:1014F00000F4827001F404410843A18901F4006101
:101500000843217C01F002010843217D01F0010123
:101510000843218B01F400710843217F01F0380159
:10152000084394F8201001F080010843218D01F454
:101530000051084321680860A069042101EA1040B5
:1015400094F8241001F010010843216848602068D5
:10155000C16921F40061C1616565012084F8510011
:10156000002070BD0030014000380040003C0040C9
:10157000003401402E2E2F447269766572732F530A
:10158000544D3332463478785F48414C5F44726939
:101590007665722F5372632F73746D3332663478AD
:1015A000785F68616C5F7370692E630010B586B0F8
:1015B000044614216846FEF7E1FE1449206888427B
:1015C00021D113480021026842F480420260006881
:1015D00000F4804005900E481038026842F0020284
:1015E0000260006800F0020005904FF46040009037
:1015F0000220CDE9010103200390052004906946F3
:101600000448FEF7D1FF06B010BD000000380040CE
:1016100040380240000402402DE9F84F04460A9E7B
:1016200080681D4692468B464FF00109002720B185
:1016300040F27C4174A001F0BDF894F850000128FC
:101640000ED0012084F85000FFF79AF9804694F8F4
:101650005100616801280CD0B1F5827F07D102E00A
:101660000220BDE8F88FA16809B9042801D002273B
:10167000C2E0BBF1000F27D0BAF1000F24D01DB398
:1016800094F85100042802D0052084F8510000206D
:101690006065C4F838A0E587A587C4F830B0E58652
:1016A000A5862064606420680168490603D4016847
:1016B00041F040010160E068B0F5006F606805D05E
:1016C000F0B3012D46D07FE0012795E008B1012D50
:1016D00039D1206B21680088C860206B801C206392
:1016E000E08E401EE0862EE02068816889070FD5D5
:1016F000E18E69B1B9F1010F0AD1216B0988C1608E
:10170000206B801C2063E08E401EE0864FF00009B5
:1017100020688168C9070CD0E18F51B1C068A16B06
:101720000880A06B801CA063E08F401EE0874FF014
:101730000109FFF725F9A0EB0800B04203D300E050
:1017400008E0701C50D1E08E0028CDD1E08F002839
:10175000CAD13FE0206B216800780873206B401CE1
:101760002063E08E401EE0862EE0206881688907B5
:101770000FD5E18E69B1B9F1010F0AD1216B09785A
:101780000173206B401C2063E08E401EE0864FF00A
:10179000000920688168C9070CD0E18F51B1C06889
:1017A000A16B0870A06B401CA063E08F401EE08717
:1017B0004FF00109FFF7E4F8A0EB0800B04202D3B4
:1017C000701C01D010E07EB1E08E0028CDD1E08FFA
:1017D0000028CAD142463146204600F085FB28B198
:1017E00001272020606507E0032705E0A06818B9FD
:1017F0002068C16880680090012084F851000020B2
:1018000084F8500038462CE72E2E2F4472697665F6
:1018100072732F53544D3332463478785F48414CBD
:101820005F4472697665722F5372632F73746D33E0
:1018300032663478785F68616C5F7370692E63001C
:1018400010B5401EB0F1807F01D3012010BD4FF0D4
:10185000E02460610F21601700F09CFF0020A06170
:1018600007202061002010BD70477047F8B501685F
:1018700004460868CA684B6910F00F0F4FF0000566
:1018800059D003F0010602F49077374365D0C107C1
:1018900005D0D10503D5216C41F001012164410738
:1018A00005D5D90703D0216C41F0020121648107DD
:1018B00005D5D90703D0216C41F00401216401074B
:1018C00007D502F02001314303D0216C41F008011B
:1018D0002164216C00293AD0800604D5900602D5F7
:1018E000204600F00EFC20684069216CC0F3801097
:1018F000090700D460B3204600F0DCFB2068406993
:10190000400621D52068143050E8001F21F0400126
:1019100040E80012002AF5D1A06BA8B16C4901651E
:10192000A06BFEF71DFE002811D0A06B016D01B069
:10193000BDE8F040084783060FD593060DD5204635
:10194000BDE8F84000F0DDBB2046FFF78EFFF8BD94
:101950002046FFF78AFF2564F8BD266B2023012E61
:1019600079D1C60677D5D60675D50868486800903F
:101970004869400640D5A16B086840680004000C27
:10198000EAD0A28D8242E7D9E085C869B0F5807FB0
:101990002DD020680C3050E8001F21F4807140E801
:1019A0000012002AF5D12068143050E8001F21F001
:1019B000010140E80012002AF5D12068143050E8F7
:1019C000001F21F0400140E80012002AF5D184F800
:1019D0003E30256320680C3050E8001F21F01001D4
:1019E00040E80012002AF5D1A06BFEF770FDA08D33
:1019F000E18D401A81B229E0A08DE18D401A81B2BB
:101A0000E08D0028A8D00029A6D020680C3050E82E
:101A1000002F22F4907240E80026002EF5D12068B5
:101A2000143050E8002F22F0010240E80026002E7A
:101A3000F5D184F83E30256320680C3050E8002F43
:101A400022F0100240E80023002BF5D12046FFF7DA
:101A50000BFFF8BDFFE705062BD5150629D594F831
:101A60003D002128F5D1A068B0F5805F01D1206943
:101A7000B0B1206A411C2162216800784860E08C86
:101A8000401E0004000CE084E3D12068C16821F00E
:101A90008001C1602068C16841F04001C160D8E7A1
:101AA000206A0088C0F308004860206A801C206219
:101AB000E5E74006CDD55006CBD5CA68204622F0D2
:101AC0004002CA6084F83D3000F05FF9C1E70000D1
:101AD000A520000870B5040020D0A0693549002871
:101AE000354A364B20681BD088420AD0904208D035
:101AF000984206D040F2731131A000F05BFEA0695D
:101B0000C8B1A069B0F5807F15D0B0F5007F12D0C4
:101B1000B0F5407F0FD04FF4BA7109E0012070BDDD
:101B2000884208D0904206D0984204D04FF4BC714D
:101B300023A000F03FFEA06838B1B0F5805F04D06C
:101B40004FF4BD711EA000F035FEE06938B1B0F56C
:101B5000004F04D040F27B1119A000F02BFE94F846
:101B60003D00002520B984F83C50204600F046F89E
:101B7000242084F83D002068C16821F40051C16030
:101B8000204600F01FFB2068016921F490410161AB
:101B90002068416921F02A0141612068C16841F44F
:101BA0000051C1602564202084F83D0084F83E0087
:101BB000002070BD001001400044004000140140AE
:101BC0002E2E2F447269766572732F53544D333223
:101BD000463478785F48414C5F4472697665722F6D
:101BE0005372632F73746D3332663478785F686133
:101BF0006C5F756172742E630000000010B586B0D2
:101C0000044614216846FEF7B9FB1849206888424B
:101C100029D117480021026842F0100202600068D2
:101C200000F01000059012481438026842F00102DA
:101C30000260006800F0010005904FF4C060009061
:101C40000220CDE90101032003900720049069469A
:101C50000848FEF7A9FC002211462520FEF722FFC6
:101C60002520FEF7EDFE06B010BD0000001001407B
:101C7000443802400000024090F83E30202B0ED144
:101C800059B152B190F83C30012B08D0012380F8B3
:101C90003C300023036300F065BB01207047022045
:101CA0007047000010B50068084988420DD1012234
:101CB00007490848FFF7E0FFBDE810404FF47A738A
:101CC00001220349034800F007B810BD001001408D
:101CD00014000020700000202DE9F843044690F81D
:101CE0003D001F4616460D4620284CD1C5B1BEB159
:101CF00094F83C00012846D0012084F83C004FF0C5
:101D00000008C4F84080212084F83D00FEF738FE2A
:101D1000A6848146E684A068B0F5805F03D004E025
:101D20000120BDE8F883206928B12E465FF0000548
:101D300084F83C800EE00026FAE78021204600F07F
:101D40002EFBA0B9AEB116F8010B21684860E08CFB
:101D5000401EE084E08C4B464FF0000200970028C4
:101D6000EBD14FF04001204600F019FB30B10320C9
:101D7000D7E735F8020BC0F30800E6E7202084F827
:101D80003D000020CDE70220CBE77047FEE70000D2
:101D90002DE9F04186B014216846FEF7EFFA264897
:101DA0000025016841F004010160016801F00401AF
:101DB0000591016841F080010160016801F0800136
:101DC0000591016841F002010160016801F0020122
:101DD0000591016841F0010101600068174F00F0B2
:101DE00001000590012207213846FEF793FDDFF838
:101DF0005080BE14002231464046FEF78BFD700035
:101E0000CDE900050124694602943846FEF7CCFB73
:101E10000720CDE9000469463846CDE90245FEF7C2
:101E2000C3FBCDE9006469464046CDE90245FEF7B3
:101E3000BBFB06B0BDE8F08130380240000802402C
:101E4000000402400F4810B50D4901604FF4827143
:101E5000416000218160C1604FF400720161C0E9FE
:101E60000512C1610162416281620A21C162FFF70C
:101E700073FA002803D0BDE81040FEF726BB10BD62
:101E800000380040180000200C4810B50A490160D5
:101E90004FF4E1314160002181600C22C160C0E952
:101EA00004128161C161FFF715FE002803D0BDE86F
:101EB0001040FEF70ABB10BD00100140700000206A
:101EC000FEE7FEE77047000001B582B04FF47A707C
:101ED0000090012301AA02A90248FFF79DFB9DF88B
:101EE00004000EBD1800002038B504461248134BFC
:101EF0000068B0FBF3F04FF47A73584300906068C9
:101F0000B0F5827F0DD10B46009200228021204641
:101F100000F016F870B1606D40F02000606503209D
:101F200038BD009830B1401E009020688068C043E2
:101F30000006F6D5002038BD0C00002000366E01EA
:101F40002DE9F8431E46914688460446089DFEF753
:101F500017FD401B351AFEF713FD0746254800689C
:101F6000C0F3CB30684338E0701C37D0FEF708FD73
:101F7000C01BA84203D215B1009860B32CE02068C2
:101F8000416821F0E00141606068B0F5827F0BD1CB
:101F9000A068B0F5004F02D0B0F5806F04D1206882
:101FA000016821F040010160A06AB0F5005F09D12D
:101FB0002068016821F4005101602068016841F443
:101FC00000510160012084F85100002084F8500085
:101FD0000320BDE8F8830025401E0090206881683A
:101FE00038EA010004D000214945BDD10020F0E7C6
:101FF0000121F9E70C0000207047FEF7C7BC000084
:1020000030B593B030216846FEF7B8F914210CA81A
:10201000FEF7B4F91D480025016841F080510160C8
:10202000006800F0805011901948016821F4404187
:1020300041F4004101600068022400F44040119026
:1020400001200090000401908001CDE9064008AA1B
:102050000420542182E813000B906846FEF728FF05
:1020600008B172B6FEE70CA90F2081E831004FF4E9
:102070008050CDE90F0502210CA8FEF7A3FD002832
:1020800001D072B6FEE713B030BD00004038024008
:10209000007000400248016841F47001016070471F
:1020A00088ED00E010B5806B0021C185C184FFF789
:1020B000DCFB10BD01680C3151E8002F22F4907256
:1020C00041E80023002BF5D10168143151E8002FBD
:1020D00022F0010241E80023002BF5D1016B012918
:1020E00009D101680C3151E8002F22F0100241E8BB
:1020F0000023002BF5D1202180F83E100021016340
:10210000704708B590F83E10222901D0022008BD82
:1021100082684FF480539A4201D1016921B1816AEA
:102120009A421BD04AB10AE00268816A5268C2F33F
:1021300008020A80816A891C08E0026972B102689B
:10214000526802F07F020A70816A491C8162C18D67
:10215000491E0904090CC18503D019E002685268C0
:10216000F1E70168CA6822F02002CA600168CA6803
:1021700022F48072CA6001684A6922F001024A6151
:10218000202180F83E10016B012903D0FFF78AFD62
:10219000002008BD0021016301680C3151E8002FC7
:1021A00022F0100241E80023002BF5D101680A68F3
:1021B000D20602D50A6849680091818DFFF754FB69
:1021C000E6E7000070B5044640685449884204D9E7
:1021D00040F6616152A000F0EDFAE06838B1B0F568
:1021E000005F04D040F662614DA000F0E3FA206980
:1021F00050B1B0F5806F07D0B0F5C06F04D040F695
:10220000636147A000F0D6FA60694FF6F3710842A7
:1022100000D120B940F6646141A000F0CBFA2068FB
:102220000169E26821F44051114301612169A0680C
:10223000E26908436169114322680843D16849F2A1
:102240000C6399430143D16020684169A26921F47C
:1022500040711143416141492068884202D04049A0
:10226000884202D1FEF7E4FD01E0FEF7D1FDE2690C
:102270000023192164253226B2F5004F626828D068
:10228000A0FB0101930F9200FDF7F4FF0146B0FBA4
:10229000F5F06FF01802504301EB800006EB0010E0
:1022A000B0FBF5F000F0F002B1FBF5F002EB00122C
:1022B000B1FBF5F06FF01803584301EB800006EB1B
:1022C0000010B0FBF5F000F00F00216810448860AA
:1022D00070BDA0FB010192185B41FDF7CBFF0146E9
:1022E000B0FBF5F00201B1FBF5F06FF018035843B5
:1022F00001EB800006EBC000B0FBF5F000F0F80049
:1023000002EB4002B1FBF5F0584301EB800006EB15
:10231000C000B0FBF5F000F00700D6E7A037A00042
:102320002E2E2F447269766572732F53544D3332BB
:10233000463478785F48414C5F4472697665722F05
:102340005372632F73746D3332663478785F6861CB
:102350006C5F756172742E63000000000010014014
:102360000014014081628285C2850021016422221D
:1023700080F83E2080F83C10016921B10168CA68EC
:1023800042F48072CA6001684A6942F001024A61FF
:102390000068C16841F02001C160002070472DE94C
:1023A000F041984617460E460446069D27E0681CF5
:1023B00025D02DB1FEF7E4FAA0EB0800A8421ED903
:1023C00020680C3050E8001F21F4D07140E8001262
:1023D000002AF5D12068143050E8001F21F00101D7
:1023E00040E80012002AF5D1202084F83D0084F84E
:1023F0003E00002084F83C000320BDE8F081206806
:10240000006836EA000004D00020B842CFD0002097
:10241000F3E70120F9E700000148FFF727BA0000C1
:1024200070000020FEE7000070B5040300F03EF9E4
:1024300000F0E6F8134E4FF480550022294630464E
:10244000FEF768FA2020FFF73FFD0F480088A0F54F
:102450006F41183902D1200EFFF736FDC4F3074053
:10246000FFF732FDC4F30720FFF72EFDE0B2FFF7C0
:102470002BFD012229463046FEF74CFABDE870409C
:1024800000F0BEB8000402401600002070B51648E7
:102490000068016841F040010160FF20FFF714FD72
:1024A0000122124D140321462846FEF733FA00F0AC
:1024B0005BF80F490880A0F56F41183913D103204C
:1024C00000F07AF8C0070ED1002221462846FEF718
:1024D00021FAB720FFF7F8FC21462846BDE87040F6
:1024E0000122FEF717BA70BD180000200004024058
:1024F000160000202DE9F041DFF8648015460C46F7
:1025000006464FF48057002239464046FEF702FA4D
:102510000320FFF7D9FC13480088A0F56F41183954
:1025200002D1200EFFF7D0FCC4F30740FFF7CCFC2C
:10253000C4F30720FFF7C8FCE0B2FFF7C5FC002496
:1025400005E0FF20FFF7C0FC3055641CA4B2AC428C
:10255000F7D339464046BDE8F0410122FEF7DAB92B
:10256000000402401600002070B5124E00244FF403
:102570008055224629463046FEF7CCF99020FFF7D9
:10258000A3FC0020FFF7A0FC0020FFF79DFC00202B
:10259000FFF79AFCFF20FFF797FC44EA0024FF2096
:1025A000FFF792FC0443012229463046FEF7B2F9B8
:1025B000204670BD0004024070B5012803D00228F7
:1025C00003D0032803D0052402E0352400E01524BD
:1025D0000A4E4FF48055002229463046FEF79AF9FC
:1025E0002046FFF771FCFF20FFF76EFC0446012236
:1025F00029463046FEF78EF9204670BD00040240A1
:1026000010B50120FFF7D8FFC007FAD110BD0000B8
:102610002DE9F05FC1F30B06DFF88C800F0BC6F5D8
:102620008054894682461546A24200D81446390392
:102630008B464FF480524046FFF75CFF002006E0D7
:10264000321818F80210FF2903D1401C80B2A042B2
:10265000F6D3A04222D23846FFF7E6FE002006E07D
:102660001AF800208319401C08F8032080B2A04209
:10267000F6D359464FF480524FEA080000F02CF888
:10268000A5420FD0281BA244A144002685B24FF4D6
:1026900080547F1CA542CAD82C46C8E7224649462A
:1026A0005046EBE7BDE8F09FB400002070B5094D3F
:1026B0004FF48054002221462846FEF72BF90620CD
:1026C000FFF702FC21462846BDE870400122FEF7D4
:1026D00021B90000000402402DE9F0410746C8B2CC
:1026E000C0F580740E461546A24200D814464FF439
:1026F000807822463146384600F00EF8A54208D0D0
:10270000281B2744264485B24446A542F1D82C46CE
:10271000EFE7BDE8F08100002DE9F04115460C46D9
:102720000646FFF7C3FFDFF864804FF480570022AE
:1027300039464046FEF7EEF80220FFF7C5FB144885
:102740000088A0F56F41183902D1200EFFF7BCFBBD
:10275000C4F30740FFF7B8FBC4F30720FFF7B4FB4F
:10276000E0B2FFF7B1FB002404E0305DFFF7ACFB03
:10277000641CA4B2AC42F8D3012239464046FEF7AD
:10278000C9F8BDE8F041FFF73BBF0000000402407C
:10279000160000200907090E002804DB00F1E020E4
:1027A00080F80014704700F00F0000F1E02080F87E
:1027B000141D70477047000003490A685206FCD593
:1027C000C2B24A60704700000010014088B0002487
:1027D000FEF7E4F8FFF714FCFFF7DAFAFFF754FB13
:1027E000FFF730FB3C480068016841F040010160A0
:1027F000FF20FFF769FBFFF749FEDFF8E0A04FF489
:10280000FA784EF6167706E04046FDF7BBFE01214A
:102810005046FEF74FF8FFF7A7FEB842F4D130A0BC
:10282000FDF7A0FD4FF480094FF4005857462DB135
:1028300026B941463846FEF711F848B141463846B8
:10284000FEF70CF8012812D0C5B1012E11D015E009
:102850000025012626A0FDF785FD1B22A9F16401B4
:102860002948FFF7D5FE29A0FDF77CFD06E00125EC
:10287000EBE741463846FDF7F1FF30B141463846B7
:10288000FDF7ECFF012819D019E000252E4625A000
:10289000FDF768FD1B22A9F164016846FFF72AFED7
:1028A00026A0FDF75FFD4FF47A731B2269462A4884
:1028B000FFF712FA29A0FDF755FD00E00125641C81
:1028C000A4B20A20FDF75EFE642CB0D10221384686
:1028D000FDF7F0FF0024AAE71800002000080240DE
:1028E000535049205265616479200D0A00000000B0
:1028F0005374617274205772697465205350492E65
:102900002E2E2E0D0A0000006E290008535049207B
:1029100057726974652046696E6973686564210D34
:102920000A00000053746172742052656164205380
:1029300050492E2E2E2E200D0A00000054686520CE
:1029400044617461205265616465642049733A2072
:1029500020200D0A00000000700000200D0A0D0A62
:10296000000000004FF04070E1EE100A7047424F47
:1029700052494E472D544543482053544D3332203D
:1029800053504920544553540000000000000000FB
:102990000001020304060708090000000001020309
:1029A00004000000C42900080000002018000000F6
:1029B000D0010008DC2900081800002000170000E2
:1029C000EC01000801000000100000000000000001
:0C29D0000024F40000000000000015EFDF
:040000050800019559
:00000001FF
