:020000040800F2
:100000001827002045020008C73200086D2C0008A0
:10001000C53200088D080008B54400080000000043
:1000200000000000000000000000000089400008FF
:100030008F08000800000000C93200088B4000084B
:100040005F0200085F0200085F0200085F0200080C
:100050005F0200085F0200085F0200085F020008FC
:100060005F0200085F0200085F0200085F020008EC
:100070005F0200085F0200085F0200085F020008DC
:100080005F0200085F0200085F0200080000000035
:100090000000000000000000000000005F020008F7
:1000A0005F0200085F0200085F0200085F020008AC
:1000B0005F0200085F0200085F0200085F0200089C
:1000C0005F0200085F0200085F0200085F0200088C
:1000D0005F020008A94400085F0200080000000059
:1000E0005F0200085F0200085F02000800000000D5
:1000F0000000000000000000000000005F02000897
:10010000000000005F0200085F0200085F020008B4
:1001100000000000000000000000000000000000DF
:100120005F0200085F0200085F0200085F0200082B
:100130005F02000800000000000000000000000056
:100140000000000000000000000000005F02000846
:100150005F0200085F0200085F0200085F020008FB
:100160005F0200085F0200080000000000000000BD
:10017000000000000000000000000000000000007F
:10018000000000005F020008000000000000000006
:100190005F02000800F002F800F044F80AA090E8BE
:1001A000000C82448344AAF10107DA4501D100F032
:1001B00039F8AFF2090EBAE80F0013F0010F18BFBB
:1001C000FB1A43F001031847A0970000C0970000F6
:1001D000103A24BF78C878C1FAD8520724BF30C873
:1001E00030C144BF04680C60704700000023002445
:1001F00000250026103A28BF78C1FBD8520728BF37
:1002000030C148BF0B607047642900F02381732917
:1002100000F09582002070471FB504F097FD1FBDC8
:1002200010B510BD00F0A6FA1146FFF7F5FF04F077
:100230002BFB00F0C4FA03B4FFF7F2FF03BC00F09D
:10024000CBFA00000948804709480047FEE7FEE76F
:10025000FEE7FEE7FEE7FEE7FEE7FEE7FEE7FEE776
:1002600004480549054A064B70470000254100082F
:10027000950100081817002018270020181F0020DB
:10028000181F002053EA020C00F069802DE9F04BA2
:100290004FF00006002B1FBFB3FA83F503FA05F4F5
:1002A00024FA05F65E4012BF1643B2FA82F502FA4E
:1002B00005F4C5F120051EBF22FA05FC44EA0C0432
:1002C000203556EA044C4FEA144418BF641C4FF022
:1002D00000084FF00009904271EB030C39D300295C
:1002E00019BFB1FA81F701FA07F6B0FA80F700FA00
:1002F00007F6C7F120071EBF20FA07FC46EA0C06E6
:100300002037B6FBF4FCA7EB0507103F07F01F0BE7
:10031000CBF120060CFA0BFB2CFA06F644BFB346D1
:100320000026202FA4BF5E464FF0000B5BEA060CB0
:1003300008BF4FF0010B19EB0B09ABFB027C48EB3C
:100340000608C01B06FB02CC0BFB03CC71EB0C01B7
:10035000C1E70B46024641464846BDE8F08B13B55F
:100360004FF000004FF00001AFF30080BDE81C40EB
:10037000704700000FB4044910B503AA029800F0BA
:10038000E3F910BC5DF814FB140000200FB41CB599
:10039000074B06AA7B4469460090059800F0A5F932
:1003A0000020694600F0B4F91CBC5DF814FB0000A5
:1003B0007903000070B5044685690068C10601D55F
:1003C000302600E02026C00707D070BDD4E9012107
:1003D00030469047206A401C20626D1EF6D570BDE5
:1003E00070B5044685690078C00707D170BDD4E9AF
:1003F000012120209047206A401C20626D1EF6D506
:1004000070BD70B50C460546012A05D028788006D7
:1004100000D5EA69002302E0012305E05B1C93425A
:1004200002D2E05C0028F9D1A869E618C01AA861D8
:10043000286A184428622846FFF7BCFF04E0D5E983
:10044000012114F8010B9047B442F8D32846FFF776
:10045000C7FF70BD2DE9F0410646002410687529DC
:10046000314616A510D0AFF30080002802DA4042D2
:1004700013A507E031688A0701D512A502E04907F4
:1004800004D511A5012401E0AFF3008000210A2268
:1004900006F1240709E0B0FBF2FCB0FBF2F302FB2B
:1004A0001C00303078541846491C0028F3D12346EC
:1004B0002A463046BDE8F04100F0B9B8000000001F
:1004C0002D0000002B000000200000002DE9F04767
:1004D0004FF0000A89460446C0F820A02046E16893
:1004E0008847002876D0252806D0D4E901219047F6
:1004F000206A401C2062F1E7E16820460025884719
:10050000C4F81CA006460027C4F818A02A2E09D05B
:10051000304604F097F938B304EB8708303EC8F84A
:10052000186019E059F8041B204604EB870291611A
:10053000E1688847012F064618D1E069002820DAD3
:1005400025F020051DE0D8F8180000EB800006EB30
:1005500040003038C8F818002046E1688847064651
:1005600004F070F90028EED1012F0AD02E2E08D108
:100570002046E16888477F1C0646022F45F020058B
:10058000C4DBA069002803DA404245F00105A06100
:10059000E80701D025F01005B6B1A6F141001928F1
:1005A00002D8203645F400654A463146204625608B
:1005B0004D46FFF729FE58B1012806D0ED1D25F064
:1005C000070000F1080989E704E005F1040985E75F
:1005D00030468AE7206ABDE8F0874FF0000200B598
:1005E000134694469646203922BFA0E80C50A0E856
:1005F0000C50B1F12001BFF4F7AF090728BFA0E804
:100600000C5048BF0CC05DF804EB890028BF40F8CF
:10061000042B08BF704748BF20F8022B11F0804F11
:1006200018BF00F8012B70477047704770472DE9DD
:10063000F0470D4699469246044600F124080168A9
:10064000880604D5E06921F01001216000E0012056
:10065000A84201DD471B00E00027A1697A1902EBDF
:100660000900081AA0612078C00602D42046FFF7CE
:10067000A1FE002608E0D4E901211AF806009047FF
:10068000206A401C761C20624E45F4DB2078C006B0
:100690000AD52046FFF78EFE06E0D4E9012130207E
:1006A0009047206A401C2062381EA7F10107F4DC45
:1006B00007E0D4E9012118F805009047206A401CA2
:1006C0002062281EA5F10105F3DC2046FFF788FE15
:1006D0002078000602D50220BDE8F0870120FBE764
:1006E00001694A1C02610878704700B58FB0CDE9F6
:1006F00001310021059105497944CDE903101146E6
:100700006846FFF7E3FE0FB000BD0000E5FFFFFF06
:100710000A6802F8010B0A60704710B5436913B10B
:10072000AFF3008001E0FFF76CFE012010BD1278EE
:1007300000F124010A7000224A700122EDE71168DD
:100740004FF0FF32E9E70000074B70B50D467B44E0
:10075000FFF7CBFF0446284600F008F810B14FF031
:10076000FF3070BD204670BD23410000007B00F0CB
:1007700080007047754600F02BF8AE4605006946CC
:10078000534620F00700854618B020B5FFF768FDF6
:10079000BDE820404FF000064FF000074FF0000882
:1007A0004FF0000B21F00701AC46ACE8C009ACE803
:1007B000C009ACE8C009ACE8C0098D46704710B567
:1007C0000446AFF300802046BDE81040FFF733BD7C
:1007D00000487047B416002001491820ABBEFEE760
:1007E00026000200704700000146014801F03AB9B6
:1007F000B000002010B5044801F046F9042801D0EB
:10080000012010BD002010BDB000002010B500F088
:1008100015F8012801D0012010BD074801F04AF960
:10082000044634B94FF40061034800F073FF00B18F
:100830000124204610BD0000B000002081B001203E
:1008400000909DF8000001B07047000038B500240A
:10085000009313460A460146034801F033FA00B1FB
:100860000124204638BD0000B000002038B5002427
:10087000009313460A460146034801F00FFB00B1FE
:100880000124204638BD0000B0000020FEE770477C
:1008900072B6FEE7002200F001B8000010B48446F2
:1008A00001200E4B5C7A002C16D1587A1C54587AD1
:1008B00003EB8000C0F804C0587A03F1080C00F87C
:1008C0000C20587A421C5A72303008703A20487016
:1008D0002F208870CC70002010BC7047A816002014
:1008E0002DE9F0410446876D00F028FA064694F899
:1008F00035000025022806D08020606584F8345039
:100900000120BDE8F0812068016821F01601016036
:100910002068416921F080014161206C08B9A06C18
:1009200020B12068016821F0080101602068016899
:1009300021F0010101600CE000F000FA801B0528A5
:1009400007D920206065032084F8350084F83450EE
:10095000D7E720680068C007EED194F85C103F200C
:100960008840B860012084F8350084F834500020B5
:10097000C7E790F83510022903D080214165012096
:100980007047052180F835100068016821F00101E9
:10099000016000207047000070B5044600F0CEF9F9
:1009A0000546601C02D004480078044400F0C6F9F3
:1009B000401BA042FAD370BD040000202DE9F84F7F
:1009C000DFF84CB20D460446584512D09148844297
:1009D0000FD0914884420CD09048844209D090486E
:1009E000844206D08F48844203D0AC218EA003F00D
:1009F00030FF28680104090C01D0000C03D0AD21A0
:100A000089A003F026FF6868F8B101281DD01128DD
:100A10001BD0022819D0122817D0B0F5881F14D087
:100A2000B0F5041F11D0B0F5441F0ED0B0F5901FE3
:100A30000BD0B0F5081F08D0B0F5481F05D003282B
:100A400003D0AE2178A003F004FF00264FF0010A86
:100A50004FF003090AFA06F02F6880460740474521
:100A60007DD1287900F00300012801D002281DD192
:100A7000E86848B1012807D0022805D0032803D030
:100A8000C02169A003F0E5FEA068720009FA02F136
:100A90008843E96891400143A1606068297920EAB0
:100AA0000800C1F30011B140014361602879C043DF
:100AB000800712D0A86838B1012805D0022803D0D9
:100AC000D12159A003F0C5FEE068720009FA02F1D5
:100AD0008843A96891400143E160287900F0030050
:100AE00002282AD12869D8B10C2819D0012817D09A
:100AF000022815D0032813D0042811D005280FD0C0
:100B000006280DD007280BD0082809D0092807D0BF
:100B10000A2805D00F2803D0DE2143A003F099FE58
:100B2000F00804EB8003186A7107CA0E0F21914088
:100B3000884329699140014319622068720009FACB
:100B400002F18843297901F00301914001432160BA
:100B5000686810F4403F55D04248016800E051E019
:100B600041F480410160006826F0030100F48040F8
:100B700000903D480A18D2F80808B1070B0F0F2162
:100B8000994088435C4501D1002114E021498C4201
:100B900001D101210FE020498C4201D102210AE05C
:100BA0001E498C4201D1032105E01D498C4201D12F
:100BB000042100E0072199400143C2F808182B499D
:100BC00008686A68B843D20200D5384308602749EC
:100BD000091D08686A68B843920200D53843086066
:100BE0002249091F08686A68B843920300D5384350
:100BF00008601E49083908686A68B843D20300D5FE
:100C000038430860761C102EFFF424AFBDE8F88F3F
:100C1000000002400004024000080240000C0240B4
:100C200000100240001C02402E2E2F44726976658F
:100C300072732F53544D3332463478785F48414CA9
:100C40005F4472697665722F5372632F73746D33CC
:100C500032663478785F68616C5F6770696F2E63A5
:100C6000000000004438024000300140083C0140D0
:100C700070B50C00054604D14FF4DB7105A003F0FC
:100C8000E8FD696924EA0100214040EA0140A861C9
:100C900070BD00002E2E2F447269766572732F533B
:100CA000544D3332463478785F48414C5F44726922
:100CB0007665722F5372632F73746D333266347896
:100CC000785F68616C5F6770696F2E630000000079
:100CD00070B515460C00064604D140F29D1108A0DF
:100CE00003F0B7FD45B1012D04D04FF4CF7104A03E
:100CF00003F0AFFDB46170BD2004B06170BD0000B1
:100D00002E2E2F447269766572732F53544D3332F1
:100D1000463478785F48414C5F4472697665722F3B
:100D20005372632F73746D3332663478785F686101
:100D30006C5F6770696F2E63000000000148806877
:100D400070470000040000200248816802781144C6
:100D500081607047040000200B4810B5016841F421
:100D600000710160016841F480610160016841F433
:100D700080710160032000F0C3F80F2000F006F836
:100D800000F024F8002010BD003C024070B50D4D6D
:100D900004464FF47A712878B1FBF0F00A490968EB
:100DA000B1FBF0F001F0BCFC48B9102C07D20022D6
:100DB0002146501E00F054F800206C6070BD0120E8
:100DC00070BD000004000020100000200A4808B593
:100DD000016841F480410160006800F480400090A7
:100DE0000548001F016841F080510160006800F073
:100DF0008050009008BD00004438024010B5040047
:100E000003D5BC2107A003F024FD002C09DB04F06E
:100E10001F01012088406109890001F1E021C1F82A
:100E2000000110BD2E2E2F447269766572732F5308
:100E3000544D3332463478785F48414C5F44726990
:100E40007665722F5372632F73746D333266347804
:100E5000785F68616C5F636F727465782E63000001
:100E600070B515460C460646102A03D3A82114A0D7
:100E700003F0EFFC102C03D3A92111A003F0E9FC2F
:100E80001E480068C0F30223C3F107022046042A6B
:100E900000D90422191D072901D2002300E0DB1E1E
:100EA000012404FA02F1491E014099409C40641E4D
:100EB0002C4021433046BDE8704003F0B3BC000035
:100EC0002E2E2F447269766572732F53544D333230
:100ED000463478785F48414C5F4472697665722F7A
:100EE0005372632F73746D3332663478785F686140
:100EF0006C5F636F727465782E6300000CED00E028
:100F000010B5044607280BD0062C09D0052C07D0B5
:100F1000042C05D0032C03D0902108A003F099FCE9
:100F2000154904F0070208684FF6FF03184040EA2D
:100F30000220124A1043086010BD00002E2E2F44DC
:100F40007269766572732F53544D33324634787814
:100F50005F48414C5F4472697665722F5372632F0C
:100F600073746D3332663478785F68616C5F636F79
:100F7000727465782E6300000CED00E00000FA0545
:100F80002DE9F0470E4604007DD02068401E0E2853
:100F900004D940F25A217AA003F05BFC96B1012EED
:100FA00010D0022E0ED0032E0CD0042E0AD0052E07
:100FB00008D0062E06D0072E04D040F25B2170A088
:100FC00003F047FCDFF8F081D8F80000F7B200F03A
:100FD0000700B04207D288F80070D8F8000000F08F
:100FE0000700B0424FD12068744D810729D54007D2
:100FF00003D5286840F4E05028602078000703D526
:10100000286840F460402860A068A0B1802812D011
:10101000902810D0A0280ED0B0280CD0C0280AD01C
:10102000D02808D0E02806D0F02804D040F27E2155
:1010300053A003F00EFC2868A16820F0F0000843DC
:1010400028602078C00743D0DFF870916068A9F16C
:10105000080988B1012822D0022824D0032822D0F0
:1010600040F2852146A003F0F4FB6068012816D009
:10107000022818D0032816D0D9F8000080070028CD
:1010800033DA286800E030E0616820F003000843AC
:101090002860FFF753FE814641F2883A11E0D9F803
:1010A00000008003EBE7D9F800008001E7E700BF0C
:1010B000FFF744FEA0EB0901514502D90320BDE82A
:1010C000F0872868616800F00C00B0EB810FEFD169
:1010D000D8F80010404601F00701B14207D9077067
:1010E000006800F00700B04201D00120E7E7207857
:1010F0004FF4805640074FF4A0574FF4C0584FF4B8
:10110000E05914D5E06860B1B0420AD0B84208D0C6
:10111000404506D0484504D040F2C32118A003F052
:1011200098FB2868E16820F4E050084328602078A4
:10113000000715D5206960B1B0420AD0B84208D086
:10114000404506D0484504D040F2CA210CA003F027
:1011500080FB2868216920F4604040EAC1002860D3
:1011600000F054F82968164AC1F30311515CC840D5
:101170001449086014480068FFF708FE00209EE745
:101180002E2E2F447269766572732F53544D33326D
:10119000463478785F48414C5F4472697665722FB7
:1011A0005372632F73746D3332663478785F68617D
:1011B0006C5F7263632E6300003C0240083802409B
:1011C000854D000810000020080000200448054953
:1011D00000680968044AC1F38221515CC840704725
:1011E0001000002008380240954D000804480549C9
:1011F00000680968044AC1F34231515CC840704735
:101200001000002008380240954D0008154810B520
:10121000006810F00C02144813D04110042A0FD0BB
:10122000082A0ED10F4C241F2268236802F03F02C7
:101230005B0207D52068C0F38810A0FB010106E01F
:10124000084610BD2168C1F38811A1FB00010023ED
:10125000FFF718F82168C1F30141491C4900B0FBB0
:10126000F1F010BD083802400024F4002DE9F84FD9
:1012700004007DD020680F2803D9E621F7A003F0F1
:10128000E8FA2078DFF80C94C007A9F1040555D0DE
:1012900060684FF480364FF4A02738B1B04205D0D3
:1012A000B84203D0EB21EDA003F0D3FAF948001DBA
:1012B0000168C1F38101012908D00068C0F38100F1
:1012C00002280AD1D9F80000400206D52868800318
:1012D00034D560680028CCD030E06068B04203D1DB
:1012E000286840F480300CE0B842286803D140F40C
:1012F00080202860F4E720F480302860286820F4FB
:1013000080202860606860B1FFF718FD064604E0A1
:10131000FFF714FD801B64287ED828688003F7D56A
:101320000CE0FFF70BFD064605E000BFFFF706FDEA
:10133000801B6428F0D828688003F7D42078DFF871
:10134000588380074FF0000A56D5E06830B1012875
:1013500004D040F21D11C1A003F07BFA20691F28C0
:1013600004D94FF48F71BDA003F073FAC94800E0AF
:1013700092E0001D016811F00C0F08D00068C0F366
:101380008100022810D1D9F8000040020CD428684E
:10139000800702D5E06801287ED12868216920F005
:1013A000F80040EAC10017E0E068B8B10120C8F8D1
:1013B0000000FFF7C3FC064605E000BFFFF7BEFCD8
:1013C000801B0228A8D828688007F7D5286820F055
:1013D000F801206941EAC00028600DE0C8F800A0CB
:1013E000FFF7ACFC064604E0FFF7A8FC801B0228D0
:1013F00092D828688007F7D4207800072ED5A54E0C
:10140000A64F60697036D0B1012808D04FF4AF7193
:1014100092A003F01EFA00E04BE1606978B1012070
:101420003860FFF78BFC074605E000BFFFF786FC3E
:10143000C01B0228C6D830688007F7D50EE0C7F871
:1014400000A0FFF77BFC074605E000BFFFF776FC36
:10145000C01B0228B6D830688007F7D42078400730
:1014600076D5A068002740B1012806D0052804D011
:101470004FF4C57179A003F0ECF9DFF818B20BF165
:101480003C0BDBF80000C0000DD4DBF8001041F08D
:101490008051CBF8001000E038E1DBF800000127B4
:1014A00000F0805000907E4E3068C00511D4306846
:1014B00040F480703060FFF741FC009006E000BF10
:1014C000FFF73CFC0099401A022891D83068C0050B
:1014D000F6D5704EA0686C3601280FD0052830680C
:1014E00010D020F001003060306820F0040030603F
:1014F000A068B8B1FFF722FC00900FE0306840F020
:101500000100F4E740F004003060F7E7FFF716FC55
:101510000099411A41F2883081428BD830688007A7
:10152000F4D50EE0FFF70AFC009007E0FFF706FC99
:101530000099411A41F2883081428BD83068800787
:10154000F4D42FB1DBF8001021F08051CBF800105B
:10155000A069002876D0012809D0022807D040F2DF
:10156000CD113EA003F075F9A0690028F2D04948DA
:10157000001D0068C0F381000228A0696DD0022818
:1015800005D0C8F860A0FFF7D9FB044694E0E069F5
:1015900038B1B0F5800F04D04FF4EB712FA003F0F9
:1015A00058F9206A3F2804D940F2D7112BA003F044
:1015B00050F9606A3238B0F5BF7F04D94FF4EC714E
:1015C00026A003F046F9A06A02280AD0042808D011
:1015D000062806D0082804D040F2D9111FA003F035
:1015E00038F9E06A801E0D2804D94FF4ED711BA074
:1015F00003F02FF94746C8F860A0FFF79FFB0646A7
:1016000005E000BFFFF79AFB801B022851D828682D
:101610008001F7D4D4E907010843A16A214A4908A7
:1016200002EB0141626A41EA8211084394F82C10EE
:1016300040EA0161C9F8001001203866FFF77EFB1F
:10164000044606E064E000BFFFF778FB001B0228B9
:101650002FD828688001F7D55AE031E02E2E2F448C
:101660007269766572732F53544D333246347878ED
:101670005F48414C5F4472697665722F5372632FE5
:1016800073746D3332663478785F68616C5F72634F
:10169000632E63000438024000004742800E474238
:1016A000007000400000FFFFFFF748FB001B02280E
:1016B00002D90320BDE8F88F28688001F4D427E020
:1016C0000128F7D0D9F80000E26900F480019142C6
:1016D0001CD1226A00F03F01914217D147F6C07138
:1016E000626A0140B1EB821F10D1A26A4FF0FF3352
:1016F00000F4403103EB5202B1EB024F06D194F8F3
:101700002C1000F07060B0EB016F01D00120D1E728
:101710000020CFE72DE9FE430D0004464FF0000600
:101720004FF480584FF4006708D0BD4206D04545BD
:1017300004D040F6C40142A003F08BF8032084F8E3
:101740003400606C03285BD0454559D000204FF031
:101750008068BD421FD18146009001900021206821
:1017600001F032FE800113D46946204602F046FAA9
:1017700007000DD10198400334D5B4F8500001049E
:10178000206801F030FF070002D10221206823E029
:10179000A06B384328E01DB1A06B40F0006023E04F
:1017A0008146009001900021206801F00DFE80012B
:1017B000EED46946204602F021FA0700E8D10198EC
:1017C000C0030FD5B4F850000104206801F00BFFEE
:1017D0000700DDD10021206801F051FF0700D7D1BB
:1017E0004F46D5E74746D3E7A063A06B224F4FF0A3
:1017F000010848B12068876384F8348001260EE030
:10180000A06B40F08050EFE7211DD4E9050C0EC914
:10181000CDE90050CDF808C0206801F005FE4FF476
:101820000071206801F012FF28B121688F63A16B5D
:101830000143A163012684F834803046BDE8FE836D
:101840002E2E2F447269766572732F53544D3332A6
:10185000463478785F48414C5F4472697665722FF0
:101860005372632F73746D3332663478785F6861B6
:101870006C5F73642E630000FF05400050F8742F06
:10188000120E0A700268120A4A8002784368120631
:1018900042EA13224A6002790A728268120E4A7280
:1018A0008268C368120242EA1362CA60C268C2F365
:1018B00003520A74C268C2F30B224A82007BC0F34F
:1018C000460008750120487500207047F0B5426E4B
:1018D000920F0A70426EC2F383624A70426EC2F384
:1018E00001628A70426E120CCA70B0F86420120A4B
:1018F0000A7190F864204A71826E120DCA80826E5D
:10190000C2F303420A72B0F86820C2F3C0324A72CE
:10191000B0F86820C2F380328A72B0F86820C2F34F
:101920004032CA72B0F86820C2F300320A7300264F
:101930004E73426C4FF40075012462B1012A3AD013
:10194000026847499163816B41F08051816380F85F
:1019500034400120F0BDB0F86820C36E9205120D2E
:1019600042EA93720A61C26EC2F3C2620A75C26E23
:10197000C2F302624A75C26EC2F342528A75C26EE7
:10198000C2F38242CA75C26EC2F3C2320A760A69D3
:10199000521C42650B7E03F007039B1C9A40426574
:1019A0000B7A03F00F0704FA07F383655B0A5A43C7
:1019B000C0E917250EE090F86820C36E9206920ADF
:1019C00042EA13420A610A69521C92024265C0E966
:1019D0001652056630F86C2FC2F3803201F8192FC9
:1019E0000288C2F3C6124A70027802F07F028A703F
:1019F0004268D20FCA704268C2F341720A714268EB
:101A0000C2F382624A714268C2F383528A714268A9
:101A1000C2F34052CA710E724268C2F300424A7267
:101A20008288C2F3C0328A728288C2F38032CA725C
:101A30008288C2F340320A738288C2F300324A734A
:101A40008288C2F381228A738288C2F30122CA7318
:101A50000079C0F3460008744C740020F0BD00000B
:101A6000FF054000426C0A60826C4A60C26C8A606A
:101A7000026DCA60426D0A61826D4A61C26D8A61FF
:101A8000006EC8610020704770B50446B0F8500081
:101A900000250104206801F0DAFE18B1A16B0143B2
:101AA000A16304E00021206801F08EFC0546C5F327
:101AB000432070BD70B5040054D02F49206888427F
:101AC00004D04FF4AC712DA002F0C3FE606838B1B1
:101AD000B0F5005F04D040F2591128A002F0B9FE21
:101AE000A06838B1B0F5806F04D04FF4AD7123A079
:101AF00002F0AFFEE06838B1B0F5007F04D040F2EC
:101B00005B111EA002F0A5FE206950B1B0F5006F78
:101B100007D0B0F5805F04D04FF4AE7117A002F08B
:101B200098FE606938B1B0F5804F04D040F25D1185
:101B300012A002F08EFEA069FF2804D94FF4AF7105
:101B40000EA002F086FE94F83400002518B925771F
:101B5000204600F06DF8032084F83400204600F0A1
:101B600029F808B1012070BDA5632563012084F820
:101B70003400002070BD0000002C01402E2E2F44A8
:101B80007269766572732F53544D333246347878C8
:101B90005F48414C5F4472697665722F5372632FC0
:101BA00073746D3332663478785F68616C5F736428
:101BB0002E630000FEB50025044676200095CDE991
:101BC000015029460B460A46206801F02DFC48BB0F
:101BD000154E46F8A05F206801F09CFC0125356099
:101BE0000220FEF7D9FE204602F0ECF830B100BF2B
:101BF00084F83450A16B0143A16313E0204602F046
:101C00006AF80028F4D14FF40071206801F01EFD3D
:101C1000002808D0226805499163A16B0143A163A4
:101C200084F834500120FEBD00802542FF054000AD
:101C3000F0B587B0044614216846FEF7CEFC1D4976
:101C40002068884233D11C480024016841F40061B7
:101C50000160006800F400600590174814380168BE
:101C600041F004010160016801F00401059101687F
:101C700041F0080101600068022500F008000590AD
:101C80004FF4F850CDE9000502AA03260C2782E89C
:101C9000D00069460948FEF791FE0420CDE9000511
:101CA00002AA694682E8D0000548FEF787FE07B021
:101CB000F0BD0000002C0140443802400008024002
:101CC000000C02402DE9F04F87B09B4616460D46AA
:101CD0000446FFF733F800903DB194F83400012832
:101CE00007D0A06B40F000500DE0A06B40F000600A
:101CF00009E00020A063E26D06EB0B01914204D9DC
:101D0000A06B40F00070A06386E0032184F83410DB
:101D10002168C862616C012900D076024FF0FF3162
:101D200001914FEA4B2102914FF0010803AA902143
:101D300002278146CDF8188082E8820201A9206836
:101D400001F0C4FABBF1010F05D9276331462068C1
:101D500001F0EEFC05E0C4F830803146206801F067
:101D600000FDDFF834A130B12268C2F838A0A16BC1
:101D70000143A1634CE0029E1EE0406B000413D5BA
:101D800096B10027206801F0C9FB05F8010B010A94
:101D900005F8011B010C05F8021B000E361F7F1C05
:101DA00005F8010C082FEDD3FEF7C8FF0099411A82
:101DB000109881421DD2E0B12068426B40F22A3176
:101DC0000A42DAD0416BC90509D5BBF1010F06D92A
:101DD000616C032903D001F06BFD0028C4D1206899
:101DE000416B09071AD5C0F838A0A06B40F0080075
:101DF00050E02168C1F838A0A06B40F00040A0631B
:101E000084F83480C4F83090032007B0BDE8F08F28
:101E100084F83480C4F830900120F6E7416B8907DC
:101E200005D5C0F838A0A06B40F0020032E0416B4D
:101E300089061BD5C0F838A0A06B40F0200029E02F
:101E400001F06CFB05F8010B010A05F8011B010C00
:101E500005F8021B000E05F8010C361FFEF76EFF99
:101E60000099411A109881420ED268B12068416BE6
:101E7000890201D5002EE3D1216840F23A508863EF
:101E800084F834800020C0E72168C1F838A0A06B36
:101E900040F00040A063BBE7FF0540002DE9F04F94
:101EA0008DB09B4616460D460446FEF747FF0A9046
:101EB0003DB194F83400012807D0A06B40F00050E9
:101EC0000DE0A06B40F0006009E00020A063E26D2F
:101ED00006EB0B01914204D9A06B40F00070A063A7
:101EE0007AE0032184F834102168C862616C01290A
:101EF00000D076024FF0FF3103914FEA4B2104915D
:101F00009021CDE905104FF00109CDE9070982467E
:101F100003A9206801F0DAF9BBF1010F06D92020EE
:101F200020633146206801F0DDFC05E010202063CD
:101F30003146206801F0EFFC5FEA000806D0216816
:101F400040488863A06B40EA080071E0049E27E0E7
:101F5000406B40041CD5DEB15FF0000715F8010BA3
:101F6000009015F8011B361F40EA0120009015F87B
:101F7000021B40EA0140009015F8011C40EA016094
:101F800000906946206801F029FB7F1C082FE5D3EB
:101F9000FEF7D4FE0A99411A1698814220D2F8B170
:101FA0002068416B40F21A321142D1D0416BC90511
:101FB00023D5BBF1010F20D9616C03291DD001F09D
:101FC00077FCD0B122681F499163A16B0143A163E3
:101FD00084F83490C4F830A001200DB0BDE8F08F33
:101FE000216818488863A06B40EA0800A06384F861
:101FF0003490C4F830A00320EFE72068416B090754
:1020000005D510498163A06B40F0080010E0416BDA
:10201000890705D50B498163A06B40F0020007E0FA
:10202000416BC90606D507498163A06B40F01000DB
:10203000A063CDE740F23A51816384F834900020E8
:10204000CBE70000FF05400070B504007ED0814959
:10205000206888420DD0804988420AD07F49884252
:1020600007D07F49884204D04FF4A0717DA002F0D0
:10207000F0FB60684FF4827630B1B04204D040F299
:10208000411178A002F0E5FBA06850B1B0F5806F77
:1020900007D0B0F5004F04D04FF4A17171A002F049
:1020A000D8FBE068B0F5006F05D020B140F24311D5
:1020B0006CA002F0CEFBA069B0F5007F08D038B16B
:1020C000B0F5802F04D04FF4A27166A002F0C1FBDE
:1020D000E06990B1082810D010280ED018280CD034
:1020E00020280AD0282808D0302806D0382804D044
:1020F00040F245115BA002F0ACFB206A30B18028B1
:1021000004D04FF4A37157A002F0A3FB606A00252E
:1021100048B3102806D040F2471152A002F099FBB4
:10212000606A00B3E069A0B1082812D0102810D06E
:1021300018280ED020280CD028280AD0302808D003
:10214000382806D040F2591146A000E009E002F01C
:1021500080FB25616561A56294F85100002830D0AC
:1021600034E0012070BD206930B1022804D04FF462
:10217000A5713CA002F06DFB606930B1012804D06C
:1021800040F24B1137A002F064FB6068B04216D1F8
:10219000E0690028DFD00828DDD01028DBD018281F
:1021A000D9D02028D7D02828D5D03028D3D0382847
:1021B000D1D040F24F112BA002F04BFBCBE7E561F1
:1021C000C9E784F85050204600F068F8022084F8EF
:1021D00051002068016821F040010160A088218938
:1021E00000F4827001F404410843A18901F4006104
:1021F0000843217C01F002010843217D01F0010127
:102200000843218B01F400710843217F01F038015C
:10221000084394F8201001F080010843218D01F457
:102220000051084321680860A069042101EA1040B8
:1022300094F8241001F010010843216848602068D8
:10224000C16921F40061C1616565012084F8510014
:10225000002070BD0030014000380040003C0040CC
:10226000003401402E2E2F447269766572732F530D
:10227000544D3332463478785F48414C5F4472693C
:102280007665722F5372632F73746D3332663478B0
:10229000785F68616C5F7370692E6300F0B587B01A
:1022A000044614216846FEF798F9224F226800265A
:1022B00021490223032405252048BA421AD11E4A87
:1022C0001432166846F480561660126802F4805282
:1022D00005920A6842F002020A60096802AA01F047
:1022E000020105912821CDE90013012182E8320085
:1022F00069461BE0124FBA421AD10F4A10321768D2
:1023000047F480471760126802F4804205920A6819
:1023100042F002020A60096801F0020105914FF4DF
:1023200060418DE84A006946CDE90345FEF746FB6A
:1023300007B0F0BD003001403038024000040240D8
:10234000003800402DE9F84F044680681D461646C7
:102350008946002738B1B0F5004F04D04FF44271E0
:1023600057A002F076FA94F8500001280ED04FF0F2
:10237000010B84F850B0FEF7E1FC804694F8510060
:102380004FF0000A012804D0022793E00220BDE8A4
:10239000F88FB9F1000F73D0002E71D0032084F8AC
:1023A0005100C4F854A0C4F83090A686E686C4F85C
:1023B00038A0A4F83CA0A4F83EA0C4F844A0C4F8F7
:1023C00040A0A068B0F5004F09D12068016821F055
:1023D000400101602068016841F48041016020688B
:1023E0000168490603D4016841F040010160E068DA
:1023F000B0F5006F606803D030B3012E24D041E007
:1024000008B1012E1CD1206B21680088C86006E04D
:1024100020688168890709D5216B0988C160206B14
:10242000801C2063E08E401EE08609E0FEF786FCFB
:10243000A0EB0800A84202D3681C01D031E07DB3B4
:10244000E08E0028E4D120E0206B2168007808733A
:1024500006E020688168890709D5216B0978017336
:10246000206B401C2063E08E401EE0860AE0FEF7F1
:1024700065FCA0EB0800A84203D3681C02D010E062
:1024800017E06DB1E08E0028E3D142462946204690
:1024900001F072FD08B120206065A06818B106E067
:1024A000FFE7032706E02068C16880680090606D40
:1024B00000B1012784F851B084F850A0384666E78F
:1024C0002E2E2F447269766572732F53544D33321A
:1024D000463478785F48414C5F4472697665722F64
:1024E0005372632F73746D3332663478785F68612A
:1024F0006C5F7370692E63002DE9F84F04460A9EE5
:1025000080681D4692468B464FF00109002720B196
:1025100040F27C4174A002F09CF994F8500001282C
:102520000ED0012084F85000FEF708FC804694F895
:102530005100616801280CD0B1F5827F07D102E01B
:102540000220BDE8F88FA16809B9042801D002274C
:10255000C2E0BBF1000F27D0BAF1000F24D01DB3A9
:1025600094F85100042802D0052084F8510000207E
:102570006065C4F838A0E587A587C4F830B0E58663
:10258000A5862064606420680168490603D4016858
:1025900041F040010160E068B0F5006F606805D06F
:1025A000F0B3012D46D07FE0012795E008B1012D61
:1025B00039D1206B21680088C860206B801C2063A3
:1025C000E08E401EE0862EE02068816889070FD5E6
:1025D000E18E69B1B9F1010F0AD1216B0988C1609F
:1025E000206B801C2063E08E401EE0864FF00009C7
:1025F00020688168C9070CD0E18F51B1C068A16B18
:102600000880A06B801CA063E08F401EE0874FF025
:102610000109FEF793FBA0EB0800B04203D300E0F2
:1026200008E0701C50D1E08E0028CDD1E08F00284A
:10263000CAD13FE0206B216800780873206B401CF2
:102640002063E08E401EE0862EE0206881688907C6
:102650000FD5E18E69B1B9F1010F0AD1216B09786B
:102660000173206B401C2063E08E401EE0864FF01B
:10267000000920688168C9070CD0E18F51B1C0689A
:10268000A16B0870A06B401CA063E08F401EE08728
:102690004FF00109FEF752FBA0EB0800B04202D355
:1026A000701C01D010E07EB1E08E0028CDD1E08F0B
:1026B0000028CAD142463146204601F05DFC28B1CF
:1026C00001272020606507E0032705E0A06818B90E
:1026D0002068C16880680090012084F851000020C3
:1026E00084F8500038462CE72E2E2F447269766508
:1026F00072732F53544D3332463478785F48414CCF
:102700005F4472697665722F5372632F73746D33F1
:1027100032663478785F68616C5F7370692E63002D
:1027200010B5401EB0F1807F01D3012010BD4FF0E5
:10273000E02460610F21601702F074F80020A061AE
:1027400007202061002010BD70477047F8B5016870
:1027500004460868CA684B6910F00F0F4FF0000577
:1027600059D003F0010602F49077374365D0C107D2
:1027700005D0D10503D5216C41F001012164410749
:1027800005D5D90703D0216C41F0020121648107EE
:1027900005D5D90703D0216C41F00401216401075C
:1027A00007D502F02001314303D0216C41F008012C
:1027B0002164216C00293AD0800604D5900602D508
:1027C000204601F0E6FC20684069216CC0F38010CF
:1027D000090700D460B3204601F0B4FC20684069CA
:1027E000400621D52068143050E8001F21F0400138
:1027F00040E80012002AF5D1A06BA8B16C49016530
:10280000A06BFEF7B6F8002811D0A06B016D01B0E7
:10281000BDE8F040084783060FD593060DD5204646
:10282000BDE8F84001F0B5BC2046FFF78EFFF8BDCB
:102830002046FFF78AFF2564F8BD266B2023012E72
:1028400079D1C60677D5D60675D508684868009050
:102850004869400640D5A16B086840680004000C38
:10286000EAD0A28D8242E7D9E085C869B0F5807FC1
:102870002DD020680C3050E8001F21F4807140E812
:102880000012002AF5D12068143050E8001F21F012
:10289000010140E80012002AF5D12068143050E808
:1028A000001F21F0400140E80012002AF5D184F811
:1028B0003E30256320680C3050E8001F21F01001E5
:1028C00040E80012002AF5D1A06BFEF709F8A08DB0
:1028D000E18D401A81B229E0A08DE18D401A81B2CC
:1028E000E08D0028A8D00029A6D020680C3050E840
:1028F000002F22F4907240E80026002EF5D12068C7
:10290000143050E8002F22F0010240E80026002E8B
:10291000F5D184F83E30256320680C3050E8002F54
:1029200022F0100240E80023002BF5D12046FFF7EB
:102930000BFFF8BDFFE705062BD5150629D594F842
:102940003D002128F5D1A068B0F5805F01D1206954
:10295000B0B1206A411C2162216800784860E08C97
:10296000401E0004000CE084E3D12068C16821F01F
:102970008001C1602068C16841F04001C160D8E7B2
:10298000206A0088C0F308004860206A801C20622A
:10299000E5E74006CDD55006CBD5CA68204622F0E3
:1029A0004002CA6084F83D3000F05FF9C1E70000E2
:1029B0003541000870B5040020D0A06935490028D1
:1029C000354A364B20681BD088420AD0904208D046
:1029D000984206D040F2731131A001F03AFFA0698D
:1029E000C8B1A069B0F5807F15D0B0F5007F12D0D6
:1029F000B0F5407F0FD04FF4BA7109E0012070BDEF
:102A0000884208D0904206D0984204D04FF4BC715E
:102A100023A001F01EFFA06838B1B0F5805F04D09C
:102A20004FF4BD711EA001F014FFE06938B1B0F59C
:102A3000004F04D040F27B1119A001F00AFF94F876
:102A40003D00002520B984F83C50204600F046F8AF
:102A5000242084F83D002068C16821F40051C16041
:102A6000204601F0F7FB2068016921F490410161E3
:102A70002068416921F02A0141612068C16841F460
:102A80000051C1602564202084F83D0084F83E0098
:102A9000002070BD001001400044004000140140BF
:102AA0002E2E2F447269766572732F53544D333234
:102AB000463478785F48414C5F4472697665722F7E
:102AC0005372632F73746D3332663478785F686144
:102AD0006C5F756172742E630000000010B586B0E3
:102AE000044614216846FDF778FD1849206888429D
:102AF00029D117480021026842F0100202600068E4
:102B000000F01000059012481438026842F00102EB
:102B10000260006800F0010005904FF4C060009072
:102B20000220CDE9010103200390072004906946AB
:102B30000848FDF743FF002211462520FEF790F9D3
:102B40002520FEF75BF906B010BD00000010014023
:102B5000443802400000024090F83E30202B0ED155
:102B600059B152B190F83C30012B08D0012380F8C4
:102B70003C300023036301F03DBC0120704702207C
:102B80007047000010B50068084988420DD1012245
:102B900007490848FFF7E0FFBDE810404FF47A739B
:102BA00001220349034800F007B810BD001001409E
:102BB00018000020E40100202DE9F843044690F8B5
:102BC0003D001F4616460D4620284CD1C5B1BEB16A
:102BD00094F83C00012846D0012084F83C004FF0D6
:102BE0000008C4F84080212084F83D00FEF7A6F8D4
:102BF000A6848146E684A068B0F5805F03D004E037
:102C00000120BDE8F883206928B12E465FF0000559
:102C100084F83C800EE00026FAE78021204601F08F
:102C200006FCA0B9AEB116F8010B21684860E08C33
:102C3000401EE084E08C4B464FF0000200970028D5
:102C4000EBD14FF04001204601F0F1FB30B1032001
:102C5000D7E735F8020BC0F30800E6E7202084F838
:102C60003D000020CDE70220CBE77047FEE72DE9CD
:102C7000F04107461C4615460E462A2000F008FA89
:102C80002837B8B200F020FA2835A8B200F01CFAB4
:102C90002B2000F0FDF93536B0B200F015FA3534CE
:102CA000A0B200F011FABDE8F0412C2000F0F0B91C
:102CB00008B5002100908723F022084600F002F8B2
:102CC00008BD00002DE9F047141A5F1A641C7F1C30
:102CD0007C43002564004FF49068089E444502D967
:102CE000A4F590654446FFF7C2FF370ADFF84C9021
:102CF000DFF84CA0F6B20020494606E001F810705B
:102D000001EB4002401C567080B2B0EB540FF5D37B
:102D1000012210215046FDF7DBFFA1B2074800F069
:102D2000F1F8002D07D0454502D9A5F59065E2E7F9
:102D30002C460025DFE7BDE8F087000028020020D0
:102D40000004024010B56E4C012280212046FDF7A0
:102D5000BFFF7820FDF720FE002240212046FDF72E
:102D6000B7FF7820FDF718FE012240212046FDF72D
:102D7000AFFF7820FDF710FE112000F089F97820D0
:102D8000FDF70AFE362000F083F9702000F08EF97E
:102D90003A2000F07DF9052000F088F9B22000F01B
:102DA00077F90C2000F082F90C2000F07FF9002068
:102DB00000F07CF9332000F079F9332000F076F947
:102DC000B72000F065F9352000F070F9BB2000F065
:102DD0005FF9192000F06AF9C02000F059F92C20A1
:102DE00000F064F9C22000F053F9012000F05EF910
:102DF000C32000F04DF9122000F058F9C42000F073
:102E000047F9202000F052F9C62000F041F90F20C8
:102E100000F04CF9D02000F03BF9A42000F046F976
:102E2000A12000F043F9E02000F032F9D02000F0BA
:102E30003DF9042000F03AF90D2000F037F9112097
:102E400000F034F9132000F031F92B2000F02EF9B6
:102E50003F2000F02BF9542000F028F94C2000F01E
:102E600025F9182000F022F90D2000F01FF90B20A1
:102E700000F01CF91F2000F019F9232000F016F9CA
:102E8000E12000F005F9D02000F010F9042000F056
:102E90000DF90C2000F00AF9112000F007F91320B9
:102EA00000F004F92C2000F001F93F2000F0FEF8BA
:102EB000442000F0FBF8512000F0F8F82F2000F03B
:102EC000F5F81F2000F0F2F81F2000F0EFF82020A6
:102ED00000F0ECF8232000F0E9F8212000F0D8F809
:102EE000292000F0D5F800218623EF220846FFF7BD
:102EF000BEFE20460022BDE810408021FDF7E8BE5E
:102F00000004024001F01EB82DE9F05F203AD7B26C
:102F10001C46F022A2EB540282425BD3C4F187022A
:102F20008A4257DB0A19521E93B200EB5402521E1A
:102F300092B2FFF79CFE3F4E102C1AD0202C18D0D6
:102F40000C2C49D0182C45D13B4907EB47004FF0DA
:102F5000300A002401EB00194FEA060819F8046052
:102F6000E00756D004270025300654D5B8F80000F5
:102F700053E0600700D0012000EBD400610810FB93
:102F800001F000F0FF082D48002500EB071A00F5BE
:102F9000BE5000EBC71BB1461AE0102C09D0202C04
:102FA00018D11BF805600027300605D5B9F80000D8
:102FB00004E01AF80560F6E7B9F8020000F084F8BA
:102FC00070067F1C060EFFB2082FEDD36D1CEDB20C
:102FD0004545E2D3BDE8F09F194807EB47014FF0A4
:102FE0000C09002400EB8108002518F8047038064D
:102FF00001D5308800E0708800F066F878066D1C16
:10300000070EEDB2062DF2D3641CE4B24C45EBD3AF
:10301000E0E70827A7E7B8F8020000F055F87006C7
:103020006D1C060EEDB2BD429ED3641CE4B2544545
:1030300094D3CFE71A00002001580008115200086D
:103040009D4D00082DE9F047044600F0FF091019D6
:103050000D46DDE908A61FFA80F8581987B210E07E
:10306000444503D305EB0A004C4685B2BD420DD260
:10307000534629462046FFF747FF04EB5A0084B227
:10308000761C3278A2F120005E28E9D9BDE8F087ED
:1030900001B5002210210448FDF71AFE01216846FF
:1030A000FFF730FF08BD00000004024001B5012217
:1030B00010210448FDF70CFE01216846FFF722FFAE
:1030C00008BD00000004024008B500210091010A7B
:1030D0008DF800108DF80100012210210348FDF742
:1030E000F7FD02216846FFF70DFF08BD000402400E
:1030F00010B503490348FDF7CDFB0349087010BD27
:10310000220000205499000821000020F0B587B06B
:1031100014216846FDF761FA2D480025016841F049
:1031200004010160016801F004010591016841F0AA
:1031300080010160016801F080010591016841F0A2
:1031400002010160016801F002010591016841F08E
:1031500001010160016801F001010591016841F080
:103160000801016000681B4E00F008000590012274
:1031700007213046FDF7ACFD174F012211033846F9
:10318000FDF7A6FD0022D0213846FDF7A1FD4FF442
:103190000050CDE900050124694602943046FDF750
:1031A0000DFC0720CDE9000469463046CDE9024513
:1031B000FDF704FC41F2D000CDE900040320CDE985
:1031C000024069463846FDF7F9FB07B0F0BD000044
:1031D0003038024000080240000402400648054919
:1031E0000160002141608160C16001614161022193
:1031F00081617047002C0140B0000020114810B5DB
:103200000F4901604FF4827141604FF400418160C9
:1032100000210222C0E903120122426152028261AE
:103220001022C0E90721416281620A21C162FEF7D2
:103230000BFF002803D0BDE81040FDF729BB10BDEF
:1032400000300140340100200F4810B50D490160E5
:103250004FF48271416000218160C1604FF40072BF
:103260000161C0E90512C1610162416281620A2106
:10327000C162FEF7E9FE002803D0BDE81040FDF76B
:1032800007BB10BD003800408C0100200C4810B571
:103290000A4901604FF4E1314160002181600C2254
:1032A000C160C0E904128161C161FFF783FB00289E
:1032B00003D0BDE81040FDF7EBBA10BD001001408F
:1032C000E4010020FEE7FEE77047000070B5054608
:1032D00048680C46B0F1007F04D34FF4D27129A0A6
:1032E00001F0B7FAA26802B3102A1ED0202A1CD01F
:1032F000302A1AD0402A18D0502A16D0602A14D06A
:10330000702A12D0802A10D0902A0ED0A02A0CD079
:10331000B02A0AD0C02A08D0D02A06D0E02A04D089
:1033200040F2A51117A001F094FAE06830B102282C
:1033300004D04FF4D37113A001F08BFA206930B19F
:10334000042804D040F2A7110EA001F082FA6069AF
:1033500030B1012804D04FF4D4710AA001F079FAF9
:10336000206868626068A862D4E902010843D4E971
:10337000041211430843E96A21F0F7010143E962AD
:10338000002070BD2E2E2F447269766572732F5304
:10339000544D3332463478785F48414C5F4472690B
:1033A0007665722F5372632F73746D33326634787F
:1033B000785F6C6C5F73646D6D632E63000000005A
:1033C000006800F00300704770B50C0005460AD095
:1033D000042C08D0082C06D00C2C04D040F28F11FD
:1033E00002A001F036FA2819406970BD2E2E2F4434
:1033F0007269766572732F53544D33324634787840
:103400005F48414C5F4472697665722F5372632F37
:1034100073746D3332663478785F6C6C5F73646D8F
:103420006D632E63000000002DE9F047804608A878
:103430000C4690E84006274917461D46884503D0AC
:10344000D42125A001F005FA34B1B4F5005F03D012
:10345000D52121A001F0FDF937B1B7F5806F03D078
:10346000D6211DA001F0F5F935B1B5F5007F03D0E7
:10347000D72119A001F0EDF94EB1B6F5006F06D0D5
:10348000B6F5805F03D0D82113A001F0E2F9B9F1BD
:10349000000F06D0B9F5804F03D0D9210EA001F05E
:1034A000D8F9BAF1FF0F03D9DA210BA001F0D1F955
:1034B0003C4335432C4344EA0904D8F8040044EA69
:1034C0000A0447F6FF6188432043C8F8040000203F
:1034D000BDE8F087002C01402E2E2F4472697665DE
:1034E00072732F53544D3332463478785F48414CD1
:1034F0005F4472697665722F5372632F73746D33F4
:1035000032663478785F6C6C5F73646D6D632E63C4
:10351000000000000321016000207047D0F8800007
:103520007047000070B5054648680C46402804D333
:103530004FF4B0711AA001F08CF9A06840B1402896
:1035400006D0C02804D040F2611115A001F081F925
:10355000E06850B1B0F5807F07D0B0F5007F04D0AF
:103560004FF4B1710EA001F074F9206938B1B0F5D3
:10357000806F04D040F2631109A001F06AF920685D
:10358000A860D4E901100143D4E9030210430143C8
:10359000E8686FF30B000843E860002070BD00008E
:1035A0002E2E2F447269766572732F53544D333229
:1035B000463478785F48414C5F4472697665722F73
:1035C0005372632F73746D3332663478785F6C6C2A
:1035D0005F73646D6D632E63000000000968C0F8BE
:1035E00080100020704710B586B004463720CDE922
:1035F000001040200290002003904FF4806004905F
:1036000069462046FFF78EFF41F288323721204677
:1036100000F09AF906B010BD10B504460A4886B00D
:1036200001432920CDE900104020029000200390A2
:103630004FF48060049069462046FFF773FF2046F0
:1036400000F03AFA06B010BD0000108010B586B048
:1036500004461020CDE90010402002900020039085
:103660004FF48060049069462046FFF75BFF41F20B
:1036700088321021204600F067F906B010BD10B561
:1036800086B004460620CDE90010402002900020BC
:1036900003904FF48060049069462046FFF742FF94
:1036A00041F288320621204600F04EF906B010BDE6
:1036B00030B585B000240546009401944FF4806035
:1036C0000294CDE9034069462846FFF72BFF0B48DB
:1036D0004FF4FA510068B0FBF1F041F288314843F1
:1036E000401E03D24FF0004005B030BD696B0906A3
:1036F000F6D5C520A8632046F6E70000100000209C
:1037000010B586B004464FF4D570009008200190A3
:1037100040200290002003904FF48060049069469E
:103720002046FFF7FFFE204600F02CFA06B010BD41
:1037300010B586B004461220CDE90010402002905A
:10374000002003904FF48060049069462046FFF704
:10375000E9FE41F288321221204600F0F5F806B069
:1037600010BD10B586B004461120CDE900104020F0
:103770000290002003904FF4806004906946204638
:10378000FFF7D0FE41F288321121204600F0DCF82C
:1037900006B010BD10B586B004460720CDE9002064
:1037A00040200290002003904FF48060049069460E
:1037B0002046FFF7B7FE41F288320721204600F08D
:1037C000C3F806B010BD10B586B004460021022033
:1037D000CDE90010C020CDE902014FF480600490D3
:1037E00069462046FFF79EFE204600F03DF906B0F0
:1037F00010BD10B586B004460920CDE90010C020E8
:103800000290002003904FF48060049069462046A7
:10381000FFF788FE204600F027F906B010BD10B56E
:1038200086B0044600213320CDE900104020CDE9C8
:1038300002010001049069462046FFF773FE41F241
:1038400088323321204600F07FF806B010BD10B555
:1038500086B004460D20CDE90010402002900020E3
:1038600003904FF48060049069462046FFF75AFEAB
:1038700041F288320D21204600F066F806B010BDF6
:1038800030B585B00C46054600210320CDE9001077
:103890004020CDE902010001049069462846FFF767
:1038A00041FE22460321284600F028F905B030BD2C
:1038B00010B586B0044600210C20CDE90010402050
:1038C000CDE902010001049069462046FFF72AFE77
:1038D000034A0C21204600F037F806B010BD000066
:1038E00000E1F50510B586B004461920CDE90010B9
:1038F00040200290002003904FF4806004906946BD
:103900002046FFF70FFE41F288321921204600F0D1
:103910001BF806B010BD10B586B004461820CDE9DE
:10392000001040200290002003904FF4806004902B
:1039300069462046FFF7F6FD41F2883218212046FD
:1039400000F002F806B010BD454B10B51B684FF4EF
:10395000FA54B3FBF4F353435B1E02D24FF0004022
:1039600010BD426B12F0450FF6D01205F4D4426B35
:10397000520703D504218163084610BD426BD2076C
:1039800002D00121816305E0C52282630269D2B2BF
:103990008A4201D0012010BD0021FFF715FD3149F9
:1039A000084201D1002010BD002802DA4FF000705B
:1039B00010BD410001D5402010BD810001D58020FF
:1039C00010BDC10002D54FF4807010BD010102D5B9
:1039D0004FF4007010BD410102D54FF4806010BD5E
:1039E000C10102D54FF4006010BD010202D54FF4B1
:1039F000805010BD410202D54FF4005010BD81022D
:103A000002D54FF4804010BDC10202D54FF40040F2
:103A100010BD410302D54FF4003010BD810302D523
:103A20004FF4802010BDC10302D54FF4002010BD1B
:103A3000010402D54FF4801010BD410402D54FF4AB
:103A4000001010BD810402D54FF4800010BD0007A6
:103A500002D54FF4000010BD4FF4803010BD0000BF
:103A60001000002008E0FFFD12494FF4FA520968E7
:103A7000B1FBF2F141F288325143491E02D24FF0BC
:103A800000407047426B12F0450FF6D01205F4D497
:103A9000416B490703D50421816308467047416B98
:103AA000C90703D00121816308467047C52181639E
:103AB00000207047100000200F494FF4FA520968A7
:103AC000B1FBF2F141F288325143491E02D24FF06C
:103AD00000407047426B12F0450FF6D01205F4D447
:103AE000416B490703D50421816308467047C5210E
:103AF00081630020704700001000002070B514465C
:103B00001F4A4FF4FA531268B2FBF3F341F28832C2
:103B100053435B1E02D24FF0004070BD426B12F067
:103B2000450FF6D01205F4D4426B520703D5042199
:103B30008163084670BD426BD20702D001218163C8
:103B400003E00269D2B28A4201D0012070BDC521D2
:103B500081630021FFF738FC10F4604F04D041046A
:103B600006D54FF4005070BD000C2080002070BDC1
:103B7000000402D54FF4805070BD4FF4803070BD0A
:103B80001000002014494FF4FA520968B1FBF2F119
:103B900041F288325143491E02D24FF00040704733
:103BA000426B12F0450FF6D01205F4D4416B490771
:103BB00003D50421816308467047416BC90703D0D0
:103BC0000121816308467047416B490601D54021B8
:103BD00081630020704700001000002010B5064CE3
:103BE00001202070FCF706FE18B9207820F00100B3
:103BF0002070207810BD0000200000202DE9F04743
:103C000088B00D460446FDF799F8002682460096D6
:103C10000196374608212068FFF718FD002829D1B2
:103C2000B4F8500001042068FFF7DDFC002821D122
:103C3000401E4FF00808CDE9020830204FF002097D
:103C4000CDE904090120CDE9067002A92068FFF73B
:103C50003DFB2068FFF7E3FD00280BD16F4620688D
:103C6000416B11F02A0F08D0416B09071AD5C0F833
:103C70003880082008B0BDE8F087416B890205D57F
:103C8000FFF74CFC47F82600761C02E0416B8904E4
:103C9000EAD5FDF753F8A0EB0A00401CDFD14FF046
:103CA0000040E7E7416B890703D5C0F83890022050
:103CB000E0E7416B890603D5202181630846D9E7F7
:103CC00040F23A518163019800BA2860009800BA26
:103CD00068600020CEE710B590B004460120ADF832
:103CE00038002068FFF76CFB002854D0606C032874
:103CF00042D02068FFF767FD00284AD100212068E4
:103D0000FFF762FB606704212068FFF75DFBA06797
:103D100008212068FFF758FBE0670C212068FFF7B7
:103D200053FBC4F88000606C032825D00EA92068DE
:103D3000FFF7A6FD00282CD1606C03281CD0BDF82D
:103D40003800206501042068FFF753FD002820D1CA
:103D500000212068FFF738FB606604212068FFF728
:103D600033FBA06608212068FFF72EFBE0660C21DC
:103D70002068FFF729FB206704212068FFF724FB58
:103D8000000DE06403A92046FDF7A0FD30B14FF01F
:103D9000805010B010BD4FF08060FAE7B4F85000CA
:103DA000002302042068FFF7F5FC0028F1D104F19C
:103DB000100007C88DE8070094E80F00FFF734FBF8
:103DC0000020E6E72DE9F84F002604460096354628
:103DD000B0460068FFF76CFC002827D12068FFF789
:103DE0008FFC4FF0805B4FF001094FF6FF7748B131
:103DF000A6642068FFF75CFC002817D1A06C01289E
:103E000002D020E0C4F8489000212068FFF7EBFBC7
:103E100058B918E000212068FFF7E5FB002805D11C
:103E200051462068FFF7F8FB10B15846BDE8F88FFF
:103E300000212068FFF7C8FA05464FEAD0780098BD
:103E4000401C009002E0DFF82CA00098B84202D29B
:103E5000B8F1000FDED00098B84202D34FF0807066
:103E6000E4E7680002D5C4F8449000E066640020EE
:103E7000DCE70000000010C170B50546054C0120CC
:103E80002070FCF7C3FC18B92846FFF7A7FE207086
:103E9000207870BD2000002010B588B01446174867
:103EA000007810F0010F02D008B0032010BD41B11E
:103EB000012909D002290FD0032915D0042008B008
:103EC00010BD002008B010BD6846FCF78DFC0698B8
:103ED0002060002008B010BD6846FCF785FC0798FC
:103EE0002080002008B010BD6846FCF77DFC0798D4
:103EF000400A2060002008B010BD00002000002013
:103F0000084610B511461A460124A31EFCF79EFC74
:103F100020B9FCF76FFC0028FBD10024204610BD1F
:103F2000FFF75CBE084610B511461A460124A31ED1
:103F3000FCF79CFC20B9FCF75DFC0028FBD10024B9
:103F4000204610BD0A4601464FF47A730148FEF739
:103F5000F9B900003401002001B582B04FF47A7045
:103F60000090012301AA02A90248FEF7C5FA9DF8B4
:103F700004000EBD8C01002038B504461248134BD6
:103F80000068B0FBF3F04FF47A7358430090606818
:103F9000B0F5827F0DD10B46009200228021204691
:103FA00000F016F870B1606D40F0200060650320ED
:103FB00038BD009830B1401E009020688068C04332
:103FC0000006F6D5002038BD1000002000366E0136
:103FD0002DE9F8431E46914688460446089DFCF7A5
:103FE000ADFE401B351AFCF7A9FE074625480068C0
:103FF000C0F3CB30684338E0701C37D0FCF79EFE2E
:10400000C01BA84203D215B1009860B32CE0206811
:10401000416821F0E00141606068B0F5827F0BD11A
:10402000A068B0F5004F02D0B0F5806F04D12068D1
:10403000016821F040010160A06AB0F5005F09D17C
:104040002068016821F4005101602068016841F492
:1040500000510160012084F85100002084F85000D4
:104060000320BDE8F8830025401E00902068816889
:1040700038EA010004D000214945BDD10020F0E715
:104080000121F9E7100000207047FCF75DBE000039
:1040900030B593B030216846FCF79FFA14210CA884
:1040A000FCF79BFA1D480025016841F08051016032
:1040B000006800F0805011901948016821F44041D7
:1040C00041F4004101600068022400F44040119076
:1040D00001200090000401908001CDE9064008AA6B
:1040E0000420542182E813000B906846FDF7BEF8C7
:1040F00008B172B6FEE70CA90F2081E831004FF439
:104100008050CDE90F0502210CA8FCF739FF0028EB
:1041100001D072B6FEE713B030BD00004038024057
:10412000007000400248016841F47001016070476E
:1041300088ED00E010B5806B0021C185C184FEF7D9
:1041400004FB10BD01680C3151E8002F22F490727D
:1041500041E80023002BF5D10168143151E8002F0C
:1041600022F0010241E80023002BF5D1016B012967
:1041700009D101680C3151E8002F22F0100241E80A
:104180000023002BF5D1202180F83E10002101638F
:10419000704708B590F83E10222901D0022008BDD2
:1041A00082684FF480539A4201D1016921B1816A3A
:1041B0009A421BD04AB10AE00268816A5268C2F38F
:1041C00008020A80816A891C08E0026972B10268EB
:1041D000526802F07F020A70816A491C8162C18DB7
:1041E000491E0904090CC18503D019E00268526810
:1041F000F1E70168CA6822F02002CA600168CA6853
:1042000022F48072CA6001684A6922F001024A61A0
:10421000202180F83E10016B012903D0FEF7B2FC8B
:10422000002008BD0021016301680C3151E8002F16
:1042300022F0100241E80023002BF5D101680A6842
:10424000D20602D50A6849680091818DFEF77CFA92
:10425000E6E7000070B5044640685449884204D936
:1042600040F6616152A000F0F4FAE06838B1B0F5B0
:10427000005F04D040F662614DA000F0EAFA2069C8
:1042800050B1B0F5806F07D0B0F5C06F04D040F6E4
:10429000636147A000F0DDFA60694FF6F3710842F0
:1042A00000D120B940F6646141A000F0D2FA206844
:1042B0000169E26821F44051114301612169A0685C
:1042C000E26908436169114322680843D16849F2F1
:1042D0000C6399430143D16020684169A26921F4CC
:1042E00040711143416141492068884202D04049F0
:1042F000884202D1FCF77AFF01E0FCF767FFE26930
:104300000023192164253226B2F5004F626828D0B7
:10431000A0FB0101930F9200FBF7B4FF0146B0FB35
:10432000F5F06FF01802504301EB800006EB00102F
:10433000B0FBF5F000F0F002B1FBF5F002EB00127B
:10434000B1FBF5F06FF01803584301EB800006EB6A
:104350000010B0FBF5F000F00F00216810448860F9
:1043600070BDA0FB010192185B41FBF78BFF01467A
:10437000B0FBF5F00201B1FBF5F06FF01803584304
:1043800001EB800006EBC000B0FBF5F000F0F80098
:1043900002EB4002B1FBF5F0584301EB800006EB65
:1043A000C000B0FBF5F000F00700D6E7A037A00092
:1043B0002E2E2F447269766572732F53544D33320B
:1043C000463478785F48414C5F4472697665722F55
:1043D0005372632F73746D3332663478785F68611B
:1043E0006C5F756172742E63000000000010014064
:1043F0000014014081628285C2850021016422226D
:1044000080F83E2080F83C10016921B10168CA683B
:1044100042F48072CA6001684A6942F001024A614E
:104420000068C16841F02001C160002070472DE99B
:10443000F041984617460E460446069D27E0681C44
:1044400025D02DB1FCF77AFCA0EB0800A8421ED9BC
:1044500020680C3050E8001F21F4D07140E80012B1
:10446000002AF5D12068143050E8001F21F0010126
:1044700040E80012002AF5D1202084F83D0084F89D
:104480003E00002084F83C000320BDE8F081206855
:10449000006836EA000004D00020B842CFD00020E7
:1044A000F3E70120F9E700000148FEF74FB90000EB
:1044B000E4010020FEE7000070B5040300F03EF9BF
:1044C00000F0E6F8134E4FF480550022294630469E
:1044D000FCF7FEFB2020FFF73FFD0F480088A0F50A
:1044E0006F41183902D1200EFFF736FDC4F30740A3
:1044F000FFF732FDC4F30720FFF72EFDE0B2FFF710
:104500002BFD012229463046FCF7E2FBBDE8704056
:1045100000F0BEB8000402401E00002070B516482E
:104520000068016841F040010160FF20FFF714FDC1
:104530000122124D140321462846FCF7C9FB00F066
:104540005BF80F490880A0F56F41183913D103209B
:1045500000F07AF8C0070ED1002221462846FCF769
:10456000B7FBB720FFF7F8FC21462846BDE87040AE
:104570000122FCF7ADBB70BD8C010020000402409D
:104580001E0000202DE9F041DFF8648015460C463E
:1045900006464FF48057002239464046FCF798FB08
:1045A0000320FFF7D9FC13480088A0F56F411839A4
:1045B00002D1200EFFF7D0FCC4F30740FFF7CCFC7C
:1045C000C4F30720FFF7C8FCE0B2FFF7C5FC0024E6
:1045D00005E0FF20FFF7C0FC3055641CA4B2AC42DC
:1045E000F7D339464046BDE8F0410122FCF770BBE5
:1045F000000402401E00002070B5124E00244FF44B
:104600008055224629463046FCF762FB9020FFF792
:10461000A3FC0020FFF7A0FC0020FFF79DFC00207A
:10462000FFF79AFCFF20FFF797FC44EA0024FF20E5
:10463000FFF792FC0443012229463046FCF748FB71
:10464000204670BD0004024070B5012803D0022846
:1046500003D0032803D0052402E0352400E015240C
:104660000A4E4FF48055002229463046FCF730FBB5
:104670002046FFF771FCFF20FFF76EFC0446012285
:1046800029463046FCF724FB204670BD000402405A
:1046900010B50120FFF7D8FFC007FAD110BD000008
:1046A0002DE9F05FC1F30B06DFF88C800F0BC6F528
:1046B0008054894682461546A24200D814463903E2
:1046C0008B464FF480524046FFF75CFF002006E027
:1046D000321818F80210FF2903D1401C80B2A04202
:1046E000F6D3A04222D23846FFF7E6FE002006E0CD
:1046F0001AF800208319401C08F8032080B2A04259
:10470000F6D359464FF480524FEA080000F02CF8D7
:10471000A5420FD0281BA244A144002685B24FF425
:1047200080547F1CA542CAD82C46C8E72246494679
:104730005046EBE7BDE8F09FA806002070B5094D94
:104740004FF48054002221462846FCF7C1FA062087
:10475000FFF702FC21462846BDE870400122FCF725
:10476000B7BA0000000402402DE9F0410746C8B284
:10477000C0F580740E461546A24200D814464FF488
:10478000807822463146384600F00EF8A54208D01F
:10479000281B2744264485B24446A542F1D82C461E
:1047A000EFE7BDE8F08100002DE9F04115460C4629
:1047B0000646FFF7C3FFDFF864804FF480570022FE
:1047C00039464046FCF784FA0220FFF7C5FB14483F
:1047D0000088A0F56F41183902D1200EFFF7BCFB0D
:1047E000C4F30740FFF7B8FBC4F30720FFF7B4FB9F
:1047F000E0B2FFF7B1FB002404E0305DFFF7ACFB53
:10480000641CA4B2AC42F8D3012239464046FCF7FE
:104810005FFABDE8F041FFF73BBF00000004024033
:104820001E0000200907090E002804DB00F1E0202B
:1048300080F80014704700F00F0000F1E02080F8CD
:10484000141D704730380A2801D20120704700201B
:104850007047704710B507E003780C78A34201D089
:10486000002010BD401C491C521E92B2F4D20120FF
:1048700010BD000003490A685206FCD5C2B24A6066
:1048800070470000001001400EB50025FCF764FAE7
:10489000FFF7FEFBFEF73AFCFEF7F8FCFEF7AEFC76
:1048A000FEF79CFCFEF7D0FCFEF722FCFEF74AFA6E
:1048B0000020FEF7FDF97B4900200C2608807A498C
:1048C00047F6FF703346088078A0CDE900600021EC
:1048D000A0220846FEF7B6FB77A0CDE900600C23C6
:1048E000A0220F210020FEF7ADFB78A0CDE90060EB
:1048F0001023A0221E210020FEF7A4FB77A0CDE903
:1049000000600C23A0222D210020FEF79BFBFFF767
:1049100005FE754F4EF6167406E06420FCF73CF871
:1049200001213846FCF7A4F9FFF766FEA042F4D156
:104930006EA0FBF71FFD714C172221467048FFF750
:10494000AFFE172221466F48FFF71CFE4FF4FA789E
:104950003C4606E04046FCF71FF801212046FCF7E4
:1049600087F9172266496748FFF774FF0128F1D1DC
:1049700065A0FBF7FFFC6A4F00203968884700F00C
:10498000F9F85F49022314221731D7F80CC0002030
:10499000E0475B4963A01731FBF7ECFCBF680223DB
:1049A000142202A90020B847014664A0FBF7E2FCEC
:1049B00002A967A0FBF7DEFC47460EE03846FBF78E
:1049C000EBFF01212046FCF753F902212046FCF7BA
:1049D0004FF904212046FCF74BF9494918221731B9
:1049E00002A8FFF737FF0128E8D1B046DFF814919D
:1049F0005D4E0727A9F154094FF47A7AB5FBF7F019
:104A000007FB1050072817D2DFE800F0040B2D2F0A
:104A1000363D3F00002201212046FCF759F90122D2
:104A200001E0012222E002212046FCF751F9012297
:104A300004212046FCF74CF932486D1CEDB2327867
:104A40004AA15438FBF7A2FC0C23F0223C210020A1
:104A5000CDE90089FEF7F6FA3078401C30705046F8
:104A6000FBF79AFFCAE7012207E000220121204656
:104A7000FCF72EF90022D6E7002201212046FCF7A0
:104A800027F9012207E0012200E00022012120464F
:104A9000FCF71EF9002202212046FCF719F900223A
:104AA000C6E700001C0000201A000020426F726957
:104AB0006E675F54454348005446544C4344205469
:104AC000455354203234302A3133350053544D335A
:104AD00032463430312F3430320000003230313938
:104AE0002F362F3234000000000802405350492076
:104AF0005265616479200D0A000000009CFF7F0070
:104B0000564D00087C0000205732355178782064DB
:104B10006174612074657374206F6B2E0D0A000040
:104B200054990008736420777269746520636F6E0E
:104B300074656E743A0D0A25730D0A007364207251
:104B400065616B20726573756C743A25640D0A009B
:104B50007364207265616420636F6E74656E743A6D
:104B60000D0A25730D0A0000000000202534644161
:104B70004243440070B586B069462348FCF77EFE88
:104B800022492148FCF76EFF204CD4E90601A0FB26
:104B90000156206810B101280AD132E0606810B1D6
:104BA000012802D004E01AA000E01EA0FBF7E2FBFF
:104BB0009DF8001020A0FBF7DDFB26A06168FBF745
:104BC000D9FB2BA0A168FBF7D5FB30A0E168FBF770
:104BD000D1FB35A02169FBF7CDFB3AA06169FBF75A
:104BE000C9FB3FA0A169FBF7C5FB44A0E169FBF746
:104BF000C1FB290D41EA063147A0FBF7BBFB06B01C
:104C000070BD4DA0D2E70000B00000205C00002085
:104C10004361726420547970653A5344534320567B
:104C2000310D0A004361726420547970653A53442F
:104C300053432056320D0A0043617264204D616E69
:104C400075666163747572657249443A2025642003
:104C50000D0A00004361726456657273696F6E3AA3
:104C60002020202020202020202564200D0A000064
:104C7000436C6173733A20202020202020202020C4
:104C800020202020202564200D0A0000436172644A
:104C9000205243412852656C436172644164642927
:104CA0003A2564200D0A00004361726420426C6F53
:104CB000636B4E62723A2020202020202025642041
:104CC0000D0A00004361726420426C6F636B53698C
:104CD0007A653A2020202020202564200D0A00003B
:104CE0004C6F67426C6F636B4E62723A20202020DB
:104CF00020202020202564200D0A00004C6F6742F0
:104D00006C6F636B53697A653A2020202020202045
:104D1000202564200D0A0000436172642043617005
:104D200061636974793A20202020202020256420A6
:104D30004D420D0A000000004361726420547970F6
:104D4000653A534448430D0A000000004FF040709C
:104D5000E1EE100A7047424F52494E472D544543E9
:104D6000482053544D3332205445535400424F523F
:104D7000494E472D544543482053544D3332205417
:104D80004553543100000000000000000001020300
:104D900004060708090000000001020304000000E7
:104DA0000000000000000000000000202020202063
:104DB0000000200000282850000000000000000033
:104DC0000000005050F85050F85050000000207083
:104DD000A8A0603028A8702000000048A8B0A874DF
:104DE000345448000000002050506CA8A89468007B
:104DF000004040800000000000000000000810108B
:104E0000202020202010100800402020101010101A
:104E1000102020400000000020A87070A820000092
:104E20000000000010107C101000000000000000C6
:104E30000000000000404080000000000000FC0076
:104E40000000000000000000000000000000400022
:104E5000000004080810102020404080000000706E
:104E600088888888888870000000002060202020C2
:104E70002020700000000070888810204080F8001A
:104E800000000070880830080888700000000010DA
:104E900030305090F8103800000000F88080F08822
:104EA00008887000000000304880B0C88888700012
:104EB0000000007808101020202020000000007062
:104EC00088887088888870000000007088889868DA
:104ED000089060000000000000200000000020009A
:104EE000000000000000200000002020000000085A
:104EF00010204040201008000000000000FC00FCD2
:104F000000000000000000402010080810204000B1
:104F10000000007088881020200020000000003869
:104F20004494B4B4B84438000000002020305050FD
:104F30007848CC00000000F0484870484848F0002D
:104F4000000000788880808080887000000000F079
:104F5000484848484848F000000000F84850705061
:104F60004048F800000000F8485070504040E00011
:104F7000000000384880809C88483000000000CC49
:104F8000484878484848CC00000000F820202020FD
:104F90002020F8000000007C10101010101010905D
:104FA000E00000EC485060504848EC00000000E091
:104FB000404040404044FC00000000DCD8D8D8A865
:104FC000A8A8AC00000000DC486868585848E80011
:104FD000000000708888888888887000000000F0D1
:104FE000484870404040E000000000708888888891
:104FF000E8987018000000F0484870504848EC00ED
:1050000000000078888060100888F000000000F838
:10501000A820202020207000000000CC48484848EC
:1050200048483000000000CC484850503020200054
:10503000000000A8A8A8A87050505000000000D898
:10504000505020205050D800000000D85050502020
:1050500020207000000000F8901020204048F80048
:105060000038202020202020202020380000404030
:1050700020202010101008080070101010101010C0
:105080001010107000205000000000000000000010
:10509000000000000000000000000000FC402000B4
:1050A0000000000000000000000000000000304888
:1050B00038483C000000C0404040704848487000FC
:1050C0000000000000003848404830000000180888
:1050D0000808384848483C000000000000003048FC
:1050E0007840380000001824202078202020780004
:1050F0000000000000003C48304038443800C04008
:10510000404070484848EC0000002020000060202B
:10511000202070000000101000003010101010103F
:10512000E000C040404058506050C8000000E020FF
:10513000202020202020F800000000000000F0A81F
:10514000A8A8A800000000000000F0484848EC00B3
:105150000000000000003048484830000000000017
:105160000000F04848487040E00000000000384867
:10517000484838081C0000000000D8604040E000AB
:1051800000000000000078403008780000000000B7
:105190002020782020203800000000000000D8489F
:1051A00048483C00000000000000D850502020007B
:1051B000000000000000A8A870505000000000008F
:1051C0000000D8502050D800000000000000CC485B
:1051D00048301020C0000000000078102020780027
:1051E00000181010101030101010101800101010AF
:1051F000101010101010101010602020202010200F
:1052000020202060006890000000000000000000E6
:10521000000000000000000000000000000000008E
:1052200000000000101010101010100000101000EE
:1052300000001224244800000000000000000000CC
:10524000000000001212127E2424247E2424240054
:10525000000000083C4A4A48380C0A0A4A4A3C08FE
:105260000800000044A4A8A8B0541A2A2A4A4400FE
:105270000000000030484848506EA4949889760099
:10528000000060202040000000000000000000003E
:105290000000020408081010101010100808040282
:1052A00000004020101008080808080810102040CE
:1052B00000000000001010D63838D6101000000092
:1052C0000000000000000808087F0808080000002F
:1052D000000000000000000000000000006020202E
:1052E0004000000000000000007E00000000000000
:1052F00000000000000000000000000000606000EE
:10530000000000020404040808101010202040408F
:105310000000000018244242424242424224180047
:1053200000000000083808080808080808083E00BF
:10533000000000003C4242420204081020427E006D
:10534000000000003C4242020418040242423C00B9
:1053500000000000040C0C142424447F04041F00EB
:10536000000000007E404040784402024244380081
:1053700000000000182440405C62424242221C00AF
:10538000000000007E4204040808101010101000F5
:10539000000000003C4242422418244242423C00A9
:1053A000000000003844424242463A0202241800FB
:1053B000000000000000001818000000001818008D
:1053C00000000000000000001000000000001010AD
:1053D0001000000002040810204020100804020001
:1053E000000000000000007E00007E0000000000C1
:1053F00000000000402010080402040810204000B3
:10540000000000003C42426204080808001818002E
:105410000000000038445AAAAAAAAAAA5C423C008A
:10542000000000001010182828243C444242E700E5
:1054300000000000F8444444784442424244F800EA
:10544000000000003E42428080808080424438005C
:1054500000000000F8444242424242424244F80006
:1054600000000000FC424848784848404242FC00A6
:1054700000000000FC424848784848404040E000B6
:10548000000000003C44448080808E844444380006
:1054900000000000E7424242427E42424242E700B0
:1054A000000000007C1010101010101010107C0074
:1054B000000000003E0808080808080808080888D6
:1054C000F0000000EE444850705048484444EE005C
:1054D00000000000E0404040404040404042FE00AC
:1054E00000000000EE6C6C6C6C6C54545454D6008C
:1054F00000000000C7626252524A4A4A4646E20031
:105500000000000038448282828282828244380015
:1055100000000000FC424242427C40404040E0002B
:10552000000000003844828282828282B24C3806B7
:1055300000000000FC4242427C4848444442E300F0
:10554000000000003E4242402018040242427C001B
:1055500000000000FE921010101010101010380003
:1055600000000000E74242424242424242423C00C6
:1055700000000000E74242442424282818101000AC
:1055800000000000D654545454546C282828280095
:1055900000000000E7422424181818242442E700E1
:1055A00000000000EE4444282810101010103800AD
:1055B000000000007E840408081020204242FC0005
:1055C00000001E1010101010101010101010101EDF
:1055D00000000040202020101010080804040402DD
:1055E0000200780808080808080808080808087869
:1055F000000018240000000000000000000000006F
:10560000000000000000000000000000000000009A
:10561000FF0060100000000000000000000000001B
:10562000000000000000000038440C34444C3600F8
:105630000000000000C040405864424242645800EC
:1056400000000000000000001C22404040221C001E
:1056500000000000000602023E42424242463B0079
:1056600000000000000000003C42427E40423C003E
:1056700000000000000C12107C10101010107C00B4
:1056800000000000000000003E444438403C42421C
:105690003C00000000C040405C6242424242E700E1
:1056A00000000000303000007010101010107C005E
:1056B000000000000C0C00001C040404040404445A
:1056C0007800000000C040404E4850704844EE0052
:1056D00000000000107010101010101010107C004E
:1056E0000000000000000000FE4949494949ED0062
:1056F0000000000000000000DC6242424242E7007D
:1057000000000000000000003C42424242423C00D7
:105710000000000000000000D8644242426458408B
:10572000E0000000000000001A26424242261A0251
:105730000700000000000000EE3220202020F800CA
:1057400000000000000000003E42403C02427C009D
:1057500000000000000010107C10101010120C004F
:105760000000000000000000C642424242463B00EA
:105770000000000000000000EE4444282810100043
:105780000000000000000000DB894A5A5424240075
:1057900000000000000000007624181818246E0095
:1057A0000000000000000000E74224241818101038
:1057B00060000000000000007E44081010227E00FF
:1057C000000003040404040404080404040404039F
:1057D0000008080808080808080808080808080851
:1057E0000800C0202020202020102020202020C0C1
:1057F00000205A040000000000000000000000002B
:105800000000000000000000000000000000000098
:105810000000000000000000000000000000000088
:105820000000000000000000000000000000000078
:105830000000000000000000000600060006000650
:105840000006000600060002000400040004000038
:105850000000000000060006000600000000000036
:105860000000000000066006600CC01980110022D4
:105870000000000000000000000000000000000028
:105880000000000000000000000000000000000018
:105890000000000000000000000840084008400828
:1058A000407FE07FE0104010801080108010807FEB
:1058B000E07FE02080208020802080000000000029
:1058C00000000000000000020002000F801AC03239
:1058D000C033C032001A000E0007000380038002AC
:1058E000C032C03AC032C012800F00020002000075
:1058F00000000000000000000070805080890089D6
:105900000089008A008A005C0075C005400A200AF0
:1059100020122012201220214021C000000000008F
:105920000000000000000000001C003600360036B9
:105930000036003600340019E038805880CC80CC26
:1059400080C680C700C31063903CE00000000000E8
:10595000000000000030003800080008001000209F
:105960000000000000000000000000000000000037
:105970000000000000000000000000000000000027
:105980000000000000002000400080010001000233
:1059900000020004000400040004000400040004E9
:1059A0000002000200010001000080004000200011
:1059B0000000000000400020001000080008000463
:1059C00000040002000200020002000200020002C5
:1059D000000400040008000800100020004000003F
:1059E00000000000000000000000000000020003B2
:1059F000000200623072F00B800F807AF062300299
:105A00000002000200000000000000000000000092
:105A10000000000000000000000000000000000284
:105A20000002000200020002007FF00200020002F9
:105A30000002000200000000000000000000000062
:105A40000000000000000000000000000000000056
:105A50000000000000000000000000000000000046
:105A6000000000000030003800080008001000208E
:105A70000000000000000000000000000000000026
:105A80000000000000000000007FE00000000000B7
:105A90000000000000000000000000000000000006
:105AA00000000000000000000000000000000000F6
:105AB00000000000000000000000000000000000E6
:105AC000000000000038003800380000000000002E
:105AD000000000000000200060004000C0008000C6
