:020000040800F2
:10000000C0060020350200080B1900084D18000832
:1000100009190008C7040008391D00080000000085
:100020000000000000000000000000000F190008A0
:10003000C9040008000000000D190008111900088B
:100040004F0200084F0200084F0200084F0200084C
:100050004F0200084F0200084F0200084F0200083C
:100060004F0200084F0200084F0200084F0200082C
:100070004F0200084F0200084F0200084F0200081C
:100080004F0200084F0200084F0200080000000065
:100090000000000000000000000000004F02000807
:1000A0004F0200084F0200084F0200084F020008EC
:1000B0004F0200084F0200084F0200084F020008DC
:1000C0004F0200084F0200084F0200084F020008CC
:1000D0004F0200082D1D00084F020008000000001C
:1000E0004F0200084F0200084F0200080000000005
:1000F0000000000000000000000000004F020008A7
:10010000000000004F0200084F0200084F020008E4
:1001100000000000000000000000000000000000DF
:100120004F0200084F0200084F0200084F0200086B
:100130004F02000800000000000000000000000066
:100140000000000000000000000000004F02000856
:100150004F0200084F0200084F0200084F0200083B
:100160004F0200084F0200080000000000000000DD
:10017000000000000000000000000000000000007F
:10018000000000004F020008000000000000000016
:100190004F02000800F002F800F03CF80AA090E8D6
:1001A000000C82448344AAF10107DA4501D100F032
:1001B00031F8AFF2090EBAE80F0013F0010F18BFC3
:1001C000FB1A43F001031847141C0000341C000004
:1001D000103A24BF78C878C1FAD8520724BF30C873
:1001E00030C144BF04680C60704700000023002445
:1001F00000250026103A28BF78C1FBD8520728BF37
:1002000030C148BF0B6070471FB501F0D5FD1FBD61
:1002100010B510BD00F00AF91146FFF7F5FF01F027
:10022000A7FD00F03CF903B4FFF7F2FF03BC00F0B8
:1002300043F900000948804709480047FEE7FEE708
:10024000FEE7FEE7FEE7FEE7FEE7FEE7FEE7FEE786
:1002500004480549054A064B70470000A9190008E3
:1002600095010008C0000020C0060020C002002048
:10027000C002002053EA020C00F069802DE9F04B27
:100280004FF00006002B1FBFB3FA83F503FA05F405
:1002900024FA05F65E4012BF1643B2FA82F502FA5E
:1002A00005F4C5F120051EBF22FA05FC44EA0C0442
:1002B000203556EA044C4FEA144418BF641C4FF032
:1002C00000084FF00009904271EB030C39D300296C
:1002D00019BFB1FA81F701FA07F6B0FA80F700FA10
:1002E00007F6C7F120071EBF20FA07FC46EA0C06F6
:1002F0002037B6FBF4FCA7EB0507103F07F01F0BF8
:10030000CBF120060CFA0BFB2CFA06F644BFB346E1
:100310000026202FA4BF5E464FF0000B5BEA060CC0
:1003200008BF4FF0010B19EB0B09ABFB027C48EB4C
:100330000608C01B06FB02CC0BFB03CC71EB0C01C7
:10034000C1E70B46024641464846BDE8F08B13B56F
:100350004FF000004FF00001AFF30080BDE81C40FB
:10036000704700000FB4044910B503AA029800F0CA
:100370002FF810BC5DF814FB100000204FF00002B5
:1003800000B5134694469646203922BFA0E80C508B
:10039000A0E80C50B1F12001BFF4F7AF090728BF66
:1003A000A0E80C5048BF0CC05DF804EB890028BFE2
:1003B00040F8042B08BF704748BF20F8022B11F00B
:1003C000804F18BF00F8012B704770477047704787
:1003D000074B70B50D467B4400F011F804462846E3
:1003E00000F020F810B14FF0FF3070BD204670BD16
:1003F0008319000001694A1C02610878704700B542
:100400008FB0CDE901310021059105497944CDE94D
:1004100003101146684600F02EF80FB000BD000032
:10042000E5FFFFFF007B00F080007047754600F09D
:100430003FF8AE4605006946534620F00700854662
:1004400018B020B5FFF704FFBDE820404FF00006CC
:100450004FF000074FF000084FF0000B21F00701AC
:10046000AC46ACE8C009ACE8C009ACE8C009ACE8EF
:10047000C0098D4670472DE9F04106460024D6E9B3
:100480000170F5688046304603E04146B847641C79
:100490003046A8470028F8D12046BDE8F08110B5C5
:1004A0000446AFF300802046BDE81040FFF7BBBE16
:1004B000004870475C00002001491820ABBEFEE7F1
:1004C000260002007047FEE7704772B6FEE72DE98E
:1004D000F0410446876D00F027FA064694F835008F
:1004E0000025022806D08020606584F83450012061
:1004F000BDE8F0812068016821F0160101602068E4
:10050000416921F080014161206C08B9A06C20B1E3
:100510002068016821F0080101602068016821F06D
:10052000010101600CE000F0FFF9801B052807D9EC
:1005300020206065032084F8350084F83450D7E724
:1005400020680068C007EED194F85C103F20884016
:10055000B860012084F8350084F834500020C7E7E3
:1005600090F83510022903D08021416501207047A1
:10057000052180F835100068016821F00101016053
:100580000020704770B5044600F0CEF90546601CA7
:1005900002D004480078044400F0C6F9401BA04291
:1005A000FAD370BD000000202DE9F84FDFF84CB2FF
:1005B0000D460446584512D0914884420FD09148C8
:1005C00084420CD09048844209D09048844206D09E
:1005D0008F48844203D0AC218EA001F0BEFB286876
:1005E0000104090C01D0000C03D0AD2189A001F059
:1005F000B4FB6868F8B101281DD011281BD002286F
:1006000019D0122817D0B0F5881F14D0B0F5041FE8
:1006100011D0B0F5441F0ED0B0F5901F0BD0B0F53F
:10062000081F08D0B0F5481F05D0032803D0AE211D
:1006300078A001F092FB00264FF0010A4FF0030969
:100640000AFA06F02F688046074047457DD1287991
:1006500000F00300012801D002281DD1E86848B14C
:10066000012807D0022805D0032803D0C02169A0A3
:1006700001F073FBA068720009FA02F18843E9688F
:1006800091400143A1606068297920EA0800C1F324
:100690000011B140014361602879C043800712D046
:1006A000A86838B1012805D0022803D0D12159A06B
:1006B00001F053FBE068720009FA02F18843A9686F
:1006C00091400143E160287900F0030002282AD11B
:1006D0002869D8B10C2819D0012817D0022815D0C4
:1006E000032813D0042811D005280FD006280DD0D8
:1006F00007280BD0082809D0092807D00A2805D0D8
:100700000F2803D0DE2143A001F027FBF00804EB03
:100710008003186A7107CA0E0F2191408843296926
:100720009140014319622068720009FA02F188437E
:10073000297901F00301914001432160686810F4B8
:10074000403F55D04248016800E051E041F480410B
:100750000160006826F0030100F4804000903D48ED
:100760000A18D2F80808B1070B0F0F2199408843E7
:100770005C4501D1002114E021498C4201D10121C5
:100780000FE020498C4201D102210AE01E498C422F
:1007900001D1032105E01D498C4201D1042100E073
:1007A000072199400143C2F808182B4908686A6874
:1007B000B843D20200D5384308602749091D0868AC
:1007C0006A68B843920200D5384308602249091F7D
:1007D00008686A68B843920300D5384308601E4928
:1007E000083908686A68B843D20300D538430860FE
:1007F000761C102EFFF424AFBDE8F88F00000240F5
:100800000004024000080240000C024000100240B8
:10081000001C02402E2E2F447269766572732F538E
:10082000544D3332463478785F48414C5F447269A6
:100830007665722F5372632F73746D33326634781A
:10084000785F68616C5F6770696F2E6300000000FD
:100850004438024000300140083C014070B50C00B3
:10086000054604D14FF4DB7105A001F076FA696901
:1008700024EA0100214040EA0140A86170BD000067
:100880002E2E2F447269766572732F53544D333276
:10089000463478785F48414C5F4472697665722FC0
:1008A0005372632F73746D3332663478785F686186
:1008B0006C5F6770696F2E630000000070B51546AD
:1008C0000C00064604D140F29D1108A001F045FA43
:1008D00045B1012D04D04FF4CF7104A001F03DFAD1
:1008E000B46170BD2004B06170BD00002E2E2F4495
:1008F0007269766572732F53544D3332463478786B
:100900005F48414C5F4472697665722F5372632F62
:1009100073746D3332663478785F68616C5F6770CA
:10092000696F2E6300000000014880687047000076
:1009300000000020024881680278114481607047FD
:10094000000000200B4810B5016841F400710160FF
:10095000016841F480610160016841F480710160C7
:10096000032000F0C3F80F2000F006F800F024F890
:10097000002010BD003C024070B50D4D04464FF400
:100980007A712878B1FBF0F00A490968B1FBF0F000
:1009900000F0B6FC48B9102C07D200222146501EA8
:1009A00000F054F800206C6070BD012070BD0000A4
:1009B000000000200C0000200A4808B5016841F43E
:1009C00080410160006800F4804000900548001FED
:1009D000016841F080510160006800F08050009093
:1009E00008BD00004438024010B5040003D5BC2106
:1009F00007A001F0B2F9002C09DB04F01F0101206F
:100A000088406109890001F1E021C1F8000110BDB1
:100A10002E2E2F447269766572732F53544D3332E4
:100A2000463478785F48414C5F4472697665722F2E
:100A30005372632F73746D3332663478785F6861F4
:100A40006C5F636F727465782E63000070B5154635
:100A50000C460646102A03D3A82114A001F07DF904
:100A6000102C03D3A92111A001F077F91E480068CA
:100A7000C0F30223C3F107022046042A00D904224E
:100A8000191D072901D2002300E0DB1E012404FA0E
:100A900002F1491E014099409C40641E2C402143B4
:100AA0003046BDE8704001F048B900002E2E2F44BA
:100AB0007269766572732F53544D333246347878A9
:100AC0005F48414C5F4472697665722F5372632FA1
:100AD00073746D3332663478785F68616C5F636F0E
:100AE000727465782E6300000CED00E010B50446CA
:100AF00007280BD0062C09D0052C07D0042C05D0D4
:100B0000032C03D0902108A001F027F9154904F027
:100B1000070208684FF6FF03184040EA0220124A15
:100B20001043086010BD00002E2E2F4472697665B8
:100B300072732F53544D3332463478785F48414CAA
:100B40005F4472697665722F5372632F73746D33CD
:100B500032663478785F68616C5F636F7274657851
:100B60002E6300000CED00E00000FA052DE9F047CF
:100B70000E4604007DD02068401E0E2804D940F2A5
:100B80005A217AA001F0E9F896B1012E10D0022E78
:100B90000ED0032E0CD0042E0AD0052E08D0062E1F
:100BA00006D0072E04D040F25B2170A001F0D5F8EA
:100BB000DFF8F081D8F80000F7B200F00700B0428B
:100BC00007D288F80070D8F8000000F00700B042A3
:100BD0004FD12068744D810729D5400703D5286877
:100BE00040F4E05028602078000703D5286840F4DE
:100BF00060402860A068A0B1802812D0902810D052
:100C0000A0280ED0B0280CD0C0280AD0D02808D0F8
:100C1000E02806D0F02804D040F27E2153A001F055
:100C20009CF82868A16820F0F0000843286020782C
:100C3000C00743D0DFF870916068A9F1080988B156
:100C4000012822D0022824D0032822D040F2852176
:100C500046A001F082F86068012816D0022818D05A
:100C6000032816D0D9F800008007002833DA286856
:100C700000E030E0616820F0030008432860FFF7DF
:100C800053FE814641F2883A11E0D9F80000800312
:100C9000EBE7D9F800008001E7E700BFFFF744FE6B
:100CA000A0EB0901514502D90320BDE8F08728686F
:100CB000616800F00C00B0EB810FEFD1D8F80010A4
:100CC000404601F00701B14207D90770006800F003
:100CD0000700B04201D00120E7E720784FF48056AA
:100CE00040074FF4A0574FF4C0584FF4E05914D5C3
:100CF000E06860B1B0420AD0B84208D0404506D0A2
:100D0000484504D040F2C32118A001F026F8286815
:100D1000E16820F4E050084328602078000715D5EA
:100D2000206960B1B0420AD0B84208D0404506D030
:100D3000484504D040F2CA210CA001F00EF8286802
:100D4000216920F4604040EAC100286000F054F8B6
:100D50002968164AC1F30311515CC8401449086060
:100D600014480068FFF708FE00209EE72E2E2F444F
:100D70007269766572732F53544D333246347878E6
:100D80005F48414C5F4472697665722F5372632FDE
:100D900073746D3332663478785F68616C5F726348
:100DA000632E6300003C024008380240C21D000868
:100DB0000C00002004000020044805490068096870
:100DC000044AC1F38221515CC84070470C000020E6
:100DD00008380240D21D0008044805490068096827
:100DE000044AC1F34231515CC84070470C000020F6
:100DF00008380240D21D0008154810B5006810F0F0
:100E00000C02144813D04110042A0FD0082A0ED126
:100E10000F4C241F2268236802F03F025B0207D5B3
:100E20002068C0F38810A0FB010106E0084610BD51
:100E30002168C1F38811A1FB00010023FFF71AFA12
:100E40002168C1F30141491C4900B0FBF1F010BD1C
:100E5000083802400024F4002DE9F84F04007DD04A
:100E600020680F2803D9E621F7A000F076FF20784C
:100E7000DFF80C94C007A9F1040555D060684FF461
:100E800080364FF4A02738B1B04205D0B84203D025
:100E9000EB21EDA000F061FFF948001D0168C1F3EE
:100EA0008101012908D00068C0F3810002280AD11D
:100EB000D9F80000400206D52868800334D5606860
:100EC0000028CCD030E06068B04203D1286840F4FC
:100ED00080300CE0B842286803D140F480202860BC
:100EE000F4E720F480302860286820F4802028600F
:100EF000606860B1FFF718FD064604E0FFF714FDD7
:100F0000801B64287ED828688003F7D50CE0FFF7A3
:100F10000BFD064605E000BFFFF706FD801B6428B9
:100F2000F0D828688003F7D42078DFF8588380074A
:100F30004FF0000A56D5E06830B1012804D040F2E5
:100F40001D11C1A000F009FF20691F2804D94FF42A
:100F50008F71BDA000F001FFC94800E092E0001DC4
:100F6000016811F00C0F08D00068C0F3810002285E
:100F700010D1D9F8000040020CD42868800702D5AF
:100F8000E06801287ED12868216920F0F80040EA55
:100F9000C10017E0E068B8B10120C8F80000FFF711
:100FA000C3FC064605E000BFFFF7BEFC801B02281D
:100FB000A8D828688007F7D5286820F0F8012069AC
:100FC00041EAC00028600DE0C8F800A0FFF7ACFCC3
:100FD000064604E0FFF7A8FC801B022892D8286888
:100FE0008007F7D4207800072ED5A54EA64F60695C
:100FF0007036D0B1012808D04FF4AF7192A000F044
:10100000ACFE00E04BE1606978B101203860FFF789
:101010008BFC074605E000BFFFF786FCC01B0228DB
:10102000C6D830688007F7D50EE0C7F800A0FFF7F4
:101030007BFC074605E000BFFFF776FCC01B0228DB
:10104000B6D830688007F7D42078400776D5A068F6
:10105000002740B1012806D0052804D04FF4C571FF
:1010600079A000F07AFEDFF818B20BF13C0BDBF848
:101070000000C0000DD4DBF8001041F08051CBF827
:10108000001000E038E1DBF80000012700F080509C
:1010900000907E4E3068C00511D4306840F48070F6
:1010A0003060FFF741FC009006E000BFFFF73CFC1A
:1010B0000099401A022891D83068C005F6D5704EC4
:1010C000A0686C3601280FD00528306810D020F0B9
:1010D00001003060306820F004003060A068B8B1D2
:1010E000FFF722FC00900FE0306840F00100F4E7C9
:1010F00040F004003060F7E7FFF716FC0099411A52
:1011000041F2883081428BD830688007F4D50EE0F8
:10111000FFF70AFC009007E0FFF706FC0099411A70
:1011200041F2883081428BD830688007F4D42FB1E7
:10113000DBF8001021F08051CBF80010A0690028E6
:1011400076D0012809D0022807D040F2CD113EA068
:1011500000F003FEA0690028F2D04948001D006895
:10116000C0F381000228A0696DD0022805D0C8F81C
:1011700060A0FFF7D9FB044694E0E06938B1B0F510
:10118000800F04D04FF4EB712FA000F0E6FD206A31
:101190003F2804D940F2D7112BA000F0DEFD606A91
:1011A0003238B0F5BF7F04D94FF4EC7126A000F0BF
:1011B000D4FDA06A02280AD0042808D0062806D048
:1011C000082804D040F2D9111FA000F0C6FDE06A43
:1011D000801E0D2804D94FF4ED711BA000F0BDFD59
:1011E0004746C8F860A0FFF79FFB064605E000BF32
:1011F000FFF79AFB801B022851D828688001F7D49A
:10120000D4E907010843A16A214A490802EB0141D8
:10121000626A41EA8211084394F82C1040EA0161A5
:10122000C9F8001001203866FFF77EFB044606E08F
:1012300064E000BFFFF778FB001B02282FD8286866
:101240008001F7D55AE031E02E2E2F447269766581
:1012500072732F53544D3332463478785F48414C83
:101260005F4472697665722F5372632F73746D33A6
:1012700032663478785F68616C5F7263632E6300F6
:101280000438024000004742800E47420070004090
:101290000000FFFFFFF748FB001B022802D90320D4
:1012A000BDE8F88F28688001F4D427E00128F7D042
:1012B000D9F80000E26900F4800191421CD1226A51
:1012C00000F03F01914217D147F6C071626A0140B8
:1012D000B1EB821F10D1A26A4FF0FF3300F440310E
:1012E00003EB5202B1EB024F06D194F82C1000F040
:1012F0007060B0EB016F01D00120D1E70020CFE793
:1013000010B5401EB0F1807F01D3012010BD4FF019
:10131000E02460610F21601700F00FFD0020A06144
:1013200007202061002010BD70477047F8B50168A4
:1013300004460868CA684B6910F00F0F4FF00005AB
:1013400059D003F0010602F49077374365D0C10706
:1013500005D0D10503D5216C41F00101216441077D
:1013600005D5D90703D0216C41F002012164810722
:1013700005D5D90703D0216C41F004012164010790
:1013800007D502F02001314303D0216C41F0080160
:101390002164216C00293AD0800604D5900602D53C
:1013A000204600F038FB20684069216CC0F38010B3
:1013B000090700D460B3204600F006FB20684069AE
:1013C000400621D52068143050E8001F21F040016C
:1013D00040E80012002AF5D1A06BA8B16C49016564
:1013E000A06BFFF7BDF8002811D0A06B016D01B014
:1013F000BDE8F040084783060FD593060DD520467B
:10140000BDE8F84000F007BB2046FFF78EFFF8BDAF
:101410002046FFF78AFF2564F8BD266B2023012EA6
:1014200079D1C60677D5D60675D508684868009084
:101430004869400640D5A16B086840680004000C6C
:10144000EAD0A28D8242E7D9E085C869B0F5807FF5
:101450002DD020680C3050E8001F21F4807140E846
:101460000012002AF5D12068143050E8001F21F046
:10147000010140E80012002AF5D12068143050E83C
:10148000001F21F0400140E80012002AF5D184F845
:101490003E30256320680C3050E8001F21F0100119
:1014A00040E80012002AF5D1A06BFFF710F8A08DDC
:1014B000E18D401A81B229E0A08DE18D401A81B200
:1014C000E08D0028A8D00029A6D020680C3050E874
:1014D000002F22F4907240E80026002EF5D12068FB
:1014E000143050E8002F22F0010240E80026002EC0
:1014F000F5D184F83E30256320680C3050E8002F89
:1015000022F0100240E80023002BF5D12046FFF71F
:101510000BFFF8BDFFE705062BD5150629D594F876
:101520003D002128F5D1A068B0F5805F01D1206988
:10153000B0B1206A411C2162216800784860E08CCB
:10154000401E0004000CE084E3D12068C16821F053
:101550008001C1602068C16841F04001C160D8E7E6
:10156000206A0088C0F308004860206A801C20625E
:10157000E5E74006CDD55006CBD5CA68204622F017
:101580004002CA6084F83D3000F05FF9C1E7000016
:10159000B919000870B5040020D0A06935490028A9
:1015A000354A364B20681BD088420AD0904208D07A
:1015B000984206D040F2731131A000F0CEFBA06932
:1015C000C8B1A069B0F5807F15D0B0F5007F12D00A
:1015D000B0F5407F0FD04FF4BA7109E0012070BD23
:1015E000884208D0904206D0984204D04FF4BC7193
:1015F00023A000F0B2FBA06838B1B0F5805F04D042
:101600004FF4BD711EA000F0A8FBE06938B1B0F541
:10161000004F04D040F27B1119A000F09EFB94F81B
:101620003D00002520B984F83C50204600F046F8E3
:10163000242084F83D002068C16821F40051C16075
:10164000204600F049FA2068016921F490410161C7
:101650002068416921F02A0141612068C16841F494
:101660000051C1602564202084F83D0084F83E00CC
:10167000002070BD001001400044004000140140F3
:101680002E2E2F447269766572732F53544D333268
:10169000463478785F48414C5F4472697665722FB2
:1016A0005372632F73746D3332663478785F686178
:1016B0006C5F756172742E630000000010B586B017
:1016C000044614216846FEF759FE184920688842EE
:1016D00029D117480021026842F010020260006818
:1016E00000F01000059012481438026842F0010220
:1016F0000260006800F0010005904FF4C0600090A7
:101700000220CDE9010103200390072004906946DF
:101710000848FEF749FF002211462520FFF796F9F9
:101720002520FFF761F906B010BD00000010014050
:10173000443802400000024090F83E30202B0ED189
:1017400059B152B190F83C30012B08D0012380F8F8
:101750003C300023036300F08FBA01207047022061
:101760007047000010B50068084988420DD1012279
:1017700007490848FFF7E0FFBDE810404FF47A73CF
:1017800001220349034800F007B810BD00100140D2
:1017900014000020180000202DE9F843044690F8BA
:1017A0003D001F4616460D4620284CD1C5B1BEB19E
:1017B00094F83C00012846D0012084F83C004FF00A
:1017C0000008C4F84080212084F83D00FFF7ACF801
:1017D000A6848146E684A068B0F5805F03D004E06B
:1017E0000120BDE8F883206928B12E465FF000058E
:1017F00084F83C800EE00026FAE78021204600F0C5
:1018000058FAA0B9AEB116F8010B21684860E08C17
:10181000401EE084E08C4B464FF000020097002809
:10182000EBD14FF04001204600F043FA30B10320E5
:10183000D7E735F8020BC0F30800E6E7202084F86C
:101840003D000020CDE70220CBE77047FEE7000017
:1018500070B586B014216846FEF790FD1A48002541
:10186000016841F004010160016801F00401059183
:10187000016841F080010160016801F0800105917B
:10188000016841F0010101600068104E00F00100A4
:101890000590012207213046FFF710F84FF4005061
:1018A000CDE900050124694602943046FEF77CFE2E
:1018B0000720CDE9000469463046CDE90245FEF730
:1018C00073FE06B070BD00003038024000080240D0
:1018D0000C4810B50A4901604FF4E1314160002124
:1018E00081600C22C160C0E904128161C161FFF70F
:1018F00051FE002803D0BDE81040FEF7E6BD10BD44
:101900000010014018000020FEE7FEE77047704716
:10191000FFF710B830B593B030216846FEF72EFDC2
:1019200014210CA8FEF72AFD1D480025016841F08E
:1019300080510160006800F08050119019480168E2
:1019400021F4404141F4004101600068022400F4A8
:101950004040119001200090000401908001CDE9E9
:10196000064008AA0420542182E813000B90684620
:10197000FFF772FA08B172B6FEE70CA90F2081E8F2
:1019800031004FF48050CDE90F0502210CA8FFF77C
:10199000EDF8002801D072B6FEE713B030BD0000AC
:1019A00040380240007000400248016841F4700174
:1019B0000160704788ED00E010B5806B0021C185A3
:1019C000C184FFF7B2FC10BD01680C3151E8002F53
:1019D00022F4907241E80023002BF5D10168143104
:1019E00051E8002F22F0010241E80023002BF5D13D
:1019F000016B012909D101680C3151E8002F22F057
:101A0000100241E80023002BF5D1202180F83E1080
:101A100000210163704708B590F83E10222901D0DB
:101A2000022008BD82684FF480539A4201D10169B7
:101A300021B1816A9A421BD04AB10AE00268816AE8
:101A40005268C2F308020A80816A891C08E00269B0
:101A500072B10268526802F07F020A70816A491C02
:101A60008162C18D491E0904090CC18503D019E0AA
:101A700002685268F1E70168CA6822F02002CA6071
:101A80000168CA6822F48072CA6001684A6922F05B
:101A900001024A61202180F83E10016B012903D028
:101AA000FFF760FE002008BD0021016301680C31D2
:101AB00051E8002F22F0100241E80023002BF5D15D
:101AC00001680A68D20602D50A6849680091818DCA
:101AD000FFF72AFCE6E7000070B504464068544969
:101AE000884204D940F6616152A000F036F9E068FE
:101AF00038B1B0F5005F04D040F662614DA000F04F
:101B00002CF9206950B1B0F5806F07D0B0F5C06FE7
:101B100004D040F6636147A000F01FF960694FF6FA
:101B2000F371084200D120B940F6646141A000F091
:101B300014F920680169E26821F440511143016100
:101B40002169A068E269084361691143226808437A
:101B5000D16849F20C6399430143D160206841691F
:101B6000A26921F4407111434161414920688842D2
:101B700002D04049884202D1FFF72EF901E0FFF779
:101B80001BF9E2690023192164253226B2F5004FC2
:101B9000626828D0A0FB0101930F9200FEF76AFB58
:101BA0000146B0FBF5F06FF01802504301EB8000E6
:101BB00006EB0010B0FBF5F000F0F002B1FBF5F021
:101BC00002EB0012B1FBF5F06FF01803584301EB84
:101BD000800006EB0010B0FBF5F000F00F0021686C
:101BE0001044886070BDA0FB010192185B41FEF7B4
:101BF00041FB0146B0FBF5F00201B1FBF5F06FF0DF
:101C00001803584301EB800006EBC000B0FBF5F071
:101C100000F0F80002EB4002B1FBF5F0584301EB95
:101C2000800006EBC000B0FBF5F000F00700D6E73F
:101C3000A037A0002E2E2F447269766572732F5341
:101C4000544D3332463478785F48414C5F44726972
:101C50007665722F5372632F73746D3332663478E6
:101C6000785F68616C5F756172742E6300000000BC
:101C7000001001400014014081628285C28500216C
:101C80000164222280F83E2080F83C10016921B1D5
:101C90000168CA6842F48072CA6001684A6942F009
:101CA00001024A610068C16841F02001C160002062
:101CB00070472DE9F041984617460E460446069DAA
:101CC00027E0681C25D02DB1FEF72EFEA0EB080002
:101CD000A8421ED920680C3050E8001F21F4D071B2
:101CE00040E80012002AF5D12068143050E8001FA7
:101CF00021F0010140E80012002AF5D1202084F8EB
:101D00003D0084F83E00002084F83C000320BDE83C
:101D1000F0812068006836EA000004D00020B84254
:101D2000CFD00020F3E70120F9E700000148FFF7DA
:101D3000FDBA000018000020FEE70907090E002880
:101D400004DB00F1E02080F80014704700F00F0081
:101D500000F1E02080F8141D7047704703490A68BD
:101D60005206FCD5C2B24A60704700000010014024
:101D7000FEF7E8FDFFF7CEFDFFF76AFDFFF7A8FDD0
:101D8000012209490948FFF7D7FC09A0FEF7EAFA42
:101D9000084C4FF4FA7501212046FEF75FFD2846F6
:101DA000FEF7F0FBF7E70000140000201800002009
:101DB0004F4B0D00000802404FF04070E1EE100A5A
:101DC0007047000000000000000001020304060745
:101DD000080900000000010203040000FC1D0008C7
:101DE0000000002018000000D0010008141E0008A8
:101DF00018000020A8060000EC0100080100000007
:101E000010000000000000000024F40000000000AA
:041E100000000000CE
:040000050800019559
:00000001FF
