:020000040800F2
:10000000D00B00203D02000873240008B51E000834
:10001000712400081F070008C9290008000000001B
:100020000000000000000000000000009D25000806
:100030002107000800000000752400089F25000823
:10004000570200085702000857020008570200082C
:10005000570200085702000857020008570200081C
:10006000570200085702000857020008570200080C
:1000700057020008570200085702000857020008FC
:10008000570200085702000857020008000000004D
:1000900000000000000000000000000057020008FF
:1000A00057020008570200085702000857020008CC
:1000B00057020008570200085702000857020008BC
:1000C00057020008570200085702000857020008AC
:1000D00057020008BD290008570200080000000070
:1000E00057020008570200085702000800000000ED
:1000F000000000000000000000000000570200089F
:1001000000000000570200085702000857020008CC
:1001100000000000000000000000000000000000DF
:10012000570200085702000857020008570200084B
:10013000570200080000000000000000000000005E
:10014000000000000000000000000000570200084E
:10015000570200085702000857020008570200081B
:1001600057020008570200080000000000000000CD
:10017000000000000000000000000000000000007F
:10018000000000005702000800000000000000000E
:100190005702000800F002F800F041F80AA090E8C9
:1001A000000C82448344AAF10107DA4501D100F032
:1001B00036F8AFF2090EBAE80F0013F0010F18BFBE
:1001C000FB1A43F0010318479C750000BC75000042
:1001D000103A24BF78C878C1FAD8520724BF30C873
:1001E00030C144BF04680C60704700000023002445
:1001F00000250026103A28BF78C1FBD8520728BF37
:1002000030C148BF0B607047642900F0EB800020CC
:1002100070471FB502F0BAFC1FBD10B510BD00F04D
:1002200044FA1146FFF7F5FF02F0E8FB00F062FA2E
:1002300003B4FFF7F2FF03BC00F06AFA09488047F5
:1002400009480047FEE7FEE7FEE7FEE7FEE7FEE7B8
:10025000FEE7FEE7FEE7FEE704480549054A064BD0
:10026000704700003926000895010008D0050020DD
:10027000D00B0020D0070020D007002053EA020C4A
:1002800000F069802DE9F04B4FF00006002B1FBFF6
:10029000B3FA83F503FA05F424FA05F65E4012BFBB
:1002A0001643B2FA82F502FA05F4C5F120051EBF25
:1002B00022FA05FC44EA0C04203556EA044C4FEAC5
:1002C000144418BF641C4FF000084FF0000990421E
:1002D00071EB030C39D3002919BFB1FA81F701FA88
:1002E00007F6B0FA80F700FA07F6C7F120071EBF3D
:1002F00020FA07FC46EA0C062037B6FBF4FCA7EB15
:100300000507103F07F01F0BCBF120060CFA0BFB83
:100310002CFA06F644BFB3460026202FA4BF5E4643
:100320004FF0000B5BEA060C08BF4FF0010B19EB16
:100330000B09ABFB027C48EB0608C01B06FB02CC9A
:100340000BFB03CC71EB0C01C1E70B4602464146A7
:100350004846BDE8F08B13B54FF000004FF00001A8
:10036000AFF30080BDE81C40704700000FB41CB51F
:10037000074B06AA7B4469460090059800F07DF97A
:100380000020694600F08CF91CBC5DF814FB0000ED
:100390002903000070B5044685690068C10601D5CF
:1003A000302600E02026C00707D070BDD4E9012127
:1003B00030469047206A401C20626D1EF6D570BD05
:1003C00070B5044685690078C00707D170BDD4E9CF
:1003D000012120209047206A401C20626D1EF6D526
:1003E00070BD00002DE9F041064600241068752913
:1003F000314616A510D0AFF30080002802DA404243
:1004000013A507E031688A0701D512A502E0490764
:1004100004D511A5012401E0AFF3008000210A22D8
:1004200006F1240709E0B0FBF2FCB0FBF2F302FB9B
:100430001C00303078541846491C0028F3D123465C
:100440002A463046BDE8F04100F0B9B8000000008F
:100450002D0000002B000000200000002DE9F047D7
:100460004FF0000A89460446C0F820A02046E16803
:100470008847002876D0252806D0D4E90121904766
:10048000206A401C2062F1E7E16820460025884789
:10049000C4F81CA006460027C4F818A02A2E09D0CC
:1004A000304602F0A2FA38B304EB8708303EC8F8B1
:1004B000186019E059F8041B204604EB870291618B
:1004C000E1688847012F064618D1E069002820DA44
:1004D00025F020051DE0D8F8180000EB800006EBA1
:1004E00040003038C8F818002046E16888470646C2
:1004F00002F07BFA0028EED1012F0AD02E2E08D16F
:100500002046E16888477F1C0646022F45F02005FB
:10051000C4DBA069002803DA404245F00105A06170
:10052000E80701D025F01005B6B1A6F14100192861
:1005300002D8203645F400654A46314620462560FB
:100540004D46FFF761FE58B1012806D0ED1D25F09C
:10055000070000F1080989E704E005F1040985E7CF
:1005600030468AE7206ABDE8F0874FF0000200B508
:10057000134694469646203922BFA0E80C50A0E8C6
:100580000C50B1F12001BFF4F7AF090728BFA0E874
:100590000C5048BF0CC05DF804EB890028BF40F840
:1005A000042B08BF704748BF20F8022B11F0804F82
:1005B00018BF00F8012B70477047704770472DE94E
:1005C000F0470D4699469246044600F1240801681A
:1005D000880604D5E06921F01001216000E00120C7
:1005E000A84201DD471B00E00027A1697A1902EB50
:1005F0000900081AA0612078C00602D42046FFF73F
:10060000C9FE002608E0D4E901211AF80600904747
:10061000206A401C761C20624E45F4DB2078C00620
:100620000AD52046FFF7B6FE06E0D4E901213020C6
:100630009047206A401C2062381EA7F10107F4DCB5
:1006400007E0D4E9012118F805009047206A401C12
:100650002062281EA5F10105F3DC2046FFF7B0FE5D
:100660002078000602D50220BDE8F0870120FBE7D4
:1006700001694A1C02610878704700B58FB0CDE966
:1006800001310021059105497944CDE90310114656
:100690006846FFF7E3FE0FB000BD0000E5FFFFFF77
:1006A0000A6802F8010B0A607047754600F02CF8E2
:1006B000AE4605006946534620F00700854618B04F
:1006C00020B5FFF7C9FDBDE820404FF000064FF010
:1006D00000074FF000084FF0000B21F00701AC4677
:1006E000ACE8C009ACE8C009ACE8C009ACE8C00996
:1006F0008D46704710B50446AFF300802046BDE834
:100700001040FFF795BD0000004870476C050020C1
:1007100001491820ABBEFEE7260002007047FEE745
:10072000704772B6FEE72DE9F0410446876D00F090
:10073000F7F9064694F835000025022806D08020F7
:10074000606584F834500120BDE8F08120680168BC
:1007500021F0160101602068416921F080014161AA
:10076000206C08B9A06C20B12068016821F0080154
:1007700001602068016821F0010101600CE000F0D7
:10078000CFF9801B052807D920206065032084F855
:10079000350084F83450D7E720680068C007EED1F0
:1007A00094F85C103F208840B860012084F8350040
:1007B00084F834500020C7E790F83510022903D0A0
:1007C0008021416501207047052180F835100068BF
:1007D000016821F0010101600020704770B50446F6
:1007E00000F09EF90546601C02D0044800780444DD
:1007F00000F096F9401BA042FAD370BD040000201F
:100800002DE9F84FDFF84CB20D460446584512D09A
:10081000914884420FD0914884420CD09048844241
:1008200009D09048844206D08F48844203D0AC213E
:100830008EA002F0E1F828680104090C01D0000C38
:1008400003D0AD2189A002F0D7F86868F8B101287B
:100850001DD011281BD0022819D0122817D0B0F5AE
:10086000881F14D0B0F5041F11D0B0F5441F0ED06E
:10087000B0F5901F0BD0B0F5081F08D0B0F5481F99
:1008800005D0032803D0AE2178A002F0B5F80026E9
:100890004FF0010A4FF003090AFA06F02F6880466C
:1008A000074047457DD1287900F00300012801D099
:1008B00002281DD1E86848B1012807D0022805D0D8
:1008C000032803D0C02169A002F096F8A068720046
:1008D00009FA02F18843E96891400143A160606828
:1008E000297920EA0800C1F30011B1400143616099
:1008F0002879C043800712D0A86838B1012805D0F4
:10090000022803D0D12159A002F076F8E0687200E5
:1009100009FA02F18843A96891400143E16028790E
:1009200000F0030002282AD12869D8B10C2819D078
:10093000012817D0022815D0032813D0042811D07D
:1009400005280FD006280DD007280BD0082809D07D
:10095000092807D00A2805D00F2803D0DE2143A09C
:1009600002F04AF8F00804EB8003186A7107CA0E17
:100970000F21914088432969914001431962206801
:10098000720009FA02F18843297901F003019140CC
:1009900001432160686810F4403F55D04248016827
:1009A00000E051E041F480410160006826F003015D
:1009B00000F4804000903D480A18D2F80808B107BA
:1009C0000B0F0F21994088435C4501D1002114E0B1
:1009D00021498C4201D101210FE020498C4201D1F3
:1009E00002210AE01E498C4201D1032105E01D4984
:1009F0008C4201D1042100E0072199400143C2F853
:100A000008182B4908686A68B843D20200D53843F1
:100A100008602749091D08686A68B843920200D532
:100A2000384308602249091F08686A68B84392037E
:100A300000D5384308601E49083908686A68B84319
:100A4000D20300D538430860761C102EFFF424AF83
:100A5000BDE8F88F00000240000402400008024098
:100A6000000C024000100240001C02402E2E2F44B9
:100A70007269766572732F53544D333246347878E9
:100A80005F48414C5F4472697665722F5372632FE1
:100A900073746D3332663478785F68616C5F677049
:100AA000696F2E63000000004438024000300140AE
:100AB000083C014070B515460C00064604D140F2D2
:100AC0009D1108A001F098FF45B1012D04D04FF40D
:100AD000CF7104A001F090FFB46170BD2004B0613B
:100AE00070BD00002E2E2F447269766572732F53ED
:100AF000544D3332463478785F48414C5F447269D4
:100B00007665722F5372632F73746D333266347847
:100B1000785F68616C5F6770696F2E63000000002A
:100B20000148806870470000040000200248816886
:100B30000278114481607047040000200B4810B512
:100B4000016841F400710160016841F48061016055
:100B5000016841F480710160032000F0C3F80F20A8
:100B600000F006F800F024F8002010BD003C024020
:100B700070B50D4D04464FF47A712878B1FBF0F052
:100B80000A490968B1FBF0F000F0EEFE48B9102CFC
:100B900007D200222146501E00F054F800206C605D
:100BA00070BD012070BD0000040000201000002076
:100BB0000A4808B5016841F480410160006800F40A
:100BC000804000900548001F016841F0805101609D
:100BD000006800F08050009008BD000044380240DA
:100BE00010B5040003D5BC2107A001F005FF002CBF
:100BF00009DB04F01F01012088406109890001F12F
:100C0000E021C1F8000110BD2E2E2F4472697665D7
:100C100072732F53544D3332463478785F48414CC9
:100C20005F4472697665722F5372632F73746D33EC
:100C300032663478785F68616C5F636F7274657870
:100C40002E63000070B515460C460646102A03D3E5
:100C5000A82114A001F0D0FE102C03D3A92111A0CB
:100C600001F0CAFE1E480068C0F30223C3F1070268
:100C70002046042A00D90422191D072901D2002385
:100C800000E0DB1E012404FA02F1491E01409940F4
:100C90009C40641E2C4021433046BDE8704001F06A
:100CA00094BE00002E2E2F447269766572732F5306
:100CB000544D3332463478785F48414C5F44726912
:100CC0007665722F5372632F73746D333266347886
:100CD000785F68616C5F636F727465782E63000083
:100CE0000CED00E010B5044607280BD0062C09D007
:100CF000052C07D0042C05D0032C03D0902108A08C
:100D000001F07AFE154904F0070208684FF6FF0368
:100D1000184040EA0220124A1043086010BD00004B
:100D20002E2E2F447269766572732F53544D3332D1
:100D3000463478785F48414C5F4472697665722F1B
:100D40005372632F73746D3332663478785F6861E1
:100D50006C5F636F727465782E6300000CED00E0C9
:100D60000000FA052DE9F0470E4604007DD020680A
:100D7000401E0E2804D940F25A217AA001F03CFE10
:100D800096B1012E10D0022E0ED0032E0CD0042EC0
:100D90000AD0052E08D0062E06D0072E04D040F229
:100DA0005B2170A001F028FEDFF8F081D8F8000088
:100DB000F7B200F00700B04207D288F80070D8F808
:100DC000000000F00700B0424FD12068744D810749
:100DD00029D5400703D5286840F4E05028602078E2
:100DE000000703D5286840F460402860A068A0B1DF
:100DF000802812D0902810D0A0280ED0B0280CD077
:100E0000C0280AD0D02808D0E02806D0F02804D086
:100E100040F27E2153A001F0EFFD2868A16820F088
:100E2000F000084328602078C00743D0DFF87091B5
:100E30006068A9F1080988B1012822D0022824D0CD
:100E4000032822D040F2852146A001F0D5FD60683C
:100E5000012816D0022818D0032816D0D9F800008F
:100E60008007002833DA286800E030E0616820F06D
:100E7000030008432860FFF753FE814641F2883A99
:100E800011E0D9F800008003EBE7D9F800008001F9
:100E9000E7E700BFFFF744FEA0EB0901514502D987
:100EA0000320BDE8F0872868616800F00C00B0EB13
:100EB000810FEFD1D8F80010404601F00701B14290
:100EC00007D90770006800F00700B04201D0012088
:100ED000E7E720784FF4805640074FF4A0574FF4CF
:100EE000C0584FF4E05914D5E06860B1B0420AD060
:100EF000B84208D0404506D0484504D040F2C3214E
:100F000018A001F079FD2868E16820F4E05008435A
:100F100028602078000715D5206960B1B0420AD05A
:100F2000B84208D0404506D0484504D040F2CA2116
:100F30000CA001F061FD2868216920F4604040EABE
:100F4000C100286000F054F82968164AC1F3031163
:100F5000515CC8401449086014480068FFF708FE57
:100F600000209EE72E2E2F447269766572732F53F0
:100F7000544D3332463478785F48414C5F4472694F
:100F80007665722F5372632F73746D3332663478C3
:100F9000785F68616C5F7263632E6300003C02409F
:100FA00008380240962B000810000020080000209E
:100FB0000448054900680968044AC1F38221515C6C
:100FC000C84070471000002008380240A62B0008D7
:100FD0000448054900680968044AC1F34231515C7C
:100FE000C84070471000002008380240A62B0008B7
:100FF000154810B5006810F00C02144813D04110C9
:10100000042A0FD0082A0ED10F4C241F226823680F
:1010100002F03F025B0207D52068C0F38810A0FBF6
:10102000010106E0084610BD2168C1F38811A1FB4B
:1010300000010023FFF722F92168C1F30141491C97
:101040004900B0FBF1F010BD083802400024F40064
:101050002DE9F84F04007DD020680F2803D9E62140
:10106000F7A001F0C9FC2078DFF80C94C007A9F1C3
:10107000040555D060684FF480364FF4A02738B18E
:10108000B04205D0B84203D0EB21EDA001F0B4FC92
:10109000F948001D0168C1F38101012908D00068E9
:1010A000C0F3810002280AD1D9F80000400206D519
:1010B0002868800334D560680028CCD030E06068B0
:1010C000B04203D1286840F480300CE0B842286870
:1010D00003D140F480202860F4E720F480302860B9
:1010E000286820F480202860606860B1FFF718FD50
:1010F000064604E0FFF714FD801B64287ED82868AC
:101100008003F7D50CE0FFF70BFD064605E000BFB6
:10111000FFF706FD801B6428F0D828688003F7D409
:101120002078DFF8588380074FF0000A56D5E06832
:1011300030B1012804D040F21D11C1A001F05CFCC7
:1011400020691F2804D94FF48F71BDA001F054FC11
:10115000C94800E092E0001D016811F00C0F08D0B2
:101160000068C0F38100022810D1D9F800004002C5
:101170000CD42868800702D5E06801287ED1286851
:10118000216920F0F80040EAC10017E0E068B8B13A
:101190000120C8F80000FFF7C3FC064605E000BFC9
:1011A000FFF7BEFC801B0228A8D828688007F7D567
:1011B000286820F0F801206941EAC00028600DE0AD
:1011C000C8F800A0FFF7ACFC064604E0FFF7A8FC57
:1011D000801B022892D828688007F7D4207800075F
:1011E0002ED5A54EA64F60697036D0B1012808D023
:1011F0004FF4AF7192A001F0FFFB00E04BE160699A
:1012000078B101203860FFF78BFC074605E000BF8E
:10121000FFF786FCC01B0228C6D830688007F7D5C8
:101220000EE0C7F800A0FFF77BFC074605E000BF13
:10123000FFF776FCC01B0228B6D830688007F7D4C9
:101240002078400776D5A068002740B1012806D055
:10125000052804D04FF4C57179A001F0CDFBDFF86B
:1012600018B20BF13C0BDBF80000C0000DD4DBF82A
:10127000001041F08051CBF8001000E038E1DBF8BD
:101280000000012700F0805000907E4E3068C005BD
:1012900011D4306840F480703060FFF741FC00905A
:1012A00006E000BFFFF73CFC0099401A022891D8E5
:1012B0003068C005F6D5704EA0686C3601280FD096
:1012C0000528306810D020F001003060306820F030
:1012D00004003060A068B8B1FFF722FC00900FE076
:1012E000306840F00100F4E740F004003060F7E7B8
:1012F000FFF716FC0099411A41F2883081428BD8E1
:1013000030688007F4D50EE0FFF70AFC009007E094
:10131000FFF706FC0099411A41F2883081428BD8D0
:1013200030688007F4D42FB1DBF8001021F0805131
:10133000CBF80010A069002876D0012809D0022837
:1013400007D040F2CD113EA001F056FBA069002865
:10135000F2D04948001D0068C0F381000228A0694E
:101360006DD0022805D0C8F860A0FFF7D9FB04466D
:1013700094E0E06938B1B0F5800F04D04FF4EB7120
:101380002FA001F039FB206A3F2804D940F2D71181
:101390002BA001F031FB606A3238B0F5BF7F04D971
:1013A0004FF4EC7126A001F027FBA06A02280AD0B6
:1013B000042808D0062806D0082804D040F2D91105
:1013C0001FA001F019FBE06A801E0D2804D94FF41C
:1013D000ED711BA001F010FB4746C8F860A0FFF7B5
:1013E0009FFB064605E000BFFFF79AFB801B022823
:1013F00051D828688001F7D4D4E907010843A16ACD
:10140000214A490802EB0141626A41EA821108431C
:1014100094F82C1040EA0161C9F8001001203866E8
:10142000FFF77EFB044606E064E000BFFFF778FBB1
:10143000001B02282FD828688001F7D55AE031E038
:101440002E2E2F447269766572732F53544D3332AA
:10145000463478785F48414C5F4472697665722FF4
:101460005372632F73746D3332663478785F6861BA
:101470006C5F7263632E63000438024000004742D1
:10148000800E4742007000400000FFFFFFF748FB5E
:10149000001B022802D90320BDE8F88F28688001CC
:1014A000F4D427E00128F7D0D9F80000E26900F46D
:1014B000800191421CD1226A00F03F01914217D174
:1014C00047F6C071626A0140B1EB821F10D1A26A77
:1014D0004FF0FF3300F4403103EB5202B1EB024F07
:1014E00006D194F82C1000F07060B0EB016F01D0C1
:1014F0000120D1E70020CFE770B504007ED08149FC
:10150000206888420DD0804988420AD07F498842AD
:1015100007D07F49884204D04FF4A0717DA001F02C
:101520006BFA60684FF4827630B1B04204D040F27A
:10153000411178A001F060FAA06850B1B0F5806F59
:1015400007D0B0F5004F04D04FF4A17171A001F0A5
:1015500053FAE068B0F5006F05D020B140F24311B6
:101560006CA001F049FAA069B0F5007F08D038B14D
:10157000B0F5802F04D04FF4A27166A001F03CFAC0
:10158000E06990B1082810D010280ED018280CD08F
:1015900020280AD0282808D0302806D0382804D09F
:1015A00040F245115BA001F027FA206A30B1802893
:1015B00004D04FF4A37157A001F01EFA606A002511
:1015C00048B3102806D040F2471152A001F014FA97
:1015D000606A00B3E069A0B1082812D0102810D0CA
:1015E00018280ED020280CD028280AD0302808D05F
:1015F000382806D040F2591146A000E009E001F079
:10160000FBF925616561A56294F85100002830D08E
:1016100034E0012070BD206930B1022804D04FF4BD
:10162000A5713CA001F0E8F9606930B1012804D04F
:1016300040F24B1137A001F0DFF96068B04216D1DB
:10164000E0690028DFD00828DDD01028DBD018287A
:10165000D9D02028D7D02828D5D03028D3D03828A2
:10166000D1D040F24F112BA001F0C6F9CBE7E561D4
:10167000C9E784F85050204600F068F8022084F84A
:1016800051002068016821F040010160A088218993
:1016900000F4827001F404410843A18901F400615F
:1016A0000843217C01F002010843217D01F0010182
:1016B0000843218B01F400710843217F01F03801B8
:1016C000084394F8201001F080010843218D01F4B3
:1016D0000051084321680860A069042101EA104014
:1016E00094F8241001F01001084321684860206834
:1016F000C16921F40061C1616565012084F8510070
:10170000002070BD0030014000380040003C004027
:10171000003401402E2E2F447269766572732F5368
:10172000544D3332463478785F48414C5F44726997
:101730007665722F5372632F73746D33326634780B
:10174000785F68616C5F7370692E630010B586B056
:10175000044614216846FEF708FF134920688842B2
:1017600020D11248016841F480510160006800F402
:10177000805005900D481438016841F00201016065
:101780000068694600F002000590282000900220C1
:10179000019001200290032003900520049004484A
:1017A000FFF72EF806B010BD00300140443802406B
:1017B000000402402DE9F84F044680681D46164695
:1017C0008946002738B1B0F5004F04D04FF442717C
:1017D00057A001F011F994F8500001280ED04FF0F5
:1017E000010B84F850B0FFF79BF9804694F8510044
:1017F0004FF0000A012804D0022793E00220BDE840
:10180000F88FB9F1000F73D0002E71D0032084F847
:101810005100C4F854A0C4F83090A686E686C4F8F7
:1018200038A0A4F83CA0A4F83EA0C4F844A0C4F892
:1018300040A0A068B0F5004F09D12068016821F0F0
:10184000400101602068016841F480410160206826
:101850000168490603D4016841F040010160E06875
:10186000B0F5006F606803D030B3012E24D041E0A2
:1018700008B1012E1CD1206B21680088C86006E0E9
:1018800020688168890709D5216B0988C160206BB0
:10189000801C2063E08E401EE08609E0FFF740F9DF
:1018A000A0EB0800A84202D3681C01D031E07DB350
:1018B000E08E0028E4D120E0206B216800780873D6
:1018C00006E020688168890709D5216B09780173D2
:1018D000206B401C2063E08E401EE0860AE0FFF78C
:1018E0001FF9A0EB0800A84203D3681C02D010E047
:1018F00017E06DB1E08E0028E3D14246294620462C
:1019000000F0C4FD08B120206065A06818B106E0B1
:10191000FFE7032706E02068C16880680090606DDB
:1019200000B1012784F851B084F850A0384666E72A
:101930002E2E2F447269766572732F53544D3332B5
:10194000463478785F48414C5F4472697665722FFF
:101950005372632F73746D3332663478785F6861C5
:101960006C5F7370692E630010B5401EB0F1807F0C
:1019700001D3012010BD4FF0E02460610F216017FA
:1019800001F023F80020A06107202061002010BD95
:1019900070477047F8B5016804460868CA684B6923
:1019A00010F00F0F4FF0000559D003F0010602F4BC
:1019B0009077374365D0C10705D0D10503D5216C99
:1019C00041F001012164410705D5D90703D0216CFD
:1019D00041F002012164810705D5D90703D0216CAC
:1019E00041F004012164010707D502F020013143D1
:1019F00003D0216C41F008012164216C00293AD008
:101A0000800604D5900602D5204600F04CFE2068E2
:101A10004069216CC0F38010090700D460B32046F0
:101A200000F01AFE20684069400621D52068143075
:101A300050E8001F21F0400140E80012002AF5D1D3
:101A4000A06BA8B16C490165A06BFEF7B5FE00283C
:101A500011D0A06B016D01B0BDE8F04008478306CE
:101A60000FD593060DD52046BDE8F84000F01BBE0B
:101A70002046FFF78EFFF8BD2046FFF78AFF25645A
:101A8000F8BD266B2023012E79D1C60677D5D60660
:101A900075D50868486800904869400640D5A16B34
:101AA000086840680004000CEAD0A28D8242E7D9A1
:101AB000E085C869B0F5807F2DD020680C3050E8F3
:101AC000001F21F4807140E80012002AF5D120683F
:101AD000143050E8001F21F0010140E80012002AF4
:101AE000F5D12068143050E8001F21F0400140E893
:101AF0000012002AF5D184F83E30256320680C30AE
:101B000050E8001F21F0100140E80012002AF5D132
:101B1000A06BFEF708FEA08DE18D401A81B229E08E
:101B2000A08DE18D401A81B2E08D0028A8D0002957
:101B3000A6D020680C3050E8002F22F4907240E8C4
:101B40000026002EF5D12068143050E8002F22F036
:101B5000010240E80026002EF5D184F83E302563CE
:101B600020680C3050E8002F22F0100240E80023DB
:101B7000002BF5D12046FFF70BFFF8BDFFE7050668
:101B80002BD5150629D594F83D002128F5D1A0685C
:101B9000B0F5805F01D12069B0B1206A411C21629B
:101BA000216800784860E08C401E0004000CE0844E
:101BB000E3D12068C16821F08001C1602068C1685C
:101BC00041F04001C160D8E7206A0088C0F30800F6
:101BD0004860206A801C2062E5E74006CDD55006AB
:101BE000CBD5CA68204622F04002CA6084F83D3056
:101BF00000F05FF9C1E700004926000870B5040055
:101C000020D0A06935490028354A364B20681BD0C2
:101C100088420AD0904208D0984206D040F2731110
:101C200031A000F0E9FEA069C8B1A069B0F5807FDD
:101C300015D0B0F5007F12D0B0F5407F0FD04FF433
:101C4000BA7109E0012070BD884208D0904206D0E8
:101C5000984204D04FF4BC7123A000F0CDFEA068E0
:101C600038B1B0F5805F04D04FF4BD711EA000F014
:101C7000C3FEE06938B1B0F5004F04D040F27B11EB
:101C800019A000F0B9FE94F83D00002520B984F8B1
:101C90003C50204600F046F8242084F83D0020689F
:101CA000C16821F40051C160204600F05DFD20684C
:101CB000016921F4904101612068416921F02A0104
:101CC00041612068C16841F40051C1602564202051
:101CD00084F83D0084F83E00002070BD00100140F3
:101CE00000440040001401402E2E2F447269766596
:101CF00072732F53544D3332463478785F48414CD9
:101D00005F4472697665722F5372632F73746D33FB
:101D100032663478785F68616C5F756172742E63C7
:101D20000000000010B586B0044614216846FEF796
:101D30001CFC18492068884229D1174800210268F4
:101D400042F010020260006800F010000590124896
:101D50001438026842F001020260006800F00100DD
:101D600005904FF4C06000900220CDE901010320EE
:101D700003900720049069460848FEF741FD0022C1
:101D800011462520FEF75EFF2520FEF729FF06B04D
:101D900010BD000000100140443802400000024025
:101DA00090F83E30202B0ED159B152B190F83C3012
:101DB000012B08D0012380F83C300023036300F09E
:101DC000A3BD0120704702207047000010B50068D5
:101DD000084988420DD1012207490848FFF7E0FF72
:101DE000BDE810404FF47A7301220349034800F024
:101DF00007B810BD0010014014000020A80000200A
:101E00002DE9F843044690F83D001F4616460D465E
:101E100020284CD1C5B1BEB194F83C00012846D071
:101E2000012084F83C004FF00008C4F840802120D5
:101E300084F83D00FEF774FEA6848146E684A0681F
:101E4000B0F5805F03D004E00120BDE8F88320698D
:101E500028B12E465FF0000584F83C800EE0002695
:101E6000FAE78021204600F06CFDA0B9AEB116F86B
:101E7000010B21684860E08C401EE084E08C4B46FA
:101E80004FF0000200970028EBD14FF040012046B0
:101E900000F057FD30B10320D7E735F8020BC0F34F
:101EA0000800E6E7202084F83D000020CDE702206E
:101EB000CBE77047FEE72DE9F04107461C46154683
:101EC0000E462A2000F008FA2837B8B200F020FAAF
:101ED0002835A8B200F01CFA2B2000F0FDF93536A9
:101EE000B0B200F015FA3534A0B200F011FABDE836
:101EF000F0412C2000F0F0B908B5002100908723B4
:101F0000F022084600F002F808BD00002DE9F04775
:101F1000141A5F1A641C7F1C7C43002564004FF474
:101F20009068089E444502D9A4F590654446FFF7A1
:101F3000C2FF370ADFF84C90DFF84CA0F6B2002061
:101F4000494606E001F8107001EB4002401C567053
:101F500080B2B0EB540FF5D3012210215046FEF7AA
:101F6000A9FDA1B2074800F0F1F8002D07D04545C2
:101F700002D9A5F59065E2E72C460025DFE7BDE82C
:101F8000F0870000EC0000200004024010B56E4C09
:101F9000012280212046FEF78DFD7820FEF71EFCF1
:101FA000002240212046FEF785FD7820FEF716FC32
:101FB000012240212046FEF77DFD7820FEF70EFC31
:101FC000112000F089F97820FEF708FC362000F097
:101FD00083F9702000F08EF93A2000F07DF9052099
:101FE00000F088F9B22000F077F90C2000F082F9B7
:101FF0000C2000F07FF9002000F07CF9332000F085
:1020000079F9332000F076F9B72000F065F9352032
:1020100000F070F9BB2000F05FF9192000F06AF9B8
:10202000C02000F059F92C2000F064F9C22000F023
:1020300053F9012000F05EF9C32000F04DF91220A1
:1020400000F058F9C42000F047F9202000F052F9C0
:10205000C62000F041F90F2000F04CF9D02000F02C
:102060003BF9A42000F046F9A12000F043F9E0205C
:1020700000F032F9D02000F03DF9042000F03AF9E8
:102080000D2000F037F9112000F034F9132000F092
:1020900031F92B2000F02EF93F2000F02BF95420CD
:1020A00000F028F94C2000F025F9182000F022F962
:1020B0000D2000F01FF90B2000F01CF91F2000F08C
:1020C00019F9232000F016F9E12000F005F9D020DD
:1020D00000F010F9042000F00DF90C2000F00AF9CE
:1020E000112000F007F9132000F004F92C2000F073
:1020F00001F93F2000F0FEF8442000F0FBF85120E9
:1021000000F0F8F82F2000F0F5F81F2000F0F2F8AA
:102110001F2000F0EFF8202000F0ECF8232000F062
:10212000E9F8212000F0D8F8292000F0D5F80021A6
:102130008623EF220846FFF7BEFE20460022BDE8B8
:1021400010408021FEF7B6BC0004024000F094B9B4
:102150002DE9F05F203AD7B21C46F022A2EB5402E0
:1021600082425BD3C4F187028A4257DB0A19521EAE
:1021700093B200EB5402521E92B2FFF79CFE3F4E08
:10218000102C1AD0202C18D00C2C49D0182C45D14A
:102190003B4907EB47004FF0300A002401EB0019E0
:1021A0004FEA060819F80460E00756D00427002516
:1021B000300654D5B8F8000053E0600700D0012085
:1021C00000EBD400610810FB01F000F0FF082D487F
:1021D000002500EB071A00F5BE5000EBC71BB14607
:1021E0001AE0102C09D0202C18D11BF8056000270C
:1021F000300605D5B9F8000004E01AF80560F6E7E6
:10220000B9F8020000F084F870067F1C060EFFB2D9
:10221000082FEDD36D1CEDB24545E2D3BDE8F09F2C
:10222000194807EB47014FF00C09002400EB810827
:10223000002518F80470380601D5308800E0708851
:1022400000F066F878066D1C070EEDB2062DF2D38D
:10225000641CE4B24C45EBD3E0E70827A7E7B8F8E5
:10226000020000F055F870066D1C060EEDB2BD427E
:102270009ED3641CE4B2544594D3CFE716000020EB
:102280001236000822300008AE2B00082DE9F04776
:10229000044600F0FF0910190D46DDE908A61FFAF3
:1022A00080F8581987B210E0444503D305EB0A00C3
:1022B0004C4685B2BD420DD2534629462046FFF713
:1022C00047FF04EB5A0084B2761C3278A2F120005A
:1022D0005E28E9D9BDE8F08701B500221021044845
:1022E000FEF7E8FB01216846FFF730FF08BD00005C
:1022F0000004024001B5012210210448FEF7DAFB78
:1023000001216846FFF722FF08BD000000040240DB
:1023100008B500210091010A8DF800108DF8010028
:10232000012210210348FEF7C5FB02216846FFF792
:102330000DFF08BD00040240F0B587B014216846C7
:10234000FEF713F926480025016841F004010160F9
:10235000016801F004010591016841F0800101600C
:10236000016801F080010591016841F001010160FF
:10237000016801F001010591016841F0020101606D
:102380000068184E00F00200059001220721304637
:10239000FEF790FB144F0022D0213846FEF78AFB4F
:1023A0004FF40050CDE900050124694602943046FF
:1023B000FEF726FA0720CDE9000469463046CDE94C
:1023C0000245FEF71DFAD020CDE900040320CDE937
:1023D000024069463846FEF713FA07B0F0BD000028
:1023E000303802400008024000040240114810B595
:1023F0000F4901604FF4827141604FF400418160E8
:1024000000210222C0E903120122426152028261CC
:102410001022C0E90721416281620A21C162FFF7EF
:102420006BF8002803D0BDE81040FEF77AB910BD64
:1024300000300140500000200C4810B50A490160EE
:102440004FF4E1314160002181600C22C160C0E99C
:1024500004128161C161FFF7D1FB002803D0BDE800
:102460001040FEF75EB910BD00100140A80000202A
:10247000FEE7FEE7704700000A4601464FF47A7314
:102480000148FFF797B900005000002038B5044616
:102490001248134B0068B0FBF3F04FF47A735843C3
:1024A00000906068B0F5827F0DD10B46009200224B
:1024B0008021204600F016F870B1606D40F02000D9
:1024C0006065032038BD009830B1401E0090206840
:1024D0008068C0430006F6D5002038BD10000020FB
:1024E00000366E012DE9F8431E46914688460446A3
:1024F000089DFEF715FB401B351AFEF711FB07463A
:1025000025480068C0F3CB30684338E0701C37D0F2
:10251000FEF706FBC01BA84203D215B1009860B3BA
:102520002CE02068416821F0E00141606068B0F56E
:10253000827F0BD1A068B0F5004F02D0B0F5806F5C
:1025400004D12068016821F040010160A06AB0F563
:10255000005F09D12068016821F400510160206802
:10256000016841F400510160012084F8510000200D
:1025700084F850000320BDE8F8830025401E009039
:102580002068816838EA010004D000214945BDD1A6
:102590000020F0E70121F9E7100000207047FEF766
:1025A000C5BA000030B593B030216846FDF7DDFFB5
:1025B00014210CA8FDF7D9FF1D480025016841F042
:1025C00080510160006800F0805011901948016846
:1025D00021F4404141F4004101600068022400F40C
:1025E0004040119001200090000401908001CDE94D
:1025F000064008AA0420542182E813000B90684684
:10260000FEF726FD08B172B6FEE70CA90F2081E89F
:1026100031004FF48050CDE90F0502210CA8FEF7E0
:10262000A1FB002801D072B6FEE713B030BD000058
:1026300040380240007000400248016841F47001D7
:102640000160704788ED00E010B5806B0021C18506
:10265000C184FFF79EF910BD01680C3151E8002FCD
:1026600022F4907241E80023002BF5D10168143167
:1026700051E8002F22F0010241E80023002BF5D1A0
:10268000016B012909D101680C3151E8002F22F0BA
:10269000100241E80023002BF5D1202180F83E10E4
:1026A00000210163704708B590F83E10222901D03F
:1026B000022008BD82684FF480539A4201D101691B
:1026C00021B1816A9A421BD04AB10AE00268816A4C
:1026D0005268C2F308020A80816A891C08E0026914
:1026E00072B10268526802F07F020A70816A491C66
:1026F0008162C18D491E0904090CC18503D019E00E
:1027000002685268F1E70168CA6822F02002CA60D4
:102710000168CA6822F48072CA6001684A6922F0BE
:1027200001024A61202180F83E10016B012903D08B
:10273000FFF74CFB002008BD0021016301680C314C
:1027400051E8002F22F0100241E80023002BF5D1C0
:1027500001680A68D20602D50A6849680091818D2D
:10276000FFF716F9E6E7000070B5044640685449E3
:10277000884204D940F6616152A000F03DF9E0685A
:1027800038B1B0F5005F04D040F662614DA000F0B2
:1027900033F9206950B1B0F5806F07D0B0F5C06F44
:1027A00004D040F6636147A000F026F960694FF657
:1027B000F371084200D120B940F6646141A000F0F5
:1027C0001BF920680169E26821F44051114301615D
:1027D0002169A068E26908436169114322680843DE
:1027E000D16849F20C6399430143D1602068416983
:1027F000A26921F440711143416141492068884236
:1028000002D04049884202D1FEF7E2FB01E0FEF728
:10281000CFFBE2690023192164253226B2F5004F6F
:10282000626828D0A0FB0101930F9200FDF726FDFE
:102830000146B0FBF5F06FF01802504301EB800049
:1028400006EB0010B0FBF5F000F0F002B1FBF5F084
:1028500002EB0012B1FBF5F06FF01803584301EBE7
:10286000800006EB0010B0FBF5F000F00F002168CF
:102870001044886070BDA0FB010192185B41FDF718
:10288000FDFC0146B0FBF5F00201B1FBF5F06FF085
:102890001803584301EB800006EBC000B0FBF5F0D5
:1028A00000F0F80002EB4002B1FBF5F0584301EBF9
:1028B000800006EBC000B0FBF5F000F00700D6E7A3
:1028C000A037A0002E2E2F447269766572732F53A5
:1028D000544D3332463478785F48414C5F447269D6
:1028E0007665722F5372632F73746D33326634784A
:1028F000785F68616C5F756172742E630000000020
:10290000001001400014014081628285C2850021CF
:102910000164222280F83E2080F83C10016921B138
:102920000168CA6842F48072CA6001684A6942F06C
:1029300001024A610068C16841F02001C1600020C5
:1029400070472DE9F041984617460E460446069D0D
:1029500027E0681C25D02DB1FEF7E2F8A0EB0800B7
:10296000A8421ED920680C3050E8001F21F4D07115
:1029700040E80012002AF5D12068143050E8001F0A
:1029800021F0010140E80012002AF5D1202084F84E
:102990003D0084F83E00002084F83C000320BDE8A0
:1029A000F0812068006836EA000004D00020B842B8
:1029B000CFD00020F3E70120F9E700000148FEF73F
:1029C000E9BF0000A8000020FEE70907090E002863
:1029D00004DB00F1E02080F80014704700F00F00E5
:1029E00000F1E02080F8141D704730380A2801D229
:1029F0000120704700207047704700001CB500257B
:102A0000FEF79CF8FFF7CEFDFFF796FCFFF714FDED
:102A1000FFF7ECFCFFF7BAFA0020FFF76DFA454923
:102A200000200C260880444947F6FF703346088092
:102A300042A0CDE900600021A0220846FFF726FC55
:102A400041A0CDE900600C23A0220F210020FFF758
:102A50001DFC42A0CDE900601023A0221E21002011
:102A6000FFF714FC41A0CDE900600C23A0222D212A
:102A70000020FFF70BFC404CDFF80081DFF80091ED
:102A800007274FF4FA7A00BFB5FBF7F007FB1050A9
:102A9000072817D2DFE800F0040B2F31383F410040
:102AA000002201212046FEF705F8012201E0012263
:102AB00024E002212046FDF7FDFF012204212046EB
:102AC000FDF7F8FF6D1CEDB298F800202DA12C4801
:102AD000FDF74CFCCDE900690C23F0223C210020DD
:102AE000FFF7D4FB98F80000401C88F8000050461F
:102AF000FDF774FEC8E7012207E00022012120460D
:102B0000FDF7D8FF0022D4E7002201212046FDF77F
:102B1000D1FF012207E0012200E00022012120462E
:102B2000FDF7C8FF002202212046FDF7C3FF002267
:102B3000C4E700001800002016000020426F7269F0
:102B40006E675F54454348005446544C43442054F8
:102B5000455354203234302A3133350053544D33E9
:102B6000324837333056425436000000323032316A
:102B70002F382F32300000000008024000000020F3
:102B80001C00002025346441424344004FF0407053
:102B9000E1EE100A70470000000000000000010292
:102BA00003040607080900000000010203040000F6
:102BB0000000000000000000000000002020202095
:102BC0002000002000002828500000000000000025
:102BD000000000005050F85050F850500000002005
:102BE00070A8A0603028A8702000000048A8B0A8F5
:102BF00074345448000000002050506CA8A8946819
:102C000000004040800000000000000000000810AC
:102C1000102020202020101008004020201010102C
:102C200010102020400000000020A87070A8200094
:102C3000000000000010107C1010000000000000D8
:102C4000000000000000404080000000000000FC88
:102C50000000000000000000000000000000004034
:102C600000000004080810102020404080000000F0
:102C70007088888888888870000000002060202084
:102C8000202020700000000070888810204080F80C
:102C900000000000708808300808887000000000FC
:102CA0001030305090F8103800000000F88080F0AC
:102CB0008808887000000000304880B0C88888709C
:102CC00000000000780810102020202000000000E4
:102CD00070888870888888700000000070888898E4
:102CE0006808906000000000000020000000002044
:102CF0000000000000000020000000202000000074
:102D00000810204040201008000000000000FC00D7
:102D1000FC000000000000004020100808102040C7
:102D200000000000708888102020002000000000B3
:102D3000384494B4B4B84438000000002020305027
:102D4000507848CC00000000F0484870484848F0EF
:102D5000000000007888808080808870000000007B
:102D6000F0484848484848F000000000F8485070D3
:102D7000504048F800000000F8485070504040E0D3
:102D800000000000384880809C8848300000000027
:102D9000CC484878484848CC00000000F820202063
:102DA000202020F8000000007C10101010101010DF
:102DB00090E00000EC485060504848EC00000000F3
:102DC000E0404040404044FC00000000DCD8D8D83F
:102DD000A8A8A8AC00000000DC486868585848E87B
:102DE00000000000708888888888887000000000D3
:102DF000F0484870404040E000000000708888883B
:102E000088E8987018000000F0484870504848EC76
:102E10000000000078888060100888F00000000042
:102E2000F8A820202020207000000000CC4848484E
:102E30004848483000000000CC484850503020201E
:102E400000000000A8A8A8A8705050500000000082
:102E5000D8505020205050D800000000D85050507A
:102E60002020207000000000F8901020204048F83A
:102E70000000382020202020202020203800004082
:102E800040202020101010080800701010101010A2
:102E90001010101070002050000000000000000012
:102EA00000000000000000000000000000FC4020C6
:102EB00000000000000000000000000000000030E2
:102EC0004838483C000000C04040407048484870C6
:102ED00000000000000000384840483000000018A2
:102EE000080808384848483C00000000000000304E
:102EF00048784038000000182420207820202078CE
:102F0000000000000000003C48304038443800C059
:102F100040404070484848EC00000020200000601D
:102F20002020207000000010100000301010101041
:102F300010E000C040404058506050C8000000E021
:102F400020202020202020F800000000000000F0B9
:102F5000A8A8A8A800000000000000F0484848EC1D
:102F60000000000000000030484848300000000029
:102F7000000000F04848487040E0000000000038C1
:102F800048484838081C0000000000D8604040E075
:102F900000000000000000784030087800000000C9
:102FA000002020782020203800000000000000D8F9
:102FB0004848483C00000000000000D85050202045
:102FC00000000000000000A8A870505000000000A1
:102FD000000000D8502050D800000000000000CCB5
:102FE0004848301020C000000000007810202078F1
:102FF00000001810101010301010101018001010D1
:103000001010101010101010101060202020201030
:1030100020202020600068900000000000000000D8
:1030200000000000000000000000000000000000A0
:103030000000000000101010101010100000101000
:1030400000000012242448000000000000000000DE
:1030500000000000001212127E2424247E24242466
:1030600000000000083C4A4A48380C0A0A4A4A3C18
:10307000080800000044A4A8A8B0541A2A2A4A4408
:10308000000000000030484848506EA494988976AB
:103090000000006020204000000000000000000050
:1030A0000000000204080810101010101008080496
:1030B000020000402010100808080808081010201E
:1030C0004000000000001010D63838D61010000064
:1030D000000000000000000808087F080808000041
:1030E0000000000000000000000000000000602060
:1030F000204000000000000000007E0000000000F2
:1031000000000000000000000000000000006060FF
:1031100000000000020404040808101010202040E1
:103120004000000000182442424242424242241819
:103130000000000000083808080808080808083ED1
:1031400000000000003C4242420204081020427E7F
:1031500000000000003C4242020418040242423CCB
:103160000000000000040C0C142424447F04041FFD
:1031700000000000007E4040407844020242443893
:103180000000000000182440405C62424242221CC1
:1031900000000000007E4204040808101010101007
:1031A00000000000003C4242422418244242423CBB
:1031B00000000000003844424242463A020224180D
:1031C000000000000000000018180000000018189F
:1031D00000000000000000000010000000000010CF
:1031E0001010000000020408102040201008040203
:1031F00000000000000000007E00007E00000000D3
:1032000000000000004020100804020408102040C4
:1032100000000000003C4242620408080800181840
:10322000000000000038445AAAAAAAAAAA5C423C9C
:1032300000000000001010182828243C444242E7F7
:103240000000000000F8444444784442424244F8FC
:1032500000000000003E424280808080804244386E
:103260000000000000F8444242424242424244F818
:103270000000000000FC424848784848404242FCB8
:103280000000000000FC424848784848404040E0C8
:1032900000000000003C44448080808E8444443818
:1032A0000000000000E7424242427E42424242E7C2
:1032B00000000000007C1010101010101010107C86
:1032C00000000000003E0808080808080808080870
:1032D00088F0000000EE444850705048484444EEE6
:1032E0000000000000E0404040404040404042FEBE
:1032F0000000000000EE6C6C6C6C6C54545454D69E
:103300000000000000C7626252524A4A4A4646E242
:103310000000000000384482828282828282443827
:103320000000000000FC424242427C40404040E03D
:1033300000000000003844828282828282B24C38CF
:103340000600000000FC4242427C4848444442E3FC
:1033500000000000003E4242402018040242427C2D
:103360000000000000FE9210101010101010103815
:103370000000000000E74242424242424242423CD8
:103380000000000000E742424424242828181010BE
:103390000000000000D654545454546C28282828A7
:1033A0000000000000E7422424181818242442E7F3
:1033B0000000000000EE44442828101010101038BF
:1033C00000000000007E840408081020204242FC17
:1033D0000000001E1010101010101010101010100F
:1033E0001E000000402020201010100808040404D3
:1033F00002020078080808080808080808080808F1
:103400007800001824000000000000000000000008
:1034100000000000000000000000000000000000AC
:1034200000FF00601000000000000000000000002D
:1034300000000000000000000038440C34444C360A
:10344000000000000000C0404058644242426458FE
:103450000000000000000000001C22404040221C30
:103460000000000000000602023E42424242463B8B
:103470000000000000000000003C42427E40423C50
:103480000000000000000C12107C10101010107CC6
:103490000000000000000000003E444438403C4270
:1034A000423C00000000C040405C6242424242E7B1
:1034B0000000000000303000007010101010107C70
:1034C00000000000000C0C00001C040404040404B0
:1034D000447800000000C040404E4850704844EE20
:1034E0000000000000107010101010101010107C60
:1034F000000000000000000000FE4949494949ED74
:10350000000000000000000000DC6242424242E78E
:103510000000000000000000003C42424242423CE9
:10352000000000000000000000D8644242426458DD
:1035300040E0000000000000001A26424242261A25
:10354000020700000000000000EE3220202020F8DA
:103550000000000000000000003E42403C02427CAF
:103560000000000000000010107C10101010120C61
:10357000000000000000000000C642424242463BFC
:10358000000000000000000000EE44442828101055
:10359000000000000000000000DB894A5A54242487
:1035A0000000000000000000007624181818246EA7
:1035B000000000000000000000E74224241818105A
:1035C0001060000000000000007E44081010227E01
:1035D00000000003040404040404080404040404B4
:1035E0000300080808080808080808080808080868
:1035F000080800C02020202020201020202020208B
:10360000C000205A0400000000000000000000007C
:1036100000000000000000000000000000000000AA
:10362000000000000000000000000000000000009A
:10363000000000000000000000000000000000008A
:103640000000000000000000000006000600060068
:103650000600060006000600020004000400040044
:103660000000000000000600060006000000000048
:10367000000000000000066006600CC01980110008
:103680002200000000000000000000000000000018
:10369000000000000000000000000000000000002A
:1036A0000000000000000000000008400840084042
:1036B00008407FE07FE01040108010801080108074
:1036C0007FE07FE0208020802080208000000000BC
:1036D0000000000000000000020002000F801AC07D
:1036E00032C033C032001A000E000700038003808E
:1036F00002C032C03AC032C012800F000200020085
:103700000000000000000000000070805080890070
:10371000890089008A008A005C0075C005400A2083
:103720000A20122012201220214021C00000000097
:10373000000000000000000000001C003600360001
:10374000360036003600340019E038805880CC80CE
:10375000CC80C680C700C31063903CE0000000002E
:1037600000000000000030003800080008001000D1
:103770002000000000000000000000000000000029
:103780000000000000000000000000000000000039
:103790000000000000000020004000800100010047
:1037A00002000200040004000400040004000400FD
:1037B000040002000200010001000080004000201F
:1037C0000000000000004000200010000800080079
:1037D00004000400020002000200020002000200D5
:1037E000020004000400080008001000200040004F
:1037F00000000000000000000000000000000200C7
:1038000003000200623072F00B800F807AF06230A9
:1038100002000200020000000000000000000000A2
:103820000000000000000000000000000000000098
:10383000020002000200020002007FF0020002000B
:103840000200020002000000000000000000000072
:103850000000000000000000000000000000000068
:103860000000000000000000000000000000000058
:1038700000000000000030003800080008001000C0
:103880002000000000000000000000000000000018
:10389000000000000000000000007FE000000000C9
:1038A0000000000000000000000000000000000018
:1038B0000000000000000000000000000000000008
:1038C00000000000000000000000000000000000F8
:1038D0000000000000003800380038000000000040
:1038E00000000000000000200060004000C00080D8
:1038F0000080010001000200020006000400040034
:103900000800080010001000300020006000400097
:103910000000000000000000000000000F001980FF
:1039200030C030C060606060606060606060606037
:103930006060606030C030C019800F00000000007F
:1039400000000000000000000000000002003E0037
:103950000600060006000600060006000600060037
:10396000060006000600060006003FC0000000003A
:103970000000000000000000000000001F00218087
:1039800040C060C060C000C000800180030006002D
:10399000040008001040204060407FC0000000008C
:1039A0000000000000000000000000001E00630096
:1039B000618061800180018003000E000180008031
:1039C00000C000C060C060C061801F000000000037
:1039D00000000000000000000000000001800180E5
:1039E000038005800580098011801180218041803D
:1039F0007FF0018001800180018007E0000000006D
:103A00000000000000000000000000003FC0200097
:103A100020002000200020002F00318020C000C0A6
:103A200000C060C060C0418021801F000000000015
:103A3000000000000000000000000000078018C027
:103A400030C0300020006000678068C07060606037
:103A5000606060602060304018C00F00000000000F
:103A60000000000000000000000000001FE03060C7
:103A70002040208000800080010001000200020040
:103A80000200060006000600060006000000000016
:103A90000000000000000000000000001F8030C097
:103AA000606060606060304038C00F00138030C0DC
:103AB000606060606060606030C00F800000000087
:103AC0000000000000000000000000000F00308037
:103AD00030C0604060606060606060E031601E60C7
:103AE000006000C000C0308031801E000000000077
:103AF00000000000000000000000000000000000C6
:103B000000000000000007000700070000000000A0
:103B10000000000000000700070007000000000090
:103B20000000000000000000000000000000000095
:103B30000000000000000600060000000000000079
:103B40000000000000000000060006000200040063
:103B50000400000000000000000000200040008081
:103B600001000200040008001000200010000800FE
:103B7000040002000100008000400020000000005E
:103B80000000000000000000000000000000000035
:103B90000000000000007FE00000000000007FE067
:103BA0000000000000000000000000000000000015
:103BB00000000000000000000000200010000800CD
:103BC000040002000100008000400020004000804E
:103BD00001000200040008001000200000000000A6
:103BE00000000000000000000000000007C0186096
:103BF000203020303030303000E001800200020000
:103C0000020000000000070007000700000000009D
:103C100000000000000000000000070018C0304055
:103C200033A026A066A065A06D206D206D206D20BC
:103C30006D4027803020304018C00F000000000089
:103C40000000000000000000000000000600060068
:103C50000A000B00090009001100118010801F806C
:103C600020C020C0204040404060F0F00000000034
:103C70000000000000000000000000007F0031C0D4
:103C800030C030C030C030C031803F0030C0304024
:103C9000306030603060306030C07F8000000000F5
:103CA00000000000000000000000000007C018C075
:103CB0003060302020206000600060006000600004
:103CC000600060203020304018C00F00000000006D
:103CD000000000000000000000000000FE00318035
:103CE00030C030C030603060306030603060306094
:103CF0003060306030C030C03180FE000000000015
:103D0000000000000000000000000000FFC060C0D4
:103D1000602060206000610061007F006100610040
:103D200061006000602060206040FFC00000000073
:103D3000000000000000000000000000FFC060C0A4
:103D4000602060206000610061007F006100610010
:103D500061006000600060006000F800000000008A
:103D60000000000000000000000000000F001880AC
:103D7000304030402040600060006000600063F030
:103D800060C060C030C030C018C00F00000000002C
:103D9000000000000000000000000000F0F0606083
:103DA000606060606060606060607FE06060606074
:103DB00060606060606060606060F0F00000000063
:103DC0000000000000000000000000003FC00600EE
:103DD00006000600060006000600060006000600B3
:103DE000060006000600060006003FC000000000B6
:103DF0000000000000000000000000001FE00300C1
:103E0000030003000300030003000300030003009A
:103E100003000300030003000300030063006600C7
:103E20003C0000000000000000000000F3C06180C2
:103E300063006200640068006C0074007600620039
:103E4000630061006180608060C0F1E000000000FC
:103E5000000000000000000000000000F80060000A
:103E60006000600060006000600060006000600052
:103E700060006000602060206040FFC00000000023
:103E8000000000000000000000000000E0E061C051
:103E900061C071C071C072C072C052C05AC05AC0F5
:103EA0005CC04CC04CC04CC048C0E1E00000000009
:103EB00000000000000000000000000071F0304031
:103EC000384038402C402C40264026402240234099
:103ED000214021C021C020C020C0F84000000000C7
:103EE0000000000000000000000000000F0019802A
:103EF00030C03040606060606060606060606060E2
:103F000060606060304030C019800F000000000029
:103F1000000000000000000000000000FF0060C082
:103F20006060606060606060606061C07F006000D1
:103F300060006000600060006000F80000000000A9
:103F40000000000000000000000000000F001980C9
:103F500030C0304060606060606060606060606081
:103F600060606E60324033C019800F0001E000C015
:103F7000000000000000000000000000FF8060C0A2
:103F8000606060606060606060C07F0062006300CD
:103F90006100618060C060C06060F070000000007F
:103FA0000000000000000000000000001F4030C0C2
:103FB00060406040600070003C001F0007C001C00E
:103FC00000E040604060606030C00F800000000092
:103FD0000000000000000000000000007FE046201C
:103FE0008610861006000600060006000600060081
:103FF000060006000600060006001F800000000004
:1040000000000000000000000000000078E03040E8
:104010003040304030403040304030403040304020
:10402000304030403040304018800F000000000029
:10403000000000000000000000000000F0E0604010
:10404000208020803080308011001100190019007C
:104050000A000A000E000C0004000400000000002A
:10406000000000000000000000000000EF7046208B
:1040700042206220622026402640274027403940C7
:104080003980198019801180110011000000000092
:1040900000000000000000000000000079E0308017
:1040A0001080188009000D000600040006000600BC
:1040B0000B0009001180108020C071E0000000009A
:1040C000000000000000000000000000F0F0602090
:1040D00020403040108018801D000D000E000600AA
:1040E000060006000600060006001F800000000013
:1040F0000000000000000000000000003FE0304031
:1041000060C0408001800100020002000400040041
:10411000080018001020302020407FC00000000060
:1041200000000000000007C00400040004000400B8
:10413000040004000400040004000400040004005F
:10414000040004000400040004000400040007C08C
:10415000000000000000000000002000200010000F
:10416000100008000800080004000400020002001B
:10417000030001000100008000800040004000407A
:104180000020000000003E000200020002000200C9
:10419000020002000200020002000200020002000F
:1041A00002000200020002000200020002003E00C3
:1041B0000000000006000900108000000000000060
:1041C00000000000000000000000000000000000EF
:1041D00000000000000000000000000000000000DF
:1041E00000000000000000000000000000000000CF
:1041F00000000000000000000000000000000000BF
:1042000000000000000000000000000000000000AE
:10421000FFF0000000001800060000000000000091
:10422000000000000000000000000000000000008E
:10423000000000000000000000000000000000007E
:10424000000000000000000000000000000000006E
:104250000000000000000F8030C030C000C007C068
:1042600038C070C060C060C071D03E7000000000F7
:10427000000000000000000000001000700030008E
:1042800030003000300033803CC038603060306037
:10429000306030603060304038C02780000000005F
:1042A000000000000000000000000000000000000E
:1042B0000000000000000F0031803180618060004C
:1042C000600060006040304030800F00000000005F
:1042D00000000000000000000000004003C000C01B
:1042E00000C000C000C01EC031C030C060C060C08F
:1042F00060C060C060C020C031E01E8000000000CF
:1043000000000000000000000000000000000000AD
:10431000000000000000078018C0104030603060CE
:104320003FE03000300018201840078000000000F7
:1043300000000000000000000000000003C0066054
:104340000C600C000C007F800C000C000C000C00BA
:104350000C000C000C000C000C003F800000000062
:10436000000000000000000000000000000000004D
:104370000000000000000FE01B60318031803180C0
:1043800019801F0030003F0033C060C060C071C0A2
:104390001F0000000000000000001000700030004E
:1043A000300030003000378038C030C030C030C0FE
:1043B00030C030C030C030C030C079E000000000F4
:1043C00000000000000000000000000006000600E1
:1043D0000000000002003E00060006000600060085
:1043E000060006000600060006003FC000000000B0
:1043F00000000000000000000000000003800380B7
:104400000000000000800F80018001800180018099
:1044100001800180018001800180018001803300E2
:104420003E0000000000000000001000700030009E
:1044300030003000300031C0310031003200360031
:104440003A0031003180308030C079E00000000057
:104450000000000000000000000002003E00060016
:10446000060006000600060006000600060006001C
:10447000060006000600060006003FC0000000001F
:10448000000000000000000000000000000000002C
:10449000000000000000ECE0776066606660666027
:1044A00066606660666066606660FFF0000000003F
:1044B00000000000000000000000000000000000FC
:1044C000000000000000778038C030C030C030C02D
:1044D00030C030C030C030C030C079E000000000D3
:1044E00000000000000000000000000000000000CC
:1044F0000000000000000F00198030C060606060A4
:1045000060606060606030C030C00F00000000007C
:10451000000000000000000000000000000000009B
:10452000000000000000778038C0306030603060EC
:1045300030603060306030C038C0378030003000CC
:104540007C000000000000000000000000000000EF
:104550000000000000001E4031C030C060C060C0DC
:1045600060C060C060C020C031C01EC000C000C0BC
:1045700003E0000000000000000000000000000058
:10458000000000000000F9C01A601C60180018004C
:1045900018001800180018001800FF0000000000A4
:1045A000000000000000000000000000000000000B
:1045B0000000000000000FC038C0304030401C0038
:1045C0000F0003C020C020C031C03F8000000000A9
:1045D00000000000000000000000000000000400D7
:1045E00004000C000C007F800C000C000C000C0080
:1045F0000C000C000C000C400C4007800000000078
:1046000000000000000000000000000000000000AA
:1046100000000000104071C030C030C030C030C059
:1046200030C030C030C030C039E01E800000000013
:10463000000000000000000000000000000000007A
:1046400000000000000078E03040108010801880EA
:1046500009000D000D000600060004000000000027
:10466000000000000000000000000000000000004A
:10467000000000000000EF70462062202640264027
:10468000374039801980198019801000000000001F
:10469000000000000000000000000000000000001A
:1046A0000000000000003DE0188008800D000600BA
:1046B000060007000900108010C079E0000000002B
:1046C00000000000000000000000000000000000EA
:1046D00000000000000079E01080108010800900C8
:1046E00009000D0006000600060004000400240076
:1046F0003800000000000000000000000000000082
:104700000000000000003F802180230022000600FE
:1047100004000C001840104030C03F800000000032
:1047200000000000000000C00100010001000100C5
:10473000010001000100010002000400020001006C
:10474000010001000100010001000100010000C0A2
:10475000000002000200020002000200020002004B
:104760000200020002000200020002000200020039
:104770000200020002000200020002000200020029
:1047800002000000000030000800080008000800D7
:1047900008000800080008000400020004000800E7
:1047A00008000800080008000800080008003000A1
:1047B0000000000038004420432001C00000000039
:1047C00000000000000000000000000000000000E9
:1047D00000000000000000000000000000000000D9
:1047E00000000000000000000000000000000000C9
:1047F00000000000000000000000000000000000B9
:1048000000000000000000000000000000000000A8
:104810000000000000000000000000000000000098
:104820000000000000000000000000000000000088
:104830000000000000000000000000000000000078
:104840000000000000000000000000000000000068
:104850000000000000000000000000000000000058
:10486000000000000000000000000000000003C085
:1048700003C003C003C003C003C001C001800180A6
:104880000180018001800180018001800000000022
:104890000000018003C003C0018000000000000090
:1048A0000000000000000000000000000000000008
:1048B00000000000000000000000000000000000F8
:1048C00000000000000000000000000000000000E8
:1048D00000000000000000000000000000000000D8
:1048E0000000000000000318073807380E700C6045
:1048F00018C031802100000000000000000000000E
:1049000000000000000000000000000000000000A7
:104910000000000000000000000000000000000097
:104920000000000000000000000000000000000087
:104930000000000000000000000000000000000077
:104940000000000000000000000000000000000067
:104950000000000000000000000000000000000057
:10496000000000000000000000000000000004083B
:1049700004080408040804087FFE7FFE7FFE081078
:10498000081008100810081008107FFE7FFE7FFE38
:10499000183010201020102010200000000000000F
:1049A0000000000000000000000000000000000007
:1049B00000000000000000000000000000000000F7
:1049C00000000000000000000000000000000000E7
:1049D00000000000000000000000000000000000D7
:1049E000000000000000000000000100010003C002
:1049F0000D3009181918193819381D000D000F004D
:104A0000070003C001E001F0013001380118391836
:104A1000391831183130196007C001000100010058
:104A20000000000000000000000000000000000086
:104A30000000000000000000000000000000000076
:104A40000000000000000000000000000000000066
:104A50000000000000000000000000000000000056
:104A600000000000000000000000000000003810FE
:104A70006C104420C620C640C640C640C680C680D2
:104A800044806D38396C024402C602C604C604C6AE
:104A900008C608C60844106C10380000000000006A
:104AA0000000000000000000000000000000000006
:104AB00000000000000000000000000000000000F6
:104AC00000000000000000000000000000000000E6
:104AD00000000000000000000000000000000000D6
:104AE00000000000000000000000000000000F00B7
:104AF00019003180318031803180310033003A003B
:104B00001C00387C3C104C10CE10C620C720C3209F
:104B1000C1C0C1C260E6317C1E3800000000000048
:104B20000000000000000000000000000000000085
:104B30000000000000000000000000000000000075
:104B40000000000000000000000000000000000065
:104B50000000000000000000000000000000000055
:104B600000000000000038003C003C000C000C007D
:104B7000080030006000000000000000000000009D
:104B80000000000000000000000000000000000025
:104B90000000000000000000000000000000000015
:104BA0000000000000000000000000000000000005
:104BB00000000000000000000000000000000000F5
:104BC00000000000000000000000000000000000E5
:104BD00000000000000000000000000000000000D5
:104BE000000000000000000200040008001800306F
:104BF00000200060004000C000C0018001800180F2
:104C000001800180018001800180018000C000C01E
:104C1000004000600020003000180008000400027E
:104C20000000000000000000000000000000000084
:104C30000000000000000000000000000000000074
:104C40000000000000000000000000000000000064
:104C50000000000000000000000000000000000054
:104C600000000000000040002000100018000C00B0
:104C7000040006000200030003000180018001809F
:104C80000180018001800180018001800300030018
:104C90000300060004000C00180010002000400073
:104CA0000000000000000000000000000000000004
:104CB00000000000000000000000000000000000F4
:104CC00000000000000000000000000000000000E4
:104CD00000000000000000000000000000000000D4
:104CE00000000000000000000000000000000000C4
:104CF000000000C001C001C030C6388E1C9C06B048
:104D000001C001C006B01C9C388E318601C001C0B4
:104D100001C00000000000000000000000000000D2
:104D20000000000000000000000000000000000083
:104D30000000000000000000000000000000000073
:104D40000000000000000000000000000000000063
:104D50000000000000000000000000000000000053
:104D60000000000000000000000000000000000043
:104D70000000000000800080008000800080008033
:104D800000803FFE00800080008000800080008066
:104D90000080000000000000000000000000000093
:104DA0000000000000000000000000000000000003
:104DB00000000000000000000000000000000000F3
:104DC00000000000000000000000000000000000E3
:104DD00000000000000000000000000000000000D3
:104DE00000000000000000000000000000000000C3
:104DF00000000000000000000000000000000000B3
:104E000000000000000000000000000000000000A2
:104E1000000038003C003C000C000C000800300092
:104E20006000000000000000000000000000000022
:104E30000000000000000000000000000000000072
:104E40000000000000000000000000000000000062
:104E50000000000000000000000000000000000052
:104E60000000000000000000000000000000000042
:104E70000000000000000000000000000000000032
:104E800000007FFE000000000000000000000000A5
:104E90000000000000000000000000000000000012
:104EA0000000000000000000000000000000000002
:104EB00000000000000000000000000000000000F2
:104EC00000000000000000000000000000000000E2
:104ED00000000000000000000000000000000000D2
:104EE00000000000000000000000000000000000C2
:104EF00000000000000000000000000000000000B2
:104F000000000000000000000000000000000000A1
:104F1000000018003C003C001800000000000000E9
:104F20000000000000000000000000000000000081
:104F30000000000000000000000000000000000071
:104F40000000000000000000000000000000000061
:104F50000000000000000000000000000000000051
:104F60000000000000000000000200060004000C29
:104F7000000800180010003000200060004000C051
:104F800000800180010003000200060004000C0004
:104F900008001800100030002000600040000000F1
:104FA0000000000000000000000000000000000001
:104FB00000000000000000000000000000000000F1
:104FC00000000000000000000000000000000000E1
:104FD00000000000000000000000000000000000D1
:104FE000000000000000000000000000000003C0FE
:104FF00006200C30181818181808300C300C300C1B
:10500000300C300C300C300C300C300C300C1808DC
:10501000181818180C30062003C00000000000000B
:105020000000000000000000000000000000000080
:105030000000000000000000000000000000000070
:105040000000000000000000000000000000000060
:105050000000000000000000000000000000000050
:1050600000000000000000000000000000000080C0
:1050700001801F800180018001800180018001800A
:105080000180018001800180018001800180018018
:1050900001800180018003C01FF8000000000000B3
:1050A0000000000000000000000000000000000000
:1050B00000000000000000000000000000000000F0
:1050C00000000000000000000000000000000000E0
:1050D00000000000000000000000000000000000D0
:1050E000000000000000000000000000000007E0D9
:1050F00008381018200C200C300C300C000C001854
:1051000000180030006000C00180030002000404A9
:1051100008041004200C3FF83FF8000000000000D5
:10512000000000000000000000000000000000007F
:10513000000000000000000000000000000000006F
:10514000000000000000000000000000000000005F
:10515000000000000000000000000000000000004F
:10516000000000000000000000000000000007C078
:10517000186030303018301830180018001800301F
:10518000006003C0007000180008000C000C300C18
:10519000300C30083018183007C000000000000044
:1051A00000000000000000000000000000000000FF
:1051B00000000000000000000000000000000000EF
:1051C00000000000000000000000000000000000DF
:1051D00000000000000000000000000000000000CF
:1051E000000000000000000000000000000000605F
:1051F000006000E000E001600160026004600460A3
:105200000860086010603060206040607FFC0060D3
:10521000006000600060006003FC0000000000000F
:10522000000000000000000000000000000000007E
:10523000000000000000000000000000000000006E
:10524000000000000000000000000000000000005E
:10525000000000000000000000000000000000004E
:1052600000000000000000000000000000000FFC33
:105270000FFC10001000100010001000100013E0D0
:10528000143018181008000C000C000C000C300C26
:10529000300C20182018183007C000000000000053
:1052A00000000000000000000000000000000000FE
:1052B00000000000000000000000000000000000EE
:1052C00000000000000000000000000000000000DE
:1052D00000000000000000000000000000000000CE
:1052E000000000000000000000000000000001E0DD
:1052F00006180C180818180010001000300033E0D1
:10530000363038183808300C300C300C300C300C7B
:10531000180C18080C180E3003E000000000000004
:10532000000000000000000000000000000000007D
:10533000000000000000000000000000000000006D
:10534000000000000000000000000000000000005D
:10535000000000000000000000000000000000004D
:1053600000000000000000000000000000001FFC22
:105370001FFC1008301020102020002000400040AA
:1053800000400080008001000100010001000300D6
:1053900003000300030003000300000000000000FE
:1053A00000000000000000000000000000000000FD
:1053B00000000000000000000000000000000000ED
:1053C00000000000000000000000000000000000DD
:1053D00000000000000000000000000000000000CD
:1053E000000000000000000000000000000007E0D6
:1053F0000C301818300C300C300C380C38081E18D3
:105400000F2007C018F030783038601C600C600C3A
:10541000600C600C3018183007C00000000000005D
:10542000000000000000000000000000000000007C
:10543000000000000000000000000000000000006C
:10544000000000000000000000000000000000005C
:10545000000000000000000000000000000000004C
:10546000000000000000000000000000000007C075
:105470001820301030186008600C600C600C600C54
:10548000600C701C302C186C0F8C000C001800186D
:1054900000103030306030C00F800000000000008D
:1054A00000000000000000000000000000000000FC
:1054B00000000000000000000000000000000000EC
:1054C00000000000000000000000000000000000DC
:1054D00000000000000000000000000000000000CC
:1054E00000000000000000000000000000000000BC
:1054F000000000000000000000000000018003C068
:1055000003C0018000000000000000000000000057
:105510000000018003C003C0018000000000000003
:10552000000000000000000000000000000000007B
:10553000000000000000000000000000000000006B
:10554000000000000000000000000000000000005B
:10555000000000000000000000000000000000004B
:10556000000000000000000000000000000000003B
:1055700000000000000000000000000000000380A8
:105580000380038000000000000000000000000015
:1055900000000000038003800380018003000300FB
:1055A00000000000000000000000000000000000FB
:1055B00000000000000000000000000000000000EB
:1055C00000000000000000000000000000000000DB
:1055D00000000000000000000000000000000000CB
:1055E00000000000000000000000000000000004B7
:1055F00000080010002000400080010002000400AC
:1056000008001000100008000400020001000080E3
:10561000004000200010000800040000000000000E
:10562000000000000000000000000000000000007A
:10563000000000000000000000000000000000006A
:10564000000000000000000000000000000000005A
:10565000000000000000000000000000000000004A
:10566000000000000000000000000000000000003A
:105670000000000000000000000000007FFE0000AD
:1056800000000000000000007FFE0000000000009D
:10569000000000000000000000000000000000000A
:1056A00000000000000000000000000000000000FA
:1056B00000000000000000000000000000000000EA
:1056C00000000000000000000000000000000000DA
:1056D00000000000000000000000000000000000CA
:1056E000000000000000000000000000000020009A
:1056F00010000800040002000100008000400020AB
:105700000010000800080010002000400080010088
:10571000020004000800100020000000000000004B
:105720000000000000000000000000000000000079
:105730000000000000000000000000000000000069
:105740000000000000000000000000000000000059
:105750000000000000000000000000000000000049
:10576000000000000000000000000000000003E056
:105770000C18180C10063006380638063806000CCF
:105780000018007000C000800080008000800000D1
:105790000000018003C003C0018000000000000081
:1057A00000000000000000000000000000000000F9
:1057B00000000000000000000000000000000000E9
:1057C00000000000000000000000000000000000D9
:1057D00000000000000000000000000000000000C9
:1057E000000000000000000000000000000003E0D6
:1057F00006100C08180430D431B22132633263220F
:1058000066226622662266626664666426E8333033
:1058100030021004180C0C1803E000000000000017
:105820000000000000000000000000000000000078
:105830000000000000000000000000000000000068
:105840000000000000000000000000000000000058
:105850000000000000000000000000000000000048
:1058600000000000000000000000000000000380B5
:1058700003800380038004C004C004C004C00C4043
:1058800008600860086008201FF0103010301030E9
:10589000201820182018601CF83E000000000000AE
:1058A00000000000000000000000000000000000F8
:1058B00000000000000000000000000000000000E8
:1058C00000000000000000000000000000000000D8
:1058D00000000000000000000000000000000000C8
:1058E00000000000000000000000000000007FE059
:1058F00018381818180C180C180C180C180C181844
:1059000018301FE01818180C180418061806180686
:1059100018061806180C18187FF000000000000088
:105920000000000000000000000000000000000077
:105930000000000000000000000000000000000067
:105940000000000000000000000000000000000057
:105950000000000000000000000000000000000047
:10596000000000000000000000000000000003E054
:10597000061C080C1806300230023000600060007F
:105980006000600060006000600060006000300245
:105990003002100418080C1003E0000000000000A2
:1059A00000000000000000000000000000000000F7
:1059B00000000000000000000000000000000000E7
:1059C00000000000000000000000000000000000D7
:1059D00000000000000000000000000000000000C7
:1059E00000000000000000000000000000007FC078
:1059F000187018181808180C180C1806180618062D
:105A00001806180618061806180618061804180CA2
:105A1000180C1818181818607FC00000000000004B
:105A20000000000000000000000000000000000076
:105A30000000000000000000000000000000000066
:105A40000000000000000000000000000000000056
:105A50000000000000000000000000000000000046
:105A600000000000000000000000000000007FFCBB
:105A7000180C180418021802180018001810181032
:105A800018301FF0183018101810180018001800DF
:105A9000180218021804180C7FFC00000000000017
:105AA00000000000000000000000000000000000F6
:105AB00000000000000000000000000000000000E6
:105AC00000000000000000000000000000000000D6
:105AD00000000000000000000000000000000000C6
